{"contracts/LiquidityPool.sol":{"LiquidityPool":{"abi":[{"inputs":[{"internalType":"address","name":"_token","type":"address"}],"stateMutability":"nonpayable","type":"constructor"},{"inputs":[{"internalType":"address","name":"caller","type":"address"}],"name":"LiquidityPool_CallerIsNotBorrower","type":"error"},{"inputs":[{"internalType":"address","name":"caller","type":"address"}],"name":"LiquidityPool_CallerIsNotLiquidityProvider","type":"error"},{"inputs":[],"name":"LiquidityPool_InsufficientLiquidity","type":"error"},{"anonymous":false,"inputs":[{"indexed":false,"internalType":"address","name":"borrower","type":"address"},{"indexed":false,"internalType":"uint256","name":"amount","type":"uint256"}],"name":"Borrowed","type":"event"},{"anonymous":false,"inputs":[{"indexed":false,"internalType":"address","name":"liquidityProvider","type":"address"},{"indexed":false,"internalType":"uint256","name":"amount","type":"uint256"}],"name":"LiquidityAdded","type":"event"},{"anonymous":false,"inputs":[{"indexed":false,"internalType":"address","name":"liquidityProvider","type":"address"},{"indexed":false,"internalType":"uint256","name":"amount","type":"uint256"}],"name":"LiquidityWithdrawn","type":"event"},{"anonymous":false,"inputs":[{"indexed":false,"internalType":"address","name":"borrower","type":"address"},{"indexed":false,"internalType":"uint256","name":"amount","type":"uint256"}],"name":"Repaid","type":"event"},{"inputs":[{"internalType":"uint256","name":"amount","type":"uint256"}],"name":"borrow","outputs":[],"stateMutability":"nonpayable","type":"function"},{"inputs":[{"internalType":"uint256","name":"amount","type":"uint256"}],"name":"deposit","outputs":[],"stateMutability":"nonpayable","type":"function"},{"inputs":[{"internalType":"address","name":"borrower","type":"address"}],"name":"getBorrowerBalance","outputs":[{"internalType":"uint256","name":"","type":"uint256"}],"stateMutability":"view","type":"function"},{"inputs":[{"internalType":"address","name":"borrower","type":"address"}],"name":"getDebt","outputs":[{"internalType":"uint256","name":"","type":"uint256"}],"stateMutability":"view","type":"function"},{"inputs":[{"internalType":"address","name":"liquidityProvider","type":"address"}],"name":"getLiquidityProviderBalance","outputs":[{"internalType":"uint256","name":"","type":"uint256"}],"stateMutability":"view","type":"function"},{"inputs":[{"internalType":"uint256","name":"amount","type":"uint256"}],"name":"repay","outputs":[],"stateMutability":"nonpayable","type":"function"},{"inputs":[],"name":"token","outputs":[{"internalType":"contract IERC20","name":"","type":"address"}],"stateMutability":"view","type":"function"},{"inputs":[],"name":"totalDebt","outputs":[{"internalType":"uint256","name":"","type":"uint256"}],"stateMutability":"view","type":"function"},{"inputs":[{"internalType":"uint256","name":"amount","type":"uint256"}],"name":"withdraw","outputs":[],"stateMutability":"nonpayable","type":"function"}],"devdoc":{"kind":"dev","methods":{},"version":1},"evm":{"bytecode":{"linkReferences":{},"object":"60806040523480156200001157600080fd5b50604051620018fa380380620018fa833981810160405281019062000037919062000123565b620000536792ed73cae3bdb94f60c01b620000b660201b60201c565b6200006f67133b92a1f3d5916e60c01b620000b660201b60201c565b806000806101000a81548173ffffffffffffffffffffffffffffffffffffffff021916908373ffffffffffffffffffffffffffffffffffffffff1602179055505062000155565b50565b600080fd5b600073ffffffffffffffffffffffffffffffffffffffff82169050919050565b6000620000eb82620000be565b9050919050565b620000fd81620000de565b81146200010957600080fd5b50565b6000815190506200011d81620000f2565b92915050565b6000602082840312156200013c576200013b620000b9565b5b60006200014c848285016200010c565b91505092915050565b61179580620001656000396000f3fe608060405234801561001057600080fd5b50600436106100935760003560e01c8063aac5116411610066578063aac5116414610130578063b6b55f2514610160578063c5ebeaec1461017c578063fc0c546a14610198578063fc7b9c18146101b657610093565b80632e1a7d4d14610098578063371fd8e6146100b45780637e15b0b2146100d05780639a78e72e14610100575b600080fd5b6100b260048036038101906100ad919061119b565b6101d4565b005b6100ce60048036038101906100c9919061119b565b610556565b005b6100ea60048036038101906100e59190611226565b610814565b6040516100f79190611262565b60405180910390f35b61011a60048036038101906101159190611226565b610899565b6040516101279190611262565b60405180910390f35b61014a60048036038101906101459190611226565b61091e565b6040516101579190611262565b60405180910390f35b61017a6004803603810190610175919061119b565b6109a3565b005b6101966004803603810190610191919061119b565b610ae8565b005b6101a0610d8f565b6040516101ad91906112dc565b60405180910390f35b6101be610db3565b6040516101cb9190611262565b60405180910390f35b6101e8677dcdc802df479de460c01b610db9565b336101fd6703c237b4ae98499360c01b610db9565b61021167beb16f0ee04d38a060c01b610db9565b61022567fd339e0114da843360c01b610db9565b6000600260008373ffffffffffffffffffffffffffffffffffffffff1673ffffffffffffffffffffffffffffffffffffffff16815260200190815260200160002054036102d157610280673be560de6f6f7b4560c01b610db9565b61029467a496699269dfe2dc60c01b610db9565b806040517fc39893f50000000000000000000000000000000000000000000000000000000081526004016102c89190611306565b60405180910390fd5b6102e567b123abbe9aa8ba9a60c01b610db9565b6102f96766929a113aaff7d160c01b610db9565b61030d67ecf16df3297546c860c01b610db9565b6103216785ac717d8aa3ee0460c01b610db9565b61033567429f38697d153c8660c01b610db9565b61034967460cac6be6e6e78d60c01b610db9565b600260003373ffffffffffffffffffffffffffffffffffffffff1673ffffffffffffffffffffffffffffffffffffffff168152602001908152602001600020548211156103ff576103a467cab7b10221340de460c01b610db9565b6103b867e58e372bbbc5fa5f60c01b610db9565b600260003373ffffffffffffffffffffffffffffffffffffffff1673ffffffffffffffffffffffffffffffffffffffff168152602001908152602001600020549150610414565b61041367ec437d8661a25d7e60c01b610db9565b5b61042867296f8f2e3b6e9e7b60c01b610db9565b61043c6778e5b3beae34859b60c01b610db9565b610487338360008054906101000a900473ffffffffffffffffffffffffffffffffffffffff1673ffffffffffffffffffffffffffffffffffffffff16610dbc9092919063ffffffff16565b61049b67fedc9526f8b2df9560c01b610db9565b81600260003373ffffffffffffffffffffffffffffffffffffffff1673ffffffffffffffffffffffffffffffffffffffff16815260200190815260200160002060008282546104ea9190611350565b9250508190555061050567b08e869d3f5ed92860c01b610db9565b61051967365539a71c07467060c01b610db9565b7fb1cce8684b4ffa8667b4577654e61ee3480d661ee9c27522ac80e211f6bd4d25338360405161054a929190611384565b60405180910390a15050565b61056a67f7f84fb38b34550460c01b610db9565b3361057f677a67c72c4f69c59960c01b610db9565b610593673664efc5003fef4c60c01b610db9565b6105a767670549916579a6fa60c01b610db9565b6000600360008373ffffffffffffffffffffffffffffffffffffffff1673ffffffffffffffffffffffffffffffffffffffff1681526020019081526020016000205403610653576106026755b4f74c5c0a7eac60c01b610db9565b61061667b5c7c37df23cf1a860c01b610db9565b806040517fdd05179200000000000000000000000000000000000000000000000000000000815260040161064a9190611306565b60405180910390fd5b61066767ddaeea3c80db49d160c01b610db9565b61067b67a628e332048c3c3660c01b610db9565b61068f67026f0d9abd0b7c1260c01b610db9565b6106a3671819b8e579ea7fc160c01b610db9565b6106b767f7407f3fb028cf6260c01b610db9565b6106cb67ce589402572a1a6b60c01b610db9565b61071833308460008054906101000a900473ffffffffffffffffffffffffffffffffffffffff1673ffffffffffffffffffffffffffffffffffffffff16610e42909392919063ffffffff16565b61072c67fb644f3eff71637f60c01b610db9565b816001600082825461073e9190611350565b9250508190555061075967aaf52dd8340e2c7c60c01b610db9565b81600360003373ffffffffffffffffffffffffffffffffffffffff1673ffffffffffffffffffffffffffffffffffffffff16815260200190815260200160002060008282546107a89190611350565b925050819055506107c367aca92eda7c12240e60c01b610db9565b6107d767aef11dcb0a3210d960c01b610db9565b7f0516911bcc3a0a7412a44601057c0a0a1ec628bde049a84284bc4288665344883383604051610808929190611384565b60405180910390a15050565b600061082a678d6b011ce4e1b7a660c01b610db9565b61083e67e2bad2bd2315481d60c01b610db9565b6108526726737b0da239ea1360c01b610db9565b600360008373ffffffffffffffffffffffffffffffffffffffff1673ffffffffffffffffffffffffffffffffffffffff168152602001908152602001600020549050919050565b60006108af67c06dd25b0d1a719760c01b610db9565b6108c367d81a46ead08958b960c01b610db9565b6108d7673f7d1f066ccc803e60c01b610db9565b600360008373ffffffffffffffffffffffffffffffffffffffff1673ffffffffffffffffffffffffffffffffffffffff168152602001908152602001600020549050919050565b6000610934675edb0a00f5c215ed60c01b610db9565b61094867696f51e4b0c618c660c01b610db9565b61095c67ab979bec39cf1cf260c01b610db9565b600260008373ffffffffffffffffffffffffffffffffffffffff1673ffffffffffffffffffffffffffffffffffffffff168152602001908152602001600020549050919050565b6109b7679fda6ece01cc3c0c60c01b610db9565b6109cb676e86c159c05133e660c01b610db9565b80600260003373ffffffffffffffffffffffffffffffffffffffff1673ffffffffffffffffffffffffffffffffffffffff16815260200190815260200160002081905550610a2367bcef1c902d1384b660c01b610db9565b610a37674f9902756f7b96b860c01b610db9565b610a8433308360008054906101000a900473ffffffffffffffffffffffffffffffffffffffff1673ffffffffffffffffffffffffffffffffffffffff16610e42909392919063ffffffff16565b610a9867ff1761746f035cc960c01b610db9565b610aac6794f2edfdb02534da60c01b610db9565b7fc17cea59c2955cb181b03393209566960365771dbba9dc3d510180e7cb3120883382604051610add929190611384565b60405180910390a150565b610afc671e988e5029d77f0f60c01b610db9565b610b1067ab44d642ffd41f9860c01b610db9565b610b2467ca6761f0d731f04b60c01b610db9565b60008054906101000a900473ffffffffffffffffffffffffffffffffffffffff1673ffffffffffffffffffffffffffffffffffffffff166370a08231306040518263ffffffff1660e01b8152600401610b7d9190611306565b602060405180830381865afa158015610b9a573d6000803e3d6000fd5b505050506040513d601f19601f82011682018060405250810190610bbe91906113c2565b811115610c1f57610bd967b38438d274b47fca60c01b610db9565b610bed6749f7815cdcfaa39c60c01b610db9565b6040517fc447ed9c00000000000000000000000000000000000000000000000000000000815260040160405180910390fd5b610c33675d07b070d360aded60c01b610db9565b610c47673079f4a2c817774860c01b610db9565b610c5b67226650b0bc294bb860c01b610db9565b610ca6338260008054906101000a900473ffffffffffffffffffffffffffffffffffffffff1673ffffffffffffffffffffffffffffffffffffffff16610dbc9092919063ffffffff16565b610cba6755be6fe5e905c64460c01b610db9565b8060016000828254610ccc91906113ef565b92505081905550610ce767ce4a8e121619a0d960c01b610db9565b80600360003373ffffffffffffffffffffffffffffffffffffffff1673ffffffffffffffffffffffffffffffffffffffff16815260200190815260200160002081905550610d3f6776eb1d2f69457c7f60c01b610db9565b610d536748be1d6f2ff5c04f60c01b610db9565b7fac59582e5396aca512fa873a2047e7f4c80f8f55d4a06cb34a78a0187f62719f3382604051610d84929190611384565b60405180910390a150565b60008054906101000a900473ffffffffffffffffffffffffffffffffffffffff1681565b60015481565b50565b610e3d8363a9059cbb60e01b8484604051602401610ddb929190611384565b604051602081830303815290604052907bffffffffffffffffffffffffffffffffffffffffffffffffffffffff19166020820180517bffffffffffffffffffffffffffffffffffffffffffffffffffffffff8381831617835250505050610ecb565b505050565b610ec5846323b872dd60e01b858585604051602401610e6393929190611423565b604051602081830303815290604052907bffffffffffffffffffffffffffffffffffffffffffffffffffffffff19166020820180517bffffffffffffffffffffffffffffffffffffffffffffffffffffffff8381831617835250505050610ecb565b50505050565b6000610f2d826040518060400160405280602081526020017f5361666545524332303a206c6f772d6c6576656c2063616c6c206661696c65648152508573ffffffffffffffffffffffffffffffffffffffff16610f939092919063ffffffff16565b9050600081511480610f4f575080806020019051810190610f4e9190611492565b5b610f8e576040517f08c379a0000000000000000000000000000000000000000000000000000000008152600401610f8590611542565b60405180910390fd5b505050565b6060610fa28484600085610fab565b90509392505050565b606082471015610ff0576040517f08c379a0000000000000000000000000000000000000000000000000000000008152600401610fe7906115d4565b60405180910390fd5b6000808673ffffffffffffffffffffffffffffffffffffffff1685876040516110199190611665565b60006040518083038185875af1925050503d8060008114611056576040519150601f19603f3d011682016040523d82523d6000602084013e61105b565b606091505b509150915061106c87838387611078565b92505050949350505050565b606083156110da5760008351036110d257611092856110ed565b6110d1576040517f08c379a00000000000000000000000000000000000000000000000000000000081526004016110c8906116c8565b60405180910390fd5b5b8290506110e5565b6110e48383611110565b5b949350505050565b6000808273ffffffffffffffffffffffffffffffffffffffff163b119050919050565b6000825111156111235781518083602001fd5b806040517f08c379a0000000000000000000000000000000000000000000000000000000008152600401611157919061173d565b60405180910390fd5b600080fd5b6000819050919050565b61117881611165565b811461118357600080fd5b50565b6000813590506111958161116f565b92915050565b6000602082840312156111b1576111b0611160565b5b60006111bf84828501611186565b91505092915050565b600073ffffffffffffffffffffffffffffffffffffffff82169050919050565b60006111f3826111c8565b9050919050565b611203816111e8565b811461120e57600080fd5b50565b600081359050611220816111fa565b92915050565b60006020828403121561123c5761123b611160565b5b600061124a84828501611211565b91505092915050565b61125c81611165565b82525050565b60006020820190506112776000830184611253565b92915050565b6000819050919050565b60006112a261129d611298846111c8565b61127d565b6111c8565b9050919050565b60006112b482611287565b9050919050565b60006112c6826112a9565b9050919050565b6112d6816112bb565b82525050565b60006020820190506112f160008301846112cd565b92915050565b611300816111e8565b82525050565b600060208201905061131b60008301846112f7565b92915050565b7f4e487b7100000000000000000000000000000000000000000000000000000000600052601160045260246000fd5b600061135b82611165565b915061136683611165565b925082820390508181111561137e5761137d611321565b5b92915050565b600060408201905061139960008301856112f7565b6113a66020830184611253565b9392505050565b6000815190506113bc8161116f565b92915050565b6000602082840312156113d8576113d7611160565b5b60006113e6848285016113ad565b91505092915050565b60006113fa82611165565b915061140583611165565b925082820190508082111561141d5761141c611321565b5b92915050565b600060608201905061143860008301866112f7565b61144560208301856112f7565b6114526040830184611253565b949350505050565b60008115159050919050565b61146f8161145a565b811461147a57600080fd5b50565b60008151905061148c81611466565b92915050565b6000602082840312156114a8576114a7611160565b5b60006114b68482850161147d565b91505092915050565b600082825260208201905092915050565b7f5361666545524332303a204552433230206f7065726174696f6e20646964206e60008201527f6f74207375636365656400000000000000000000000000000000000000000000602082015250565b600061152c602a836114bf565b9150611537826114d0565b604082019050919050565b6000602082019050818103600083015261155b8161151f565b9050919050565b7f416464726573733a20696e73756666696369656e742062616c616e636520666f60008201527f722063616c6c0000000000000000000000000000000000000000000000000000602082015250565b60006115be6026836114bf565b91506115c982611562565b604082019050919050565b600060208201905081810360008301526115ed816115b1565b9050919050565b600081519050919050565b600081905092915050565b60005b8381101561162857808201518184015260208101905061160d565b60008484015250505050565b600061163f826115f4565b61164981856115ff565b935061165981856020860161160a565b80840191505092915050565b60006116718284611634565b915081905092915050565b7f416464726573733a2063616c6c20746f206e6f6e2d636f6e7472616374000000600082015250565b60006116b2601d836114bf565b91506116bd8261167c565b602082019050919050565b600060208201905081810360008301526116e1816116a5565b9050919050565b600081519050919050565b6000601f19601f8301169050919050565b600061170f826116e8565b61171981856114bf565b935061172981856020860161160a565b611732816116f3565b840191505092915050565b600060208201905081810360008301526117578184611704565b90509291505056fea26469706673582212204ada322d89875af5bc7195bbf289066bb5a82b50dc692cb3091977492f0c677864736f6c63430008170033","opcodes":"PUSH1 0x80 PUSH1 0x40 MSTORE CALLVALUE DUP1 ISZERO PUSH3 0x11 JUMPI PUSH1 0x0 DUP1 REVERT JUMPDEST POP PUSH1 0x40 MLOAD PUSH3 0x18FA CODESIZE SUB DUP1 PUSH3 0x18FA DUP4 CODECOPY DUP2 DUP2 ADD PUSH1 0x40 MSTORE DUP2 ADD SWAP1 PUSH3 0x37 SWAP2 SWAP1 PUSH3 0x123 JUMP JUMPDEST PUSH3 0x53 PUSH8 0x92ED73CAE3BDB94F PUSH1 0xC0 SHL PUSH3 0xB6 PUSH1 0x20 SHL PUSH1 0x20 SHR JUMP JUMPDEST PUSH3 0x6F PUSH8 0x133B92A1F3D5916E PUSH1 0xC0 SHL PUSH3 0xB6 PUSH1 0x20 SHL PUSH1 0x20 SHR JUMP JUMPDEST DUP1 PUSH1 0x0 DUP1 PUSH2 0x100 EXP DUP2 SLOAD DUP2 PUSH20 0xFFFFFFFFFFFFFFFFFFFFFFFFFFFFFFFFFFFFFFFF MUL NOT AND SWAP1 DUP4 PUSH20 0xFFFFFFFFFFFFFFFFFFFFFFFFFFFFFFFFFFFFFFFF AND MUL OR SWAP1 SSTORE POP POP PUSH3 0x155 JUMP JUMPDEST POP JUMP JUMPDEST PUSH1 0x0 DUP1 REVERT JUMPDEST PUSH1 0x0 PUSH20 0xFFFFFFFFFFFFFFFFFFFFFFFFFFFFFFFFFFFFFFFF DUP3 AND SWAP1 POP SWAP2 SWAP1 POP JUMP JUMPDEST PUSH1 0x0 PUSH3 0xEB DUP3 PUSH3 0xBE JUMP JUMPDEST SWAP1 POP SWAP2 SWAP1 POP JUMP JUMPDEST PUSH3 0xFD DUP2 PUSH3 0xDE JUMP JUMPDEST DUP2 EQ PUSH3 0x109 JUMPI PUSH1 0x0 DUP1 REVERT JUMPDEST POP JUMP JUMPDEST PUSH1 0x0 DUP2 MLOAD SWAP1 POP PUSH3 0x11D DUP2 PUSH3 0xF2 JUMP JUMPDEST SWAP3 SWAP2 POP POP JUMP JUMPDEST PUSH1 0x0 PUSH1 0x20 DUP3 DUP5 SUB SLT ISZERO PUSH3 0x13C JUMPI PUSH3 0x13B PUSH3 0xB9 JUMP JUMPDEST JUMPDEST PUSH1 0x0 PUSH3 0x14C DUP5 DUP3 DUP6 ADD PUSH3 0x10C JUMP JUMPDEST SWAP2 POP POP SWAP3 SWAP2 POP POP JUMP JUMPDEST PUSH2 0x1795 DUP1 PUSH3 0x165 PUSH1 0x0 CODECOPY PUSH1 0x0 RETURN INVALID PUSH1 0x80 PUSH1 0x40 MSTORE CALLVALUE DUP1 ISZERO PUSH2 0x10 JUMPI PUSH1 0x0 DUP1 REVERT JUMPDEST POP PUSH1 0x4 CALLDATASIZE LT PUSH2 0x93 JUMPI PUSH1 0x0 CALLDATALOAD PUSH1 0xE0 SHR DUP1 PUSH4 0xAAC51164 GT PUSH2 0x66 JUMPI DUP1 PUSH4 0xAAC51164 EQ PUSH2 0x130 JUMPI DUP1 PUSH4 0xB6B55F25 EQ PUSH2 0x160 JUMPI DUP1 PUSH4 0xC5EBEAEC EQ PUSH2 0x17C JUMPI DUP1 PUSH4 0xFC0C546A EQ PUSH2 0x198 JUMPI DUP1 PUSH4 0xFC7B9C18 EQ PUSH2 0x1B6 JUMPI PUSH2 0x93 JUMP JUMPDEST DUP1 PUSH4 0x2E1A7D4D EQ PUSH2 0x98 JUMPI DUP1 PUSH4 0x371FD8E6 EQ PUSH2 0xB4 JUMPI DUP1 PUSH4 0x7E15B0B2 EQ PUSH2 0xD0 JUMPI DUP1 PUSH4 0x9A78E72E EQ PUSH2 0x100 JUMPI JUMPDEST PUSH1 0x0 DUP1 REVERT JUMPDEST PUSH2 0xB2 PUSH1 0x4 DUP1 CALLDATASIZE SUB DUP2 ADD SWAP1 PUSH2 0xAD SWAP2 SWAP1 PUSH2 0x119B JUMP JUMPDEST PUSH2 0x1D4 JUMP JUMPDEST STOP JUMPDEST PUSH2 0xCE PUSH1 0x4 DUP1 CALLDATASIZE SUB DUP2 ADD SWAP1 PUSH2 0xC9 SWAP2 SWAP1 PUSH2 0x119B JUMP JUMPDEST PUSH2 0x556 JUMP JUMPDEST STOP JUMPDEST PUSH2 0xEA PUSH1 0x4 DUP1 CALLDATASIZE SUB DUP2 ADD SWAP1 PUSH2 0xE5 SWAP2 SWAP1 PUSH2 0x1226 JUMP JUMPDEST PUSH2 0x814 JUMP JUMPDEST PUSH1 0x40 MLOAD PUSH2 0xF7 SWAP2 SWAP1 PUSH2 0x1262 JUMP JUMPDEST PUSH1 0x40 MLOAD DUP1 SWAP2 SUB SWAP1 RETURN JUMPDEST PUSH2 0x11A PUSH1 0x4 DUP1 CALLDATASIZE SUB DUP2 ADD SWAP1 PUSH2 0x115 SWAP2 SWAP1 PUSH2 0x1226 JUMP JUMPDEST PUSH2 0x899 JUMP JUMPDEST PUSH1 0x40 MLOAD PUSH2 0x127 SWAP2 SWAP1 PUSH2 0x1262 JUMP JUMPDEST PUSH1 0x40 MLOAD DUP1 SWAP2 SUB SWAP1 RETURN JUMPDEST PUSH2 0x14A PUSH1 0x4 DUP1 CALLDATASIZE SUB DUP2 ADD SWAP1 PUSH2 0x145 SWAP2 SWAP1 PUSH2 0x1226 JUMP JUMPDEST PUSH2 0x91E JUMP JUMPDEST PUSH1 0x40 MLOAD PUSH2 0x157 SWAP2 SWAP1 PUSH2 0x1262 JUMP JUMPDEST PUSH1 0x40 MLOAD DUP1 SWAP2 SUB SWAP1 RETURN JUMPDEST PUSH2 0x17A PUSH1 0x4 DUP1 CALLDATASIZE SUB DUP2 ADD SWAP1 PUSH2 0x175 SWAP2 SWAP1 PUSH2 0x119B JUMP JUMPDEST PUSH2 0x9A3 JUMP JUMPDEST STOP JUMPDEST PUSH2 0x196 PUSH1 0x4 DUP1 CALLDATASIZE SUB DUP2 ADD SWAP1 PUSH2 0x191 SWAP2 SWAP1 PUSH2 0x119B JUMP JUMPDEST PUSH2 0xAE8 JUMP JUMPDEST STOP JUMPDEST PUSH2 0x1A0 PUSH2 0xD8F JUMP JUMPDEST PUSH1 0x40 MLOAD PUSH2 0x1AD SWAP2 SWAP1 PUSH2 0x12DC JUMP JUMPDEST PUSH1 0x40 MLOAD DUP1 SWAP2 SUB SWAP1 RETURN JUMPDEST PUSH2 0x1BE PUSH2 0xDB3 JUMP JUMPDEST PUSH1 0x40 MLOAD PUSH2 0x1CB SWAP2 SWAP1 PUSH2 0x1262 JUMP JUMPDEST PUSH1 0x40 MLOAD DUP1 SWAP2 SUB SWAP1 RETURN JUMPDEST PUSH2 0x1E8 PUSH8 0x7DCDC802DF479DE4 PUSH1 0xC0 SHL PUSH2 0xDB9 JUMP JUMPDEST CALLER PUSH2 0x1FD PUSH8 0x3C237B4AE984993 PUSH1 0xC0 SHL PUSH2 0xDB9 JUMP JUMPDEST PUSH2 0x211 PUSH8 0xBEB16F0EE04D38A0 PUSH1 0xC0 SHL PUSH2 0xDB9 JUMP JUMPDEST PUSH2 0x225 PUSH8 0xFD339E0114DA8433 PUSH1 0xC0 SHL PUSH2 0xDB9 JUMP JUMPDEST PUSH1 0x0 PUSH1 0x2 PUSH1 0x0 DUP4 PUSH20 0xFFFFFFFFFFFFFFFFFFFFFFFFFFFFFFFFFFFFFFFF AND PUSH20 0xFFFFFFFFFFFFFFFFFFFFFFFFFFFFFFFFFFFFFFFF AND DUP2 MSTORE PUSH1 0x20 ADD SWAP1 DUP2 MSTORE PUSH1 0x20 ADD PUSH1 0x0 KECCAK256 SLOAD SUB PUSH2 0x2D1 JUMPI PUSH2 0x280 PUSH8 0x3BE560DE6F6F7B45 PUSH1 0xC0 SHL PUSH2 0xDB9 JUMP JUMPDEST PUSH2 0x294 PUSH8 0xA496699269DFE2DC PUSH1 0xC0 SHL PUSH2 0xDB9 JUMP JUMPDEST DUP1 PUSH1 0x40 MLOAD PUSH32 0xC39893F500000000000000000000000000000000000000000000000000000000 DUP2 MSTORE PUSH1 0x4 ADD PUSH2 0x2C8 SWAP2 SWAP1 PUSH2 0x1306 JUMP JUMPDEST PUSH1 0x40 MLOAD DUP1 SWAP2 SUB SWAP1 REVERT JUMPDEST PUSH2 0x2E5 PUSH8 0xB123ABBE9AA8BA9A PUSH1 0xC0 SHL PUSH2 0xDB9 JUMP JUMPDEST PUSH2 0x2F9 PUSH8 0x66929A113AAFF7D1 PUSH1 0xC0 SHL PUSH2 0xDB9 JUMP JUMPDEST PUSH2 0x30D PUSH8 0xECF16DF3297546C8 PUSH1 0xC0 SHL PUSH2 0xDB9 JUMP JUMPDEST PUSH2 0x321 PUSH8 0x85AC717D8AA3EE04 PUSH1 0xC0 SHL PUSH2 0xDB9 JUMP JUMPDEST PUSH2 0x335 PUSH8 0x429F38697D153C86 PUSH1 0xC0 SHL PUSH2 0xDB9 JUMP JUMPDEST PUSH2 0x349 PUSH8 0x460CAC6BE6E6E78D PUSH1 0xC0 SHL PUSH2 0xDB9 JUMP JUMPDEST PUSH1 0x2 PUSH1 0x0 CALLER PUSH20 0xFFFFFFFFFFFFFFFFFFFFFFFFFFFFFFFFFFFFFFFF AND PUSH20 0xFFFFFFFFFFFFFFFFFFFFFFFFFFFFFFFFFFFFFFFF AND DUP2 MSTORE PUSH1 0x20 ADD SWAP1 DUP2 MSTORE PUSH1 0x20 ADD PUSH1 0x0 KECCAK256 SLOAD DUP3 GT ISZERO PUSH2 0x3FF JUMPI PUSH2 0x3A4 PUSH8 0xCAB7B10221340DE4 PUSH1 0xC0 SHL PUSH2 0xDB9 JUMP JUMPDEST PUSH2 0x3B8 PUSH8 0xE58E372BBBC5FA5F PUSH1 0xC0 SHL PUSH2 0xDB9 JUMP JUMPDEST PUSH1 0x2 PUSH1 0x0 CALLER PUSH20 0xFFFFFFFFFFFFFFFFFFFFFFFFFFFFFFFFFFFFFFFF AND PUSH20 0xFFFFFFFFFFFFFFFFFFFFFFFFFFFFFFFFFFFFFFFF AND DUP2 MSTORE PUSH1 0x20 ADD SWAP1 DUP2 MSTORE PUSH1 0x20 ADD PUSH1 0x0 KECCAK256 SLOAD SWAP2 POP PUSH2 0x414 JUMP JUMPDEST PUSH2 0x413 PUSH8 0xEC437D8661A25D7E PUSH1 0xC0 SHL PUSH2 0xDB9 JUMP JUMPDEST JUMPDEST PUSH2 0x428 PUSH8 0x296F8F2E3B6E9E7B PUSH1 0xC0 SHL PUSH2 0xDB9 JUMP JUMPDEST PUSH2 0x43C PUSH8 0x78E5B3BEAE34859B PUSH1 0xC0 SHL PUSH2 0xDB9 JUMP JUMPDEST PUSH2 0x487 CALLER DUP4 PUSH1 0x0 DUP1 SLOAD SWAP1 PUSH2 0x100 EXP SWAP1 DIV PUSH20 0xFFFFFFFFFFFFFFFFFFFFFFFFFFFFFFFFFFFFFFFF AND PUSH20 0xFFFFFFFFFFFFFFFFFFFFFFFFFFFFFFFFFFFFFFFF AND PUSH2 0xDBC SWAP1 SWAP3 SWAP2 SWAP1 PUSH4 0xFFFFFFFF AND JUMP JUMPDEST PUSH2 0x49B PUSH8 0xFEDC9526F8B2DF95 PUSH1 0xC0 SHL PUSH2 0xDB9 JUMP JUMPDEST DUP2 PUSH1 0x2 PUSH1 0x0 CALLER PUSH20 0xFFFFFFFFFFFFFFFFFFFFFFFFFFFFFFFFFFFFFFFF AND PUSH20 0xFFFFFFFFFFFFFFFFFFFFFFFFFFFFFFFFFFFFFFFF AND DUP2 MSTORE PUSH1 0x20 ADD SWAP1 DUP2 MSTORE PUSH1 0x20 ADD PUSH1 0x0 KECCAK256 PUSH1 0x0 DUP3 DUP3 SLOAD PUSH2 0x4EA SWAP2 SWAP1 PUSH2 0x1350 JUMP JUMPDEST SWAP3 POP POP DUP2 SWAP1 SSTORE POP PUSH2 0x505 PUSH8 0xB08E869D3F5ED928 PUSH1 0xC0 SHL PUSH2 0xDB9 JUMP JUMPDEST PUSH2 0x519 PUSH8 0x365539A71C074670 PUSH1 0xC0 SHL PUSH2 0xDB9 JUMP JUMPDEST PUSH32 0xB1CCE8684B4FFA8667B4577654E61EE3480D661EE9C27522AC80E211F6BD4D25 CALLER DUP4 PUSH1 0x40 MLOAD PUSH2 0x54A SWAP3 SWAP2 SWAP1 PUSH2 0x1384 JUMP JUMPDEST PUSH1 0x40 MLOAD DUP1 SWAP2 SUB SWAP1 LOG1 POP POP JUMP JUMPDEST PUSH2 0x56A PUSH8 0xF7F84FB38B345504 PUSH1 0xC0 SHL PUSH2 0xDB9 JUMP JUMPDEST CALLER PUSH2 0x57F PUSH8 0x7A67C72C4F69C599 PUSH1 0xC0 SHL PUSH2 0xDB9 JUMP JUMPDEST PUSH2 0x593 PUSH8 0x3664EFC5003FEF4C PUSH1 0xC0 SHL PUSH2 0xDB9 JUMP JUMPDEST PUSH2 0x5A7 PUSH8 0x670549916579A6FA PUSH1 0xC0 SHL PUSH2 0xDB9 JUMP JUMPDEST PUSH1 0x0 PUSH1 0x3 PUSH1 0x0 DUP4 PUSH20 0xFFFFFFFFFFFFFFFFFFFFFFFFFFFFFFFFFFFFFFFF AND PUSH20 0xFFFFFFFFFFFFFFFFFFFFFFFFFFFFFFFFFFFFFFFF AND DUP2 MSTORE PUSH1 0x20 ADD SWAP1 DUP2 MSTORE PUSH1 0x20 ADD PUSH1 0x0 KECCAK256 SLOAD SUB PUSH2 0x653 JUMPI PUSH2 0x602 PUSH8 0x55B4F74C5C0A7EAC PUSH1 0xC0 SHL PUSH2 0xDB9 JUMP JUMPDEST PUSH2 0x616 PUSH8 0xB5C7C37DF23CF1A8 PUSH1 0xC0 SHL PUSH2 0xDB9 JUMP JUMPDEST DUP1 PUSH1 0x40 MLOAD PUSH32 0xDD05179200000000000000000000000000000000000000000000000000000000 DUP2 MSTORE PUSH1 0x4 ADD PUSH2 0x64A SWAP2 SWAP1 PUSH2 0x1306 JUMP JUMPDEST PUSH1 0x40 MLOAD DUP1 SWAP2 SUB SWAP1 REVERT JUMPDEST PUSH2 0x667 PUSH8 0xDDAEEA3C80DB49D1 PUSH1 0xC0 SHL PUSH2 0xDB9 JUMP JUMPDEST PUSH2 0x67B PUSH8 0xA628E332048C3C36 PUSH1 0xC0 SHL PUSH2 0xDB9 JUMP JUMPDEST PUSH2 0x68F PUSH8 0x26F0D9ABD0B7C12 PUSH1 0xC0 SHL PUSH2 0xDB9 JUMP JUMPDEST PUSH2 0x6A3 PUSH8 0x1819B8E579EA7FC1 PUSH1 0xC0 SHL PUSH2 0xDB9 JUMP JUMPDEST PUSH2 0x6B7 PUSH8 0xF7407F3FB028CF62 PUSH1 0xC0 SHL PUSH2 0xDB9 JUMP JUMPDEST PUSH2 0x6CB PUSH8 0xCE589402572A1A6B PUSH1 0xC0 SHL PUSH2 0xDB9 JUMP JUMPDEST PUSH2 0x718 CALLER ADDRESS DUP5 PUSH1 0x0 DUP1 SLOAD SWAP1 PUSH2 0x100 EXP SWAP1 DIV PUSH20 0xFFFFFFFFFFFFFFFFFFFFFFFFFFFFFFFFFFFFFFFF AND PUSH20 0xFFFFFFFFFFFFFFFFFFFFFFFFFFFFFFFFFFFFFFFF AND PUSH2 0xE42 SWAP1 SWAP4 SWAP3 SWAP2 SWAP1 PUSH4 0xFFFFFFFF AND JUMP JUMPDEST PUSH2 0x72C PUSH8 0xFB644F3EFF71637F PUSH1 0xC0 SHL PUSH2 0xDB9 JUMP JUMPDEST DUP2 PUSH1 0x1 PUSH1 0x0 DUP3 DUP3 SLOAD PUSH2 0x73E SWAP2 SWAP1 PUSH2 0x1350 JUMP JUMPDEST SWAP3 POP POP DUP2 SWAP1 SSTORE POP PUSH2 0x759 PUSH8 0xAAF52DD8340E2C7C PUSH1 0xC0 SHL PUSH2 0xDB9 JUMP JUMPDEST DUP2 PUSH1 0x3 PUSH1 0x0 CALLER PUSH20 0xFFFFFFFFFFFFFFFFFFFFFFFFFFFFFFFFFFFFFFFF AND PUSH20 0xFFFFFFFFFFFFFFFFFFFFFFFFFFFFFFFFFFFFFFFF AND DUP2 MSTORE PUSH1 0x20 ADD SWAP1 DUP2 MSTORE PUSH1 0x20 ADD PUSH1 0x0 KECCAK256 PUSH1 0x0 DUP3 DUP3 SLOAD PUSH2 0x7A8 SWAP2 SWAP1 PUSH2 0x1350 JUMP JUMPDEST SWAP3 POP POP DUP2 SWAP1 SSTORE POP PUSH2 0x7C3 PUSH8 0xACA92EDA7C12240E PUSH1 0xC0 SHL PUSH2 0xDB9 JUMP JUMPDEST PUSH2 0x7D7 PUSH8 0xAEF11DCB0A3210D9 PUSH1 0xC0 SHL PUSH2 0xDB9 JUMP JUMPDEST PUSH32 0x516911BCC3A0A7412A44601057C0A0A1EC628BDE049A84284BC428866534488 CALLER DUP4 PUSH1 0x40 MLOAD PUSH2 0x808 SWAP3 SWAP2 SWAP1 PUSH2 0x1384 JUMP JUMPDEST PUSH1 0x40 MLOAD DUP1 SWAP2 SUB SWAP1 LOG1 POP POP JUMP JUMPDEST PUSH1 0x0 PUSH2 0x82A PUSH8 0x8D6B011CE4E1B7A6 PUSH1 0xC0 SHL PUSH2 0xDB9 JUMP JUMPDEST PUSH2 0x83E PUSH8 0xE2BAD2BD2315481D PUSH1 0xC0 SHL PUSH2 0xDB9 JUMP JUMPDEST PUSH2 0x852 PUSH8 0x26737B0DA239EA13 PUSH1 0xC0 SHL PUSH2 0xDB9 JUMP JUMPDEST PUSH1 0x3 PUSH1 0x0 DUP4 PUSH20 0xFFFFFFFFFFFFFFFFFFFFFFFFFFFFFFFFFFFFFFFF AND PUSH20 0xFFFFFFFFFFFFFFFFFFFFFFFFFFFFFFFFFFFFFFFF AND DUP2 MSTORE PUSH1 0x20 ADD SWAP1 DUP2 MSTORE PUSH1 0x20 ADD PUSH1 0x0 KECCAK256 SLOAD SWAP1 POP SWAP2 SWAP1 POP JUMP JUMPDEST PUSH1 0x0 PUSH2 0x8AF PUSH8 0xC06DD25B0D1A7197 PUSH1 0xC0 SHL PUSH2 0xDB9 JUMP JUMPDEST PUSH2 0x8C3 PUSH8 0xD81A46EAD08958B9 PUSH1 0xC0 SHL PUSH2 0xDB9 JUMP JUMPDEST PUSH2 0x8D7 PUSH8 0x3F7D1F066CCC803E PUSH1 0xC0 SHL PUSH2 0xDB9 JUMP JUMPDEST PUSH1 0x3 PUSH1 0x0 DUP4 PUSH20 0xFFFFFFFFFFFFFFFFFFFFFFFFFFFFFFFFFFFFFFFF AND PUSH20 0xFFFFFFFFFFFFFFFFFFFFFFFFFFFFFFFFFFFFFFFF AND DUP2 MSTORE PUSH1 0x20 ADD SWAP1 DUP2 MSTORE PUSH1 0x20 ADD PUSH1 0x0 KECCAK256 SLOAD SWAP1 POP SWAP2 SWAP1 POP JUMP JUMPDEST PUSH1 0x0 PUSH2 0x934 PUSH8 0x5EDB0A00F5C215ED PUSH1 0xC0 SHL PUSH2 0xDB9 JUMP JUMPDEST PUSH2 0x948 PUSH8 0x696F51E4B0C618C6 PUSH1 0xC0 SHL PUSH2 0xDB9 JUMP JUMPDEST PUSH2 0x95C PUSH8 0xAB979BEC39CF1CF2 PUSH1 0xC0 SHL PUSH2 0xDB9 JUMP JUMPDEST PUSH1 0x2 PUSH1 0x0 DUP4 PUSH20 0xFFFFFFFFFFFFFFFFFFFFFFFFFFFFFFFFFFFFFFFF AND PUSH20 0xFFFFFFFFFFFFFFFFFFFFFFFFFFFFFFFFFFFFFFFF AND DUP2 MSTORE PUSH1 0x20 ADD SWAP1 DUP2 MSTORE PUSH1 0x20 ADD PUSH1 0x0 KECCAK256 SLOAD SWAP1 POP SWAP2 SWAP1 POP JUMP JUMPDEST PUSH2 0x9B7 PUSH8 0x9FDA6ECE01CC3C0C PUSH1 0xC0 SHL PUSH2 0xDB9 JUMP JUMPDEST PUSH2 0x9CB PUSH8 0x6E86C159C05133E6 PUSH1 0xC0 SHL PUSH2 0xDB9 JUMP JUMPDEST DUP1 PUSH1 0x2 PUSH1 0x0 CALLER PUSH20 0xFFFFFFFFFFFFFFFFFFFFFFFFFFFFFFFFFFFFFFFF AND PUSH20 0xFFFFFFFFFFFFFFFFFFFFFFFFFFFFFFFFFFFFFFFF AND DUP2 MSTORE PUSH1 0x20 ADD SWAP1 DUP2 MSTORE PUSH1 0x20 ADD PUSH1 0x0 KECCAK256 DUP2 SWAP1 SSTORE POP PUSH2 0xA23 PUSH8 0xBCEF1C902D1384B6 PUSH1 0xC0 SHL PUSH2 0xDB9 JUMP JUMPDEST PUSH2 0xA37 PUSH8 0x4F9902756F7B96B8 PUSH1 0xC0 SHL PUSH2 0xDB9 JUMP JUMPDEST PUSH2 0xA84 CALLER ADDRESS DUP4 PUSH1 0x0 DUP1 SLOAD SWAP1 PUSH2 0x100 EXP SWAP1 DIV PUSH20 0xFFFFFFFFFFFFFFFFFFFFFFFFFFFFFFFFFFFFFFFF AND PUSH20 0xFFFFFFFFFFFFFFFFFFFFFFFFFFFFFFFFFFFFFFFF AND PUSH2 0xE42 SWAP1 SWAP4 SWAP3 SWAP2 SWAP1 PUSH4 0xFFFFFFFF AND JUMP JUMPDEST PUSH2 0xA98 PUSH8 0xFF1761746F035CC9 PUSH1 0xC0 SHL PUSH2 0xDB9 JUMP JUMPDEST PUSH2 0xAAC PUSH8 0x94F2EDFDB02534DA PUSH1 0xC0 SHL PUSH2 0xDB9 JUMP JUMPDEST PUSH32 0xC17CEA59C2955CB181B03393209566960365771DBBA9DC3D510180E7CB312088 CALLER DUP3 PUSH1 0x40 MLOAD PUSH2 0xADD SWAP3 SWAP2 SWAP1 PUSH2 0x1384 JUMP JUMPDEST PUSH1 0x40 MLOAD DUP1 SWAP2 SUB SWAP1 LOG1 POP JUMP JUMPDEST PUSH2 0xAFC PUSH8 0x1E988E5029D77F0F PUSH1 0xC0 SHL PUSH2 0xDB9 JUMP JUMPDEST PUSH2 0xB10 PUSH8 0xAB44D642FFD41F98 PUSH1 0xC0 SHL PUSH2 0xDB9 JUMP JUMPDEST PUSH2 0xB24 PUSH8 0xCA6761F0D731F04B PUSH1 0xC0 SHL PUSH2 0xDB9 JUMP JUMPDEST PUSH1 0x0 DUP1 SLOAD SWAP1 PUSH2 0x100 EXP SWAP1 DIV PUSH20 0xFFFFFFFFFFFFFFFFFFFFFFFFFFFFFFFFFFFFFFFF AND PUSH20 0xFFFFFFFFFFFFFFFFFFFFFFFFFFFFFFFFFFFFFFFF AND PUSH4 0x70A08231 ADDRESS PUSH1 0x40 MLOAD DUP3 PUSH4 0xFFFFFFFF AND PUSH1 0xE0 SHL DUP2 MSTORE PUSH1 0x4 ADD PUSH2 0xB7D SWAP2 SWAP1 PUSH2 0x1306 JUMP JUMPDEST PUSH1 0x20 PUSH1 0x40 MLOAD DUP1 DUP4 SUB DUP2 DUP7 GAS STATICCALL ISZERO DUP1 ISZERO PUSH2 0xB9A JUMPI RETURNDATASIZE PUSH1 0x0 DUP1 RETURNDATACOPY RETURNDATASIZE PUSH1 0x0 REVERT JUMPDEST POP POP POP POP PUSH1 0x40 MLOAD RETURNDATASIZE PUSH1 0x1F NOT PUSH1 0x1F DUP3 ADD AND DUP3 ADD DUP1 PUSH1 0x40 MSTORE POP DUP2 ADD SWAP1 PUSH2 0xBBE SWAP2 SWAP1 PUSH2 0x13C2 JUMP JUMPDEST DUP2 GT ISZERO PUSH2 0xC1F JUMPI PUSH2 0xBD9 PUSH8 0xB38438D274B47FCA PUSH1 0xC0 SHL PUSH2 0xDB9 JUMP JUMPDEST PUSH2 0xBED PUSH8 0x49F7815CDCFAA39C PUSH1 0xC0 SHL PUSH2 0xDB9 JUMP JUMPDEST PUSH1 0x40 MLOAD PUSH32 0xC447ED9C00000000000000000000000000000000000000000000000000000000 DUP2 MSTORE PUSH1 0x4 ADD PUSH1 0x40 MLOAD DUP1 SWAP2 SUB SWAP1 REVERT JUMPDEST PUSH2 0xC33 PUSH8 0x5D07B070D360ADED PUSH1 0xC0 SHL PUSH2 0xDB9 JUMP JUMPDEST PUSH2 0xC47 PUSH8 0x3079F4A2C8177748 PUSH1 0xC0 SHL PUSH2 0xDB9 JUMP JUMPDEST PUSH2 0xC5B PUSH8 0x226650B0BC294BB8 PUSH1 0xC0 SHL PUSH2 0xDB9 JUMP JUMPDEST PUSH2 0xCA6 CALLER DUP3 PUSH1 0x0 DUP1 SLOAD SWAP1 PUSH2 0x100 EXP SWAP1 DIV PUSH20 0xFFFFFFFFFFFFFFFFFFFFFFFFFFFFFFFFFFFFFFFF AND PUSH20 0xFFFFFFFFFFFFFFFFFFFFFFFFFFFFFFFFFFFFFFFF AND PUSH2 0xDBC SWAP1 SWAP3 SWAP2 SWAP1 PUSH4 0xFFFFFFFF AND JUMP JUMPDEST PUSH2 0xCBA PUSH8 0x55BE6FE5E905C644 PUSH1 0xC0 SHL PUSH2 0xDB9 JUMP JUMPDEST DUP1 PUSH1 0x1 PUSH1 0x0 DUP3 DUP3 SLOAD PUSH2 0xCCC SWAP2 SWAP1 PUSH2 0x13EF JUMP JUMPDEST SWAP3 POP POP DUP2 SWAP1 SSTORE POP PUSH2 0xCE7 PUSH8 0xCE4A8E121619A0D9 PUSH1 0xC0 SHL PUSH2 0xDB9 JUMP JUMPDEST DUP1 PUSH1 0x3 PUSH1 0x0 CALLER PUSH20 0xFFFFFFFFFFFFFFFFFFFFFFFFFFFFFFFFFFFFFFFF AND PUSH20 0xFFFFFFFFFFFFFFFFFFFFFFFFFFFFFFFFFFFFFFFF AND DUP2 MSTORE PUSH1 0x20 ADD SWAP1 DUP2 MSTORE PUSH1 0x20 ADD PUSH1 0x0 KECCAK256 DUP2 SWAP1 SSTORE POP PUSH2 0xD3F PUSH8 0x76EB1D2F69457C7F PUSH1 0xC0 SHL PUSH2 0xDB9 JUMP JUMPDEST PUSH2 0xD53 PUSH8 0x48BE1D6F2FF5C04F PUSH1 0xC0 SHL PUSH2 0xDB9 JUMP JUMPDEST PUSH32 0xAC59582E5396ACA512FA873A2047E7F4C80F8F55D4A06CB34A78A0187F62719F CALLER DUP3 PUSH1 0x40 MLOAD PUSH2 0xD84 SWAP3 SWAP2 SWAP1 PUSH2 0x1384 JUMP JUMPDEST PUSH1 0x40 MLOAD DUP1 SWAP2 SUB SWAP1 LOG1 POP JUMP JUMPDEST PUSH1 0x0 DUP1 SLOAD SWAP1 PUSH2 0x100 EXP SWAP1 DIV PUSH20 0xFFFFFFFFFFFFFFFFFFFFFFFFFFFFFFFFFFFFFFFF AND DUP2 JUMP JUMPDEST PUSH1 0x1 SLOAD DUP2 JUMP JUMPDEST POP JUMP JUMPDEST PUSH2 0xE3D DUP4 PUSH4 0xA9059CBB PUSH1 0xE0 SHL DUP5 DUP5 PUSH1 0x40 MLOAD PUSH1 0x24 ADD PUSH2 0xDDB SWAP3 SWAP2 SWAP1 PUSH2 0x1384 JUMP JUMPDEST PUSH1 0x40 MLOAD PUSH1 0x20 DUP2 DUP4 SUB SUB DUP2 MSTORE SWAP1 PUSH1 0x40 MSTORE SWAP1 PUSH28 0xFFFFFFFFFFFFFFFFFFFFFFFFFFFFFFFFFFFFFFFFFFFFFFFFFFFFFFFF NOT AND PUSH1 0x20 DUP3 ADD DUP1 MLOAD PUSH28 0xFFFFFFFFFFFFFFFFFFFFFFFFFFFFFFFFFFFFFFFFFFFFFFFFFFFFFFFF DUP4 DUP2 DUP4 AND OR DUP4 MSTORE POP POP POP POP PUSH2 0xECB JUMP JUMPDEST POP POP POP JUMP JUMPDEST PUSH2 0xEC5 DUP5 PUSH4 0x23B872DD PUSH1 0xE0 SHL DUP6 DUP6 DUP6 PUSH1 0x40 MLOAD PUSH1 0x24 ADD PUSH2 0xE63 SWAP4 SWAP3 SWAP2 SWAP1 PUSH2 0x1423 JUMP JUMPDEST PUSH1 0x40 MLOAD PUSH1 0x20 DUP2 DUP4 SUB SUB DUP2 MSTORE SWAP1 PUSH1 0x40 MSTORE SWAP1 PUSH28 0xFFFFFFFFFFFFFFFFFFFFFFFFFFFFFFFFFFFFFFFFFFFFFFFFFFFFFFFF NOT AND PUSH1 0x20 DUP3 ADD DUP1 MLOAD PUSH28 0xFFFFFFFFFFFFFFFFFFFFFFFFFFFFFFFFFFFFFFFFFFFFFFFFFFFFFFFF DUP4 DUP2 DUP4 AND OR DUP4 MSTORE POP POP POP POP PUSH2 0xECB JUMP JUMPDEST POP POP POP POP JUMP JUMPDEST PUSH1 0x0 PUSH2 0xF2D DUP3 PUSH1 0x40 MLOAD DUP1 PUSH1 0x40 ADD PUSH1 0x40 MSTORE DUP1 PUSH1 0x20 DUP2 MSTORE PUSH1 0x20 ADD PUSH32 0x5361666545524332303A206C6F772D6C6576656C2063616C6C206661696C6564 DUP2 MSTORE POP DUP6 PUSH20 0xFFFFFFFFFFFFFFFFFFFFFFFFFFFFFFFFFFFFFFFF AND PUSH2 0xF93 SWAP1 SWAP3 SWAP2 SWAP1 PUSH4 0xFFFFFFFF AND JUMP JUMPDEST SWAP1 POP PUSH1 0x0 DUP2 MLOAD EQ DUP1 PUSH2 0xF4F JUMPI POP DUP1 DUP1 PUSH1 0x20 ADD SWAP1 MLOAD DUP2 ADD SWAP1 PUSH2 0xF4E SWAP2 SWAP1 PUSH2 0x1492 JUMP JUMPDEST JUMPDEST PUSH2 0xF8E JUMPI PUSH1 0x40 MLOAD PUSH32 0x8C379A000000000000000000000000000000000000000000000000000000000 DUP2 MSTORE PUSH1 0x4 ADD PUSH2 0xF85 SWAP1 PUSH2 0x1542 JUMP JUMPDEST PUSH1 0x40 MLOAD DUP1 SWAP2 SUB SWAP1 REVERT JUMPDEST POP POP POP JUMP JUMPDEST PUSH1 0x60 PUSH2 0xFA2 DUP5 DUP5 PUSH1 0x0 DUP6 PUSH2 0xFAB JUMP JUMPDEST SWAP1 POP SWAP4 SWAP3 POP POP POP JUMP JUMPDEST PUSH1 0x60 DUP3 SELFBALANCE LT ISZERO PUSH2 0xFF0 JUMPI PUSH1 0x40 MLOAD PUSH32 0x8C379A000000000000000000000000000000000000000000000000000000000 DUP2 MSTORE PUSH1 0x4 ADD PUSH2 0xFE7 SWAP1 PUSH2 0x15D4 JUMP JUMPDEST PUSH1 0x40 MLOAD DUP1 SWAP2 SUB SWAP1 REVERT JUMPDEST PUSH1 0x0 DUP1 DUP7 PUSH20 0xFFFFFFFFFFFFFFFFFFFFFFFFFFFFFFFFFFFFFFFF AND DUP6 DUP8 PUSH1 0x40 MLOAD PUSH2 0x1019 SWAP2 SWAP1 PUSH2 0x1665 JUMP JUMPDEST PUSH1 0x0 PUSH1 0x40 MLOAD DUP1 DUP4 SUB DUP2 DUP6 DUP8 GAS CALL SWAP3 POP POP POP RETURNDATASIZE DUP1 PUSH1 0x0 DUP2 EQ PUSH2 0x1056 JUMPI PUSH1 0x40 MLOAD SWAP2 POP PUSH1 0x1F NOT PUSH1 0x3F RETURNDATASIZE ADD AND DUP3 ADD PUSH1 0x40 MSTORE RETURNDATASIZE DUP3 MSTORE RETURNDATASIZE PUSH1 0x0 PUSH1 0x20 DUP5 ADD RETURNDATACOPY PUSH2 0x105B JUMP JUMPDEST PUSH1 0x60 SWAP2 POP JUMPDEST POP SWAP2 POP SWAP2 POP PUSH2 0x106C DUP8 DUP4 DUP4 DUP8 PUSH2 0x1078 JUMP JUMPDEST SWAP3 POP POP POP SWAP5 SWAP4 POP POP POP POP JUMP JUMPDEST PUSH1 0x60 DUP4 ISZERO PUSH2 0x10DA JUMPI PUSH1 0x0 DUP4 MLOAD SUB PUSH2 0x10D2 JUMPI PUSH2 0x1092 DUP6 PUSH2 0x10ED JUMP JUMPDEST PUSH2 0x10D1 JUMPI PUSH1 0x40 MLOAD PUSH32 0x8C379A000000000000000000000000000000000000000000000000000000000 DUP2 MSTORE PUSH1 0x4 ADD PUSH2 0x10C8 SWAP1 PUSH2 0x16C8 JUMP JUMPDEST PUSH1 0x40 MLOAD DUP1 SWAP2 SUB SWAP1 REVERT JUMPDEST JUMPDEST DUP3 SWAP1 POP PUSH2 0x10E5 JUMP JUMPDEST PUSH2 0x10E4 DUP4 DUP4 PUSH2 0x1110 JUMP JUMPDEST JUMPDEST SWAP5 SWAP4 POP POP POP POP JUMP JUMPDEST PUSH1 0x0 DUP1 DUP3 PUSH20 0xFFFFFFFFFFFFFFFFFFFFFFFFFFFFFFFFFFFFFFFF AND EXTCODESIZE GT SWAP1 POP SWAP2 SWAP1 POP JUMP JUMPDEST PUSH1 0x0 DUP3 MLOAD GT ISZERO PUSH2 0x1123 JUMPI DUP2 MLOAD DUP1 DUP4 PUSH1 0x20 ADD REVERT JUMPDEST DUP1 PUSH1 0x40 MLOAD PUSH32 0x8C379A000000000000000000000000000000000000000000000000000000000 DUP2 MSTORE PUSH1 0x4 ADD PUSH2 0x1157 SWAP2 SWAP1 PUSH2 0x173D JUMP JUMPDEST PUSH1 0x40 MLOAD DUP1 SWAP2 SUB SWAP1 REVERT JUMPDEST PUSH1 0x0 DUP1 REVERT JUMPDEST PUSH1 0x0 DUP2 SWAP1 POP SWAP2 SWAP1 POP JUMP JUMPDEST PUSH2 0x1178 DUP2 PUSH2 0x1165 JUMP JUMPDEST DUP2 EQ PUSH2 0x1183 JUMPI PUSH1 0x0 DUP1 REVERT JUMPDEST POP JUMP JUMPDEST PUSH1 0x0 DUP2 CALLDATALOAD SWAP1 POP PUSH2 0x1195 DUP2 PUSH2 0x116F JUMP JUMPDEST SWAP3 SWAP2 POP POP JUMP JUMPDEST PUSH1 0x0 PUSH1 0x20 DUP3 DUP5 SUB SLT ISZERO PUSH2 0x11B1 JUMPI PUSH2 0x11B0 PUSH2 0x1160 JUMP JUMPDEST JUMPDEST PUSH1 0x0 PUSH2 0x11BF DUP5 DUP3 DUP6 ADD PUSH2 0x1186 JUMP JUMPDEST SWAP2 POP POP SWAP3 SWAP2 POP POP JUMP JUMPDEST PUSH1 0x0 PUSH20 0xFFFFFFFFFFFFFFFFFFFFFFFFFFFFFFFFFFFFFFFF DUP3 AND SWAP1 POP SWAP2 SWAP1 POP JUMP JUMPDEST PUSH1 0x0 PUSH2 0x11F3 DUP3 PUSH2 0x11C8 JUMP JUMPDEST SWAP1 POP SWAP2 SWAP1 POP JUMP JUMPDEST PUSH2 0x1203 DUP2 PUSH2 0x11E8 JUMP JUMPDEST DUP2 EQ PUSH2 0x120E JUMPI PUSH1 0x0 DUP1 REVERT JUMPDEST POP JUMP JUMPDEST PUSH1 0x0 DUP2 CALLDATALOAD SWAP1 POP PUSH2 0x1220 DUP2 PUSH2 0x11FA JUMP JUMPDEST SWAP3 SWAP2 POP POP JUMP JUMPDEST PUSH1 0x0 PUSH1 0x20 DUP3 DUP5 SUB SLT ISZERO PUSH2 0x123C JUMPI PUSH2 0x123B PUSH2 0x1160 JUMP JUMPDEST JUMPDEST PUSH1 0x0 PUSH2 0x124A DUP5 DUP3 DUP6 ADD PUSH2 0x1211 JUMP JUMPDEST SWAP2 POP POP SWAP3 SWAP2 POP POP JUMP JUMPDEST PUSH2 0x125C DUP2 PUSH2 0x1165 JUMP JUMPDEST DUP3 MSTORE POP POP JUMP JUMPDEST PUSH1 0x0 PUSH1 0x20 DUP3 ADD SWAP1 POP PUSH2 0x1277 PUSH1 0x0 DUP4 ADD DUP5 PUSH2 0x1253 JUMP JUMPDEST SWAP3 SWAP2 POP POP JUMP JUMPDEST PUSH1 0x0 DUP2 SWAP1 POP SWAP2 SWAP1 POP JUMP JUMPDEST PUSH1 0x0 PUSH2 0x12A2 PUSH2 0x129D PUSH2 0x1298 DUP5 PUSH2 0x11C8 JUMP JUMPDEST PUSH2 0x127D JUMP JUMPDEST PUSH2 0x11C8 JUMP JUMPDEST SWAP1 POP SWAP2 SWAP1 POP JUMP JUMPDEST PUSH1 0x0 PUSH2 0x12B4 DUP3 PUSH2 0x1287 JUMP JUMPDEST SWAP1 POP SWAP2 SWAP1 POP JUMP JUMPDEST PUSH1 0x0 PUSH2 0x12C6 DUP3 PUSH2 0x12A9 JUMP JUMPDEST SWAP1 POP SWAP2 SWAP1 POP JUMP JUMPDEST PUSH2 0x12D6 DUP2 PUSH2 0x12BB JUMP JUMPDEST DUP3 MSTORE POP POP JUMP JUMPDEST PUSH1 0x0 PUSH1 0x20 DUP3 ADD SWAP1 POP PUSH2 0x12F1 PUSH1 0x0 DUP4 ADD DUP5 PUSH2 0x12CD JUMP JUMPDEST SWAP3 SWAP2 POP POP JUMP JUMPDEST PUSH2 0x1300 DUP2 PUSH2 0x11E8 JUMP JUMPDEST DUP3 MSTORE POP POP JUMP JUMPDEST PUSH1 0x0 PUSH1 0x20 DUP3 ADD SWAP1 POP PUSH2 0x131B PUSH1 0x0 DUP4 ADD DUP5 PUSH2 0x12F7 JUMP JUMPDEST SWAP3 SWAP2 POP POP JUMP JUMPDEST PUSH32 0x4E487B7100000000000000000000000000000000000000000000000000000000 PUSH1 0x0 MSTORE PUSH1 0x11 PUSH1 0x4 MSTORE PUSH1 0x24 PUSH1 0x0 REVERT JUMPDEST PUSH1 0x0 PUSH2 0x135B DUP3 PUSH2 0x1165 JUMP JUMPDEST SWAP2 POP PUSH2 0x1366 DUP4 PUSH2 0x1165 JUMP JUMPDEST SWAP3 POP DUP3 DUP3 SUB SWAP1 POP DUP2 DUP2 GT ISZERO PUSH2 0x137E JUMPI PUSH2 0x137D PUSH2 0x1321 JUMP JUMPDEST JUMPDEST SWAP3 SWAP2 POP POP JUMP JUMPDEST PUSH1 0x0 PUSH1 0x40 DUP3 ADD SWAP1 POP PUSH2 0x1399 PUSH1 0x0 DUP4 ADD DUP6 PUSH2 0x12F7 JUMP JUMPDEST PUSH2 0x13A6 PUSH1 0x20 DUP4 ADD DUP5 PUSH2 0x1253 JUMP JUMPDEST SWAP4 SWAP3 POP POP POP JUMP JUMPDEST PUSH1 0x0 DUP2 MLOAD SWAP1 POP PUSH2 0x13BC DUP2 PUSH2 0x116F JUMP JUMPDEST SWAP3 SWAP2 POP POP JUMP JUMPDEST PUSH1 0x0 PUSH1 0x20 DUP3 DUP5 SUB SLT ISZERO PUSH2 0x13D8 JUMPI PUSH2 0x13D7 PUSH2 0x1160 JUMP JUMPDEST JUMPDEST PUSH1 0x0 PUSH2 0x13E6 DUP5 DUP3 DUP6 ADD PUSH2 0x13AD JUMP JUMPDEST SWAP2 POP POP SWAP3 SWAP2 POP POP JUMP JUMPDEST PUSH1 0x0 PUSH2 0x13FA DUP3 PUSH2 0x1165 JUMP JUMPDEST SWAP2 POP PUSH2 0x1405 DUP4 PUSH2 0x1165 JUMP JUMPDEST SWAP3 POP DUP3 DUP3 ADD SWAP1 POP DUP1 DUP3 GT ISZERO PUSH2 0x141D JUMPI PUSH2 0x141C PUSH2 0x1321 JUMP JUMPDEST JUMPDEST SWAP3 SWAP2 POP POP JUMP JUMPDEST PUSH1 0x0 PUSH1 0x60 DUP3 ADD SWAP1 POP PUSH2 0x1438 PUSH1 0x0 DUP4 ADD DUP7 PUSH2 0x12F7 JUMP JUMPDEST PUSH2 0x1445 PUSH1 0x20 DUP4 ADD DUP6 PUSH2 0x12F7 JUMP JUMPDEST PUSH2 0x1452 PUSH1 0x40 DUP4 ADD DUP5 PUSH2 0x1253 JUMP JUMPDEST SWAP5 SWAP4 POP POP POP POP JUMP JUMPDEST PUSH1 0x0 DUP2 ISZERO ISZERO SWAP1 POP SWAP2 SWAP1 POP JUMP JUMPDEST PUSH2 0x146F DUP2 PUSH2 0x145A JUMP JUMPDEST DUP2 EQ PUSH2 0x147A JUMPI PUSH1 0x0 DUP1 REVERT JUMPDEST POP JUMP JUMPDEST PUSH1 0x0 DUP2 MLOAD SWAP1 POP PUSH2 0x148C DUP2 PUSH2 0x1466 JUMP JUMPDEST SWAP3 SWAP2 POP POP JUMP JUMPDEST PUSH1 0x0 PUSH1 0x20 DUP3 DUP5 SUB SLT ISZERO PUSH2 0x14A8 JUMPI PUSH2 0x14A7 PUSH2 0x1160 JUMP JUMPDEST JUMPDEST PUSH1 0x0 PUSH2 0x14B6 DUP5 DUP3 DUP6 ADD PUSH2 0x147D JUMP JUMPDEST SWAP2 POP POP SWAP3 SWAP2 POP POP JUMP JUMPDEST PUSH1 0x0 DUP3 DUP3 MSTORE PUSH1 0x20 DUP3 ADD SWAP1 POP SWAP3 SWAP2 POP POP JUMP JUMPDEST PUSH32 0x5361666545524332303A204552433230206F7065726174696F6E20646964206E PUSH1 0x0 DUP3 ADD MSTORE PUSH32 0x6F74207375636365656400000000000000000000000000000000000000000000 PUSH1 0x20 DUP3 ADD MSTORE POP JUMP JUMPDEST PUSH1 0x0 PUSH2 0x152C PUSH1 0x2A DUP4 PUSH2 0x14BF JUMP JUMPDEST SWAP2 POP PUSH2 0x1537 DUP3 PUSH2 0x14D0 JUMP JUMPDEST PUSH1 0x40 DUP3 ADD SWAP1 POP SWAP2 SWAP1 POP JUMP JUMPDEST PUSH1 0x0 PUSH1 0x20 DUP3 ADD SWAP1 POP DUP2 DUP2 SUB PUSH1 0x0 DUP4 ADD MSTORE PUSH2 0x155B DUP2 PUSH2 0x151F JUMP JUMPDEST SWAP1 POP SWAP2 SWAP1 POP JUMP JUMPDEST PUSH32 0x416464726573733A20696E73756666696369656E742062616C616E636520666F PUSH1 0x0 DUP3 ADD MSTORE PUSH32 0x722063616C6C0000000000000000000000000000000000000000000000000000 PUSH1 0x20 DUP3 ADD MSTORE POP JUMP JUMPDEST PUSH1 0x0 PUSH2 0x15BE PUSH1 0x26 DUP4 PUSH2 0x14BF JUMP JUMPDEST SWAP2 POP PUSH2 0x15C9 DUP3 PUSH2 0x1562 JUMP JUMPDEST PUSH1 0x40 DUP3 ADD SWAP1 POP SWAP2 SWAP1 POP JUMP JUMPDEST PUSH1 0x0 PUSH1 0x20 DUP3 ADD SWAP1 POP DUP2 DUP2 SUB PUSH1 0x0 DUP4 ADD MSTORE PUSH2 0x15ED DUP2 PUSH2 0x15B1 JUMP JUMPDEST SWAP1 POP SWAP2 SWAP1 POP JUMP JUMPDEST PUSH1 0x0 DUP2 MLOAD SWAP1 POP SWAP2 SWAP1 POP JUMP JUMPDEST PUSH1 0x0 DUP2 SWAP1 POP SWAP3 SWAP2 POP POP JUMP JUMPDEST PUSH1 0x0 JUMPDEST DUP4 DUP2 LT ISZERO PUSH2 0x1628 JUMPI DUP1 DUP3 ADD MLOAD DUP2 DUP5 ADD MSTORE PUSH1 0x20 DUP2 ADD SWAP1 POP PUSH2 0x160D JUMP JUMPDEST PUSH1 0x0 DUP5 DUP5 ADD MSTORE POP POP POP POP JUMP JUMPDEST PUSH1 0x0 PUSH2 0x163F DUP3 PUSH2 0x15F4 JUMP JUMPDEST PUSH2 0x1649 DUP2 DUP6 PUSH2 0x15FF JUMP JUMPDEST SWAP4 POP PUSH2 0x1659 DUP2 DUP6 PUSH1 0x20 DUP7 ADD PUSH2 0x160A JUMP JUMPDEST DUP1 DUP5 ADD SWAP2 POP POP SWAP3 SWAP2 POP POP JUMP JUMPDEST PUSH1 0x0 PUSH2 0x1671 DUP3 DUP5 PUSH2 0x1634 JUMP JUMPDEST SWAP2 POP DUP2 SWAP1 POP SWAP3 SWAP2 POP POP JUMP JUMPDEST PUSH32 0x416464726573733A2063616C6C20746F206E6F6E2D636F6E7472616374000000 PUSH1 0x0 DUP3 ADD MSTORE POP JUMP JUMPDEST PUSH1 0x0 PUSH2 0x16B2 PUSH1 0x1D DUP4 PUSH2 0x14BF JUMP JUMPDEST SWAP2 POP PUSH2 0x16BD DUP3 PUSH2 0x167C JUMP JUMPDEST PUSH1 0x20 DUP3 ADD SWAP1 POP SWAP2 SWAP1 POP JUMP JUMPDEST PUSH1 0x0 PUSH1 0x20 DUP3 ADD SWAP1 POP DUP2 DUP2 SUB PUSH1 0x0 DUP4 ADD MSTORE PUSH2 0x16E1 DUP2 PUSH2 0x16A5 JUMP JUMPDEST SWAP1 POP SWAP2 SWAP1 POP JUMP JUMPDEST PUSH1 0x0 DUP2 MLOAD SWAP1 POP SWAP2 SWAP1 POP JUMP JUMPDEST PUSH1 0x0 PUSH1 0x1F NOT PUSH1 0x1F DUP4 ADD AND SWAP1 POP SWAP2 SWAP1 POP JUMP JUMPDEST PUSH1 0x0 PUSH2 0x170F DUP3 PUSH2 0x16E8 JUMP JUMPDEST PUSH2 0x1719 DUP2 DUP6 PUSH2 0x14BF JUMP JUMPDEST SWAP4 POP PUSH2 0x1729 DUP2 DUP6 PUSH1 0x20 DUP7 ADD PUSH2 0x160A JUMP JUMPDEST PUSH2 0x1732 DUP2 PUSH2 0x16F3 JUMP JUMPDEST DUP5 ADD SWAP2 POP POP SWAP3 SWAP2 POP POP JUMP JUMPDEST PUSH1 0x0 PUSH1 0x20 DUP3 ADD SWAP1 POP DUP2 DUP2 SUB PUSH1 0x0 DUP4 ADD MSTORE PUSH2 0x1757 DUP2 DUP5 PUSH2 0x1704 JUMP JUMPDEST SWAP1 POP SWAP3 SWAP2 POP POP JUMP INVALID LOG2 PUSH5 0x6970667358 0x22 SLT KECCAK256 0x4A 0xDA ORIGIN 0x2D DUP10 DUP8 GAS CREATE2 0xBC PUSH18 0x95BBF289066BB5A82B50DC692CB309197749 0x2F 0xC PUSH8 0x7864736F6C634300 ADDMOD OR STOP CALLER "},"gasEstimates":{"creation":{"codeDepositCost":"1207400","executionCost":"infinite","totalCost":"infinite"},"external":{"borrow(uint256)":"infinite","deposit(uint256)":"infinite","getBorrowerBalance(address)":"infinite","getDebt(address)":"infinite","getLiquidityProviderBalance(address)":"infinite","repay(uint256)":"infinite","token()":"infinite","totalDebt()":"2517","withdraw(uint256)":"infinite"},"internal":{"c_aa6cddd5(bytes8)":"11","c_falseaa6cddd5(bytes8)":"infinite","c_trueaa6cddd5(bytes8)":"infinite"}},"methodIdentifiers":{"borrow(uint256)":"c5ebeaec","deposit(uint256)":"b6b55f25","getBorrowerBalance(address)":"7e15b0b2","getDebt(address)":"9a78e72e","getLiquidityProviderBalance(address)":"aac51164","repay(uint256)":"371fd8e6","token()":"fc0c546a","totalDebt()":"fc7b9c18","withdraw(uint256)":"2e1a7d4d"}},"storageLayout":{"storage":[{"astId":1671,"contract":"contracts/LiquidityPool.sol:LiquidityPool","label":"token","offset":0,"slot":"0","type":"t_contract(IERC20)777"},{"astId":1673,"contract":"contracts/LiquidityPool.sol:LiquidityPool","label":"totalDebt","offset":0,"slot":"1","type":"t_uint256"},{"astId":1677,"contract":"contracts/LiquidityPool.sol:LiquidityPool","label":"liquidityProviders","offset":0,"slot":"2","type":"t_mapping(t_address,t_uint256)"},{"astId":1681,"contract":"contracts/LiquidityPool.sol:LiquidityPool","label":"borrowers","offset":0,"slot":"3","type":"t_mapping(t_address,t_uint256)"}],"types":{"t_address":{"encoding":"inplace","label":"address","numberOfBytes":"20"},"t_contract(IERC20)777":{"encoding":"inplace","label":"contract IERC20","numberOfBytes":"20"},"t_mapping(t_address,t_uint256)":{"encoding":"mapping","key":"t_address","label":"mapping(address => uint256)","numberOfBytes":"32","value":"t_uint256"},"t_uint256":{"encoding":"inplace","label":"uint256","numberOfBytes":"32"}}},"userdoc":{"kind":"user","methods":{},"version":1}}}}