{"contracts/SimpleOrderBook.sol":{"SimpleOrderBook":{"abi":[{"inputs":[{"internalType":"address","name":"sellToken","type":"address"},{"internalType":"address","name":"buyToken","type":"address"},{"internalType":"uint256","name":"buyAmount","type":"uint256"}],"name":"buy","outputs":[{"internalType":"uint256","name":"soldAmount","type":"uint256"}],"stateMutability":"nonpayable","type":"function"},{"inputs":[{"internalType":"address","name":"sellToken","type":"address"},{"internalType":"address","name":"buyToken","type":"address"},{"internalType":"uint256","name":"sellAmount","type":"uint256"}],"name":"calcAmountToBuy","outputs":[{"internalType":"uint256","name":"buyAmount","type":"uint256"}],"stateMutability":"view","type":"function"},{"inputs":[{"internalType":"address","name":"sellToken","type":"address"},{"internalType":"address","name":"buyToken","type":"address"},{"internalType":"uint256","name":"buyAmount","type":"uint256"}],"name":"calcAmountToSell","outputs":[{"internalType":"uint256","name":"sellAmount","type":"uint256"}],"stateMutability":"view","type":"function"},{"inputs":[{"internalType":"address","name":"sellToken","type":"address"},{"internalType":"address","name":"buyToken","type":"address"},{"internalType":"uint256","name":"sellAmount","type":"uint256"}],"name":"sell","outputs":[{"internalType":"uint256","name":"boughtAmount","type":"uint256"}],"stateMutability":"nonpayable","type":"function"}],"devdoc":{"kind":"dev","methods":{},"version":1},"evm":{"bytecode":{"linkReferences":{},"object":"608060405234801561001057600080fd5b50611276806100206000396000f3fe608060405234801561001057600080fd5b506004361061004c5760003560e01c8063153e66e6146100515780637951f3ef14610081578063cae270b6146100b1578063ce77ba62146100e1575b600080fd5b61006b60048036038101906100669190610bbb565b610111565b6040516100789190610c1d565b60405180910390f35b61009b60048036038101906100969190610bbb565b6101f7565b6040516100a89190610c1d565b60405180910390f35b6100cb60048036038101906100c69190610bbb565b61044c565b6040516100d89190610c1d565b60405180910390f35b6100fb60048036038101906100f69190610bbb565b610532565b6040516101089190610c1d565b60405180910390f35b60006101276724afacf1dd50273f60c01b61077b565b61013b679578ce1605f9ac5e60c01b61077b565b610146848484610532565b905061015c67938fd63021d6993f60c01b61077b565b610170676bd48a071658524f60c01b61077b565b61019d3330838773ffffffffffffffffffffffffffffffffffffffff1661077e909392919063ffffffff16565b6101b1676ad434e4cfe36d4460c01b61077b565b6101c567e45d7ab5d11350ca60c01b61077b565b6101f033838573ffffffffffffffffffffffffffffffffffffffff166108079092919063ffffffff16565b9392505050565b600061020d6776fd3cffcb4f93b960c01b61077b565b610221679b25317d3a66ef6060c01b61077b565b61023567b507c5415381ca3560c01b61077b565b60008473ffffffffffffffffffffffffffffffffffffffff166370a08231306040518263ffffffff1660e01b81526004016102709190610c47565b602060405180830381865afa15801561028d573d6000803e3d6000fd5b505050506040513d601f19601f820116820180604052508101906102b19190610c77565b90506102c767bfab263e069453fc60c01b61077b565b6102db679e0a28dd35874b7f60c01b61077b565b60008473ffffffffffffffffffffffffffffffffffffffff166370a08231306040518263ffffffff1660e01b81526004016103169190610c47565b602060405180830381865afa158015610333573d6000803e3d6000fd5b505050506040513d601f19601f820116820180604052508101906103579190610c77565b905061036d678d84897bf2263c8660c01b61077b565b61038167162c0bfd1f04491160c01b61077b565b61039567c9c0be8c26ea9ef860c01b61077b565b600084836103a39190610cd3565b116103e3576040517f08c379a00000000000000000000000000000000000000000000000000000000081526004016103da90610d64565b60405180910390fd5b6103f767163f098dfbde714c60c01b61077b565b61040b67a83a542f88c9815160c01b61077b565b61041f6714fa7a772a3a809b60c01b61077b565b838261042b9190610cd3565b84826104379190610d84565b6104419190610df5565b925050509392505050565b60006104626777d300f55d13394060c01b61077b565b6104766731ece01951f71dd360c01b61077b565b6104818484846101f7565b905061049767afa64a23fe427a4060c01b61077b565b6104ab67b4528aa84e0f509160c01b61077b565b6104d83330848773ffffffffffffffffffffffffffffffffffffffff1661077e909392919063ffffffff16565b6104ec67b09e7823a1de7bb760c01b61077b565b610500676f486ba8e0338f5560c01b61077b565b61052b33828573ffffffffffffffffffffffffffffffffffffffff166108079092919063ffffffff16565b9392505050565b600061054867225d943d04eff05060c01b61077b565b61055c67f264e9fc0743cf1e60c01b61077b565b610570672133e1e130d49f6e60c01b61077b565b60008473ffffffffffffffffffffffffffffffffffffffff166370a08231306040518263ffffffff1660e01b81526004016105ab9190610c47565b602060405180830381865afa1580156105c8573d6000803e3d6000fd5b505050506040513d601f19601f820116820180604052508101906105ec9190610c77565b9050610602678ed83fedb503955d60c01b61077b565b61061667b0d5009b76cd697a60c01b61077b565b60008473ffffffffffffffffffffffffffffffffffffffff166370a08231306040518263ffffffff1660e01b81526004016106519190610c47565b602060405180830381865afa15801561066e573d6000803e3d6000fd5b505050506040513d601f19601f820116820180604052508101906106929190610c77565b90506106a8678eae403831e4ac4d60c01b61077b565b6106bc67d7f6b98fd233ecea60c01b61077b565b6106d0679daffb9882114a0260c01b61077b565b838111610712576040517f08c379a000000000000000000000000000000000000000000000000000000000815260040161070990610e98565b60405180910390fd5b61072667a76dd448b217e29160c01b61077b565b61073a67841687409a821cde60c01b61077b565b61074e67fd09340c09a1080760c01b61077b565b838161075a9190610eb8565b84836107669190610d84565b6107709190610df5565b925050509392505050565b50565b610801846323b872dd60e01b85858560405160240161079f93929190610eec565b604051602081830303815290604052907bffffffffffffffffffffffffffffffffffffffffffffffffffffffff19166020820180517bffffffffffffffffffffffffffffffffffffffffffffffffffffffff838183161783525050505061088d565b50505050565b6108888363a9059cbb60e01b8484604051602401610826929190610f23565b604051602081830303815290604052907bffffffffffffffffffffffffffffffffffffffffffffffffffffffff19166020820180517bffffffffffffffffffffffffffffffffffffffffffffffffffffffff838183161783525050505061088d565b505050565b60006108ef826040518060400160405280602081526020017f5361666545524332303a206c6f772d6c6576656c2063616c6c206661696c65648152508573ffffffffffffffffffffffffffffffffffffffff166109559092919063ffffffff16565b90506000815114806109115750808060200190518101906109109190610f84565b5b610950576040517f08c379a000000000000000000000000000000000000000000000000000000000815260040161094790611023565b60405180910390fd5b505050565b6060610964848460008561096d565b90509392505050565b6060824710156109b2576040517f08c379a00000000000000000000000000000000000000000000000000000000081526004016109a9906110b5565b60405180910390fd5b6000808673ffffffffffffffffffffffffffffffffffffffff1685876040516109db9190611146565b60006040518083038185875af1925050503d8060008114610a18576040519150601f19603f3d011682016040523d82523d6000602084013e610a1d565b606091505b5091509150610a2e87838387610a3a565b92505050949350505050565b60608315610a9c576000835103610a9457610a5485610aaf565b610a93576040517f08c379a0000000000000000000000000000000000000000000000000000000008152600401610a8a906111a9565b60405180910390fd5b5b829050610aa7565b610aa68383610ad2565b5b949350505050565b6000808273ffffffffffffffffffffffffffffffffffffffff163b119050919050565b600082511115610ae55781518083602001fd5b806040517f08c379a0000000000000000000000000000000000000000000000000000000008152600401610b19919061121e565b60405180910390fd5b600080fd5b600073ffffffffffffffffffffffffffffffffffffffff82169050919050565b6000610b5282610b27565b9050919050565b610b6281610b47565b8114610b6d57600080fd5b50565b600081359050610b7f81610b59565b92915050565b6000819050919050565b610b9881610b85565b8114610ba357600080fd5b50565b600081359050610bb581610b8f565b92915050565b600080600060608486031215610bd457610bd3610b22565b5b6000610be286828701610b70565b9350506020610bf386828701610b70565b9250506040610c0486828701610ba6565b9150509250925092565b610c1781610b85565b82525050565b6000602082019050610c326000830184610c0e565b92915050565b610c4181610b47565b82525050565b6000602082019050610c5c6000830184610c38565b92915050565b600081519050610c7181610b8f565b92915050565b600060208284031215610c8d57610c8c610b22565b5b6000610c9b84828501610c62565b91505092915050565b7f4e487b7100000000000000000000000000000000000000000000000000000000600052601160045260246000fd5b6000610cde82610b85565b9150610ce983610b85565b9250828201905080821115610d0157610d00610ca4565b5b92915050565b600082825260208201905092915050565b7f496e76616c69642073656c6c20616d6f756e74206f7220726573657276650000600082015250565b6000610d4e601e83610d07565b9150610d5982610d18565b602082019050919050565b60006020820190508181036000830152610d7d81610d41565b9050919050565b6000610d8f82610b85565b9150610d9a83610b85565b9250828202610da881610b85565b91508282048414831517610dbf57610dbe610ca4565b5b5092915050565b7f4e487b7100000000000000000000000000000000000000000000000000000000600052601260045260246000fd5b6000610e0082610b85565b9150610e0b83610b85565b925082610e1b57610e1a610dc6565b5b828204905092915050565b7f496e73756666696369656e74207265736572766520666f722062757920616d6f60008201527f756e740000000000000000000000000000000000000000000000000000000000602082015250565b6000610e82602383610d07565b9150610e8d82610e26565b604082019050919050565b60006020820190508181036000830152610eb181610e75565b9050919050565b6000610ec382610b85565b9150610ece83610b85565b9250828203905081811115610ee657610ee5610ca4565b5b92915050565b6000606082019050610f016000830186610c38565b610f0e6020830185610c38565b610f1b6040830184610c0e565b949350505050565b6000604082019050610f386000830185610c38565b610f456020830184610c0e565b9392505050565b60008115159050919050565b610f6181610f4c565b8114610f6c57600080fd5b50565b600081519050610f7e81610f58565b92915050565b600060208284031215610f9a57610f99610b22565b5b6000610fa884828501610f6f565b91505092915050565b7f5361666545524332303a204552433230206f7065726174696f6e20646964206e60008201527f6f74207375636365656400000000000000000000000000000000000000000000602082015250565b600061100d602a83610d07565b915061101882610fb1565b604082019050919050565b6000602082019050818103600083015261103c81611000565b9050919050565b7f416464726573733a20696e73756666696369656e742062616c616e636520666f60008201527f722063616c6c0000000000000000000000000000000000000000000000000000602082015250565b600061109f602683610d07565b91506110aa82611043565b604082019050919050565b600060208201905081810360008301526110ce81611092565b9050919050565b600081519050919050565b600081905092915050565b60005b838110156111095780820151818401526020810190506110ee565b60008484015250505050565b6000611120826110d5565b61112a81856110e0565b935061113a8185602086016110eb565b80840191505092915050565b60006111528284611115565b915081905092915050565b7f416464726573733a2063616c6c20746f206e6f6e2d636f6e7472616374000000600082015250565b6000611193601d83610d07565b915061119e8261115d565b602082019050919050565b600060208201905081810360008301526111c281611186565b9050919050565b600081519050919050565b6000601f19601f8301169050919050565b60006111f0826111c9565b6111fa8185610d07565b935061120a8185602086016110eb565b611213816111d4565b840191505092915050565b6000602082019050818103600083015261123881846111e5565b90509291505056fea2646970667358221220d610109f291e96cb4248c05f46e2b131dac8c34879905e54884894dc0bbdad6e64736f6c63430008170033","opcodes":"PUSH1 0x80 PUSH1 0x40 MSTORE CALLVALUE DUP1 ISZERO PUSH2 0x10 JUMPI PUSH1 0x0 DUP1 REVERT JUMPDEST POP PUSH2 0x1276 DUP1 PUSH2 0x20 PUSH1 0x0 CODECOPY PUSH1 0x0 RETURN INVALID PUSH1 0x80 PUSH1 0x40 MSTORE CALLVALUE DUP1 ISZERO PUSH2 0x10 JUMPI PUSH1 0x0 DUP1 REVERT JUMPDEST POP PUSH1 0x4 CALLDATASIZE LT PUSH2 0x4C JUMPI PUSH1 0x0 CALLDATALOAD PUSH1 0xE0 SHR DUP1 PUSH4 0x153E66E6 EQ PUSH2 0x51 JUMPI DUP1 PUSH4 0x7951F3EF EQ PUSH2 0x81 JUMPI DUP1 PUSH4 0xCAE270B6 EQ PUSH2 0xB1 JUMPI DUP1 PUSH4 0xCE77BA62 EQ PUSH2 0xE1 JUMPI JUMPDEST PUSH1 0x0 DUP1 REVERT JUMPDEST PUSH2 0x6B PUSH1 0x4 DUP1 CALLDATASIZE SUB DUP2 ADD SWAP1 PUSH2 0x66 SWAP2 SWAP1 PUSH2 0xBBB JUMP JUMPDEST PUSH2 0x111 JUMP JUMPDEST PUSH1 0x40 MLOAD PUSH2 0x78 SWAP2 SWAP1 PUSH2 0xC1D JUMP JUMPDEST PUSH1 0x40 MLOAD DUP1 SWAP2 SUB SWAP1 RETURN JUMPDEST PUSH2 0x9B PUSH1 0x4 DUP1 CALLDATASIZE SUB DUP2 ADD SWAP1 PUSH2 0x96 SWAP2 SWAP1 PUSH2 0xBBB JUMP JUMPDEST PUSH2 0x1F7 JUMP JUMPDEST PUSH1 0x40 MLOAD PUSH2 0xA8 SWAP2 SWAP1 PUSH2 0xC1D JUMP JUMPDEST PUSH1 0x40 MLOAD DUP1 SWAP2 SUB SWAP1 RETURN JUMPDEST PUSH2 0xCB PUSH1 0x4 DUP1 CALLDATASIZE SUB DUP2 ADD SWAP1 PUSH2 0xC6 SWAP2 SWAP1 PUSH2 0xBBB JUMP JUMPDEST PUSH2 0x44C JUMP JUMPDEST PUSH1 0x40 MLOAD PUSH2 0xD8 SWAP2 SWAP1 PUSH2 0xC1D JUMP JUMPDEST PUSH1 0x40 MLOAD DUP1 SWAP2 SUB SWAP1 RETURN JUMPDEST PUSH2 0xFB PUSH1 0x4 DUP1 CALLDATASIZE SUB DUP2 ADD SWAP1 PUSH2 0xF6 SWAP2 SWAP1 PUSH2 0xBBB JUMP JUMPDEST PUSH2 0x532 JUMP JUMPDEST PUSH1 0x40 MLOAD PUSH2 0x108 SWAP2 SWAP1 PUSH2 0xC1D JUMP JUMPDEST PUSH1 0x40 MLOAD DUP1 SWAP2 SUB SWAP1 RETURN JUMPDEST PUSH1 0x0 PUSH2 0x127 PUSH8 0x24AFACF1DD50273F PUSH1 0xC0 SHL PUSH2 0x77B JUMP JUMPDEST PUSH2 0x13B PUSH8 0x9578CE1605F9AC5E PUSH1 0xC0 SHL PUSH2 0x77B JUMP JUMPDEST PUSH2 0x146 DUP5 DUP5 DUP5 PUSH2 0x532 JUMP JUMPDEST SWAP1 POP PUSH2 0x15C PUSH8 0x938FD63021D6993F PUSH1 0xC0 SHL PUSH2 0x77B JUMP JUMPDEST PUSH2 0x170 PUSH8 0x6BD48A071658524F PUSH1 0xC0 SHL PUSH2 0x77B JUMP JUMPDEST PUSH2 0x19D CALLER ADDRESS DUP4 DUP8 PUSH20 0xFFFFFFFFFFFFFFFFFFFFFFFFFFFFFFFFFFFFFFFF AND PUSH2 0x77E SWAP1 SWAP4 SWAP3 SWAP2 SWAP1 PUSH4 0xFFFFFFFF AND JUMP JUMPDEST PUSH2 0x1B1 PUSH8 0x6AD434E4CFE36D44 PUSH1 0xC0 SHL PUSH2 0x77B JUMP JUMPDEST PUSH2 0x1C5 PUSH8 0xE45D7AB5D11350CA PUSH1 0xC0 SHL PUSH2 0x77B JUMP JUMPDEST PUSH2 0x1F0 CALLER DUP4 DUP6 PUSH20 0xFFFFFFFFFFFFFFFFFFFFFFFFFFFFFFFFFFFFFFFF AND PUSH2 0x807 SWAP1 SWAP3 SWAP2 SWAP1 PUSH4 0xFFFFFFFF AND JUMP JUMPDEST SWAP4 SWAP3 POP POP POP JUMP JUMPDEST PUSH1 0x0 PUSH2 0x20D PUSH8 0x76FD3CFFCB4F93B9 PUSH1 0xC0 SHL PUSH2 0x77B JUMP JUMPDEST PUSH2 0x221 PUSH8 0x9B25317D3A66EF60 PUSH1 0xC0 SHL PUSH2 0x77B JUMP JUMPDEST PUSH2 0x235 PUSH8 0xB507C5415381CA35 PUSH1 0xC0 SHL PUSH2 0x77B JUMP JUMPDEST PUSH1 0x0 DUP5 PUSH20 0xFFFFFFFFFFFFFFFFFFFFFFFFFFFFFFFFFFFFFFFF AND PUSH4 0x70A08231 ADDRESS PUSH1 0x40 MLOAD DUP3 PUSH4 0xFFFFFFFF AND PUSH1 0xE0 SHL DUP2 MSTORE PUSH1 0x4 ADD PUSH2 0x270 SWAP2 SWAP1 PUSH2 0xC47 JUMP JUMPDEST PUSH1 0x20 PUSH1 0x40 MLOAD DUP1 DUP4 SUB DUP2 DUP7 GAS STATICCALL ISZERO DUP1 ISZERO PUSH2 0x28D JUMPI RETURNDATASIZE PUSH1 0x0 DUP1 RETURNDATACOPY RETURNDATASIZE PUSH1 0x0 REVERT JUMPDEST POP POP POP POP PUSH1 0x40 MLOAD RETURNDATASIZE PUSH1 0x1F NOT PUSH1 0x1F DUP3 ADD AND DUP3 ADD DUP1 PUSH1 0x40 MSTORE POP DUP2 ADD SWAP1 PUSH2 0x2B1 SWAP2 SWAP1 PUSH2 0xC77 JUMP JUMPDEST SWAP1 POP PUSH2 0x2C7 PUSH8 0xBFAB263E069453FC PUSH1 0xC0 SHL PUSH2 0x77B JUMP JUMPDEST PUSH2 0x2DB PUSH8 0x9E0A28DD35874B7F PUSH1 0xC0 SHL PUSH2 0x77B JUMP JUMPDEST PUSH1 0x0 DUP5 PUSH20 0xFFFFFFFFFFFFFFFFFFFFFFFFFFFFFFFFFFFFFFFF AND PUSH4 0x70A08231 ADDRESS PUSH1 0x40 MLOAD DUP3 PUSH4 0xFFFFFFFF AND PUSH1 0xE0 SHL DUP2 MSTORE PUSH1 0x4 ADD PUSH2 0x316 SWAP2 SWAP1 PUSH2 0xC47 JUMP JUMPDEST PUSH1 0x20 PUSH1 0x40 MLOAD DUP1 DUP4 SUB DUP2 DUP7 GAS STATICCALL ISZERO DUP1 ISZERO PUSH2 0x333 JUMPI RETURNDATASIZE PUSH1 0x0 DUP1 RETURNDATACOPY RETURNDATASIZE PUSH1 0x0 REVERT JUMPDEST POP POP POP POP PUSH1 0x40 MLOAD RETURNDATASIZE PUSH1 0x1F NOT PUSH1 0x1F DUP3 ADD AND DUP3 ADD DUP1 PUSH1 0x40 MSTORE POP DUP2 ADD SWAP1 PUSH2 0x357 SWAP2 SWAP1 PUSH2 0xC77 JUMP JUMPDEST SWAP1 POP PUSH2 0x36D PUSH8 0x8D84897BF2263C86 PUSH1 0xC0 SHL PUSH2 0x77B JUMP JUMPDEST PUSH2 0x381 PUSH8 0x162C0BFD1F044911 PUSH1 0xC0 SHL PUSH2 0x77B JUMP JUMPDEST PUSH2 0x395 PUSH8 0xC9C0BE8C26EA9EF8 PUSH1 0xC0 SHL PUSH2 0x77B JUMP JUMPDEST PUSH1 0x0 DUP5 DUP4 PUSH2 0x3A3 SWAP2 SWAP1 PUSH2 0xCD3 JUMP JUMPDEST GT PUSH2 0x3E3 JUMPI PUSH1 0x40 MLOAD PUSH32 0x8C379A000000000000000000000000000000000000000000000000000000000 DUP2 MSTORE PUSH1 0x4 ADD PUSH2 0x3DA SWAP1 PUSH2 0xD64 JUMP JUMPDEST PUSH1 0x40 MLOAD DUP1 SWAP2 SUB SWAP1 REVERT JUMPDEST PUSH2 0x3F7 PUSH8 0x163F098DFBDE714C PUSH1 0xC0 SHL PUSH2 0x77B JUMP JUMPDEST PUSH2 0x40B PUSH8 0xA83A542F88C98151 PUSH1 0xC0 SHL PUSH2 0x77B JUMP JUMPDEST PUSH2 0x41F PUSH8 0x14FA7A772A3A809B PUSH1 0xC0 SHL PUSH2 0x77B JUMP JUMPDEST DUP4 DUP3 PUSH2 0x42B SWAP2 SWAP1 PUSH2 0xCD3 JUMP JUMPDEST DUP5 DUP3 PUSH2 0x437 SWAP2 SWAP1 PUSH2 0xD84 JUMP JUMPDEST PUSH2 0x441 SWAP2 SWAP1 PUSH2 0xDF5 JUMP JUMPDEST SWAP3 POP POP POP SWAP4 SWAP3 POP POP POP JUMP JUMPDEST PUSH1 0x0 PUSH2 0x462 PUSH8 0x77D300F55D133940 PUSH1 0xC0 SHL PUSH2 0x77B JUMP JUMPDEST PUSH2 0x476 PUSH8 0x31ECE01951F71DD3 PUSH1 0xC0 SHL PUSH2 0x77B JUMP JUMPDEST PUSH2 0x481 DUP5 DUP5 DUP5 PUSH2 0x1F7 JUMP JUMPDEST SWAP1 POP PUSH2 0x497 PUSH8 0xAFA64A23FE427A40 PUSH1 0xC0 SHL PUSH2 0x77B JUMP JUMPDEST PUSH2 0x4AB PUSH8 0xB4528AA84E0F5091 PUSH1 0xC0 SHL PUSH2 0x77B JUMP JUMPDEST PUSH2 0x4D8 CALLER ADDRESS DUP5 DUP8 PUSH20 0xFFFFFFFFFFFFFFFFFFFFFFFFFFFFFFFFFFFFFFFF AND PUSH2 0x77E SWAP1 SWAP4 SWAP3 SWAP2 SWAP1 PUSH4 0xFFFFFFFF AND JUMP JUMPDEST PUSH2 0x4EC PUSH8 0xB09E7823A1DE7BB7 PUSH1 0xC0 SHL PUSH2 0x77B JUMP JUMPDEST PUSH2 0x500 PUSH8 0x6F486BA8E0338F55 PUSH1 0xC0 SHL PUSH2 0x77B JUMP JUMPDEST PUSH2 0x52B CALLER DUP3 DUP6 PUSH20 0xFFFFFFFFFFFFFFFFFFFFFFFFFFFFFFFFFFFFFFFF AND PUSH2 0x807 SWAP1 SWAP3 SWAP2 SWAP1 PUSH4 0xFFFFFFFF AND JUMP JUMPDEST SWAP4 SWAP3 POP POP POP JUMP JUMPDEST PUSH1 0x0 PUSH2 0x548 PUSH8 0x225D943D04EFF050 PUSH1 0xC0 SHL PUSH2 0x77B JUMP JUMPDEST PUSH2 0x55C PUSH8 0xF264E9FC0743CF1E PUSH1 0xC0 SHL PUSH2 0x77B JUMP JUMPDEST PUSH2 0x570 PUSH8 0x2133E1E130D49F6E PUSH1 0xC0 SHL PUSH2 0x77B JUMP JUMPDEST PUSH1 0x0 DUP5 PUSH20 0xFFFFFFFFFFFFFFFFFFFFFFFFFFFFFFFFFFFFFFFF AND PUSH4 0x70A08231 ADDRESS PUSH1 0x40 MLOAD DUP3 PUSH4 0xFFFFFFFF AND PUSH1 0xE0 SHL DUP2 MSTORE PUSH1 0x4 ADD PUSH2 0x5AB SWAP2 SWAP1 PUSH2 0xC47 JUMP JUMPDEST PUSH1 0x20 PUSH1 0x40 MLOAD DUP1 DUP4 SUB DUP2 DUP7 GAS STATICCALL ISZERO DUP1 ISZERO PUSH2 0x5C8 JUMPI RETURNDATASIZE PUSH1 0x0 DUP1 RETURNDATACOPY RETURNDATASIZE PUSH1 0x0 REVERT JUMPDEST POP POP POP POP PUSH1 0x40 MLOAD RETURNDATASIZE PUSH1 0x1F NOT PUSH1 0x1F DUP3 ADD AND DUP3 ADD DUP1 PUSH1 0x40 MSTORE POP DUP2 ADD SWAP1 PUSH2 0x5EC SWAP2 SWAP1 PUSH2 0xC77 JUMP JUMPDEST SWAP1 POP PUSH2 0x602 PUSH8 0x8ED83FEDB503955D PUSH1 0xC0 SHL PUSH2 0x77B JUMP JUMPDEST PUSH2 0x616 PUSH8 0xB0D5009B76CD697A PUSH1 0xC0 SHL PUSH2 0x77B JUMP JUMPDEST PUSH1 0x0 DUP5 PUSH20 0xFFFFFFFFFFFFFFFFFFFFFFFFFFFFFFFFFFFFFFFF AND PUSH4 0x70A08231 ADDRESS PUSH1 0x40 MLOAD DUP3 PUSH4 0xFFFFFFFF AND PUSH1 0xE0 SHL DUP2 MSTORE PUSH1 0x4 ADD PUSH2 0x651 SWAP2 SWAP1 PUSH2 0xC47 JUMP JUMPDEST PUSH1 0x20 PUSH1 0x40 MLOAD DUP1 DUP4 SUB DUP2 DUP7 GAS STATICCALL ISZERO DUP1 ISZERO PUSH2 0x66E JUMPI RETURNDATASIZE PUSH1 0x0 DUP1 RETURNDATACOPY RETURNDATASIZE PUSH1 0x0 REVERT JUMPDEST POP POP POP POP PUSH1 0x40 MLOAD RETURNDATASIZE PUSH1 0x1F NOT PUSH1 0x1F DUP3 ADD AND DUP3 ADD DUP1 PUSH1 0x40 MSTORE POP DUP2 ADD SWAP1 PUSH2 0x692 SWAP2 SWAP1 PUSH2 0xC77 JUMP JUMPDEST SWAP1 POP PUSH2 0x6A8 PUSH8 0x8EAE403831E4AC4D PUSH1 0xC0 SHL PUSH2 0x77B JUMP JUMPDEST PUSH2 0x6BC PUSH8 0xD7F6B98FD233ECEA PUSH1 0xC0 SHL PUSH2 0x77B JUMP JUMPDEST PUSH2 0x6D0 PUSH8 0x9DAFFB9882114A02 PUSH1 0xC0 SHL PUSH2 0x77B JUMP JUMPDEST DUP4 DUP2 GT PUSH2 0x712 JUMPI PUSH1 0x40 MLOAD PUSH32 0x8C379A000000000000000000000000000000000000000000000000000000000 DUP2 MSTORE PUSH1 0x4 ADD PUSH2 0x709 SWAP1 PUSH2 0xE98 JUMP JUMPDEST PUSH1 0x40 MLOAD DUP1 SWAP2 SUB SWAP1 REVERT JUMPDEST PUSH2 0x726 PUSH8 0xA76DD448B217E291 PUSH1 0xC0 SHL PUSH2 0x77B JUMP JUMPDEST PUSH2 0x73A PUSH8 0x841687409A821CDE PUSH1 0xC0 SHL PUSH2 0x77B JUMP JUMPDEST PUSH2 0x74E PUSH8 0xFD09340C09A10807 PUSH1 0xC0 SHL PUSH2 0x77B JUMP JUMPDEST DUP4 DUP2 PUSH2 0x75A SWAP2 SWAP1 PUSH2 0xEB8 JUMP JUMPDEST DUP5 DUP4 PUSH2 0x766 SWAP2 SWAP1 PUSH2 0xD84 JUMP JUMPDEST PUSH2 0x770 SWAP2 SWAP1 PUSH2 0xDF5 JUMP JUMPDEST SWAP3 POP POP POP SWAP4 SWAP3 POP POP POP JUMP JUMPDEST POP JUMP JUMPDEST PUSH2 0x801 DUP5 PUSH4 0x23B872DD PUSH1 0xE0 SHL DUP6 DUP6 DUP6 PUSH1 0x40 MLOAD PUSH1 0x24 ADD PUSH2 0x79F SWAP4 SWAP3 SWAP2 SWAP1 PUSH2 0xEEC JUMP JUMPDEST PUSH1 0x40 MLOAD PUSH1 0x20 DUP2 DUP4 SUB SUB DUP2 MSTORE SWAP1 PUSH1 0x40 MSTORE SWAP1 PUSH28 0xFFFFFFFFFFFFFFFFFFFFFFFFFFFFFFFFFFFFFFFFFFFFFFFFFFFFFFFF NOT AND PUSH1 0x20 DUP3 ADD DUP1 MLOAD PUSH28 0xFFFFFFFFFFFFFFFFFFFFFFFFFFFFFFFFFFFFFFFFFFFFFFFFFFFFFFFF DUP4 DUP2 DUP4 AND OR DUP4 MSTORE POP POP POP POP PUSH2 0x88D JUMP JUMPDEST POP POP POP POP JUMP JUMPDEST PUSH2 0x888 DUP4 PUSH4 0xA9059CBB PUSH1 0xE0 SHL DUP5 DUP5 PUSH1 0x40 MLOAD PUSH1 0x24 ADD PUSH2 0x826 SWAP3 SWAP2 SWAP1 PUSH2 0xF23 JUMP JUMPDEST PUSH1 0x40 MLOAD PUSH1 0x20 DUP2 DUP4 SUB SUB DUP2 MSTORE SWAP1 PUSH1 0x40 MSTORE SWAP1 PUSH28 0xFFFFFFFFFFFFFFFFFFFFFFFFFFFFFFFFFFFFFFFFFFFFFFFFFFFFFFFF NOT AND PUSH1 0x20 DUP3 ADD DUP1 MLOAD PUSH28 0xFFFFFFFFFFFFFFFFFFFFFFFFFFFFFFFFFFFFFFFFFFFFFFFFFFFFFFFF DUP4 DUP2 DUP4 AND OR DUP4 MSTORE POP POP POP POP PUSH2 0x88D JUMP JUMPDEST POP POP POP JUMP JUMPDEST PUSH1 0x0 PUSH2 0x8EF DUP3 PUSH1 0x40 MLOAD DUP1 PUSH1 0x40 ADD PUSH1 0x40 MSTORE DUP1 PUSH1 0x20 DUP2 MSTORE PUSH1 0x20 ADD PUSH32 0x5361666545524332303A206C6F772D6C6576656C2063616C6C206661696C6564 DUP2 MSTORE POP DUP6 PUSH20 0xFFFFFFFFFFFFFFFFFFFFFFFFFFFFFFFFFFFFFFFF AND PUSH2 0x955 SWAP1 SWAP3 SWAP2 SWAP1 PUSH4 0xFFFFFFFF AND JUMP JUMPDEST SWAP1 POP PUSH1 0x0 DUP2 MLOAD EQ DUP1 PUSH2 0x911 JUMPI POP DUP1 DUP1 PUSH1 0x20 ADD SWAP1 MLOAD DUP2 ADD SWAP1 PUSH2 0x910 SWAP2 SWAP1 PUSH2 0xF84 JUMP JUMPDEST JUMPDEST PUSH2 0x950 JUMPI PUSH1 0x40 MLOAD PUSH32 0x8C379A000000000000000000000000000000000000000000000000000000000 DUP2 MSTORE PUSH1 0x4 ADD PUSH2 0x947 SWAP1 PUSH2 0x1023 JUMP JUMPDEST PUSH1 0x40 MLOAD DUP1 SWAP2 SUB SWAP1 REVERT JUMPDEST POP POP POP JUMP JUMPDEST PUSH1 0x60 PUSH2 0x964 DUP5 DUP5 PUSH1 0x0 DUP6 PUSH2 0x96D JUMP JUMPDEST SWAP1 POP SWAP4 SWAP3 POP POP POP JUMP JUMPDEST PUSH1 0x60 DUP3 SELFBALANCE LT ISZERO PUSH2 0x9B2 JUMPI PUSH1 0x40 MLOAD PUSH32 0x8C379A000000000000000000000000000000000000000000000000000000000 DUP2 MSTORE PUSH1 0x4 ADD PUSH2 0x9A9 SWAP1 PUSH2 0x10B5 JUMP JUMPDEST PUSH1 0x40 MLOAD DUP1 SWAP2 SUB SWAP1 REVERT JUMPDEST PUSH1 0x0 DUP1 DUP7 PUSH20 0xFFFFFFFFFFFFFFFFFFFFFFFFFFFFFFFFFFFFFFFF AND DUP6 DUP8 PUSH1 0x40 MLOAD PUSH2 0x9DB SWAP2 SWAP1 PUSH2 0x1146 JUMP JUMPDEST PUSH1 0x0 PUSH1 0x40 MLOAD DUP1 DUP4 SUB DUP2 DUP6 DUP8 GAS CALL SWAP3 POP POP POP RETURNDATASIZE DUP1 PUSH1 0x0 DUP2 EQ PUSH2 0xA18 JUMPI PUSH1 0x40 MLOAD SWAP2 POP PUSH1 0x1F NOT PUSH1 0x3F RETURNDATASIZE ADD AND DUP3 ADD PUSH1 0x40 MSTORE RETURNDATASIZE DUP3 MSTORE RETURNDATASIZE PUSH1 0x0 PUSH1 0x20 DUP5 ADD RETURNDATACOPY PUSH2 0xA1D JUMP JUMPDEST PUSH1 0x60 SWAP2 POP JUMPDEST POP SWAP2 POP SWAP2 POP PUSH2 0xA2E DUP8 DUP4 DUP4 DUP8 PUSH2 0xA3A JUMP JUMPDEST SWAP3 POP POP POP SWAP5 SWAP4 POP POP POP POP JUMP JUMPDEST PUSH1 0x60 DUP4 ISZERO PUSH2 0xA9C JUMPI PUSH1 0x0 DUP4 MLOAD SUB PUSH2 0xA94 JUMPI PUSH2 0xA54 DUP6 PUSH2 0xAAF JUMP JUMPDEST PUSH2 0xA93 JUMPI PUSH1 0x40 MLOAD PUSH32 0x8C379A000000000000000000000000000000000000000000000000000000000 DUP2 MSTORE PUSH1 0x4 ADD PUSH2 0xA8A SWAP1 PUSH2 0x11A9 JUMP JUMPDEST PUSH1 0x40 MLOAD DUP1 SWAP2 SUB SWAP1 REVERT JUMPDEST JUMPDEST DUP3 SWAP1 POP PUSH2 0xAA7 JUMP JUMPDEST PUSH2 0xAA6 DUP4 DUP4 PUSH2 0xAD2 JUMP JUMPDEST JUMPDEST SWAP5 SWAP4 POP POP POP POP JUMP JUMPDEST PUSH1 0x0 DUP1 DUP3 PUSH20 0xFFFFFFFFFFFFFFFFFFFFFFFFFFFFFFFFFFFFFFFF AND EXTCODESIZE GT SWAP1 POP SWAP2 SWAP1 POP JUMP JUMPDEST PUSH1 0x0 DUP3 MLOAD GT ISZERO PUSH2 0xAE5 JUMPI DUP2 MLOAD DUP1 DUP4 PUSH1 0x20 ADD REVERT JUMPDEST DUP1 PUSH1 0x40 MLOAD PUSH32 0x8C379A000000000000000000000000000000000000000000000000000000000 DUP2 MSTORE PUSH1 0x4 ADD PUSH2 0xB19 SWAP2 SWAP1 PUSH2 0x121E JUMP JUMPDEST PUSH1 0x40 MLOAD DUP1 SWAP2 SUB SWAP1 REVERT JUMPDEST PUSH1 0x0 DUP1 REVERT JUMPDEST PUSH1 0x0 PUSH20 0xFFFFFFFFFFFFFFFFFFFFFFFFFFFFFFFFFFFFFFFF DUP3 AND SWAP1 POP SWAP2 SWAP1 POP JUMP JUMPDEST PUSH1 0x0 PUSH2 0xB52 DUP3 PUSH2 0xB27 JUMP JUMPDEST SWAP1 POP SWAP2 SWAP1 POP JUMP JUMPDEST PUSH2 0xB62 DUP2 PUSH2 0xB47 JUMP JUMPDEST DUP2 EQ PUSH2 0xB6D JUMPI PUSH1 0x0 DUP1 REVERT JUMPDEST POP JUMP JUMPDEST PUSH1 0x0 DUP2 CALLDATALOAD SWAP1 POP PUSH2 0xB7F DUP2 PUSH2 0xB59 JUMP JUMPDEST SWAP3 SWAP2 POP POP JUMP JUMPDEST PUSH1 0x0 DUP2 SWAP1 POP SWAP2 SWAP1 POP JUMP JUMPDEST PUSH2 0xB98 DUP2 PUSH2 0xB85 JUMP JUMPDEST DUP2 EQ PUSH2 0xBA3 JUMPI PUSH1 0x0 DUP1 REVERT JUMPDEST POP JUMP JUMPDEST PUSH1 0x0 DUP2 CALLDATALOAD SWAP1 POP PUSH2 0xBB5 DUP2 PUSH2 0xB8F JUMP JUMPDEST SWAP3 SWAP2 POP POP JUMP JUMPDEST PUSH1 0x0 DUP1 PUSH1 0x0 PUSH1 0x60 DUP5 DUP7 SUB SLT ISZERO PUSH2 0xBD4 JUMPI PUSH2 0xBD3 PUSH2 0xB22 JUMP JUMPDEST JUMPDEST PUSH1 0x0 PUSH2 0xBE2 DUP7 DUP3 DUP8 ADD PUSH2 0xB70 JUMP JUMPDEST SWAP4 POP POP PUSH1 0x20 PUSH2 0xBF3 DUP7 DUP3 DUP8 ADD PUSH2 0xB70 JUMP JUMPDEST SWAP3 POP POP PUSH1 0x40 PUSH2 0xC04 DUP7 DUP3 DUP8 ADD PUSH2 0xBA6 JUMP JUMPDEST SWAP2 POP POP SWAP3 POP SWAP3 POP SWAP3 JUMP JUMPDEST PUSH2 0xC17 DUP2 PUSH2 0xB85 JUMP JUMPDEST DUP3 MSTORE POP POP JUMP JUMPDEST PUSH1 0x0 PUSH1 0x20 DUP3 ADD SWAP1 POP PUSH2 0xC32 PUSH1 0x0 DUP4 ADD DUP5 PUSH2 0xC0E JUMP JUMPDEST SWAP3 SWAP2 POP POP JUMP JUMPDEST PUSH2 0xC41 DUP2 PUSH2 0xB47 JUMP JUMPDEST DUP3 MSTORE POP POP JUMP JUMPDEST PUSH1 0x0 PUSH1 0x20 DUP3 ADD SWAP1 POP PUSH2 0xC5C PUSH1 0x0 DUP4 ADD DUP5 PUSH2 0xC38 JUMP JUMPDEST SWAP3 SWAP2 POP POP JUMP JUMPDEST PUSH1 0x0 DUP2 MLOAD SWAP1 POP PUSH2 0xC71 DUP2 PUSH2 0xB8F JUMP JUMPDEST SWAP3 SWAP2 POP POP JUMP JUMPDEST PUSH1 0x0 PUSH1 0x20 DUP3 DUP5 SUB SLT ISZERO PUSH2 0xC8D JUMPI PUSH2 0xC8C PUSH2 0xB22 JUMP JUMPDEST JUMPDEST PUSH1 0x0 PUSH2 0xC9B DUP5 DUP3 DUP6 ADD PUSH2 0xC62 JUMP JUMPDEST SWAP2 POP POP SWAP3 SWAP2 POP POP JUMP JUMPDEST PUSH32 0x4E487B7100000000000000000000000000000000000000000000000000000000 PUSH1 0x0 MSTORE PUSH1 0x11 PUSH1 0x4 MSTORE PUSH1 0x24 PUSH1 0x0 REVERT JUMPDEST PUSH1 0x0 PUSH2 0xCDE DUP3 PUSH2 0xB85 JUMP JUMPDEST SWAP2 POP PUSH2 0xCE9 DUP4 PUSH2 0xB85 JUMP JUMPDEST SWAP3 POP DUP3 DUP3 ADD SWAP1 POP DUP1 DUP3 GT ISZERO PUSH2 0xD01 JUMPI PUSH2 0xD00 PUSH2 0xCA4 JUMP JUMPDEST JUMPDEST SWAP3 SWAP2 POP POP JUMP JUMPDEST PUSH1 0x0 DUP3 DUP3 MSTORE PUSH1 0x20 DUP3 ADD SWAP1 POP SWAP3 SWAP2 POP POP JUMP JUMPDEST PUSH32 0x496E76616C69642073656C6C20616D6F756E74206F7220726573657276650000 PUSH1 0x0 DUP3 ADD MSTORE POP JUMP JUMPDEST PUSH1 0x0 PUSH2 0xD4E PUSH1 0x1E DUP4 PUSH2 0xD07 JUMP JUMPDEST SWAP2 POP PUSH2 0xD59 DUP3 PUSH2 0xD18 JUMP JUMPDEST PUSH1 0x20 DUP3 ADD SWAP1 POP SWAP2 SWAP1 POP JUMP JUMPDEST PUSH1 0x0 PUSH1 0x20 DUP3 ADD SWAP1 POP DUP2 DUP2 SUB PUSH1 0x0 DUP4 ADD MSTORE PUSH2 0xD7D DUP2 PUSH2 0xD41 JUMP JUMPDEST SWAP1 POP SWAP2 SWAP1 POP JUMP JUMPDEST PUSH1 0x0 PUSH2 0xD8F DUP3 PUSH2 0xB85 JUMP JUMPDEST SWAP2 POP PUSH2 0xD9A DUP4 PUSH2 0xB85 JUMP JUMPDEST SWAP3 POP DUP3 DUP3 MUL PUSH2 0xDA8 DUP2 PUSH2 0xB85 JUMP JUMPDEST SWAP2 POP DUP3 DUP3 DIV DUP5 EQ DUP4 ISZERO OR PUSH2 0xDBF JUMPI PUSH2 0xDBE PUSH2 0xCA4 JUMP JUMPDEST JUMPDEST POP SWAP3 SWAP2 POP POP JUMP JUMPDEST PUSH32 0x4E487B7100000000000000000000000000000000000000000000000000000000 PUSH1 0x0 MSTORE PUSH1 0x12 PUSH1 0x4 MSTORE PUSH1 0x24 PUSH1 0x0 REVERT JUMPDEST PUSH1 0x0 PUSH2 0xE00 DUP3 PUSH2 0xB85 JUMP JUMPDEST SWAP2 POP PUSH2 0xE0B DUP4 PUSH2 0xB85 JUMP JUMPDEST SWAP3 POP DUP3 PUSH2 0xE1B JUMPI PUSH2 0xE1A PUSH2 0xDC6 JUMP JUMPDEST JUMPDEST DUP3 DUP3 DIV SWAP1 POP SWAP3 SWAP2 POP POP JUMP JUMPDEST PUSH32 0x496E73756666696369656E74207265736572766520666F722062757920616D6F PUSH1 0x0 DUP3 ADD MSTORE PUSH32 0x756E740000000000000000000000000000000000000000000000000000000000 PUSH1 0x20 DUP3 ADD MSTORE POP JUMP JUMPDEST PUSH1 0x0 PUSH2 0xE82 PUSH1 0x23 DUP4 PUSH2 0xD07 JUMP JUMPDEST SWAP2 POP PUSH2 0xE8D DUP3 PUSH2 0xE26 JUMP JUMPDEST PUSH1 0x40 DUP3 ADD SWAP1 POP SWAP2 SWAP1 POP JUMP JUMPDEST PUSH1 0x0 PUSH1 0x20 DUP3 ADD SWAP1 POP DUP2 DUP2 SUB PUSH1 0x0 DUP4 ADD MSTORE PUSH2 0xEB1 DUP2 PUSH2 0xE75 JUMP JUMPDEST SWAP1 POP SWAP2 SWAP1 POP JUMP JUMPDEST PUSH1 0x0 PUSH2 0xEC3 DUP3 PUSH2 0xB85 JUMP JUMPDEST SWAP2 POP PUSH2 0xECE DUP4 PUSH2 0xB85 JUMP JUMPDEST SWAP3 POP DUP3 DUP3 SUB SWAP1 POP DUP2 DUP2 GT ISZERO PUSH2 0xEE6 JUMPI PUSH2 0xEE5 PUSH2 0xCA4 JUMP JUMPDEST JUMPDEST SWAP3 SWAP2 POP POP JUMP JUMPDEST PUSH1 0x0 PUSH1 0x60 DUP3 ADD SWAP1 POP PUSH2 0xF01 PUSH1 0x0 DUP4 ADD DUP7 PUSH2 0xC38 JUMP JUMPDEST PUSH2 0xF0E PUSH1 0x20 DUP4 ADD DUP6 PUSH2 0xC38 JUMP JUMPDEST PUSH2 0xF1B PUSH1 0x40 DUP4 ADD DUP5 PUSH2 0xC0E JUMP JUMPDEST SWAP5 SWAP4 POP POP POP POP JUMP JUMPDEST PUSH1 0x0 PUSH1 0x40 DUP3 ADD SWAP1 POP PUSH2 0xF38 PUSH1 0x0 DUP4 ADD DUP6 PUSH2 0xC38 JUMP JUMPDEST PUSH2 0xF45 PUSH1 0x20 DUP4 ADD DUP5 PUSH2 0xC0E JUMP JUMPDEST SWAP4 SWAP3 POP POP POP JUMP JUMPDEST PUSH1 0x0 DUP2 ISZERO ISZERO SWAP1 POP SWAP2 SWAP1 POP JUMP JUMPDEST PUSH2 0xF61 DUP2 PUSH2 0xF4C JUMP JUMPDEST DUP2 EQ PUSH2 0xF6C JUMPI PUSH1 0x0 DUP1 REVERT JUMPDEST POP JUMP JUMPDEST PUSH1 0x0 DUP2 MLOAD SWAP1 POP PUSH2 0xF7E DUP2 PUSH2 0xF58 JUMP JUMPDEST SWAP3 SWAP2 POP POP JUMP JUMPDEST PUSH1 0x0 PUSH1 0x20 DUP3 DUP5 SUB SLT ISZERO PUSH2 0xF9A JUMPI PUSH2 0xF99 PUSH2 0xB22 JUMP JUMPDEST JUMPDEST PUSH1 0x0 PUSH2 0xFA8 DUP5 DUP3 DUP6 ADD PUSH2 0xF6F JUMP JUMPDEST SWAP2 POP POP SWAP3 SWAP2 POP POP JUMP JUMPDEST PUSH32 0x5361666545524332303A204552433230206F7065726174696F6E20646964206E PUSH1 0x0 DUP3 ADD MSTORE PUSH32 0x6F74207375636365656400000000000000000000000000000000000000000000 PUSH1 0x20 DUP3 ADD MSTORE POP JUMP JUMPDEST PUSH1 0x0 PUSH2 0x100D PUSH1 0x2A DUP4 PUSH2 0xD07 JUMP JUMPDEST SWAP2 POP PUSH2 0x1018 DUP3 PUSH2 0xFB1 JUMP JUMPDEST PUSH1 0x40 DUP3 ADD SWAP1 POP SWAP2 SWAP1 POP JUMP JUMPDEST PUSH1 0x0 PUSH1 0x20 DUP3 ADD SWAP1 POP DUP2 DUP2 SUB PUSH1 0x0 DUP4 ADD MSTORE PUSH2 0x103C DUP2 PUSH2 0x1000 JUMP JUMPDEST SWAP1 POP SWAP2 SWAP1 POP JUMP JUMPDEST PUSH32 0x416464726573733A20696E73756666696369656E742062616C616E636520666F PUSH1 0x0 DUP3 ADD MSTORE PUSH32 0x722063616C6C0000000000000000000000000000000000000000000000000000 PUSH1 0x20 DUP3 ADD MSTORE POP JUMP JUMPDEST PUSH1 0x0 PUSH2 0x109F PUSH1 0x26 DUP4 PUSH2 0xD07 JUMP JUMPDEST SWAP2 POP PUSH2 0x10AA DUP3 PUSH2 0x1043 JUMP JUMPDEST PUSH1 0x40 DUP3 ADD SWAP1 POP SWAP2 SWAP1 POP JUMP JUMPDEST PUSH1 0x0 PUSH1 0x20 DUP3 ADD SWAP1 POP DUP2 DUP2 SUB PUSH1 0x0 DUP4 ADD MSTORE PUSH2 0x10CE DUP2 PUSH2 0x1092 JUMP JUMPDEST SWAP1 POP SWAP2 SWAP1 POP JUMP JUMPDEST PUSH1 0x0 DUP2 MLOAD SWAP1 POP SWAP2 SWAP1 POP JUMP JUMPDEST PUSH1 0x0 DUP2 SWAP1 POP SWAP3 SWAP2 POP POP JUMP JUMPDEST PUSH1 0x0 JUMPDEST DUP4 DUP2 LT ISZERO PUSH2 0x1109 JUMPI DUP1 DUP3 ADD MLOAD DUP2 DUP5 ADD MSTORE PUSH1 0x20 DUP2 ADD SWAP1 POP PUSH2 0x10EE JUMP JUMPDEST PUSH1 0x0 DUP5 DUP5 ADD MSTORE POP POP POP POP JUMP JUMPDEST PUSH1 0x0 PUSH2 0x1120 DUP3 PUSH2 0x10D5 JUMP JUMPDEST PUSH2 0x112A DUP2 DUP6 PUSH2 0x10E0 JUMP JUMPDEST SWAP4 POP PUSH2 0x113A DUP2 DUP6 PUSH1 0x20 DUP7 ADD PUSH2 0x10EB JUMP JUMPDEST DUP1 DUP5 ADD SWAP2 POP POP SWAP3 SWAP2 POP POP JUMP JUMPDEST PUSH1 0x0 PUSH2 0x1152 DUP3 DUP5 PUSH2 0x1115 JUMP JUMPDEST SWAP2 POP DUP2 SWAP1 POP SWAP3 SWAP2 POP POP JUMP JUMPDEST PUSH32 0x416464726573733A2063616C6C20746F206E6F6E2D636F6E7472616374000000 PUSH1 0x0 DUP3 ADD MSTORE POP JUMP JUMPDEST PUSH1 0x0 PUSH2 0x1193 PUSH1 0x1D DUP4 PUSH2 0xD07 JUMP JUMPDEST SWAP2 POP PUSH2 0x119E DUP3 PUSH2 0x115D JUMP JUMPDEST PUSH1 0x20 DUP3 ADD SWAP1 POP SWAP2 SWAP1 POP JUMP JUMPDEST PUSH1 0x0 PUSH1 0x20 DUP3 ADD SWAP1 POP DUP2 DUP2 SUB PUSH1 0x0 DUP4 ADD MSTORE PUSH2 0x11C2 DUP2 PUSH2 0x1186 JUMP JUMPDEST SWAP1 POP SWAP2 SWAP1 POP JUMP JUMPDEST PUSH1 0x0 DUP2 MLOAD SWAP1 POP SWAP2 SWAP1 POP JUMP JUMPDEST PUSH1 0x0 PUSH1 0x1F NOT PUSH1 0x1F DUP4 ADD AND SWAP1 POP SWAP2 SWAP1 POP JUMP JUMPDEST PUSH1 0x0 PUSH2 0x11F0 DUP3 PUSH2 0x11C9 JUMP JUMPDEST PUSH2 0x11FA DUP2 DUP6 PUSH2 0xD07 JUMP JUMPDEST SWAP4 POP PUSH2 0x120A DUP2 DUP6 PUSH1 0x20 DUP7 ADD PUSH2 0x10EB JUMP JUMPDEST PUSH2 0x1213 DUP2 PUSH2 0x11D4 JUMP JUMPDEST DUP5 ADD SWAP2 POP POP SWAP3 SWAP2 POP POP JUMP JUMPDEST PUSH1 0x0 PUSH1 0x20 DUP3 ADD SWAP1 POP DUP2 DUP2 SUB PUSH1 0x0 DUP4 ADD MSTORE PUSH2 0x1238 DUP2 DUP5 PUSH2 0x11E5 JUMP JUMPDEST SWAP1 POP SWAP3 SWAP2 POP POP JUMP INVALID LOG2 PUSH5 0x6970667358 0x22 SLT KECCAK256 0xD6 LT LT SWAP16 0x29 0x1E SWAP7 0xCB TIMESTAMP BASEFEE 0xC0 PUSH0 CHAINID 0xE2 0xB1 BALANCE 0xDA 0xC8 0xC3 BASEFEE PUSH26 0x905E54884894DC0BBDAD6E64736F6C6343000817003300000000 "},"gasEstimates":{"creation":{"codeDepositCost":"945200","executionCost":"981","totalCost":"946181"},"external":{"buy(address,address,uint256)":"infinite","calcAmountToBuy(address,address,uint256)":"infinite","calcAmountToSell(address,address,uint256)":"infinite","sell(address,address,uint256)":"infinite"},"internal":{"c_2f059549(bytes8)":"11","c_false2f059549(bytes8)":"infinite","c_true2f059549(bytes8)":"infinite"}},"methodIdentifiers":{"buy(address,address,uint256)":"153e66e6","calcAmountToBuy(address,address,uint256)":"7951f3ef","calcAmountToSell(address,address,uint256)":"ce77ba62","sell(address,address,uint256)":"cae270b6"}},"storageLayout":{"storage":[],"types":null},"userdoc":{"kind":"user","methods":{},"version":1}}}}