{"contracts/PerpetualTrading.sol":{"PerpSwap":{"abi":[{"inputs":[{"internalType":"address","name":"_liquidityPool","type":"address"},{"internalType":"address","name":"_orderBook","type":"address"},{"internalType":"address","name":"_tokenA","type":"address"},{"internalType":"address","name":"_tokenB","type":"address"},{"internalType":"address","name":"_rewardToken","type":"address"},{"internalType":"uint256","name":"_rewardPerSecond","type":"uint256"}],"stateMutability":"nonpayable","type":"constructor"},{"inputs":[],"name":"MarginTrading__InsufficientAmountForClosePosition","type":"error"},{"anonymous":false,"inputs":[],"name":"LongClosed","type":"event"},{"anonymous":false,"inputs":[],"name":"LongOpened","type":"event"},{"anonymous":false,"inputs":[{"indexed":true,"internalType":"address","name":"previousOwner","type":"address"},{"indexed":true,"internalType":"address","name":"newOwner","type":"address"}],"name":"OwnershipTransferred","type":"event"},{"anonymous":false,"inputs":[{"indexed":true,"internalType":"address","name":"trader","type":"address"},{"indexed":false,"internalType":"uint256","name":"reward","type":"uint256"}],"name":"RewardPaid","type":"event"},{"anonymous":false,"inputs":[],"name":"ShortClosed","type":"event"},{"anonymous":false,"inputs":[],"name":"ShortOpened","type":"event"},{"anonymous":false,"inputs":[{"indexed":false,"internalType":"uint256","name":"rewardAmount","type":"uint256"}],"name":"updateRewardPerSecond","type":"event"},{"anonymous":false,"inputs":[{"indexed":false,"internalType":"address","name":"trader","type":"address"},{"indexed":false,"internalType":"uint256","name":"amount","type":"uint256"}],"name":"updateTradingvolume","type":"event"},{"anonymous":false,"inputs":[{"indexed":false,"internalType":"uint256","name":"newVolume","type":"uint256"}],"name":"uptadeCumulativeMarketVolume","type":"event"},{"inputs":[{"internalType":"address","name":"trader","type":"address"}],"name":"calculateReward","outputs":[{"internalType":"uint256","name":"","type":"uint256"}],"stateMutability":"view","type":"function"},{"inputs":[],"name":"closeLong","outputs":[],"stateMutability":"nonpayable","type":"function"},{"inputs":[],"name":"closeShort","outputs":[],"stateMutability":"nonpayable","type":"function"},{"inputs":[],"name":"longBalanceB","outputs":[{"internalType":"uint256","name":"","type":"uint256"}],"stateMutability":"view","type":"function"},{"inputs":[],"name":"longDebtA","outputs":[{"internalType":"uint256","name":"","type":"uint256"}],"stateMutability":"view","type":"function"},{"inputs":[{"internalType":"uint256","name":"amountBToBuy","type":"uint256"},{"internalType":"uint256","name":"leverage","type":"uint256"}],"name":"openLong","outputs":[],"stateMutability":"nonpayable","type":"function"},{"inputs":[{"internalType":"uint256","name":"amountAToSell","type":"uint256"},{"internalType":"uint256","name":"leverage","type":"uint256"}],"name":"openShort","outputs":[],"stateMutability":"nonpayable","type":"function"},{"inputs":[],"name":"owner","outputs":[{"internalType":"address","name":"","type":"address"}],"stateMutability":"view","type":"function"},{"inputs":[{"internalType":"address","name":"trader","type":"address"}],"name":"payReward","outputs":[],"stateMutability":"nonpayable","type":"function"},{"inputs":[],"name":"renounceOwnership","outputs":[],"stateMutability":"nonpayable","type":"function"},{"inputs":[{"internalType":"uint256","name":"rewardAmount","type":"uint256"}],"name":"setRewardPerSecond","outputs":[{"internalType":"uint256","name":"","type":"uint256"}],"stateMutability":"nonpayable","type":"function"},{"inputs":[],"name":"shortBalanceB","outputs":[{"internalType":"uint256","name":"","type":"uint256"}],"stateMutability":"view","type":"function"},{"inputs":[],"name":"shortDebtA","outputs":[{"internalType":"uint256","name":"","type":"uint256"}],"stateMutability":"view","type":"function"},{"inputs":[{"internalType":"address","name":"newOwner","type":"address"}],"name":"transferOwnership","outputs":[],"stateMutability":"nonpayable","type":"function"},{"inputs":[{"internalType":"uint256","name":"newVolume","type":"uint256"}],"name":"updateCumulativeMarketVolume","outputs":[{"internalType":"uint256","name":"","type":"uint256"}],"stateMutability":"nonpayable","type":"function"},{"inputs":[{"internalType":"address","name":"trader","type":"address"},{"internalType":"uint256","name":"amount","type":"uint256"}],"name":"updateTradingVolume","outputs":[],"stateMutability":"nonpayable","type":"function"}],"devdoc":{"kind":"dev","methods":{"owner()":{"details":"Returns the address of the current owner."},"renounceOwnership()":{"details":"Leaves the contract without owner. It will not be possible to call `onlyOwner` functions. Can only be called by the current owner. NOTE: Renouncing ownership will leave the contract without an owner, thereby disabling any functionality that is only available to the owner."},"transferOwnership(address)":{"details":"Transfers ownership of the contract to a new account (`newOwner`). Can only be called by the current owner."}},"version":1},"evm":{"bytecode":{"linkReferences":{},"object":"60806040523480156200001157600080fd5b50604051620036a6380380620036a6833981810160405281019062000037919062000403565b620000576200004b6200028f60201b60201c565b6200029760201b60201c565b62000073671bd78f89ecf41d9c60c01b6200035b60201b60201c565b6200008f674834eb078aa3a9f860c01b6200035b60201b60201c565b85600160006101000a81548173ffffffffffffffffffffffffffffffffffffffff021916908373ffffffffffffffffffffffffffffffffffffffff160217905550620000ec671d779514bbc9948760c01b6200035b60201b60201c565b84600260006101000a81548173ffffffffffffffffffffffffffffffffffffffff021916908373ffffffffffffffffffffffffffffffffffffffff16021790555062000149675d0ecf978aac0dae60c01b6200035b60201b60201c565b83600360006101000a81548173ffffffffffffffffffffffffffffffffffffffff021916908373ffffffffffffffffffffffffffffffffffffffff160217905550620001a667d229edd7a47ac63660c01b6200035b60201b60201c565b82600460006101000a81548173ffffffffffffffffffffffffffffffffffffffff021916908373ffffffffffffffffffffffffffffffffffffffff16021790555062000203675756b9c3da6ee2ca60c01b6200035b60201b60201c565b81600560006101000a81548173ffffffffffffffffffffffffffffffffffffffff021916908373ffffffffffffffffffffffffffffffffffffffff160217905550620002606776e0d3a8e308c44960c01b6200035b60201b60201c565b6200027c6748e799fe5814158c60c01b6200035b60201b60201c565b426007819055505050505050506200049f565b600033905090565b60008060009054906101000a900473ffffffffffffffffffffffffffffffffffffffff169050816000806101000a81548173ffffffffffffffffffffffffffffffffffffffff021916908373ffffffffffffffffffffffffffffffffffffffff1602179055508173ffffffffffffffffffffffffffffffffffffffff168173ffffffffffffffffffffffffffffffffffffffff167f8be0079c531659141344cd1fd0a4f28419497f9722a3daafe3b4186f6b6457e060405160405180910390a35050565b50565b600080fd5b600073ffffffffffffffffffffffffffffffffffffffff82169050919050565b6000620003908262000363565b9050919050565b620003a28162000383565b8114620003ae57600080fd5b50565b600081519050620003c28162000397565b92915050565b6000819050919050565b620003dd81620003c8565b8114620003e957600080fd5b50565b600081519050620003fd81620003d2565b92915050565b60008060008060008060c087890312156200042357620004226200035e565b5b60006200043389828a01620003b1565b96505060206200044689828a01620003b1565b95505060406200045989828a01620003b1565b94505060606200046c89828a01620003b1565b93505060806200047f89828a01620003b1565b92505060a06200049289828a01620003ec565b9150509295509295509295565b6131f780620004af6000396000f3fe608060405234801561001057600080fd5b50600436106101005760003560e01c80638da5cb5b11610097578063d82e396211610066578063d82e39621461024f578063f2fde38b1461027f578063f8432a1b1461029b578063fdda45dc146102a557610100565b80638da5cb5b146101dd5780638e9b277d146101fb57806393d75db514610217578063c181d4181461023357610100565b80633ef32e0d116100d35780633ef32e0d1461016757806366da581514610185578063715018a6146101b557806384ea96f5146101bf57610100565b8063032d4038146101055780631266a6191461012357806324f825261461013f5780633cb3dafa14610149575b600080fd5b61010d6102d5565b60405161011a919061273b565b60405180910390f35b61013d60048036038101906101389190612787565b6102db565b005b6101476107b6565b005b610151610c62565b60405161015e919061273b565b60405180910390f35b61016f610c68565b60405161017c919061273b565b60405180910390f35b61019f600480360381019061019a91906127c7565b610c6e565b6040516101ac919061273b565b60405180910390f35b6101bd610d60565b005b6101c7610d74565b6040516101d4919061273b565b60405180910390f35b6101e5610d7a565b6040516101f29190612835565b60405180910390f35b6102156004803603810190610210919061287c565b610da3565b005b610231600480360381019061022c91906128a9565b611183565b005b61024d60048036038101906102489190612787565b61125e565b005b6102696004803603810190610264919061287c565b611853565b604051610276919061273b565b60405180910390f35b6102996004803603810190610294919061287c565b611a57565b005b6102a3611ada565b005b6102bf60048036038101906102ba91906127c7565b611f86565b6040516102cc919061273b565b60405180910390f35b600a5481565b6102ef67532f295c02f378bc60c01b612076565b610303673aa1a3889e9e654660c01b612076565b6103176736eba0ad18d7434e60c01b612076565b61032b676987014b002d7ae260c01b612076565b6000821161036e576040517f08c379a00000000000000000000000000000000000000000000000000000000081526004016103659061296c565b60405180910390fd5b61038267d38cce7d534e66d260c01b612076565b61039667ec564b9d0321c07860c01b612076565b6103aa6798c23f30d9b0b51060c01b612076565b6103be67d0addf823b9ec42e60c01b612076565b6001811015610402576040517f08c379a00000000000000000000000000000000000000000000000000000000081526004016103f9906129fe565b60405180910390fd5b6104166708ab000be31091ad60c01b612076565b61042a67704ff09dd41601c960c01b612076565b61043e674df67efd82c7593b60c01b612076565b600160009054906101000a900473ffffffffffffffffffffffffffffffffffffffff1673ffffffffffffffffffffffffffffffffffffffff1663c5ebeaec82846104889190612a4d565b6040518263ffffffff1660e01b81526004016104a4919061273b565b600060405180830381600087803b1580156104be57600080fd5b505af11580156104d2573d6000803e3d6000fd5b505050506104ea673141b6ed9d4d6e3b60c01b612076565b80826104f69190612a4d565b600b60008282546105079190612a8f565b925050819055506105226702ee72e3bd6b177e60c01b612076565b61053667c1c213e90e567ba560c01b612076565b600360009054906101000a900473ffffffffffffffffffffffffffffffffffffffff1673ffffffffffffffffffffffffffffffffffffffff1663095ea7b3600260009054906101000a900473ffffffffffffffffffffffffffffffffffffffff1683856105a39190612a4d565b6040518363ffffffff1660e01b81526004016105c0929190612ac3565b6020604051808303816000875af11580156105df573d6000803e3d6000fd5b505050506040513d601f19601f820116820180604052508101906106039190612b24565b5061061867f13b334fcabfeffa60c01b612076565b600260009054906101000a900473ffffffffffffffffffffffffffffffffffffffff1673ffffffffffffffffffffffffffffffffffffffff1663cae270b6600360009054906101000a900473ffffffffffffffffffffffffffffffffffffffff16600460009054906101000a900473ffffffffffffffffffffffffffffffffffffffff1684866106a89190612a4d565b6040518463ffffffff1660e01b81526004016106c693929190612b51565b6020604051808303816000875af11580156106e5573d6000803e3d6000fd5b505050506040513d601f19601f820116820180604052508101906107099190612b9d565b600c600082825461071a9190612a8f565b92505081905550610735672cd50c8453d03c8160c01b612076565b610749670acf936f31e6b38460c01b612076565b61075e3382846107599190612a4d565b612079565b61077267e70b7eb7fd4521ef60c01b612076565b610786672f7beb4b2c7dd4a060c01b612076565b7fdb84cacd536875e0714dd79e0fe743de5a2871a8eb65115b5aa657e6cfbe7a5160405160405180910390a15050565b6107ca671681ab526f81f0cf60c01b612076565b6107de67fead30054a5c828a60c01b612076565b6107f26738e831f61dcc887560c01b612076565b600460009054906101000a900473ffffffffffffffffffffffffffffffffffffffff1673ffffffffffffffffffffffffffffffffffffffff1663095ea7b3600260009054906101000a900473ffffffffffffffffffffffffffffffffffffffff16600a546040518363ffffffff1660e01b8152600401610873929190612ac3565b6020604051808303816000875af1158015610892573d6000803e3d6000fd5b505050506040513d601f19601f820116820180604052508101906108b69190612b24565b506108cb67f21cd91998bc80eb60c01b612076565b6108df67dc251a6fa982c7fd60c01b612076565b600360009054906101000a900473ffffffffffffffffffffffffffffffffffffffff1673ffffffffffffffffffffffffffffffffffffffff1663095ea7b3600160009054906101000a900473ffffffffffffffffffffffffffffffffffffffff166009546040518363ffffffff1660e01b8152600401610960929190612ac3565b6020604051808303816000875af115801561097f573d6000803e3d6000fd5b505050506040513d601f19601f820116820180604052508101906109a39190612b24565b506109b867f141077258fa1adb60c01b612076565b6109cc678a6ecec551ee874760c01b612076565b600160009054906101000a900473ffffffffffffffffffffffffffffffffffffffff1673ffffffffffffffffffffffffffffffffffffffff1663371fd8e66009546040518263ffffffff1660e01b8152600401610a29919061273b565b600060405180830381600087803b158015610a4357600080fd5b505af1158015610a57573d6000803e3d6000fd5b50505050610a6f675a93f4ad0694211060c01b612076565b6000600981905550610a8b678135ea83eb77f9ef60c01b612076565b6000600a81905550610aa767da4aacd7927b512360c01b612076565b610abb6749b4c519736a9fe760c01b612076565b610ac733600a54612079565b610adb6720ca85751a2c5f8060c01b612076565b610aef679a7d92a04f92d72460c01b612076565b6000600360009054906101000a900473ffffffffffffffffffffffffffffffffffffffff1673ffffffffffffffffffffffffffffffffffffffff166370a08231306040518263ffffffff1660e01b8152600401610b4c9190612835565b602060405180830381865afa158015610b69573d6000803e3d6000fd5b505050506040513d601f19601f82011682018060405250810190610b8d9190612b9d565b9050610ba367a7e949d6b9725d7360c01b612076565b610bb76769478d8807371fcd60c01b612076565b610c0b610bc2610d7a565b82600360009054906101000a900473ffffffffffffffffffffffffffffffffffffffff1673ffffffffffffffffffffffffffffffffffffffff166122bd9092919063ffffffff16565b610c1f67689886f982cf361960c01b612076565b610c3367a07d1f261a708e9560c01b612076565b7f7c1712b00e9ec43558b7ba14e1d6f1985ff761eadb82bb59a3cfe263bd86144d60405160405180910390a150565b600c5481565b60095481565b6000610c8467b391e405588b0b2060c01b612076565b610c8c612343565b610ca06766cffde6bbd9f85060c01b612076565b610cb467f857b0b12017b77760c01b612076565b610cc867e3d4e48827d0136360c01b612076565b81600881905550610ce36752bb7da54d97c1d060c01b612076565b610cf767480867790d9b593160c01b612076565b7f4004c8e71aad34e8beebca07081f9f3bd647ba21279d23f76a3d98d077dd3ffb82604051610d26919061273b565b60405180910390a1610d4267d1c24ddb75d9ba8b60c01b612076565b610d5667e5ff5cc6959ab9fb60c01b612076565b6008549050919050565b610d68612343565b610d7260006123c1565b565b600b5481565b60008060009054906101000a900473ffffffffffffffffffffffffffffffffffffffff16905090565b610db7679a2b0c51d60f5db660c01b612076565b610dcb6722faa09927b7e28860c01b612076565b610ddf6791fb27e0d23330f960c01b612076565b610df3676c788928fc6c54a660c01b612076565b62278d00600754610e049190612a8f565b421015610e46576040517f08c379a0000000000000000000000000000000000000000000000000000000008152600401610e3d90612c16565b60405180910390fd5b610e5a67b32b045988079e0a60c01b612076565b610e6e67c37cb31cfccd04e460c01b612076565b610e82678f5b834d13f21f4b60c01b612076565b6000610e8d82611853565b9050610ea36730314c026bff71ee60c01b612076565b610eb767d2e581064d9c307760c01b612076565b610ecb678b7a11338cb8918660c01b612076565b60008111610f0e576040517f08c379a0000000000000000000000000000000000000000000000000000000008152600401610f0590612c82565b60405180910390fd5b610f226749fb96fb7ce9ca2860c01b612076565b610f36670b63819869f124de60c01b612076565b610f4a67224c979c387f156060c01b612076565b6000600d60008473ffffffffffffffffffffffffffffffffffffffff1673ffffffffffffffffffffffffffffffffffffffff168152602001908152602001600020549050610fa2675f521c3e181eea4d60c01b612076565b6000600d60008573ffffffffffffffffffffffffffffffffffffffff1673ffffffffffffffffffffffffffffffffffffffff16815260200190815260200160002081905550610ffb6759dbb4df0d90ffb460c01b612076565b61100f6716570445208dc29d60c01b612076565b611017610d7a565b73ffffffffffffffffffffffffffffffffffffffff168373ffffffffffffffffffffffffffffffffffffffff160361107e5761105d67ba7f4083989f5d9660c01b612076565b6110716758d98a532f04bb1360c01b612076565b6000600681905550611093565b611092676ad3f71397765bd560c01b612076565b5b6110a767354920957c9db00460c01b612076565b6110bb67fca4b9f42a73eff560c01b612076565b6111088383600560009054906101000a900473ffffffffffffffffffffffffffffffffffffffff1673ffffffffffffffffffffffffffffffffffffffff166122bd9092919063ffffffff16565b61111c678177bbe1d468252260c01b612076565b6111306709c7cfa1699c36fc60c01b612076565b8273ffffffffffffffffffffffffffffffffffffffff167fe2403640ba68fed3a2f88b7557551d1993f84b99bb10ff833f0cf8db0c5e048683604051611176919061273b565b60405180910390a2505050565b61119767c67cb1a6fc68cfad60c01b612076565b61119f612343565b6111b36721a95db39e79eeb260c01b612076565b6111c76757566cb5ef9ab36060c01b612076565b6111db674b562871e62bc90e60c01b612076565b6111ef67a50f60bfc98f5f2160c01b612076565b6111f98282612079565b61120d6742c33c10b5198f5e60c01b612076565b61122167b648b11ab73df84060c01b612076565b7f88e4869609343bf3731e4da7ecfe0425d78029f1ab1f9cb9efc4dbbafc1a25668282604051611252929190612ac3565b60405180910390a15050565b61127267bf8b2328e16be5ae60c01b612076565b611286673ac9987a595e1b4260c01b612076565b61129a6798f92f5d474c57af60c01b612076565b6112ae673aa0596048082db960c01b612076565b600082116112f1576040517f08c379a00000000000000000000000000000000000000000000000000000000081526004016112e890612d14565b60405180910390fd5b61130567c29e529388fa45f060c01b612076565b611319674ad8e566502b13f660c01b612076565b61132d67cfbeb3dead03823f60c01b612076565b6113416734822ac092dc5e1560c01b612076565b6001811015611385576040517f08c379a000000000000000000000000000000000000000000000000000000000815260040161137c906129fe565b60405180910390fd5b611399671bb6de64e02506b160c01b612076565b6113ad6749b1d866aef1ebca60c01b612076565b6113c167bf0e31f6ab909dc260c01b612076565b6000600260009054906101000a900473ffffffffffffffffffffffffffffffffffffffff1673ffffffffffffffffffffffffffffffffffffffff1663ce77ba62600360009054906101000a900473ffffffffffffffffffffffffffffffffffffffff16600460009054906101000a900473ffffffffffffffffffffffffffffffffffffffff1685876114539190612a4d565b6040518463ffffffff1660e01b815260040161147193929190612b51565b602060405180830381865afa15801561148e573d6000803e3d6000fd5b505050506040513d601f19601f820116820180604052508101906114b29190612b9d565b90506114c867fd972c54909e0b6160c01b612076565b6114dc6747804c4bc54b38f160c01b612076565b600160009054906101000a900473ffffffffffffffffffffffffffffffffffffffff1673ffffffffffffffffffffffffffffffffffffffff1663c5ebeaec826040518263ffffffff1660e01b8152600401611537919061273b565b600060405180830381600087803b15801561155157600080fd5b505af1158015611565573d6000803e3d6000fd5b5050505061157d6740193671f8ea4baa60c01b612076565b806009600082825461158f9190612a8f565b925050819055506115aa6761d348412118209460c01b612076565b82600a60008282546115bc9190612a8f565b925050819055506115d767d2a8308cc17cd9f460c01b612076565b6115eb6736545aa0a8ef6da760c01b612076565b6116003383856115fb9190612a4d565b612079565b61161467ac5825e15e6edfe260c01b612076565b6116286795a8a2b7306817c260c01b612076565b600360009054906101000a900473ffffffffffffffffffffffffffffffffffffffff1673ffffffffffffffffffffffffffffffffffffffff1663095ea7b3600260009054906101000a900473ffffffffffffffffffffffffffffffffffffffff16836040518363ffffffff1660e01b81526004016116a7929190612ac3565b6020604051808303816000875af11580156116c6573d6000803e3d6000fd5b505050506040513d601f19601f820116820180604052508101906116ea9190612b24565b506116ff672b9d317ba659a45a60c01b612076565b6117136786a3a71aa862a25560c01b612076565b600260009054906101000a900473ffffffffffffffffffffffffffffffffffffffff1673ffffffffffffffffffffffffffffffffffffffff1663153e66e6600360009054906101000a900473ffffffffffffffffffffffffffffffffffffffff16600460009054906101000a900473ffffffffffffffffffffffffffffffffffffffff16866040518463ffffffff1660e01b81526004016117b693929190612b51565b6020604051808303816000875af11580156117d5573d6000803e3d6000fd5b505050506040513d601f19601f820116820180604052508101906117f99190612b9d565b5061180e67ecc2edd4d7972bfb60c01b612076565b6118226711a330d2292ebe6e60c01b612076565b7f81a5c85f807906a0759335611ceb64ea789ed0196ccf836d98c9573a56582b7f60405160405180910390a1505050565b6000611869678d5c8cee0d6cd8f460c01b612076565b61187d6765a60d323a262aca60c01b612076565b6118916739317a33212daa3a60c01b612076565b6118a567659ef3db5756659b60c01b612076565b6000600654116118ea576040517f08c379a00000000000000000000000000000000000000000000000000000000081526004016118e190612d80565b60405180910390fd5b6118fe67c5f539d133790fa460c01b612076565b6119126755607c3fffb9d91a60c01b612076565b61192667e5490044f5bc59d960c01b612076565b6000600754426119369190612da0565b905061194c67fcd9d35deda9240d60c01b612076565b611960679a475476e7093c9060c01b612076565b6000816008546119709190612a4d565b9050611986674915b4504e5db63660c01b612076565b61199a67e36002f076bae89460c01b612076565b6000600d60008673ffffffffffffffffffffffffffffffffffffffff1673ffffffffffffffffffffffffffffffffffffffff1681526020019081526020016000205490506119f267b778dc20c0043fbd60c01b612076565b611a0667442825b7274a109760c01b612076565b600060065482611a169190612e03565b9050611a2c67a67dc0c9000a8b3860c01b612076565b611a406740f42080f1ddfbdc60c01b612076565b8281611a4c9190612a4d565b945050505050919050565b611a5f612343565b600073ffffffffffffffffffffffffffffffffffffffff168173ffffffffffffffffffffffffffffffffffffffff1603611ace576040517f08c379a0000000000000000000000000000000000000000000000000000000008152600401611ac590612ea6565b60405180910390fd5b611ad7816123c1565b50565b611aee67aced633a916b337560c01b612076565b611b02674decf09dc4e36c1d60c01b612076565b611b1667715d3a6ddf4abdae60c01b612076565b600460009054906101000a900473ffffffffffffffffffffffffffffffffffffffff1673ffffffffffffffffffffffffffffffffffffffff1663095ea7b3600260009054906101000a900473ffffffffffffffffffffffffffffffffffffffff16600c546040518363ffffffff1660e01b8152600401611b97929190612ac3565b6020604051808303816000875af1158015611bb6573d6000803e3d6000fd5b505050506040513d601f19601f82011682018060405250810190611bda9190612b24565b50611bef677f5ed04bb28f3fbc60c01b612076565b611c03675dc58a8a2f5c2def60c01b612076565b600360009054906101000a900473ffffffffffffffffffffffffffffffffffffffff1673ffffffffffffffffffffffffffffffffffffffff1663095ea7b3600160009054906101000a900473ffffffffffffffffffffffffffffffffffffffff16600b546040518363ffffffff1660e01b8152600401611c84929190612ac3565b6020604051808303816000875af1158015611ca3573d6000803e3d6000fd5b505050506040513d601f19601f82011682018060405250810190611cc79190612b24565b50611cdc6714a14107ff89f16c60c01b612076565b611cf0679e2da654419a8d5a60c01b612076565b600160009054906101000a900473ffffffffffffffffffffffffffffffffffffffff1673ffffffffffffffffffffffffffffffffffffffff1663371fd8e6600b546040518263ffffffff1660e01b8152600401611d4d919061273b565b600060405180830381600087803b158015611d6757600080fd5b505af1158015611d7b573d6000803e3d6000fd5b50505050611d9367963e6215af5bbcf360c01b612076565b6000600b81905550611daf670c80e4a670b79ef760c01b612076565b6000600c81905550611dcb6798d49e7f4f3ca02360c01b612076565b611ddf67180a86f422a0a1e160c01b612076565b611deb33600c54612079565b611dff67ff4afdf66dd803db60c01b612076565b611e1367e87dcbbf2b1acb7160c01b612076565b6000600460009054906101000a900473ffffffffffffffffffffffffffffffffffffffff1673ffffffffffffffffffffffffffffffffffffffff166370a08231306040518263ffffffff1660e01b8152600401611e709190612835565b602060405180830381865afa158015611e8d573d6000803e3d6000fd5b505050506040513d601f19601f82011682018060405250810190611eb19190612b9d565b9050611ec7679bcb1aea4c9bb06060c01b612076565b611edb6728deea968f2eadc060c01b612076565b611f2f611ee6610d7a565b82600460009054906101000a900473ffffffffffffffffffffffffffffffffffffffff1673ffffffffffffffffffffffffffffffffffffffff166122bd9092919063ffffffff16565b611f436763afa528f685f85660c01b612076565b611f576790e140b67b6b363060c01b612076565b7f1eacc206eaa257738210016c4b580948367fd2c683058d13fe748a663f8933d060405160405180910390a150565b6000611f9c67404f6f45d591998460c01b612076565b611fa4612343565b611fb8679e96396f97094bae60c01b612076565b611fcc672d695de50985890160c01b612076565b611fe0672861bf169c659b6860c01b612076565b81600681905550611ffb674d6a5245fc09baed60c01b612076565b61200f6723b96fe5bc47a63360c01b612076565b7faa7bd4ccef0caa9441d70d5c1d1fab8cef584e0adfde6b1cf162ba2ea6fb26018260405161203e919061273b565b60405180910390a161205a6773761e8139c2b38d60c01b612076565b61206e67e56d0b8c8c774f2860c01b612076565b819050919050565b50565b61208d678362e3129279c67160c01b612076565b6120a167b619059f0199c47a60c01b612076565b80600d60008473ffffffffffffffffffffffffffffffffffffffff1673ffffffffffffffffffffffffffffffffffffffff16815260200190815260200160002060008282546120f09190612a8f565b9250508190555061210b6793d83b1e6665134160c01b612076565b806006600082825461211d9190612a8f565b9250508190555061213867e7a3a00ca67e2fa060c01b612076565b61214c67a764a9b3d2490c4760c01b612076565b62278d0060075461215d9190612a8f565b42111561220d57612178678e703ddd0e016f9360c01b612076565b61218c67813e6833e4cf6bda60c01b612076565b426007819055506121a767a2e38be0de40148a60c01b612076565b6000600d60008473ffffffffffffffffffffffffffffffffffffffff1673ffffffffffffffffffffffffffffffffffffffff1681526020019081526020016000208190555061220067ea438745c0bbbcea60c01b612076565b60006006819055506122b9565b61222167a9445a948f96cd0660c01b612076565b61223567eff9406d85da7c8460c01b612076565b80600d60008473ffffffffffffffffffffffffffffffffffffffff1673ffffffffffffffffffffffffffffffffffffffff16815260200190815260200160002060008282546122849190612a8f565b9250508190555061229f673c438b2f3ba2fafd60c01b612076565b80600660008282546122b19190612a8f565b925050819055505b5050565b61233e8363a9059cbb60e01b84846040516024016122dc929190612ac3565b604051602081830303815290604052907bffffffffffffffffffffffffffffffffffffffffffffffffffffffff19166020820180517bffffffffffffffffffffffffffffffffffffffffffffffffffffffff8381831617835250505050612485565b505050565b61234b61254d565b73ffffffffffffffffffffffffffffffffffffffff16612369610d7a565b73ffffffffffffffffffffffffffffffffffffffff16146123bf576040517f08c379a00000000000000000000000000000000000000000000000000000000081526004016123b690612f12565b60405180910390fd5b565b60008060009054906101000a900473ffffffffffffffffffffffffffffffffffffffff169050816000806101000a81548173ffffffffffffffffffffffffffffffffffffffff021916908373ffffffffffffffffffffffffffffffffffffffff1602179055508173ffffffffffffffffffffffffffffffffffffffff168173ffffffffffffffffffffffffffffffffffffffff167f8be0079c531659141344cd1fd0a4f28419497f9722a3daafe3b4186f6b6457e060405160405180910390a35050565b60006124e7826040518060400160405280602081526020017f5361666545524332303a206c6f772d6c6576656c2063616c6c206661696c65648152508573ffffffffffffffffffffffffffffffffffffffff166125559092919063ffffffff16565b90506000815114806125095750808060200190518101906125089190612b24565b5b612548576040517f08c379a000000000000000000000000000000000000000000000000000000000815260040161253f90612fa4565b60405180910390fd5b505050565b600033905090565b6060612564848460008561256d565b90509392505050565b6060824710156125b2576040517f08c379a00000000000000000000000000000000000000000000000000000000081526004016125a990613036565b60405180910390fd5b6000808673ffffffffffffffffffffffffffffffffffffffff1685876040516125db91906130c7565b60006040518083038185875af1925050503d8060008114612618576040519150601f19603f3d011682016040523d82523d6000602084013e61261d565b606091505b509150915061262e8783838761263a565b92505050949350505050565b6060831561269c57600083510361269457612654856126af565b612693576040517f08c379a000000000000000000000000000000000000000000000000000000000815260040161268a9061312a565b60405180910390fd5b5b8290506126a7565b6126a683836126d2565b5b949350505050565b6000808273ffffffffffffffffffffffffffffffffffffffff163b119050919050565b6000825111156126e55781518083602001fd5b806040517f08c379a0000000000000000000000000000000000000000000000000000000008152600401612719919061319f565b60405180910390fd5b6000819050919050565b61273581612722565b82525050565b6000602082019050612750600083018461272c565b92915050565b600080fd5b61276481612722565b811461276f57600080fd5b50565b6000813590506127818161275b565b92915050565b6000806040838503121561279e5761279d612756565b5b60006127ac85828601612772565b92505060206127bd85828601612772565b9150509250929050565b6000602082840312156127dd576127dc612756565b5b60006127eb84828501612772565b91505092915050565b600073ffffffffffffffffffffffffffffffffffffffff82169050919050565b600061281f826127f4565b9050919050565b61282f81612814565b82525050565b600060208201905061284a6000830184612826565b92915050565b61285981612814565b811461286457600080fd5b50565b60008135905061287681612850565b92915050565b60006020828403121561289257612891612756565b5b60006128a084828501612867565b91505092915050565b600080604083850312156128c0576128bf612756565b5b60006128ce85828601612867565b92505060206128df85828601612772565b9150509250929050565b600082825260208201905092915050565b7f416d6f756e7420746f2073656c6c206d7573742062652067726561746572207460008201527f68616e207a65726f000000000000000000000000000000000000000000000000602082015250565b60006129566028836128e9565b9150612961826128fa565b604082019050919050565b6000602082019050818103600083015261298581612949565b9050919050565b7f4c65766572616765206d7573742062652067726561746572207468616e206f7260008201527f20657175616c20746f2031000000000000000000000000000000000000000000602082015250565b60006129e8602b836128e9565b91506129f38261298c565b604082019050919050565b60006020820190508181036000830152612a17816129db565b9050919050565b7f4e487b7100000000000000000000000000000000000000000000000000000000600052601160045260246000fd5b6000612a5882612722565b9150612a6383612722565b9250828202612a7181612722565b91508282048414831517612a8857612a87612a1e565b5b5092915050565b6000612a9a82612722565b9150612aa583612722565b9250828201905080821115612abd57612abc612a1e565b5b92915050565b6000604082019050612ad86000830185612826565b612ae5602083018461272c565b9392505050565b60008115159050919050565b612b0181612aec565b8114612b0c57600080fd5b50565b600081519050612b1e81612af8565b92915050565b600060208284031215612b3a57612b39612756565b5b6000612b4884828501612b0f565b91505092915050565b6000606082019050612b666000830186612826565b612b736020830185612826565b612b80604083018461272c565b949350505050565b600081519050612b978161275b565b92915050565b600060208284031215612bb357612bb2612756565b5b6000612bc184828501612b88565b91505092915050565b7f52657761726420706572696f6420686173206e6f7420656e6465642079657400600082015250565b6000612c00601f836128e9565b9150612c0b82612bca565b602082019050919050565b60006020820190508181036000830152612c2f81612bf3565b9050919050565b7f4e6f2072657761726420666f72207468697320706572696f6400000000000000600082015250565b6000612c6c6019836128e9565b9150612c7782612c36565b602082019050919050565b60006020820190508181036000830152612c9b81612c5f565b9050919050565b7f416d6f756e7420746f20627579206d757374206265206772656174657220746860008201527f616e207a65726f00000000000000000000000000000000000000000000000000602082015250565b6000612cfe6027836128e9565b9150612d0982612ca2565b604082019050919050565b60006020820190508181036000830152612d2d81612cf1565b9050919050565b7f4d61726b657420766f6c756d65206973207a65726f0000000000000000000000600082015250565b6000612d6a6015836128e9565b9150612d7582612d34565b602082019050919050565b60006020820190508181036000830152612d9981612d5d565b9050919050565b6000612dab82612722565b9150612db683612722565b9250828203905081811115612dce57612dcd612a1e565b5b92915050565b7f4e487b7100000000000000000000000000000000000000000000000000000000600052601260045260246000fd5b6000612e0e82612722565b9150612e1983612722565b925082612e2957612e28612dd4565b5b828204905092915050565b7f4f776e61626c653a206e6577206f776e657220697320746865207a65726f206160008201527f6464726573730000000000000000000000000000000000000000000000000000602082015250565b6000612e906026836128e9565b9150612e9b82612e34565b604082019050919050565b60006020820190508181036000830152612ebf81612e83565b9050919050565b7f4f776e61626c653a2063616c6c6572206973206e6f7420746865206f776e6572600082015250565b6000612efc6020836128e9565b9150612f0782612ec6565b602082019050919050565b60006020820190508181036000830152612f2b81612eef565b9050919050565b7f5361666545524332303a204552433230206f7065726174696f6e20646964206e60008201527f6f74207375636365656400000000000000000000000000000000000000000000602082015250565b6000612f8e602a836128e9565b9150612f9982612f32565b604082019050919050565b60006020820190508181036000830152612fbd81612f81565b9050919050565b7f416464726573733a20696e73756666696369656e742062616c616e636520666f60008201527f722063616c6c0000000000000000000000000000000000000000000000000000602082015250565b60006130206026836128e9565b915061302b82612fc4565b604082019050919050565b6000602082019050818103600083015261304f81613013565b9050919050565b600081519050919050565b600081905092915050565b60005b8381101561308a57808201518184015260208101905061306f565b60008484015250505050565b60006130a182613056565b6130ab8185613061565b93506130bb81856020860161306c565b80840191505092915050565b60006130d38284613096565b915081905092915050565b7f416464726573733a2063616c6c20746f206e6f6e2d636f6e7472616374000000600082015250565b6000613114601d836128e9565b915061311f826130de565b602082019050919050565b6000602082019050818103600083015261314381613107565b9050919050565b600081519050919050565b6000601f19601f8301169050919050565b60006131718261314a565b61317b81856128e9565b935061318b81856020860161306c565b61319481613155565b840191505092915050565b600060208201905081810360008301526131b98184613166565b90509291505056fea26469706673582212205c02d267caacaf9e5c7bde0c64aa54ce0980d456181e68af8dad10755c94527f64736f6c63430008170033","opcodes":"PUSH1 0x80 PUSH1 0x40 MSTORE CALLVALUE DUP1 ISZERO PUSH3 0x11 JUMPI PUSH1 0x0 DUP1 REVERT JUMPDEST POP PUSH1 0x40 MLOAD PUSH3 0x36A6 CODESIZE SUB DUP1 PUSH3 0x36A6 DUP4 CODECOPY DUP2 DUP2 ADD PUSH1 0x40 MSTORE DUP2 ADD SWAP1 PUSH3 0x37 SWAP2 SWAP1 PUSH3 0x403 JUMP JUMPDEST PUSH3 0x57 PUSH3 0x4B PUSH3 0x28F PUSH1 0x20 SHL PUSH1 0x20 SHR JUMP JUMPDEST PUSH3 0x297 PUSH1 0x20 SHL PUSH1 0x20 SHR JUMP JUMPDEST PUSH3 0x73 PUSH8 0x1BD78F89ECF41D9C PUSH1 0xC0 SHL PUSH3 0x35B PUSH1 0x20 SHL PUSH1 0x20 SHR JUMP JUMPDEST PUSH3 0x8F PUSH8 0x4834EB078AA3A9F8 PUSH1 0xC0 SHL PUSH3 0x35B PUSH1 0x20 SHL PUSH1 0x20 SHR JUMP JUMPDEST DUP6 PUSH1 0x1 PUSH1 0x0 PUSH2 0x100 EXP DUP2 SLOAD DUP2 PUSH20 0xFFFFFFFFFFFFFFFFFFFFFFFFFFFFFFFFFFFFFFFF MUL NOT AND SWAP1 DUP4 PUSH20 0xFFFFFFFFFFFFFFFFFFFFFFFFFFFFFFFFFFFFFFFF AND MUL OR SWAP1 SSTORE POP PUSH3 0xEC PUSH8 0x1D779514BBC99487 PUSH1 0xC0 SHL PUSH3 0x35B PUSH1 0x20 SHL PUSH1 0x20 SHR JUMP JUMPDEST DUP5 PUSH1 0x2 PUSH1 0x0 PUSH2 0x100 EXP DUP2 SLOAD DUP2 PUSH20 0xFFFFFFFFFFFFFFFFFFFFFFFFFFFFFFFFFFFFFFFF MUL NOT AND SWAP1 DUP4 PUSH20 0xFFFFFFFFFFFFFFFFFFFFFFFFFFFFFFFFFFFFFFFF AND MUL OR SWAP1 SSTORE POP PUSH3 0x149 PUSH8 0x5D0ECF978AAC0DAE PUSH1 0xC0 SHL PUSH3 0x35B PUSH1 0x20 SHL PUSH1 0x20 SHR JUMP JUMPDEST DUP4 PUSH1 0x3 PUSH1 0x0 PUSH2 0x100 EXP DUP2 SLOAD DUP2 PUSH20 0xFFFFFFFFFFFFFFFFFFFFFFFFFFFFFFFFFFFFFFFF MUL NOT AND SWAP1 DUP4 PUSH20 0xFFFFFFFFFFFFFFFFFFFFFFFFFFFFFFFFFFFFFFFF AND MUL OR SWAP1 SSTORE POP PUSH3 0x1A6 PUSH8 0xD229EDD7A47AC636 PUSH1 0xC0 SHL PUSH3 0x35B PUSH1 0x20 SHL PUSH1 0x20 SHR JUMP JUMPDEST DUP3 PUSH1 0x4 PUSH1 0x0 PUSH2 0x100 EXP DUP2 SLOAD DUP2 PUSH20 0xFFFFFFFFFFFFFFFFFFFFFFFFFFFFFFFFFFFFFFFF MUL NOT AND SWAP1 DUP4 PUSH20 0xFFFFFFFFFFFFFFFFFFFFFFFFFFFFFFFFFFFFFFFF AND MUL OR SWAP1 SSTORE POP PUSH3 0x203 PUSH8 0x5756B9C3DA6EE2CA PUSH1 0xC0 SHL PUSH3 0x35B PUSH1 0x20 SHL PUSH1 0x20 SHR JUMP JUMPDEST DUP2 PUSH1 0x5 PUSH1 0x0 PUSH2 0x100 EXP DUP2 SLOAD DUP2 PUSH20 0xFFFFFFFFFFFFFFFFFFFFFFFFFFFFFFFFFFFFFFFF MUL NOT AND SWAP1 DUP4 PUSH20 0xFFFFFFFFFFFFFFFFFFFFFFFFFFFFFFFFFFFFFFFF AND MUL OR SWAP1 SSTORE POP PUSH3 0x260 PUSH8 0x76E0D3A8E308C449 PUSH1 0xC0 SHL PUSH3 0x35B PUSH1 0x20 SHL PUSH1 0x20 SHR JUMP JUMPDEST PUSH3 0x27C PUSH8 0x48E799FE5814158C PUSH1 0xC0 SHL PUSH3 0x35B PUSH1 0x20 SHL PUSH1 0x20 SHR JUMP JUMPDEST TIMESTAMP PUSH1 0x7 DUP2 SWAP1 SSTORE POP POP POP POP POP POP POP PUSH3 0x49F JUMP JUMPDEST PUSH1 0x0 CALLER SWAP1 POP SWAP1 JUMP JUMPDEST PUSH1 0x0 DUP1 PUSH1 0x0 SWAP1 SLOAD SWAP1 PUSH2 0x100 EXP SWAP1 DIV PUSH20 0xFFFFFFFFFFFFFFFFFFFFFFFFFFFFFFFFFFFFFFFF AND SWAP1 POP DUP2 PUSH1 0x0 DUP1 PUSH2 0x100 EXP DUP2 SLOAD DUP2 PUSH20 0xFFFFFFFFFFFFFFFFFFFFFFFFFFFFFFFFFFFFFFFF MUL NOT AND SWAP1 DUP4 PUSH20 0xFFFFFFFFFFFFFFFFFFFFFFFFFFFFFFFFFFFFFFFF AND MUL OR SWAP1 SSTORE POP DUP2 PUSH20 0xFFFFFFFFFFFFFFFFFFFFFFFFFFFFFFFFFFFFFFFF AND DUP2 PUSH20 0xFFFFFFFFFFFFFFFFFFFFFFFFFFFFFFFFFFFFFFFF AND PUSH32 0x8BE0079C531659141344CD1FD0A4F28419497F9722A3DAAFE3B4186F6B6457E0 PUSH1 0x40 MLOAD PUSH1 0x40 MLOAD DUP1 SWAP2 SUB SWAP1 LOG3 POP POP JUMP JUMPDEST POP JUMP JUMPDEST PUSH1 0x0 DUP1 REVERT JUMPDEST PUSH1 0x0 PUSH20 0xFFFFFFFFFFFFFFFFFFFFFFFFFFFFFFFFFFFFFFFF DUP3 AND SWAP1 POP SWAP2 SWAP1 POP JUMP JUMPDEST PUSH1 0x0 PUSH3 0x390 DUP3 PUSH3 0x363 JUMP JUMPDEST SWAP1 POP SWAP2 SWAP1 POP JUMP JUMPDEST PUSH3 0x3A2 DUP2 PUSH3 0x383 JUMP JUMPDEST DUP2 EQ PUSH3 0x3AE JUMPI PUSH1 0x0 DUP1 REVERT JUMPDEST POP JUMP JUMPDEST PUSH1 0x0 DUP2 MLOAD SWAP1 POP PUSH3 0x3C2 DUP2 PUSH3 0x397 JUMP JUMPDEST SWAP3 SWAP2 POP POP JUMP JUMPDEST PUSH1 0x0 DUP2 SWAP1 POP SWAP2 SWAP1 POP JUMP JUMPDEST PUSH3 0x3DD DUP2 PUSH3 0x3C8 JUMP JUMPDEST DUP2 EQ PUSH3 0x3E9 JUMPI PUSH1 0x0 DUP1 REVERT JUMPDEST POP JUMP JUMPDEST PUSH1 0x0 DUP2 MLOAD SWAP1 POP PUSH3 0x3FD DUP2 PUSH3 0x3D2 JUMP JUMPDEST SWAP3 SWAP2 POP POP JUMP JUMPDEST PUSH1 0x0 DUP1 PUSH1 0x0 DUP1 PUSH1 0x0 DUP1 PUSH1 0xC0 DUP8 DUP10 SUB SLT ISZERO PUSH3 0x423 JUMPI PUSH3 0x422 PUSH3 0x35E JUMP JUMPDEST JUMPDEST PUSH1 0x0 PUSH3 0x433 DUP10 DUP3 DUP11 ADD PUSH3 0x3B1 JUMP JUMPDEST SWAP7 POP POP PUSH1 0x20 PUSH3 0x446 DUP10 DUP3 DUP11 ADD PUSH3 0x3B1 JUMP JUMPDEST SWAP6 POP POP PUSH1 0x40 PUSH3 0x459 DUP10 DUP3 DUP11 ADD PUSH3 0x3B1 JUMP JUMPDEST SWAP5 POP POP PUSH1 0x60 PUSH3 0x46C DUP10 DUP3 DUP11 ADD PUSH3 0x3B1 JUMP JUMPDEST SWAP4 POP POP PUSH1 0x80 PUSH3 0x47F DUP10 DUP3 DUP11 ADD PUSH3 0x3B1 JUMP JUMPDEST SWAP3 POP POP PUSH1 0xA0 PUSH3 0x492 DUP10 DUP3 DUP11 ADD PUSH3 0x3EC JUMP JUMPDEST SWAP2 POP POP SWAP3 SWAP6 POP SWAP3 SWAP6 POP SWAP3 SWAP6 JUMP JUMPDEST PUSH2 0x31F7 DUP1 PUSH3 0x4AF PUSH1 0x0 CODECOPY PUSH1 0x0 RETURN INVALID PUSH1 0x80 PUSH1 0x40 MSTORE CALLVALUE DUP1 ISZERO PUSH2 0x10 JUMPI PUSH1 0x0 DUP1 REVERT JUMPDEST POP PUSH1 0x4 CALLDATASIZE LT PUSH2 0x100 JUMPI PUSH1 0x0 CALLDATALOAD PUSH1 0xE0 SHR DUP1 PUSH4 0x8DA5CB5B GT PUSH2 0x97 JUMPI DUP1 PUSH4 0xD82E3962 GT PUSH2 0x66 JUMPI DUP1 PUSH4 0xD82E3962 EQ PUSH2 0x24F JUMPI DUP1 PUSH4 0xF2FDE38B EQ PUSH2 0x27F JUMPI DUP1 PUSH4 0xF8432A1B EQ PUSH2 0x29B JUMPI DUP1 PUSH4 0xFDDA45DC EQ PUSH2 0x2A5 JUMPI PUSH2 0x100 JUMP JUMPDEST DUP1 PUSH4 0x8DA5CB5B EQ PUSH2 0x1DD JUMPI DUP1 PUSH4 0x8E9B277D EQ PUSH2 0x1FB JUMPI DUP1 PUSH4 0x93D75DB5 EQ PUSH2 0x217 JUMPI DUP1 PUSH4 0xC181D418 EQ PUSH2 0x233 JUMPI PUSH2 0x100 JUMP JUMPDEST DUP1 PUSH4 0x3EF32E0D GT PUSH2 0xD3 JUMPI DUP1 PUSH4 0x3EF32E0D EQ PUSH2 0x167 JUMPI DUP1 PUSH4 0x66DA5815 EQ PUSH2 0x185 JUMPI DUP1 PUSH4 0x715018A6 EQ PUSH2 0x1B5 JUMPI DUP1 PUSH4 0x84EA96F5 EQ PUSH2 0x1BF JUMPI PUSH2 0x100 JUMP JUMPDEST DUP1 PUSH4 0x32D4038 EQ PUSH2 0x105 JUMPI DUP1 PUSH4 0x1266A619 EQ PUSH2 0x123 JUMPI DUP1 PUSH4 0x24F82526 EQ PUSH2 0x13F JUMPI DUP1 PUSH4 0x3CB3DAFA EQ PUSH2 0x149 JUMPI JUMPDEST PUSH1 0x0 DUP1 REVERT JUMPDEST PUSH2 0x10D PUSH2 0x2D5 JUMP JUMPDEST PUSH1 0x40 MLOAD PUSH2 0x11A SWAP2 SWAP1 PUSH2 0x273B JUMP JUMPDEST PUSH1 0x40 MLOAD DUP1 SWAP2 SUB SWAP1 RETURN JUMPDEST PUSH2 0x13D PUSH1 0x4 DUP1 CALLDATASIZE SUB DUP2 ADD SWAP1 PUSH2 0x138 SWAP2 SWAP1 PUSH2 0x2787 JUMP JUMPDEST PUSH2 0x2DB JUMP JUMPDEST STOP JUMPDEST PUSH2 0x147 PUSH2 0x7B6 JUMP JUMPDEST STOP JUMPDEST PUSH2 0x151 PUSH2 0xC62 JUMP JUMPDEST PUSH1 0x40 MLOAD PUSH2 0x15E SWAP2 SWAP1 PUSH2 0x273B JUMP JUMPDEST PUSH1 0x40 MLOAD DUP1 SWAP2 SUB SWAP1 RETURN JUMPDEST PUSH2 0x16F PUSH2 0xC68 JUMP JUMPDEST PUSH1 0x40 MLOAD PUSH2 0x17C SWAP2 SWAP1 PUSH2 0x273B JUMP JUMPDEST PUSH1 0x40 MLOAD DUP1 SWAP2 SUB SWAP1 RETURN JUMPDEST PUSH2 0x19F PUSH1 0x4 DUP1 CALLDATASIZE SUB DUP2 ADD SWAP1 PUSH2 0x19A SWAP2 SWAP1 PUSH2 0x27C7 JUMP JUMPDEST PUSH2 0xC6E JUMP JUMPDEST PUSH1 0x40 MLOAD PUSH2 0x1AC SWAP2 SWAP1 PUSH2 0x273B JUMP JUMPDEST PUSH1 0x40 MLOAD DUP1 SWAP2 SUB SWAP1 RETURN JUMPDEST PUSH2 0x1BD PUSH2 0xD60 JUMP JUMPDEST STOP JUMPDEST PUSH2 0x1C7 PUSH2 0xD74 JUMP JUMPDEST PUSH1 0x40 MLOAD PUSH2 0x1D4 SWAP2 SWAP1 PUSH2 0x273B JUMP JUMPDEST PUSH1 0x40 MLOAD DUP1 SWAP2 SUB SWAP1 RETURN JUMPDEST PUSH2 0x1E5 PUSH2 0xD7A JUMP JUMPDEST PUSH1 0x40 MLOAD PUSH2 0x1F2 SWAP2 SWAP1 PUSH2 0x2835 JUMP JUMPDEST PUSH1 0x40 MLOAD DUP1 SWAP2 SUB SWAP1 RETURN JUMPDEST PUSH2 0x215 PUSH1 0x4 DUP1 CALLDATASIZE SUB DUP2 ADD SWAP1 PUSH2 0x210 SWAP2 SWAP1 PUSH2 0x287C JUMP JUMPDEST PUSH2 0xDA3 JUMP JUMPDEST STOP JUMPDEST PUSH2 0x231 PUSH1 0x4 DUP1 CALLDATASIZE SUB DUP2 ADD SWAP1 PUSH2 0x22C SWAP2 SWAP1 PUSH2 0x28A9 JUMP JUMPDEST PUSH2 0x1183 JUMP JUMPDEST STOP JUMPDEST PUSH2 0x24D PUSH1 0x4 DUP1 CALLDATASIZE SUB DUP2 ADD SWAP1 PUSH2 0x248 SWAP2 SWAP1 PUSH2 0x2787 JUMP JUMPDEST PUSH2 0x125E JUMP JUMPDEST STOP JUMPDEST PUSH2 0x269 PUSH1 0x4 DUP1 CALLDATASIZE SUB DUP2 ADD SWAP1 PUSH2 0x264 SWAP2 SWAP1 PUSH2 0x287C JUMP JUMPDEST PUSH2 0x1853 JUMP JUMPDEST PUSH1 0x40 MLOAD PUSH2 0x276 SWAP2 SWAP1 PUSH2 0x273B JUMP JUMPDEST PUSH1 0x40 MLOAD DUP1 SWAP2 SUB SWAP1 RETURN JUMPDEST PUSH2 0x299 PUSH1 0x4 DUP1 CALLDATASIZE SUB DUP2 ADD SWAP1 PUSH2 0x294 SWAP2 SWAP1 PUSH2 0x287C JUMP JUMPDEST PUSH2 0x1A57 JUMP JUMPDEST STOP JUMPDEST PUSH2 0x2A3 PUSH2 0x1ADA JUMP JUMPDEST STOP JUMPDEST PUSH2 0x2BF PUSH1 0x4 DUP1 CALLDATASIZE SUB DUP2 ADD SWAP1 PUSH2 0x2BA SWAP2 SWAP1 PUSH2 0x27C7 JUMP JUMPDEST PUSH2 0x1F86 JUMP JUMPDEST PUSH1 0x40 MLOAD PUSH2 0x2CC SWAP2 SWAP1 PUSH2 0x273B JUMP JUMPDEST PUSH1 0x40 MLOAD DUP1 SWAP2 SUB SWAP1 RETURN JUMPDEST PUSH1 0xA SLOAD DUP2 JUMP JUMPDEST PUSH2 0x2EF PUSH8 0x532F295C02F378BC PUSH1 0xC0 SHL PUSH2 0x2076 JUMP JUMPDEST PUSH2 0x303 PUSH8 0x3AA1A3889E9E6546 PUSH1 0xC0 SHL PUSH2 0x2076 JUMP JUMPDEST PUSH2 0x317 PUSH8 0x36EBA0AD18D7434E PUSH1 0xC0 SHL PUSH2 0x2076 JUMP JUMPDEST PUSH2 0x32B PUSH8 0x6987014B002D7AE2 PUSH1 0xC0 SHL PUSH2 0x2076 JUMP JUMPDEST PUSH1 0x0 DUP3 GT PUSH2 0x36E JUMPI PUSH1 0x40 MLOAD PUSH32 0x8C379A000000000000000000000000000000000000000000000000000000000 DUP2 MSTORE PUSH1 0x4 ADD PUSH2 0x365 SWAP1 PUSH2 0x296C JUMP JUMPDEST PUSH1 0x40 MLOAD DUP1 SWAP2 SUB SWAP1 REVERT JUMPDEST PUSH2 0x382 PUSH8 0xD38CCE7D534E66D2 PUSH1 0xC0 SHL PUSH2 0x2076 JUMP JUMPDEST PUSH2 0x396 PUSH8 0xEC564B9D0321C078 PUSH1 0xC0 SHL PUSH2 0x2076 JUMP JUMPDEST PUSH2 0x3AA PUSH8 0x98C23F30D9B0B510 PUSH1 0xC0 SHL PUSH2 0x2076 JUMP JUMPDEST PUSH2 0x3BE PUSH8 0xD0ADDF823B9EC42E PUSH1 0xC0 SHL PUSH2 0x2076 JUMP JUMPDEST PUSH1 0x1 DUP2 LT ISZERO PUSH2 0x402 JUMPI PUSH1 0x40 MLOAD PUSH32 0x8C379A000000000000000000000000000000000000000000000000000000000 DUP2 MSTORE PUSH1 0x4 ADD PUSH2 0x3F9 SWAP1 PUSH2 0x29FE JUMP JUMPDEST PUSH1 0x40 MLOAD DUP1 SWAP2 SUB SWAP1 REVERT JUMPDEST PUSH2 0x416 PUSH8 0x8AB000BE31091AD PUSH1 0xC0 SHL PUSH2 0x2076 JUMP JUMPDEST PUSH2 0x42A PUSH8 0x704FF09DD41601C9 PUSH1 0xC0 SHL PUSH2 0x2076 JUMP JUMPDEST PUSH2 0x43E PUSH8 0x4DF67EFD82C7593B PUSH1 0xC0 SHL PUSH2 0x2076 JUMP JUMPDEST PUSH1 0x1 PUSH1 0x0 SWAP1 SLOAD SWAP1 PUSH2 0x100 EXP SWAP1 DIV PUSH20 0xFFFFFFFFFFFFFFFFFFFFFFFFFFFFFFFFFFFFFFFF AND PUSH20 0xFFFFFFFFFFFFFFFFFFFFFFFFFFFFFFFFFFFFFFFF AND PUSH4 0xC5EBEAEC DUP3 DUP5 PUSH2 0x488 SWAP2 SWAP1 PUSH2 0x2A4D JUMP JUMPDEST PUSH1 0x40 MLOAD DUP3 PUSH4 0xFFFFFFFF AND PUSH1 0xE0 SHL DUP2 MSTORE PUSH1 0x4 ADD PUSH2 0x4A4 SWAP2 SWAP1 PUSH2 0x273B JUMP JUMPDEST PUSH1 0x0 PUSH1 0x40 MLOAD DUP1 DUP4 SUB DUP2 PUSH1 0x0 DUP8 DUP1 EXTCODESIZE ISZERO DUP1 ISZERO PUSH2 0x4BE JUMPI PUSH1 0x0 DUP1 REVERT JUMPDEST POP GAS CALL ISZERO DUP1 ISZERO PUSH2 0x4D2 JUMPI RETURNDATASIZE PUSH1 0x0 DUP1 RETURNDATACOPY RETURNDATASIZE PUSH1 0x0 REVERT JUMPDEST POP POP POP POP PUSH2 0x4EA PUSH8 0x3141B6ED9D4D6E3B PUSH1 0xC0 SHL PUSH2 0x2076 JUMP JUMPDEST DUP1 DUP3 PUSH2 0x4F6 SWAP2 SWAP1 PUSH2 0x2A4D JUMP JUMPDEST PUSH1 0xB PUSH1 0x0 DUP3 DUP3 SLOAD PUSH2 0x507 SWAP2 SWAP1 PUSH2 0x2A8F JUMP JUMPDEST SWAP3 POP POP DUP2 SWAP1 SSTORE POP PUSH2 0x522 PUSH8 0x2EE72E3BD6B177E PUSH1 0xC0 SHL PUSH2 0x2076 JUMP JUMPDEST PUSH2 0x536 PUSH8 0xC1C213E90E567BA5 PUSH1 0xC0 SHL PUSH2 0x2076 JUMP JUMPDEST PUSH1 0x3 PUSH1 0x0 SWAP1 SLOAD SWAP1 PUSH2 0x100 EXP SWAP1 DIV PUSH20 0xFFFFFFFFFFFFFFFFFFFFFFFFFFFFFFFFFFFFFFFF AND PUSH20 0xFFFFFFFFFFFFFFFFFFFFFFFFFFFFFFFFFFFFFFFF AND PUSH4 0x95EA7B3 PUSH1 0x2 PUSH1 0x0 SWAP1 SLOAD SWAP1 PUSH2 0x100 EXP SWAP1 DIV PUSH20 0xFFFFFFFFFFFFFFFFFFFFFFFFFFFFFFFFFFFFFFFF AND DUP4 DUP6 PUSH2 0x5A3 SWAP2 SWAP1 PUSH2 0x2A4D JUMP JUMPDEST PUSH1 0x40 MLOAD DUP4 PUSH4 0xFFFFFFFF AND PUSH1 0xE0 SHL DUP2 MSTORE PUSH1 0x4 ADD PUSH2 0x5C0 SWAP3 SWAP2 SWAP1 PUSH2 0x2AC3 JUMP JUMPDEST PUSH1 0x20 PUSH1 0x40 MLOAD DUP1 DUP4 SUB DUP2 PUSH1 0x0 DUP8 GAS CALL ISZERO DUP1 ISZERO PUSH2 0x5DF JUMPI RETURNDATASIZE PUSH1 0x0 DUP1 RETURNDATACOPY RETURNDATASIZE PUSH1 0x0 REVERT JUMPDEST POP POP POP POP PUSH1 0x40 MLOAD RETURNDATASIZE PUSH1 0x1F NOT PUSH1 0x1F DUP3 ADD AND DUP3 ADD DUP1 PUSH1 0x40 MSTORE POP DUP2 ADD SWAP1 PUSH2 0x603 SWAP2 SWAP1 PUSH2 0x2B24 JUMP JUMPDEST POP PUSH2 0x618 PUSH8 0xF13B334FCABFEFFA PUSH1 0xC0 SHL PUSH2 0x2076 JUMP JUMPDEST PUSH1 0x2 PUSH1 0x0 SWAP1 SLOAD SWAP1 PUSH2 0x100 EXP SWAP1 DIV PUSH20 0xFFFFFFFFFFFFFFFFFFFFFFFFFFFFFFFFFFFFFFFF AND PUSH20 0xFFFFFFFFFFFFFFFFFFFFFFFFFFFFFFFFFFFFFFFF AND PUSH4 0xCAE270B6 PUSH1 0x3 PUSH1 0x0 SWAP1 SLOAD SWAP1 PUSH2 0x100 EXP SWAP1 DIV PUSH20 0xFFFFFFFFFFFFFFFFFFFFFFFFFFFFFFFFFFFFFFFF AND PUSH1 0x4 PUSH1 0x0 SWAP1 SLOAD SWAP1 PUSH2 0x100 EXP SWAP1 DIV PUSH20 0xFFFFFFFFFFFFFFFFFFFFFFFFFFFFFFFFFFFFFFFF AND DUP5 DUP7 PUSH2 0x6A8 SWAP2 SWAP1 PUSH2 0x2A4D JUMP JUMPDEST PUSH1 0x40 MLOAD DUP5 PUSH4 0xFFFFFFFF AND PUSH1 0xE0 SHL DUP2 MSTORE PUSH1 0x4 ADD PUSH2 0x6C6 SWAP4 SWAP3 SWAP2 SWAP1 PUSH2 0x2B51 JUMP JUMPDEST PUSH1 0x20 PUSH1 0x40 MLOAD DUP1 DUP4 SUB DUP2 PUSH1 0x0 DUP8 GAS CALL ISZERO DUP1 ISZERO PUSH2 0x6E5 JUMPI RETURNDATASIZE PUSH1 0x0 DUP1 RETURNDATACOPY RETURNDATASIZE PUSH1 0x0 REVERT JUMPDEST POP POP POP POP PUSH1 0x40 MLOAD RETURNDATASIZE PUSH1 0x1F NOT PUSH1 0x1F DUP3 ADD AND DUP3 ADD DUP1 PUSH1 0x40 MSTORE POP DUP2 ADD SWAP1 PUSH2 0x709 SWAP2 SWAP1 PUSH2 0x2B9D JUMP JUMPDEST PUSH1 0xC PUSH1 0x0 DUP3 DUP3 SLOAD PUSH2 0x71A SWAP2 SWAP1 PUSH2 0x2A8F JUMP JUMPDEST SWAP3 POP POP DUP2 SWAP1 SSTORE POP PUSH2 0x735 PUSH8 0x2CD50C8453D03C81 PUSH1 0xC0 SHL PUSH2 0x2076 JUMP JUMPDEST PUSH2 0x749 PUSH8 0xACF936F31E6B384 PUSH1 0xC0 SHL PUSH2 0x2076 JUMP JUMPDEST PUSH2 0x75E CALLER DUP3 DUP5 PUSH2 0x759 SWAP2 SWAP1 PUSH2 0x2A4D JUMP JUMPDEST PUSH2 0x2079 JUMP JUMPDEST PUSH2 0x772 PUSH8 0xE70B7EB7FD4521EF PUSH1 0xC0 SHL PUSH2 0x2076 JUMP JUMPDEST PUSH2 0x786 PUSH8 0x2F7BEB4B2C7DD4A0 PUSH1 0xC0 SHL PUSH2 0x2076 JUMP JUMPDEST PUSH32 0xDB84CACD536875E0714DD79E0FE743DE5A2871A8EB65115B5AA657E6CFBE7A51 PUSH1 0x40 MLOAD PUSH1 0x40 MLOAD DUP1 SWAP2 SUB SWAP1 LOG1 POP POP JUMP JUMPDEST PUSH2 0x7CA PUSH8 0x1681AB526F81F0CF PUSH1 0xC0 SHL PUSH2 0x2076 JUMP JUMPDEST PUSH2 0x7DE PUSH8 0xFEAD30054A5C828A PUSH1 0xC0 SHL PUSH2 0x2076 JUMP JUMPDEST PUSH2 0x7F2 PUSH8 0x38E831F61DCC8875 PUSH1 0xC0 SHL PUSH2 0x2076 JUMP JUMPDEST PUSH1 0x4 PUSH1 0x0 SWAP1 SLOAD SWAP1 PUSH2 0x100 EXP SWAP1 DIV PUSH20 0xFFFFFFFFFFFFFFFFFFFFFFFFFFFFFFFFFFFFFFFF AND PUSH20 0xFFFFFFFFFFFFFFFFFFFFFFFFFFFFFFFFFFFFFFFF AND PUSH4 0x95EA7B3 PUSH1 0x2 PUSH1 0x0 SWAP1 SLOAD SWAP1 PUSH2 0x100 EXP SWAP1 DIV PUSH20 0xFFFFFFFFFFFFFFFFFFFFFFFFFFFFFFFFFFFFFFFF AND PUSH1 0xA SLOAD PUSH1 0x40 MLOAD DUP4 PUSH4 0xFFFFFFFF AND PUSH1 0xE0 SHL DUP2 MSTORE PUSH1 0x4 ADD PUSH2 0x873 SWAP3 SWAP2 SWAP1 PUSH2 0x2AC3 JUMP JUMPDEST PUSH1 0x20 PUSH1 0x40 MLOAD DUP1 DUP4 SUB DUP2 PUSH1 0x0 DUP8 GAS CALL ISZERO DUP1 ISZERO PUSH2 0x892 JUMPI RETURNDATASIZE PUSH1 0x0 DUP1 RETURNDATACOPY RETURNDATASIZE PUSH1 0x0 REVERT JUMPDEST POP POP POP POP PUSH1 0x40 MLOAD RETURNDATASIZE PUSH1 0x1F NOT PUSH1 0x1F DUP3 ADD AND DUP3 ADD DUP1 PUSH1 0x40 MSTORE POP DUP2 ADD SWAP1 PUSH2 0x8B6 SWAP2 SWAP1 PUSH2 0x2B24 JUMP JUMPDEST POP PUSH2 0x8CB PUSH8 0xF21CD91998BC80EB PUSH1 0xC0 SHL PUSH2 0x2076 JUMP JUMPDEST PUSH2 0x8DF PUSH8 0xDC251A6FA982C7FD PUSH1 0xC0 SHL PUSH2 0x2076 JUMP JUMPDEST PUSH1 0x3 PUSH1 0x0 SWAP1 SLOAD SWAP1 PUSH2 0x100 EXP SWAP1 DIV PUSH20 0xFFFFFFFFFFFFFFFFFFFFFFFFFFFFFFFFFFFFFFFF AND PUSH20 0xFFFFFFFFFFFFFFFFFFFFFFFFFFFFFFFFFFFFFFFF AND PUSH4 0x95EA7B3 PUSH1 0x1 PUSH1 0x0 SWAP1 SLOAD SWAP1 PUSH2 0x100 EXP SWAP1 DIV PUSH20 0xFFFFFFFFFFFFFFFFFFFFFFFFFFFFFFFFFFFFFFFF AND PUSH1 0x9 SLOAD PUSH1 0x40 MLOAD DUP4 PUSH4 0xFFFFFFFF AND PUSH1 0xE0 SHL DUP2 MSTORE PUSH1 0x4 ADD PUSH2 0x960 SWAP3 SWAP2 SWAP1 PUSH2 0x2AC3 JUMP JUMPDEST PUSH1 0x20 PUSH1 0x40 MLOAD DUP1 DUP4 SUB DUP2 PUSH1 0x0 DUP8 GAS CALL ISZERO DUP1 ISZERO PUSH2 0x97F JUMPI RETURNDATASIZE PUSH1 0x0 DUP1 RETURNDATACOPY RETURNDATASIZE PUSH1 0x0 REVERT JUMPDEST POP POP POP POP PUSH1 0x40 MLOAD RETURNDATASIZE PUSH1 0x1F NOT PUSH1 0x1F DUP3 ADD AND DUP3 ADD DUP1 PUSH1 0x40 MSTORE POP DUP2 ADD SWAP1 PUSH2 0x9A3 SWAP2 SWAP1 PUSH2 0x2B24 JUMP JUMPDEST POP PUSH2 0x9B8 PUSH8 0xF141077258FA1ADB PUSH1 0xC0 SHL PUSH2 0x2076 JUMP JUMPDEST PUSH2 0x9CC PUSH8 0x8A6ECEC551EE8747 PUSH1 0xC0 SHL PUSH2 0x2076 JUMP JUMPDEST PUSH1 0x1 PUSH1 0x0 SWAP1 SLOAD SWAP1 PUSH2 0x100 EXP SWAP1 DIV PUSH20 0xFFFFFFFFFFFFFFFFFFFFFFFFFFFFFFFFFFFFFFFF AND PUSH20 0xFFFFFFFFFFFFFFFFFFFFFFFFFFFFFFFFFFFFFFFF AND PUSH4 0x371FD8E6 PUSH1 0x9 SLOAD PUSH1 0x40 MLOAD DUP3 PUSH4 0xFFFFFFFF AND PUSH1 0xE0 SHL DUP2 MSTORE PUSH1 0x4 ADD PUSH2 0xA29 SWAP2 SWAP1 PUSH2 0x273B JUMP JUMPDEST PUSH1 0x0 PUSH1 0x40 MLOAD DUP1 DUP4 SUB DUP2 PUSH1 0x0 DUP8 DUP1 EXTCODESIZE ISZERO DUP1 ISZERO PUSH2 0xA43 JUMPI PUSH1 0x0 DUP1 REVERT JUMPDEST POP GAS CALL ISZERO DUP1 ISZERO PUSH2 0xA57 JUMPI RETURNDATASIZE PUSH1 0x0 DUP1 RETURNDATACOPY RETURNDATASIZE PUSH1 0x0 REVERT JUMPDEST POP POP POP POP PUSH2 0xA6F PUSH8 0x5A93F4AD06942110 PUSH1 0xC0 SHL PUSH2 0x2076 JUMP JUMPDEST PUSH1 0x0 PUSH1 0x9 DUP2 SWAP1 SSTORE POP PUSH2 0xA8B PUSH8 0x8135EA83EB77F9EF PUSH1 0xC0 SHL PUSH2 0x2076 JUMP JUMPDEST PUSH1 0x0 PUSH1 0xA DUP2 SWAP1 SSTORE POP PUSH2 0xAA7 PUSH8 0xDA4AACD7927B5123 PUSH1 0xC0 SHL PUSH2 0x2076 JUMP JUMPDEST PUSH2 0xABB PUSH8 0x49B4C519736A9FE7 PUSH1 0xC0 SHL PUSH2 0x2076 JUMP JUMPDEST PUSH2 0xAC7 CALLER PUSH1 0xA SLOAD PUSH2 0x2079 JUMP JUMPDEST PUSH2 0xADB PUSH8 0x20CA85751A2C5F80 PUSH1 0xC0 SHL PUSH2 0x2076 JUMP JUMPDEST PUSH2 0xAEF PUSH8 0x9A7D92A04F92D724 PUSH1 0xC0 SHL PUSH2 0x2076 JUMP JUMPDEST PUSH1 0x0 PUSH1 0x3 PUSH1 0x0 SWAP1 SLOAD SWAP1 PUSH2 0x100 EXP SWAP1 DIV PUSH20 0xFFFFFFFFFFFFFFFFFFFFFFFFFFFFFFFFFFFFFFFF AND PUSH20 0xFFFFFFFFFFFFFFFFFFFFFFFFFFFFFFFFFFFFFFFF AND PUSH4 0x70A08231 ADDRESS PUSH1 0x40 MLOAD DUP3 PUSH4 0xFFFFFFFF AND PUSH1 0xE0 SHL DUP2 MSTORE PUSH1 0x4 ADD PUSH2 0xB4C SWAP2 SWAP1 PUSH2 0x2835 JUMP JUMPDEST PUSH1 0x20 PUSH1 0x40 MLOAD DUP1 DUP4 SUB DUP2 DUP7 GAS STATICCALL ISZERO DUP1 ISZERO PUSH2 0xB69 JUMPI RETURNDATASIZE PUSH1 0x0 DUP1 RETURNDATACOPY RETURNDATASIZE PUSH1 0x0 REVERT JUMPDEST POP POP POP POP PUSH1 0x40 MLOAD RETURNDATASIZE PUSH1 0x1F NOT PUSH1 0x1F DUP3 ADD AND DUP3 ADD DUP1 PUSH1 0x40 MSTORE POP DUP2 ADD SWAP1 PUSH2 0xB8D SWAP2 SWAP1 PUSH2 0x2B9D JUMP JUMPDEST SWAP1 POP PUSH2 0xBA3 PUSH8 0xA7E949D6B9725D73 PUSH1 0xC0 SHL PUSH2 0x2076 JUMP JUMPDEST PUSH2 0xBB7 PUSH8 0x69478D8807371FCD PUSH1 0xC0 SHL PUSH2 0x2076 JUMP JUMPDEST PUSH2 0xC0B PUSH2 0xBC2 PUSH2 0xD7A JUMP JUMPDEST DUP3 PUSH1 0x3 PUSH1 0x0 SWAP1 SLOAD SWAP1 PUSH2 0x100 EXP SWAP1 DIV PUSH20 0xFFFFFFFFFFFFFFFFFFFFFFFFFFFFFFFFFFFFFFFF AND PUSH20 0xFFFFFFFFFFFFFFFFFFFFFFFFFFFFFFFFFFFFFFFF AND PUSH2 0x22BD SWAP1 SWAP3 SWAP2 SWAP1 PUSH4 0xFFFFFFFF AND JUMP JUMPDEST PUSH2 0xC1F PUSH8 0x689886F982CF3619 PUSH1 0xC0 SHL PUSH2 0x2076 JUMP JUMPDEST PUSH2 0xC33 PUSH8 0xA07D1F261A708E95 PUSH1 0xC0 SHL PUSH2 0x2076 JUMP JUMPDEST PUSH32 0x7C1712B00E9EC43558B7BA14E1D6F1985FF761EADB82BB59A3CFE263BD86144D PUSH1 0x40 MLOAD PUSH1 0x40 MLOAD DUP1 SWAP2 SUB SWAP1 LOG1 POP JUMP JUMPDEST PUSH1 0xC SLOAD DUP2 JUMP JUMPDEST PUSH1 0x9 SLOAD DUP2 JUMP JUMPDEST PUSH1 0x0 PUSH2 0xC84 PUSH8 0xB391E405588B0B20 PUSH1 0xC0 SHL PUSH2 0x2076 JUMP JUMPDEST PUSH2 0xC8C PUSH2 0x2343 JUMP JUMPDEST PUSH2 0xCA0 PUSH8 0x66CFFDE6BBD9F850 PUSH1 0xC0 SHL PUSH2 0x2076 JUMP JUMPDEST PUSH2 0xCB4 PUSH8 0xF857B0B12017B777 PUSH1 0xC0 SHL PUSH2 0x2076 JUMP JUMPDEST PUSH2 0xCC8 PUSH8 0xE3D4E48827D01363 PUSH1 0xC0 SHL PUSH2 0x2076 JUMP JUMPDEST DUP2 PUSH1 0x8 DUP2 SWAP1 SSTORE POP PUSH2 0xCE3 PUSH8 0x52BB7DA54D97C1D0 PUSH1 0xC0 SHL PUSH2 0x2076 JUMP JUMPDEST PUSH2 0xCF7 PUSH8 0x480867790D9B5931 PUSH1 0xC0 SHL PUSH2 0x2076 JUMP JUMPDEST PUSH32 0x4004C8E71AAD34E8BEEBCA07081F9F3BD647BA21279D23F76A3D98D077DD3FFB DUP3 PUSH1 0x40 MLOAD PUSH2 0xD26 SWAP2 SWAP1 PUSH2 0x273B JUMP JUMPDEST PUSH1 0x40 MLOAD DUP1 SWAP2 SUB SWAP1 LOG1 PUSH2 0xD42 PUSH8 0xD1C24DDB75D9BA8B PUSH1 0xC0 SHL PUSH2 0x2076 JUMP JUMPDEST PUSH2 0xD56 PUSH8 0xE5FF5CC6959AB9FB PUSH1 0xC0 SHL PUSH2 0x2076 JUMP JUMPDEST PUSH1 0x8 SLOAD SWAP1 POP SWAP2 SWAP1 POP JUMP JUMPDEST PUSH2 0xD68 PUSH2 0x2343 JUMP JUMPDEST PUSH2 0xD72 PUSH1 0x0 PUSH2 0x23C1 JUMP JUMPDEST JUMP JUMPDEST PUSH1 0xB SLOAD DUP2 JUMP JUMPDEST PUSH1 0x0 DUP1 PUSH1 0x0 SWAP1 SLOAD SWAP1 PUSH2 0x100 EXP SWAP1 DIV PUSH20 0xFFFFFFFFFFFFFFFFFFFFFFFFFFFFFFFFFFFFFFFF AND SWAP1 POP SWAP1 JUMP JUMPDEST PUSH2 0xDB7 PUSH8 0x9A2B0C51D60F5DB6 PUSH1 0xC0 SHL PUSH2 0x2076 JUMP JUMPDEST PUSH2 0xDCB PUSH8 0x22FAA09927B7E288 PUSH1 0xC0 SHL PUSH2 0x2076 JUMP JUMPDEST PUSH2 0xDDF PUSH8 0x91FB27E0D23330F9 PUSH1 0xC0 SHL PUSH2 0x2076 JUMP JUMPDEST PUSH2 0xDF3 PUSH8 0x6C788928FC6C54A6 PUSH1 0xC0 SHL PUSH2 0x2076 JUMP JUMPDEST PUSH3 0x278D00 PUSH1 0x7 SLOAD PUSH2 0xE04 SWAP2 SWAP1 PUSH2 0x2A8F JUMP JUMPDEST TIMESTAMP LT ISZERO PUSH2 0xE46 JUMPI PUSH1 0x40 MLOAD PUSH32 0x8C379A000000000000000000000000000000000000000000000000000000000 DUP2 MSTORE PUSH1 0x4 ADD PUSH2 0xE3D SWAP1 PUSH2 0x2C16 JUMP JUMPDEST PUSH1 0x40 MLOAD DUP1 SWAP2 SUB SWAP1 REVERT JUMPDEST PUSH2 0xE5A PUSH8 0xB32B045988079E0A PUSH1 0xC0 SHL PUSH2 0x2076 JUMP JUMPDEST PUSH2 0xE6E PUSH8 0xC37CB31CFCCD04E4 PUSH1 0xC0 SHL PUSH2 0x2076 JUMP JUMPDEST PUSH2 0xE82 PUSH8 0x8F5B834D13F21F4B PUSH1 0xC0 SHL PUSH2 0x2076 JUMP JUMPDEST PUSH1 0x0 PUSH2 0xE8D DUP3 PUSH2 0x1853 JUMP JUMPDEST SWAP1 POP PUSH2 0xEA3 PUSH8 0x30314C026BFF71EE PUSH1 0xC0 SHL PUSH2 0x2076 JUMP JUMPDEST PUSH2 0xEB7 PUSH8 0xD2E581064D9C3077 PUSH1 0xC0 SHL PUSH2 0x2076 JUMP JUMPDEST PUSH2 0xECB PUSH8 0x8B7A11338CB89186 PUSH1 0xC0 SHL PUSH2 0x2076 JUMP JUMPDEST PUSH1 0x0 DUP2 GT PUSH2 0xF0E JUMPI PUSH1 0x40 MLOAD PUSH32 0x8C379A000000000000000000000000000000000000000000000000000000000 DUP2 MSTORE PUSH1 0x4 ADD PUSH2 0xF05 SWAP1 PUSH2 0x2C82 JUMP JUMPDEST PUSH1 0x40 MLOAD DUP1 SWAP2 SUB SWAP1 REVERT JUMPDEST PUSH2 0xF22 PUSH8 0x49FB96FB7CE9CA28 PUSH1 0xC0 SHL PUSH2 0x2076 JUMP JUMPDEST PUSH2 0xF36 PUSH8 0xB63819869F124DE PUSH1 0xC0 SHL PUSH2 0x2076 JUMP JUMPDEST PUSH2 0xF4A PUSH8 0x224C979C387F1560 PUSH1 0xC0 SHL PUSH2 0x2076 JUMP JUMPDEST PUSH1 0x0 PUSH1 0xD PUSH1 0x0 DUP5 PUSH20 0xFFFFFFFFFFFFFFFFFFFFFFFFFFFFFFFFFFFFFFFF AND PUSH20 0xFFFFFFFFFFFFFFFFFFFFFFFFFFFFFFFFFFFFFFFF AND DUP2 MSTORE PUSH1 0x20 ADD SWAP1 DUP2 MSTORE PUSH1 0x20 ADD PUSH1 0x0 KECCAK256 SLOAD SWAP1 POP PUSH2 0xFA2 PUSH8 0x5F521C3E181EEA4D PUSH1 0xC0 SHL PUSH2 0x2076 JUMP JUMPDEST PUSH1 0x0 PUSH1 0xD PUSH1 0x0 DUP6 PUSH20 0xFFFFFFFFFFFFFFFFFFFFFFFFFFFFFFFFFFFFFFFF AND PUSH20 0xFFFFFFFFFFFFFFFFFFFFFFFFFFFFFFFFFFFFFFFF AND DUP2 MSTORE PUSH1 0x20 ADD SWAP1 DUP2 MSTORE PUSH1 0x20 ADD PUSH1 0x0 KECCAK256 DUP2 SWAP1 SSTORE POP PUSH2 0xFFB PUSH8 0x59DBB4DF0D90FFB4 PUSH1 0xC0 SHL PUSH2 0x2076 JUMP JUMPDEST PUSH2 0x100F PUSH8 0x16570445208DC29D PUSH1 0xC0 SHL PUSH2 0x2076 JUMP JUMPDEST PUSH2 0x1017 PUSH2 0xD7A JUMP JUMPDEST PUSH20 0xFFFFFFFFFFFFFFFFFFFFFFFFFFFFFFFFFFFFFFFF AND DUP4 PUSH20 0xFFFFFFFFFFFFFFFFFFFFFFFFFFFFFFFFFFFFFFFF AND SUB PUSH2 0x107E JUMPI PUSH2 0x105D PUSH8 0xBA7F4083989F5D96 PUSH1 0xC0 SHL PUSH2 0x2076 JUMP JUMPDEST PUSH2 0x1071 PUSH8 0x58D98A532F04BB13 PUSH1 0xC0 SHL PUSH2 0x2076 JUMP JUMPDEST PUSH1 0x0 PUSH1 0x6 DUP2 SWAP1 SSTORE POP PUSH2 0x1093 JUMP JUMPDEST PUSH2 0x1092 PUSH8 0x6AD3F71397765BD5 PUSH1 0xC0 SHL PUSH2 0x2076 JUMP JUMPDEST JUMPDEST PUSH2 0x10A7 PUSH8 0x354920957C9DB004 PUSH1 0xC0 SHL PUSH2 0x2076 JUMP JUMPDEST PUSH2 0x10BB PUSH8 0xFCA4B9F42A73EFF5 PUSH1 0xC0 SHL PUSH2 0x2076 JUMP JUMPDEST PUSH2 0x1108 DUP4 DUP4 PUSH1 0x5 PUSH1 0x0 SWAP1 SLOAD SWAP1 PUSH2 0x100 EXP SWAP1 DIV PUSH20 0xFFFFFFFFFFFFFFFFFFFFFFFFFFFFFFFFFFFFFFFF AND PUSH20 0xFFFFFFFFFFFFFFFFFFFFFFFFFFFFFFFFFFFFFFFF AND PUSH2 0x22BD SWAP1 SWAP3 SWAP2 SWAP1 PUSH4 0xFFFFFFFF AND JUMP JUMPDEST PUSH2 0x111C PUSH8 0x8177BBE1D4682522 PUSH1 0xC0 SHL PUSH2 0x2076 JUMP JUMPDEST PUSH2 0x1130 PUSH8 0x9C7CFA1699C36FC PUSH1 0xC0 SHL PUSH2 0x2076 JUMP JUMPDEST DUP3 PUSH20 0xFFFFFFFFFFFFFFFFFFFFFFFFFFFFFFFFFFFFFFFF AND PUSH32 0xE2403640BA68FED3A2F88B7557551D1993F84B99BB10FF833F0CF8DB0C5E0486 DUP4 PUSH1 0x40 MLOAD PUSH2 0x1176 SWAP2 SWAP1 PUSH2 0x273B JUMP JUMPDEST PUSH1 0x40 MLOAD DUP1 SWAP2 SUB SWAP1 LOG2 POP POP POP JUMP JUMPDEST PUSH2 0x1197 PUSH8 0xC67CB1A6FC68CFAD PUSH1 0xC0 SHL PUSH2 0x2076 JUMP JUMPDEST PUSH2 0x119F PUSH2 0x2343 JUMP JUMPDEST PUSH2 0x11B3 PUSH8 0x21A95DB39E79EEB2 PUSH1 0xC0 SHL PUSH2 0x2076 JUMP JUMPDEST PUSH2 0x11C7 PUSH8 0x57566CB5EF9AB360 PUSH1 0xC0 SHL PUSH2 0x2076 JUMP JUMPDEST PUSH2 0x11DB PUSH8 0x4B562871E62BC90E PUSH1 0xC0 SHL PUSH2 0x2076 JUMP JUMPDEST PUSH2 0x11EF PUSH8 0xA50F60BFC98F5F21 PUSH1 0xC0 SHL PUSH2 0x2076 JUMP JUMPDEST PUSH2 0x11F9 DUP3 DUP3 PUSH2 0x2079 JUMP JUMPDEST PUSH2 0x120D PUSH8 0x42C33C10B5198F5E PUSH1 0xC0 SHL PUSH2 0x2076 JUMP JUMPDEST PUSH2 0x1221 PUSH8 0xB648B11AB73DF840 PUSH1 0xC0 SHL PUSH2 0x2076 JUMP JUMPDEST PUSH32 0x88E4869609343BF3731E4DA7ECFE0425D78029F1AB1F9CB9EFC4DBBAFC1A2566 DUP3 DUP3 PUSH1 0x40 MLOAD PUSH2 0x1252 SWAP3 SWAP2 SWAP1 PUSH2 0x2AC3 JUMP JUMPDEST PUSH1 0x40 MLOAD DUP1 SWAP2 SUB SWAP1 LOG1 POP POP JUMP JUMPDEST PUSH2 0x1272 PUSH8 0xBF8B2328E16BE5AE PUSH1 0xC0 SHL PUSH2 0x2076 JUMP JUMPDEST PUSH2 0x1286 PUSH8 0x3AC9987A595E1B42 PUSH1 0xC0 SHL PUSH2 0x2076 JUMP JUMPDEST PUSH2 0x129A PUSH8 0x98F92F5D474C57AF PUSH1 0xC0 SHL PUSH2 0x2076 JUMP JUMPDEST PUSH2 0x12AE PUSH8 0x3AA0596048082DB9 PUSH1 0xC0 SHL PUSH2 0x2076 JUMP JUMPDEST PUSH1 0x0 DUP3 GT PUSH2 0x12F1 JUMPI PUSH1 0x40 MLOAD PUSH32 0x8C379A000000000000000000000000000000000000000000000000000000000 DUP2 MSTORE PUSH1 0x4 ADD PUSH2 0x12E8 SWAP1 PUSH2 0x2D14 JUMP JUMPDEST PUSH1 0x40 MLOAD DUP1 SWAP2 SUB SWAP1 REVERT JUMPDEST PUSH2 0x1305 PUSH8 0xC29E529388FA45F0 PUSH1 0xC0 SHL PUSH2 0x2076 JUMP JUMPDEST PUSH2 0x1319 PUSH8 0x4AD8E566502B13F6 PUSH1 0xC0 SHL PUSH2 0x2076 JUMP JUMPDEST PUSH2 0x132D PUSH8 0xCFBEB3DEAD03823F PUSH1 0xC0 SHL PUSH2 0x2076 JUMP JUMPDEST PUSH2 0x1341 PUSH8 0x34822AC092DC5E15 PUSH1 0xC0 SHL PUSH2 0x2076 JUMP JUMPDEST PUSH1 0x1 DUP2 LT ISZERO PUSH2 0x1385 JUMPI PUSH1 0x40 MLOAD PUSH32 0x8C379A000000000000000000000000000000000000000000000000000000000 DUP2 MSTORE PUSH1 0x4 ADD PUSH2 0x137C SWAP1 PUSH2 0x29FE JUMP JUMPDEST PUSH1 0x40 MLOAD DUP1 SWAP2 SUB SWAP1 REVERT JUMPDEST PUSH2 0x1399 PUSH8 0x1BB6DE64E02506B1 PUSH1 0xC0 SHL PUSH2 0x2076 JUMP JUMPDEST PUSH2 0x13AD PUSH8 0x49B1D866AEF1EBCA PUSH1 0xC0 SHL PUSH2 0x2076 JUMP JUMPDEST PUSH2 0x13C1 PUSH8 0xBF0E31F6AB909DC2 PUSH1 0xC0 SHL PUSH2 0x2076 JUMP JUMPDEST PUSH1 0x0 PUSH1 0x2 PUSH1 0x0 SWAP1 SLOAD SWAP1 PUSH2 0x100 EXP SWAP1 DIV PUSH20 0xFFFFFFFFFFFFFFFFFFFFFFFFFFFFFFFFFFFFFFFF AND PUSH20 0xFFFFFFFFFFFFFFFFFFFFFFFFFFFFFFFFFFFFFFFF AND PUSH4 0xCE77BA62 PUSH1 0x3 PUSH1 0x0 SWAP1 SLOAD SWAP1 PUSH2 0x100 EXP SWAP1 DIV PUSH20 0xFFFFFFFFFFFFFFFFFFFFFFFFFFFFFFFFFFFFFFFF AND PUSH1 0x4 PUSH1 0x0 SWAP1 SLOAD SWAP1 PUSH2 0x100 EXP SWAP1 DIV PUSH20 0xFFFFFFFFFFFFFFFFFFFFFFFFFFFFFFFFFFFFFFFF AND DUP6 DUP8 PUSH2 0x1453 SWAP2 SWAP1 PUSH2 0x2A4D JUMP JUMPDEST PUSH1 0x40 MLOAD DUP5 PUSH4 0xFFFFFFFF AND PUSH1 0xE0 SHL DUP2 MSTORE PUSH1 0x4 ADD PUSH2 0x1471 SWAP4 SWAP3 SWAP2 SWAP1 PUSH2 0x2B51 JUMP JUMPDEST PUSH1 0x20 PUSH1 0x40 MLOAD DUP1 DUP4 SUB DUP2 DUP7 GAS STATICCALL ISZERO DUP1 ISZERO PUSH2 0x148E JUMPI RETURNDATASIZE PUSH1 0x0 DUP1 RETURNDATACOPY RETURNDATASIZE PUSH1 0x0 REVERT JUMPDEST POP POP POP POP PUSH1 0x40 MLOAD RETURNDATASIZE PUSH1 0x1F NOT PUSH1 0x1F DUP3 ADD AND DUP3 ADD DUP1 PUSH1 0x40 MSTORE POP DUP2 ADD SWAP1 PUSH2 0x14B2 SWAP2 SWAP1 PUSH2 0x2B9D JUMP JUMPDEST SWAP1 POP PUSH2 0x14C8 PUSH8 0xFD972C54909E0B61 PUSH1 0xC0 SHL PUSH2 0x2076 JUMP JUMPDEST PUSH2 0x14DC PUSH8 0x47804C4BC54B38F1 PUSH1 0xC0 SHL PUSH2 0x2076 JUMP JUMPDEST PUSH1 0x1 PUSH1 0x0 SWAP1 SLOAD SWAP1 PUSH2 0x100 EXP SWAP1 DIV PUSH20 0xFFFFFFFFFFFFFFFFFFFFFFFFFFFFFFFFFFFFFFFF AND PUSH20 0xFFFFFFFFFFFFFFFFFFFFFFFFFFFFFFFFFFFFFFFF AND PUSH4 0xC5EBEAEC DUP3 PUSH1 0x40 MLOAD DUP3 PUSH4 0xFFFFFFFF AND PUSH1 0xE0 SHL DUP2 MSTORE PUSH1 0x4 ADD PUSH2 0x1537 SWAP2 SWAP1 PUSH2 0x273B JUMP JUMPDEST PUSH1 0x0 PUSH1 0x40 MLOAD DUP1 DUP4 SUB DUP2 PUSH1 0x0 DUP8 DUP1 EXTCODESIZE ISZERO DUP1 ISZERO PUSH2 0x1551 JUMPI PUSH1 0x0 DUP1 REVERT JUMPDEST POP GAS CALL ISZERO DUP1 ISZERO PUSH2 0x1565 JUMPI RETURNDATASIZE PUSH1 0x0 DUP1 RETURNDATACOPY RETURNDATASIZE PUSH1 0x0 REVERT JUMPDEST POP POP POP POP PUSH2 0x157D PUSH8 0x40193671F8EA4BAA PUSH1 0xC0 SHL PUSH2 0x2076 JUMP JUMPDEST DUP1 PUSH1 0x9 PUSH1 0x0 DUP3 DUP3 SLOAD PUSH2 0x158F SWAP2 SWAP1 PUSH2 0x2A8F JUMP JUMPDEST SWAP3 POP POP DUP2 SWAP1 SSTORE POP PUSH2 0x15AA PUSH8 0x61D3484121182094 PUSH1 0xC0 SHL PUSH2 0x2076 JUMP JUMPDEST DUP3 PUSH1 0xA PUSH1 0x0 DUP3 DUP3 SLOAD PUSH2 0x15BC SWAP2 SWAP1 PUSH2 0x2A8F JUMP JUMPDEST SWAP3 POP POP DUP2 SWAP1 SSTORE POP PUSH2 0x15D7 PUSH8 0xD2A8308CC17CD9F4 PUSH1 0xC0 SHL PUSH2 0x2076 JUMP JUMPDEST PUSH2 0x15EB PUSH8 0x36545AA0A8EF6DA7 PUSH1 0xC0 SHL PUSH2 0x2076 JUMP JUMPDEST PUSH2 0x1600 CALLER DUP4 DUP6 PUSH2 0x15FB SWAP2 SWAP1 PUSH2 0x2A4D JUMP JUMPDEST PUSH2 0x2079 JUMP JUMPDEST PUSH2 0x1614 PUSH8 0xAC5825E15E6EDFE2 PUSH1 0xC0 SHL PUSH2 0x2076 JUMP JUMPDEST PUSH2 0x1628 PUSH8 0x95A8A2B7306817C2 PUSH1 0xC0 SHL PUSH2 0x2076 JUMP JUMPDEST PUSH1 0x3 PUSH1 0x0 SWAP1 SLOAD SWAP1 PUSH2 0x100 EXP SWAP1 DIV PUSH20 0xFFFFFFFFFFFFFFFFFFFFFFFFFFFFFFFFFFFFFFFF AND PUSH20 0xFFFFFFFFFFFFFFFFFFFFFFFFFFFFFFFFFFFFFFFF AND PUSH4 0x95EA7B3 PUSH1 0x2 PUSH1 0x0 SWAP1 SLOAD SWAP1 PUSH2 0x100 EXP SWAP1 DIV PUSH20 0xFFFFFFFFFFFFFFFFFFFFFFFFFFFFFFFFFFFFFFFF AND DUP4 PUSH1 0x40 MLOAD DUP4 PUSH4 0xFFFFFFFF AND PUSH1 0xE0 SHL DUP2 MSTORE PUSH1 0x4 ADD PUSH2 0x16A7 SWAP3 SWAP2 SWAP1 PUSH2 0x2AC3 JUMP JUMPDEST PUSH1 0x20 PUSH1 0x40 MLOAD DUP1 DUP4 SUB DUP2 PUSH1 0x0 DUP8 GAS CALL ISZERO DUP1 ISZERO PUSH2 0x16C6 JUMPI RETURNDATASIZE PUSH1 0x0 DUP1 RETURNDATACOPY RETURNDATASIZE PUSH1 0x0 REVERT JUMPDEST POP POP POP POP PUSH1 0x40 MLOAD RETURNDATASIZE PUSH1 0x1F NOT PUSH1 0x1F DUP3 ADD AND DUP3 ADD DUP1 PUSH1 0x40 MSTORE POP DUP2 ADD SWAP1 PUSH2 0x16EA SWAP2 SWAP1 PUSH2 0x2B24 JUMP JUMPDEST POP PUSH2 0x16FF PUSH8 0x2B9D317BA659A45A PUSH1 0xC0 SHL PUSH2 0x2076 JUMP JUMPDEST PUSH2 0x1713 PUSH8 0x86A3A71AA862A255 PUSH1 0xC0 SHL PUSH2 0x2076 JUMP JUMPDEST PUSH1 0x2 PUSH1 0x0 SWAP1 SLOAD SWAP1 PUSH2 0x100 EXP SWAP1 DIV PUSH20 0xFFFFFFFFFFFFFFFFFFFFFFFFFFFFFFFFFFFFFFFF AND PUSH20 0xFFFFFFFFFFFFFFFFFFFFFFFFFFFFFFFFFFFFFFFF AND PUSH4 0x153E66E6 PUSH1 0x3 PUSH1 0x0 SWAP1 SLOAD SWAP1 PUSH2 0x100 EXP SWAP1 DIV PUSH20 0xFFFFFFFFFFFFFFFFFFFFFFFFFFFFFFFFFFFFFFFF AND PUSH1 0x4 PUSH1 0x0 SWAP1 SLOAD SWAP1 PUSH2 0x100 EXP SWAP1 DIV PUSH20 0xFFFFFFFFFFFFFFFFFFFFFFFFFFFFFFFFFFFFFFFF AND DUP7 PUSH1 0x40 MLOAD DUP5 PUSH4 0xFFFFFFFF AND PUSH1 0xE0 SHL DUP2 MSTORE PUSH1 0x4 ADD PUSH2 0x17B6 SWAP4 SWAP3 SWAP2 SWAP1 PUSH2 0x2B51 JUMP JUMPDEST PUSH1 0x20 PUSH1 0x40 MLOAD DUP1 DUP4 SUB DUP2 PUSH1 0x0 DUP8 GAS CALL ISZERO DUP1 ISZERO PUSH2 0x17D5 JUMPI RETURNDATASIZE PUSH1 0x0 DUP1 RETURNDATACOPY RETURNDATASIZE PUSH1 0x0 REVERT JUMPDEST POP POP POP POP PUSH1 0x40 MLOAD RETURNDATASIZE PUSH1 0x1F NOT PUSH1 0x1F DUP3 ADD AND DUP3 ADD DUP1 PUSH1 0x40 MSTORE POP DUP2 ADD SWAP1 PUSH2 0x17F9 SWAP2 SWAP1 PUSH2 0x2B9D JUMP JUMPDEST POP PUSH2 0x180E PUSH8 0xECC2EDD4D7972BFB PUSH1 0xC0 SHL PUSH2 0x2076 JUMP JUMPDEST PUSH2 0x1822 PUSH8 0x11A330D2292EBE6E PUSH1 0xC0 SHL PUSH2 0x2076 JUMP JUMPDEST PUSH32 0x81A5C85F807906A0759335611CEB64EA789ED0196CCF836D98C9573A56582B7F PUSH1 0x40 MLOAD PUSH1 0x40 MLOAD DUP1 SWAP2 SUB SWAP1 LOG1 POP POP POP JUMP JUMPDEST PUSH1 0x0 PUSH2 0x1869 PUSH8 0x8D5C8CEE0D6CD8F4 PUSH1 0xC0 SHL PUSH2 0x2076 JUMP JUMPDEST PUSH2 0x187D PUSH8 0x65A60D323A262ACA PUSH1 0xC0 SHL PUSH2 0x2076 JUMP JUMPDEST PUSH2 0x1891 PUSH8 0x39317A33212DAA3A PUSH1 0xC0 SHL PUSH2 0x2076 JUMP JUMPDEST PUSH2 0x18A5 PUSH8 0x659EF3DB5756659B PUSH1 0xC0 SHL PUSH2 0x2076 JUMP JUMPDEST PUSH1 0x0 PUSH1 0x6 SLOAD GT PUSH2 0x18EA JUMPI PUSH1 0x40 MLOAD PUSH32 0x8C379A000000000000000000000000000000000000000000000000000000000 DUP2 MSTORE PUSH1 0x4 ADD PUSH2 0x18E1 SWAP1 PUSH2 0x2D80 JUMP JUMPDEST PUSH1 0x40 MLOAD DUP1 SWAP2 SUB SWAP1 REVERT JUMPDEST PUSH2 0x18FE PUSH8 0xC5F539D133790FA4 PUSH1 0xC0 SHL PUSH2 0x2076 JUMP JUMPDEST PUSH2 0x1912 PUSH8 0x55607C3FFFB9D91A PUSH1 0xC0 SHL PUSH2 0x2076 JUMP JUMPDEST PUSH2 0x1926 PUSH8 0xE5490044F5BC59D9 PUSH1 0xC0 SHL PUSH2 0x2076 JUMP JUMPDEST PUSH1 0x0 PUSH1 0x7 SLOAD TIMESTAMP PUSH2 0x1936 SWAP2 SWAP1 PUSH2 0x2DA0 JUMP JUMPDEST SWAP1 POP PUSH2 0x194C PUSH8 0xFCD9D35DEDA9240D PUSH1 0xC0 SHL PUSH2 0x2076 JUMP JUMPDEST PUSH2 0x1960 PUSH8 0x9A475476E7093C90 PUSH1 0xC0 SHL PUSH2 0x2076 JUMP JUMPDEST PUSH1 0x0 DUP2 PUSH1 0x8 SLOAD PUSH2 0x1970 SWAP2 SWAP1 PUSH2 0x2A4D JUMP JUMPDEST SWAP1 POP PUSH2 0x1986 PUSH8 0x4915B4504E5DB636 PUSH1 0xC0 SHL PUSH2 0x2076 JUMP JUMPDEST PUSH2 0x199A PUSH8 0xE36002F076BAE894 PUSH1 0xC0 SHL PUSH2 0x2076 JUMP JUMPDEST PUSH1 0x0 PUSH1 0xD PUSH1 0x0 DUP7 PUSH20 0xFFFFFFFFFFFFFFFFFFFFFFFFFFFFFFFFFFFFFFFF AND PUSH20 0xFFFFFFFFFFFFFFFFFFFFFFFFFFFFFFFFFFFFFFFF AND DUP2 MSTORE PUSH1 0x20 ADD SWAP1 DUP2 MSTORE PUSH1 0x20 ADD PUSH1 0x0 KECCAK256 SLOAD SWAP1 POP PUSH2 0x19F2 PUSH8 0xB778DC20C0043FBD PUSH1 0xC0 SHL PUSH2 0x2076 JUMP JUMPDEST PUSH2 0x1A06 PUSH8 0x442825B7274A1097 PUSH1 0xC0 SHL PUSH2 0x2076 JUMP JUMPDEST PUSH1 0x0 PUSH1 0x6 SLOAD DUP3 PUSH2 0x1A16 SWAP2 SWAP1 PUSH2 0x2E03 JUMP JUMPDEST SWAP1 POP PUSH2 0x1A2C PUSH8 0xA67DC0C9000A8B38 PUSH1 0xC0 SHL PUSH2 0x2076 JUMP JUMPDEST PUSH2 0x1A40 PUSH8 0x40F42080F1DDFBDC PUSH1 0xC0 SHL PUSH2 0x2076 JUMP JUMPDEST DUP3 DUP2 PUSH2 0x1A4C SWAP2 SWAP1 PUSH2 0x2A4D JUMP JUMPDEST SWAP5 POP POP POP POP POP SWAP2 SWAP1 POP JUMP JUMPDEST PUSH2 0x1A5F PUSH2 0x2343 JUMP JUMPDEST PUSH1 0x0 PUSH20 0xFFFFFFFFFFFFFFFFFFFFFFFFFFFFFFFFFFFFFFFF AND DUP2 PUSH20 0xFFFFFFFFFFFFFFFFFFFFFFFFFFFFFFFFFFFFFFFF AND SUB PUSH2 0x1ACE JUMPI PUSH1 0x40 MLOAD PUSH32 0x8C379A000000000000000000000000000000000000000000000000000000000 DUP2 MSTORE PUSH1 0x4 ADD PUSH2 0x1AC5 SWAP1 PUSH2 0x2EA6 JUMP JUMPDEST PUSH1 0x40 MLOAD DUP1 SWAP2 SUB SWAP1 REVERT JUMPDEST PUSH2 0x1AD7 DUP2 PUSH2 0x23C1 JUMP JUMPDEST POP JUMP JUMPDEST PUSH2 0x1AEE PUSH8 0xACED633A916B3375 PUSH1 0xC0 SHL PUSH2 0x2076 JUMP JUMPDEST PUSH2 0x1B02 PUSH8 0x4DECF09DC4E36C1D PUSH1 0xC0 SHL PUSH2 0x2076 JUMP JUMPDEST PUSH2 0x1B16 PUSH8 0x715D3A6DDF4ABDAE PUSH1 0xC0 SHL PUSH2 0x2076 JUMP JUMPDEST PUSH1 0x4 PUSH1 0x0 SWAP1 SLOAD SWAP1 PUSH2 0x100 EXP SWAP1 DIV PUSH20 0xFFFFFFFFFFFFFFFFFFFFFFFFFFFFFFFFFFFFFFFF AND PUSH20 0xFFFFFFFFFFFFFFFFFFFFFFFFFFFFFFFFFFFFFFFF AND PUSH4 0x95EA7B3 PUSH1 0x2 PUSH1 0x0 SWAP1 SLOAD SWAP1 PUSH2 0x100 EXP SWAP1 DIV PUSH20 0xFFFFFFFFFFFFFFFFFFFFFFFFFFFFFFFFFFFFFFFF AND PUSH1 0xC SLOAD PUSH1 0x40 MLOAD DUP4 PUSH4 0xFFFFFFFF AND PUSH1 0xE0 SHL DUP2 MSTORE PUSH1 0x4 ADD PUSH2 0x1B97 SWAP3 SWAP2 SWAP1 PUSH2 0x2AC3 JUMP JUMPDEST PUSH1 0x20 PUSH1 0x40 MLOAD DUP1 DUP4 SUB DUP2 PUSH1 0x0 DUP8 GAS CALL ISZERO DUP1 ISZERO PUSH2 0x1BB6 JUMPI RETURNDATASIZE PUSH1 0x0 DUP1 RETURNDATACOPY RETURNDATASIZE PUSH1 0x0 REVERT JUMPDEST POP POP POP POP PUSH1 0x40 MLOAD RETURNDATASIZE PUSH1 0x1F NOT PUSH1 0x1F DUP3 ADD AND DUP3 ADD DUP1 PUSH1 0x40 MSTORE POP DUP2 ADD SWAP1 PUSH2 0x1BDA SWAP2 SWAP1 PUSH2 0x2B24 JUMP JUMPDEST POP PUSH2 0x1BEF PUSH8 0x7F5ED04BB28F3FBC PUSH1 0xC0 SHL PUSH2 0x2076 JUMP JUMPDEST PUSH2 0x1C03 PUSH8 0x5DC58A8A2F5C2DEF PUSH1 0xC0 SHL PUSH2 0x2076 JUMP JUMPDEST PUSH1 0x3 PUSH1 0x0 SWAP1 SLOAD SWAP1 PUSH2 0x100 EXP SWAP1 DIV PUSH20 0xFFFFFFFFFFFFFFFFFFFFFFFFFFFFFFFFFFFFFFFF AND PUSH20 0xFFFFFFFFFFFFFFFFFFFFFFFFFFFFFFFFFFFFFFFF AND PUSH4 0x95EA7B3 PUSH1 0x1 PUSH1 0x0 SWAP1 SLOAD SWAP1 PUSH2 0x100 EXP SWAP1 DIV PUSH20 0xFFFFFFFFFFFFFFFFFFFFFFFFFFFFFFFFFFFFFFFF AND PUSH1 0xB SLOAD PUSH1 0x40 MLOAD DUP4 PUSH4 0xFFFFFFFF AND PUSH1 0xE0 SHL DUP2 MSTORE PUSH1 0x4 ADD PUSH2 0x1C84 SWAP3 SWAP2 SWAP1 PUSH2 0x2AC3 JUMP JUMPDEST PUSH1 0x20 PUSH1 0x40 MLOAD DUP1 DUP4 SUB DUP2 PUSH1 0x0 DUP8 GAS CALL ISZERO DUP1 ISZERO PUSH2 0x1CA3 JUMPI RETURNDATASIZE PUSH1 0x0 DUP1 RETURNDATACOPY RETURNDATASIZE PUSH1 0x0 REVERT JUMPDEST POP POP POP POP PUSH1 0x40 MLOAD RETURNDATASIZE PUSH1 0x1F NOT PUSH1 0x1F DUP3 ADD AND DUP3 ADD DUP1 PUSH1 0x40 MSTORE POP DUP2 ADD SWAP1 PUSH2 0x1CC7 SWAP2 SWAP1 PUSH2 0x2B24 JUMP JUMPDEST POP PUSH2 0x1CDC PUSH8 0x14A14107FF89F16C PUSH1 0xC0 SHL PUSH2 0x2076 JUMP JUMPDEST PUSH2 0x1CF0 PUSH8 0x9E2DA654419A8D5A PUSH1 0xC0 SHL PUSH2 0x2076 JUMP JUMPDEST PUSH1 0x1 PUSH1 0x0 SWAP1 SLOAD SWAP1 PUSH2 0x100 EXP SWAP1 DIV PUSH20 0xFFFFFFFFFFFFFFFFFFFFFFFFFFFFFFFFFFFFFFFF AND PUSH20 0xFFFFFFFFFFFFFFFFFFFFFFFFFFFFFFFFFFFFFFFF AND PUSH4 0x371FD8E6 PUSH1 0xB SLOAD PUSH1 0x40 MLOAD DUP3 PUSH4 0xFFFFFFFF AND PUSH1 0xE0 SHL DUP2 MSTORE PUSH1 0x4 ADD PUSH2 0x1D4D SWAP2 SWAP1 PUSH2 0x273B JUMP JUMPDEST PUSH1 0x0 PUSH1 0x40 MLOAD DUP1 DUP4 SUB DUP2 PUSH1 0x0 DUP8 DUP1 EXTCODESIZE ISZERO DUP1 ISZERO PUSH2 0x1D67 JUMPI PUSH1 0x0 DUP1 REVERT JUMPDEST POP GAS CALL ISZERO DUP1 ISZERO PUSH2 0x1D7B JUMPI RETURNDATASIZE PUSH1 0x0 DUP1 RETURNDATACOPY RETURNDATASIZE PUSH1 0x0 REVERT JUMPDEST POP POP POP POP PUSH2 0x1D93 PUSH8 0x963E6215AF5BBCF3 PUSH1 0xC0 SHL PUSH2 0x2076 JUMP JUMPDEST PUSH1 0x0 PUSH1 0xB DUP2 SWAP1 SSTORE POP PUSH2 0x1DAF PUSH8 0xC80E4A670B79EF7 PUSH1 0xC0 SHL PUSH2 0x2076 JUMP JUMPDEST PUSH1 0x0 PUSH1 0xC DUP2 SWAP1 SSTORE POP PUSH2 0x1DCB PUSH8 0x98D49E7F4F3CA023 PUSH1 0xC0 SHL PUSH2 0x2076 JUMP JUMPDEST PUSH2 0x1DDF PUSH8 0x180A86F422A0A1E1 PUSH1 0xC0 SHL PUSH2 0x2076 JUMP JUMPDEST PUSH2 0x1DEB CALLER PUSH1 0xC SLOAD PUSH2 0x2079 JUMP JUMPDEST PUSH2 0x1DFF PUSH8 0xFF4AFDF66DD803DB PUSH1 0xC0 SHL PUSH2 0x2076 JUMP JUMPDEST PUSH2 0x1E13 PUSH8 0xE87DCBBF2B1ACB71 PUSH1 0xC0 SHL PUSH2 0x2076 JUMP JUMPDEST PUSH1 0x0 PUSH1 0x4 PUSH1 0x0 SWAP1 SLOAD SWAP1 PUSH2 0x100 EXP SWAP1 DIV PUSH20 0xFFFFFFFFFFFFFFFFFFFFFFFFFFFFFFFFFFFFFFFF AND PUSH20 0xFFFFFFFFFFFFFFFFFFFFFFFFFFFFFFFFFFFFFFFF AND PUSH4 0x70A08231 ADDRESS PUSH1 0x40 MLOAD DUP3 PUSH4 0xFFFFFFFF AND PUSH1 0xE0 SHL DUP2 MSTORE PUSH1 0x4 ADD PUSH2 0x1E70 SWAP2 SWAP1 PUSH2 0x2835 JUMP JUMPDEST PUSH1 0x20 PUSH1 0x40 MLOAD DUP1 DUP4 SUB DUP2 DUP7 GAS STATICCALL ISZERO DUP1 ISZERO PUSH2 0x1E8D JUMPI RETURNDATASIZE PUSH1 0x0 DUP1 RETURNDATACOPY RETURNDATASIZE PUSH1 0x0 REVERT JUMPDEST POP POP POP POP PUSH1 0x40 MLOAD RETURNDATASIZE PUSH1 0x1F NOT PUSH1 0x1F DUP3 ADD AND DUP3 ADD DUP1 PUSH1 0x40 MSTORE POP DUP2 ADD SWAP1 PUSH2 0x1EB1 SWAP2 SWAP1 PUSH2 0x2B9D JUMP JUMPDEST SWAP1 POP PUSH2 0x1EC7 PUSH8 0x9BCB1AEA4C9BB060 PUSH1 0xC0 SHL PUSH2 0x2076 JUMP JUMPDEST PUSH2 0x1EDB PUSH8 0x28DEEA968F2EADC0 PUSH1 0xC0 SHL PUSH2 0x2076 JUMP JUMPDEST PUSH2 0x1F2F PUSH2 0x1EE6 PUSH2 0xD7A JUMP JUMPDEST DUP3 PUSH1 0x4 PUSH1 0x0 SWAP1 SLOAD SWAP1 PUSH2 0x100 EXP SWAP1 DIV PUSH20 0xFFFFFFFFFFFFFFFFFFFFFFFFFFFFFFFFFFFFFFFF AND PUSH20 0xFFFFFFFFFFFFFFFFFFFFFFFFFFFFFFFFFFFFFFFF AND PUSH2 0x22BD SWAP1 SWAP3 SWAP2 SWAP1 PUSH4 0xFFFFFFFF AND JUMP JUMPDEST PUSH2 0x1F43 PUSH8 0x63AFA528F685F856 PUSH1 0xC0 SHL PUSH2 0x2076 JUMP JUMPDEST PUSH2 0x1F57 PUSH8 0x90E140B67B6B3630 PUSH1 0xC0 SHL PUSH2 0x2076 JUMP JUMPDEST PUSH32 0x1EACC206EAA257738210016C4B580948367FD2C683058D13FE748A663F8933D0 PUSH1 0x40 MLOAD PUSH1 0x40 MLOAD DUP1 SWAP2 SUB SWAP1 LOG1 POP JUMP JUMPDEST PUSH1 0x0 PUSH2 0x1F9C PUSH8 0x404F6F45D5919984 PUSH1 0xC0 SHL PUSH2 0x2076 JUMP JUMPDEST PUSH2 0x1FA4 PUSH2 0x2343 JUMP JUMPDEST PUSH2 0x1FB8 PUSH8 0x9E96396F97094BAE PUSH1 0xC0 SHL PUSH2 0x2076 JUMP JUMPDEST PUSH2 0x1FCC PUSH8 0x2D695DE509858901 PUSH1 0xC0 SHL PUSH2 0x2076 JUMP JUMPDEST PUSH2 0x1FE0 PUSH8 0x2861BF169C659B68 PUSH1 0xC0 SHL PUSH2 0x2076 JUMP JUMPDEST DUP2 PUSH1 0x6 DUP2 SWAP1 SSTORE POP PUSH2 0x1FFB PUSH8 0x4D6A5245FC09BAED PUSH1 0xC0 SHL PUSH2 0x2076 JUMP JUMPDEST PUSH2 0x200F PUSH8 0x23B96FE5BC47A633 PUSH1 0xC0 SHL PUSH2 0x2076 JUMP JUMPDEST PUSH32 0xAA7BD4CCEF0CAA9441D70D5C1D1FAB8CEF584E0ADFDE6B1CF162BA2EA6FB2601 DUP3 PUSH1 0x40 MLOAD PUSH2 0x203E SWAP2 SWAP1 PUSH2 0x273B JUMP JUMPDEST PUSH1 0x40 MLOAD DUP1 SWAP2 SUB SWAP1 LOG1 PUSH2 0x205A PUSH8 0x73761E8139C2B38D PUSH1 0xC0 SHL PUSH2 0x2076 JUMP JUMPDEST PUSH2 0x206E PUSH8 0xE56D0B8C8C774F28 PUSH1 0xC0 SHL PUSH2 0x2076 JUMP JUMPDEST DUP2 SWAP1 POP SWAP2 SWAP1 POP JUMP JUMPDEST POP JUMP JUMPDEST PUSH2 0x208D PUSH8 0x8362E3129279C671 PUSH1 0xC0 SHL PUSH2 0x2076 JUMP JUMPDEST PUSH2 0x20A1 PUSH8 0xB619059F0199C47A PUSH1 0xC0 SHL PUSH2 0x2076 JUMP JUMPDEST DUP1 PUSH1 0xD PUSH1 0x0 DUP5 PUSH20 0xFFFFFFFFFFFFFFFFFFFFFFFFFFFFFFFFFFFFFFFF AND PUSH20 0xFFFFFFFFFFFFFFFFFFFFFFFFFFFFFFFFFFFFFFFF AND DUP2 MSTORE PUSH1 0x20 ADD SWAP1 DUP2 MSTORE PUSH1 0x20 ADD PUSH1 0x0 KECCAK256 PUSH1 0x0 DUP3 DUP3 SLOAD PUSH2 0x20F0 SWAP2 SWAP1 PUSH2 0x2A8F JUMP JUMPDEST SWAP3 POP POP DUP2 SWAP1 SSTORE POP PUSH2 0x210B PUSH8 0x93D83B1E66651341 PUSH1 0xC0 SHL PUSH2 0x2076 JUMP JUMPDEST DUP1 PUSH1 0x6 PUSH1 0x0 DUP3 DUP3 SLOAD PUSH2 0x211D SWAP2 SWAP1 PUSH2 0x2A8F JUMP JUMPDEST SWAP3 POP POP DUP2 SWAP1 SSTORE POP PUSH2 0x2138 PUSH8 0xE7A3A00CA67E2FA0 PUSH1 0xC0 SHL PUSH2 0x2076 JUMP JUMPDEST PUSH2 0x214C PUSH8 0xA764A9B3D2490C47 PUSH1 0xC0 SHL PUSH2 0x2076 JUMP JUMPDEST PUSH3 0x278D00 PUSH1 0x7 SLOAD PUSH2 0x215D SWAP2 SWAP1 PUSH2 0x2A8F JUMP JUMPDEST TIMESTAMP GT ISZERO PUSH2 0x220D JUMPI PUSH2 0x2178 PUSH8 0x8E703DDD0E016F93 PUSH1 0xC0 SHL PUSH2 0x2076 JUMP JUMPDEST PUSH2 0x218C PUSH8 0x813E6833E4CF6BDA PUSH1 0xC0 SHL PUSH2 0x2076 JUMP JUMPDEST TIMESTAMP PUSH1 0x7 DUP2 SWAP1 SSTORE POP PUSH2 0x21A7 PUSH8 0xA2E38BE0DE40148A PUSH1 0xC0 SHL PUSH2 0x2076 JUMP JUMPDEST PUSH1 0x0 PUSH1 0xD PUSH1 0x0 DUP5 PUSH20 0xFFFFFFFFFFFFFFFFFFFFFFFFFFFFFFFFFFFFFFFF AND PUSH20 0xFFFFFFFFFFFFFFFFFFFFFFFFFFFFFFFFFFFFFFFF AND DUP2 MSTORE PUSH1 0x20 ADD SWAP1 DUP2 MSTORE PUSH1 0x20 ADD PUSH1 0x0 KECCAK256 DUP2 SWAP1 SSTORE POP PUSH2 0x2200 PUSH8 0xEA438745C0BBBCEA PUSH1 0xC0 SHL PUSH2 0x2076 JUMP JUMPDEST PUSH1 0x0 PUSH1 0x6 DUP2 SWAP1 SSTORE POP PUSH2 0x22B9 JUMP JUMPDEST PUSH2 0x2221 PUSH8 0xA9445A948F96CD06 PUSH1 0xC0 SHL PUSH2 0x2076 JUMP JUMPDEST PUSH2 0x2235 PUSH8 0xEFF9406D85DA7C84 PUSH1 0xC0 SHL PUSH2 0x2076 JUMP JUMPDEST DUP1 PUSH1 0xD PUSH1 0x0 DUP5 PUSH20 0xFFFFFFFFFFFFFFFFFFFFFFFFFFFFFFFFFFFFFFFF AND PUSH20 0xFFFFFFFFFFFFFFFFFFFFFFFFFFFFFFFFFFFFFFFF AND DUP2 MSTORE PUSH1 0x20 ADD SWAP1 DUP2 MSTORE PUSH1 0x20 ADD PUSH1 0x0 KECCAK256 PUSH1 0x0 DUP3 DUP3 SLOAD PUSH2 0x2284 SWAP2 SWAP1 PUSH2 0x2A8F JUMP JUMPDEST SWAP3 POP POP DUP2 SWAP1 SSTORE POP PUSH2 0x229F PUSH8 0x3C438B2F3BA2FAFD PUSH1 0xC0 SHL PUSH2 0x2076 JUMP JUMPDEST DUP1 PUSH1 0x6 PUSH1 0x0 DUP3 DUP3 SLOAD PUSH2 0x22B1 SWAP2 SWAP1 PUSH2 0x2A8F JUMP JUMPDEST SWAP3 POP POP DUP2 SWAP1 SSTORE POP JUMPDEST POP POP JUMP JUMPDEST PUSH2 0x233E DUP4 PUSH4 0xA9059CBB PUSH1 0xE0 SHL DUP5 DUP5 PUSH1 0x40 MLOAD PUSH1 0x24 ADD PUSH2 0x22DC SWAP3 SWAP2 SWAP1 PUSH2 0x2AC3 JUMP JUMPDEST PUSH1 0x40 MLOAD PUSH1 0x20 DUP2 DUP4 SUB SUB DUP2 MSTORE SWAP1 PUSH1 0x40 MSTORE SWAP1 PUSH28 0xFFFFFFFFFFFFFFFFFFFFFFFFFFFFFFFFFFFFFFFFFFFFFFFFFFFFFFFF NOT AND PUSH1 0x20 DUP3 ADD DUP1 MLOAD PUSH28 0xFFFFFFFFFFFFFFFFFFFFFFFFFFFFFFFFFFFFFFFFFFFFFFFFFFFFFFFF DUP4 DUP2 DUP4 AND OR DUP4 MSTORE POP POP POP POP PUSH2 0x2485 JUMP JUMPDEST POP POP POP JUMP JUMPDEST PUSH2 0x234B PUSH2 0x254D JUMP JUMPDEST PUSH20 0xFFFFFFFFFFFFFFFFFFFFFFFFFFFFFFFFFFFFFFFF AND PUSH2 0x2369 PUSH2 0xD7A JUMP JUMPDEST PUSH20 0xFFFFFFFFFFFFFFFFFFFFFFFFFFFFFFFFFFFFFFFF AND EQ PUSH2 0x23BF JUMPI PUSH1 0x40 MLOAD PUSH32 0x8C379A000000000000000000000000000000000000000000000000000000000 DUP2 MSTORE PUSH1 0x4 ADD PUSH2 0x23B6 SWAP1 PUSH2 0x2F12 JUMP JUMPDEST PUSH1 0x40 MLOAD DUP1 SWAP2 SUB SWAP1 REVERT JUMPDEST JUMP JUMPDEST PUSH1 0x0 DUP1 PUSH1 0x0 SWAP1 SLOAD SWAP1 PUSH2 0x100 EXP SWAP1 DIV PUSH20 0xFFFFFFFFFFFFFFFFFFFFFFFFFFFFFFFFFFFFFFFF AND SWAP1 POP DUP2 PUSH1 0x0 DUP1 PUSH2 0x100 EXP DUP2 SLOAD DUP2 PUSH20 0xFFFFFFFFFFFFFFFFFFFFFFFFFFFFFFFFFFFFFFFF MUL NOT AND SWAP1 DUP4 PUSH20 0xFFFFFFFFFFFFFFFFFFFFFFFFFFFFFFFFFFFFFFFF AND MUL OR SWAP1 SSTORE POP DUP2 PUSH20 0xFFFFFFFFFFFFFFFFFFFFFFFFFFFFFFFFFFFFFFFF AND DUP2 PUSH20 0xFFFFFFFFFFFFFFFFFFFFFFFFFFFFFFFFFFFFFFFF AND PUSH32 0x8BE0079C531659141344CD1FD0A4F28419497F9722A3DAAFE3B4186F6B6457E0 PUSH1 0x40 MLOAD PUSH1 0x40 MLOAD DUP1 SWAP2 SUB SWAP1 LOG3 POP POP JUMP JUMPDEST PUSH1 0x0 PUSH2 0x24E7 DUP3 PUSH1 0x40 MLOAD DUP1 PUSH1 0x40 ADD PUSH1 0x40 MSTORE DUP1 PUSH1 0x20 DUP2 MSTORE PUSH1 0x20 ADD PUSH32 0x5361666545524332303A206C6F772D6C6576656C2063616C6C206661696C6564 DUP2 MSTORE POP DUP6 PUSH20 0xFFFFFFFFFFFFFFFFFFFFFFFFFFFFFFFFFFFFFFFF AND PUSH2 0x2555 SWAP1 SWAP3 SWAP2 SWAP1 PUSH4 0xFFFFFFFF AND JUMP JUMPDEST SWAP1 POP PUSH1 0x0 DUP2 MLOAD EQ DUP1 PUSH2 0x2509 JUMPI POP DUP1 DUP1 PUSH1 0x20 ADD SWAP1 MLOAD DUP2 ADD SWAP1 PUSH2 0x2508 SWAP2 SWAP1 PUSH2 0x2B24 JUMP JUMPDEST JUMPDEST PUSH2 0x2548 JUMPI PUSH1 0x40 MLOAD PUSH32 0x8C379A000000000000000000000000000000000000000000000000000000000 DUP2 MSTORE PUSH1 0x4 ADD PUSH2 0x253F SWAP1 PUSH2 0x2FA4 JUMP JUMPDEST PUSH1 0x40 MLOAD DUP1 SWAP2 SUB SWAP1 REVERT JUMPDEST POP POP POP JUMP JUMPDEST PUSH1 0x0 CALLER SWAP1 POP SWAP1 JUMP JUMPDEST PUSH1 0x60 PUSH2 0x2564 DUP5 DUP5 PUSH1 0x0 DUP6 PUSH2 0x256D JUMP JUMPDEST SWAP1 POP SWAP4 SWAP3 POP POP POP JUMP JUMPDEST PUSH1 0x60 DUP3 SELFBALANCE LT ISZERO PUSH2 0x25B2 JUMPI PUSH1 0x40 MLOAD PUSH32 0x8C379A000000000000000000000000000000000000000000000000000000000 DUP2 MSTORE PUSH1 0x4 ADD PUSH2 0x25A9 SWAP1 PUSH2 0x3036 JUMP JUMPDEST PUSH1 0x40 MLOAD DUP1 SWAP2 SUB SWAP1 REVERT JUMPDEST PUSH1 0x0 DUP1 DUP7 PUSH20 0xFFFFFFFFFFFFFFFFFFFFFFFFFFFFFFFFFFFFFFFF AND DUP6 DUP8 PUSH1 0x40 MLOAD PUSH2 0x25DB SWAP2 SWAP1 PUSH2 0x30C7 JUMP JUMPDEST PUSH1 0x0 PUSH1 0x40 MLOAD DUP1 DUP4 SUB DUP2 DUP6 DUP8 GAS CALL SWAP3 POP POP POP RETURNDATASIZE DUP1 PUSH1 0x0 DUP2 EQ PUSH2 0x2618 JUMPI PUSH1 0x40 MLOAD SWAP2 POP PUSH1 0x1F NOT PUSH1 0x3F RETURNDATASIZE ADD AND DUP3 ADD PUSH1 0x40 MSTORE RETURNDATASIZE DUP3 MSTORE RETURNDATASIZE PUSH1 0x0 PUSH1 0x20 DUP5 ADD RETURNDATACOPY PUSH2 0x261D JUMP JUMPDEST PUSH1 0x60 SWAP2 POP JUMPDEST POP SWAP2 POP SWAP2 POP PUSH2 0x262E DUP8 DUP4 DUP4 DUP8 PUSH2 0x263A JUMP JUMPDEST SWAP3 POP POP POP SWAP5 SWAP4 POP POP POP POP JUMP JUMPDEST PUSH1 0x60 DUP4 ISZERO PUSH2 0x269C JUMPI PUSH1 0x0 DUP4 MLOAD SUB PUSH2 0x2694 JUMPI PUSH2 0x2654 DUP6 PUSH2 0x26AF JUMP JUMPDEST PUSH2 0x2693 JUMPI PUSH1 0x40 MLOAD PUSH32 0x8C379A000000000000000000000000000000000000000000000000000000000 DUP2 MSTORE PUSH1 0x4 ADD PUSH2 0x268A SWAP1 PUSH2 0x312A JUMP JUMPDEST PUSH1 0x40 MLOAD DUP1 SWAP2 SUB SWAP1 REVERT JUMPDEST JUMPDEST DUP3 SWAP1 POP PUSH2 0x26A7 JUMP JUMPDEST PUSH2 0x26A6 DUP4 DUP4 PUSH2 0x26D2 JUMP JUMPDEST JUMPDEST SWAP5 SWAP4 POP POP POP POP JUMP JUMPDEST PUSH1 0x0 DUP1 DUP3 PUSH20 0xFFFFFFFFFFFFFFFFFFFFFFFFFFFFFFFFFFFFFFFF AND EXTCODESIZE GT SWAP1 POP SWAP2 SWAP1 POP JUMP JUMPDEST PUSH1 0x0 DUP3 MLOAD GT ISZERO PUSH2 0x26E5 JUMPI DUP2 MLOAD DUP1 DUP4 PUSH1 0x20 ADD REVERT JUMPDEST DUP1 PUSH1 0x40 MLOAD PUSH32 0x8C379A000000000000000000000000000000000000000000000000000000000 DUP2 MSTORE PUSH1 0x4 ADD PUSH2 0x2719 SWAP2 SWAP1 PUSH2 0x319F JUMP JUMPDEST PUSH1 0x40 MLOAD DUP1 SWAP2 SUB SWAP1 REVERT JUMPDEST PUSH1 0x0 DUP2 SWAP1 POP SWAP2 SWAP1 POP JUMP JUMPDEST PUSH2 0x2735 DUP2 PUSH2 0x2722 JUMP JUMPDEST DUP3 MSTORE POP POP JUMP JUMPDEST PUSH1 0x0 PUSH1 0x20 DUP3 ADD SWAP1 POP PUSH2 0x2750 PUSH1 0x0 DUP4 ADD DUP5 PUSH2 0x272C JUMP JUMPDEST SWAP3 SWAP2 POP POP JUMP JUMPDEST PUSH1 0x0 DUP1 REVERT JUMPDEST PUSH2 0x2764 DUP2 PUSH2 0x2722 JUMP JUMPDEST DUP2 EQ PUSH2 0x276F JUMPI PUSH1 0x0 DUP1 REVERT JUMPDEST POP JUMP JUMPDEST PUSH1 0x0 DUP2 CALLDATALOAD SWAP1 POP PUSH2 0x2781 DUP2 PUSH2 0x275B JUMP JUMPDEST SWAP3 SWAP2 POP POP JUMP JUMPDEST PUSH1 0x0 DUP1 PUSH1 0x40 DUP4 DUP6 SUB SLT ISZERO PUSH2 0x279E JUMPI PUSH2 0x279D PUSH2 0x2756 JUMP JUMPDEST JUMPDEST PUSH1 0x0 PUSH2 0x27AC DUP6 DUP3 DUP7 ADD PUSH2 0x2772 JUMP JUMPDEST SWAP3 POP POP PUSH1 0x20 PUSH2 0x27BD DUP6 DUP3 DUP7 ADD PUSH2 0x2772 JUMP JUMPDEST SWAP2 POP POP SWAP3 POP SWAP3 SWAP1 POP JUMP JUMPDEST PUSH1 0x0 PUSH1 0x20 DUP3 DUP5 SUB SLT ISZERO PUSH2 0x27DD JUMPI PUSH2 0x27DC PUSH2 0x2756 JUMP JUMPDEST JUMPDEST PUSH1 0x0 PUSH2 0x27EB DUP5 DUP3 DUP6 ADD PUSH2 0x2772 JUMP JUMPDEST SWAP2 POP POP SWAP3 SWAP2 POP POP JUMP JUMPDEST PUSH1 0x0 PUSH20 0xFFFFFFFFFFFFFFFFFFFFFFFFFFFFFFFFFFFFFFFF DUP3 AND SWAP1 POP SWAP2 SWAP1 POP JUMP JUMPDEST PUSH1 0x0 PUSH2 0x281F DUP3 PUSH2 0x27F4 JUMP JUMPDEST SWAP1 POP SWAP2 SWAP1 POP JUMP JUMPDEST PUSH2 0x282F DUP2 PUSH2 0x2814 JUMP JUMPDEST DUP3 MSTORE POP POP JUMP JUMPDEST PUSH1 0x0 PUSH1 0x20 DUP3 ADD SWAP1 POP PUSH2 0x284A PUSH1 0x0 DUP4 ADD DUP5 PUSH2 0x2826 JUMP JUMPDEST SWAP3 SWAP2 POP POP JUMP JUMPDEST PUSH2 0x2859 DUP2 PUSH2 0x2814 JUMP JUMPDEST DUP2 EQ PUSH2 0x2864 JUMPI PUSH1 0x0 DUP1 REVERT JUMPDEST POP JUMP JUMPDEST PUSH1 0x0 DUP2 CALLDATALOAD SWAP1 POP PUSH2 0x2876 DUP2 PUSH2 0x2850 JUMP JUMPDEST SWAP3 SWAP2 POP POP JUMP JUMPDEST PUSH1 0x0 PUSH1 0x20 DUP3 DUP5 SUB SLT ISZERO PUSH2 0x2892 JUMPI PUSH2 0x2891 PUSH2 0x2756 JUMP JUMPDEST JUMPDEST PUSH1 0x0 PUSH2 0x28A0 DUP5 DUP3 DUP6 ADD PUSH2 0x2867 JUMP JUMPDEST SWAP2 POP POP SWAP3 SWAP2 POP POP JUMP JUMPDEST PUSH1 0x0 DUP1 PUSH1 0x40 DUP4 DUP6 SUB SLT ISZERO PUSH2 0x28C0 JUMPI PUSH2 0x28BF PUSH2 0x2756 JUMP JUMPDEST JUMPDEST PUSH1 0x0 PUSH2 0x28CE DUP6 DUP3 DUP7 ADD PUSH2 0x2867 JUMP JUMPDEST SWAP3 POP POP PUSH1 0x20 PUSH2 0x28DF DUP6 DUP3 DUP7 ADD PUSH2 0x2772 JUMP JUMPDEST SWAP2 POP POP SWAP3 POP SWAP3 SWAP1 POP JUMP JUMPDEST PUSH1 0x0 DUP3 DUP3 MSTORE PUSH1 0x20 DUP3 ADD SWAP1 POP SWAP3 SWAP2 POP POP JUMP JUMPDEST PUSH32 0x416D6F756E7420746F2073656C6C206D75737420626520677265617465722074 PUSH1 0x0 DUP3 ADD MSTORE PUSH32 0x68616E207A65726F000000000000000000000000000000000000000000000000 PUSH1 0x20 DUP3 ADD MSTORE POP JUMP JUMPDEST PUSH1 0x0 PUSH2 0x2956 PUSH1 0x28 DUP4 PUSH2 0x28E9 JUMP JUMPDEST SWAP2 POP PUSH2 0x2961 DUP3 PUSH2 0x28FA JUMP JUMPDEST PUSH1 0x40 DUP3 ADD SWAP1 POP SWAP2 SWAP1 POP JUMP JUMPDEST PUSH1 0x0 PUSH1 0x20 DUP3 ADD SWAP1 POP DUP2 DUP2 SUB PUSH1 0x0 DUP4 ADD MSTORE PUSH2 0x2985 DUP2 PUSH2 0x2949 JUMP JUMPDEST SWAP1 POP SWAP2 SWAP1 POP JUMP JUMPDEST PUSH32 0x4C65766572616765206D7573742062652067726561746572207468616E206F72 PUSH1 0x0 DUP3 ADD MSTORE PUSH32 0x20657175616C20746F2031000000000000000000000000000000000000000000 PUSH1 0x20 DUP3 ADD MSTORE POP JUMP JUMPDEST PUSH1 0x0 PUSH2 0x29E8 PUSH1 0x2B DUP4 PUSH2 0x28E9 JUMP JUMPDEST SWAP2 POP PUSH2 0x29F3 DUP3 PUSH2 0x298C JUMP JUMPDEST PUSH1 0x40 DUP3 ADD SWAP1 POP SWAP2 SWAP1 POP JUMP JUMPDEST PUSH1 0x0 PUSH1 0x20 DUP3 ADD SWAP1 POP DUP2 DUP2 SUB PUSH1 0x0 DUP4 ADD MSTORE PUSH2 0x2A17 DUP2 PUSH2 0x29DB JUMP JUMPDEST SWAP1 POP SWAP2 SWAP1 POP JUMP JUMPDEST PUSH32 0x4E487B7100000000000000000000000000000000000000000000000000000000 PUSH1 0x0 MSTORE PUSH1 0x11 PUSH1 0x4 MSTORE PUSH1 0x24 PUSH1 0x0 REVERT JUMPDEST PUSH1 0x0 PUSH2 0x2A58 DUP3 PUSH2 0x2722 JUMP JUMPDEST SWAP2 POP PUSH2 0x2A63 DUP4 PUSH2 0x2722 JUMP JUMPDEST SWAP3 POP DUP3 DUP3 MUL PUSH2 0x2A71 DUP2 PUSH2 0x2722 JUMP JUMPDEST SWAP2 POP DUP3 DUP3 DIV DUP5 EQ DUP4 ISZERO OR PUSH2 0x2A88 JUMPI PUSH2 0x2A87 PUSH2 0x2A1E JUMP JUMPDEST JUMPDEST POP SWAP3 SWAP2 POP POP JUMP JUMPDEST PUSH1 0x0 PUSH2 0x2A9A DUP3 PUSH2 0x2722 JUMP JUMPDEST SWAP2 POP PUSH2 0x2AA5 DUP4 PUSH2 0x2722 JUMP JUMPDEST SWAP3 POP DUP3 DUP3 ADD SWAP1 POP DUP1 DUP3 GT ISZERO PUSH2 0x2ABD JUMPI PUSH2 0x2ABC PUSH2 0x2A1E JUMP JUMPDEST JUMPDEST SWAP3 SWAP2 POP POP JUMP JUMPDEST PUSH1 0x0 PUSH1 0x40 DUP3 ADD SWAP1 POP PUSH2 0x2AD8 PUSH1 0x0 DUP4 ADD DUP6 PUSH2 0x2826 JUMP JUMPDEST PUSH2 0x2AE5 PUSH1 0x20 DUP4 ADD DUP5 PUSH2 0x272C JUMP JUMPDEST SWAP4 SWAP3 POP POP POP JUMP JUMPDEST PUSH1 0x0 DUP2 ISZERO ISZERO SWAP1 POP SWAP2 SWAP1 POP JUMP JUMPDEST PUSH2 0x2B01 DUP2 PUSH2 0x2AEC JUMP JUMPDEST DUP2 EQ PUSH2 0x2B0C JUMPI PUSH1 0x0 DUP1 REVERT JUMPDEST POP JUMP JUMPDEST PUSH1 0x0 DUP2 MLOAD SWAP1 POP PUSH2 0x2B1E DUP2 PUSH2 0x2AF8 JUMP JUMPDEST SWAP3 SWAP2 POP POP JUMP JUMPDEST PUSH1 0x0 PUSH1 0x20 DUP3 DUP5 SUB SLT ISZERO PUSH2 0x2B3A JUMPI PUSH2 0x2B39 PUSH2 0x2756 JUMP JUMPDEST JUMPDEST PUSH1 0x0 PUSH2 0x2B48 DUP5 DUP3 DUP6 ADD PUSH2 0x2B0F JUMP JUMPDEST SWAP2 POP POP SWAP3 SWAP2 POP POP JUMP JUMPDEST PUSH1 0x0 PUSH1 0x60 DUP3 ADD SWAP1 POP PUSH2 0x2B66 PUSH1 0x0 DUP4 ADD DUP7 PUSH2 0x2826 JUMP JUMPDEST PUSH2 0x2B73 PUSH1 0x20 DUP4 ADD DUP6 PUSH2 0x2826 JUMP JUMPDEST PUSH2 0x2B80 PUSH1 0x40 DUP4 ADD DUP5 PUSH2 0x272C JUMP JUMPDEST SWAP5 SWAP4 POP POP POP POP JUMP JUMPDEST PUSH1 0x0 DUP2 MLOAD SWAP1 POP PUSH2 0x2B97 DUP2 PUSH2 0x275B JUMP JUMPDEST SWAP3 SWAP2 POP POP JUMP JUMPDEST PUSH1 0x0 PUSH1 0x20 DUP3 DUP5 SUB SLT ISZERO PUSH2 0x2BB3 JUMPI PUSH2 0x2BB2 PUSH2 0x2756 JUMP JUMPDEST JUMPDEST PUSH1 0x0 PUSH2 0x2BC1 DUP5 DUP3 DUP6 ADD PUSH2 0x2B88 JUMP JUMPDEST SWAP2 POP POP SWAP3 SWAP2 POP POP JUMP JUMPDEST PUSH32 0x52657761726420706572696F6420686173206E6F7420656E6465642079657400 PUSH1 0x0 DUP3 ADD MSTORE POP JUMP JUMPDEST PUSH1 0x0 PUSH2 0x2C00 PUSH1 0x1F DUP4 PUSH2 0x28E9 JUMP JUMPDEST SWAP2 POP PUSH2 0x2C0B DUP3 PUSH2 0x2BCA JUMP JUMPDEST PUSH1 0x20 DUP3 ADD SWAP1 POP SWAP2 SWAP1 POP JUMP JUMPDEST PUSH1 0x0 PUSH1 0x20 DUP3 ADD SWAP1 POP DUP2 DUP2 SUB PUSH1 0x0 DUP4 ADD MSTORE PUSH2 0x2C2F DUP2 PUSH2 0x2BF3 JUMP JUMPDEST SWAP1 POP SWAP2 SWAP1 POP JUMP JUMPDEST PUSH32 0x4E6F2072657761726420666F72207468697320706572696F6400000000000000 PUSH1 0x0 DUP3 ADD MSTORE POP JUMP JUMPDEST PUSH1 0x0 PUSH2 0x2C6C PUSH1 0x19 DUP4 PUSH2 0x28E9 JUMP JUMPDEST SWAP2 POP PUSH2 0x2C77 DUP3 PUSH2 0x2C36 JUMP JUMPDEST PUSH1 0x20 DUP3 ADD SWAP1 POP SWAP2 SWAP1 POP JUMP JUMPDEST PUSH1 0x0 PUSH1 0x20 DUP3 ADD SWAP1 POP DUP2 DUP2 SUB PUSH1 0x0 DUP4 ADD MSTORE PUSH2 0x2C9B DUP2 PUSH2 0x2C5F JUMP JUMPDEST SWAP1 POP SWAP2 SWAP1 POP JUMP JUMPDEST PUSH32 0x416D6F756E7420746F20627579206D7573742062652067726561746572207468 PUSH1 0x0 DUP3 ADD MSTORE PUSH32 0x616E207A65726F00000000000000000000000000000000000000000000000000 PUSH1 0x20 DUP3 ADD MSTORE POP JUMP JUMPDEST PUSH1 0x0 PUSH2 0x2CFE PUSH1 0x27 DUP4 PUSH2 0x28E9 JUMP JUMPDEST SWAP2 POP PUSH2 0x2D09 DUP3 PUSH2 0x2CA2 JUMP JUMPDEST PUSH1 0x40 DUP3 ADD SWAP1 POP SWAP2 SWAP1 POP JUMP JUMPDEST PUSH1 0x0 PUSH1 0x20 DUP3 ADD SWAP1 POP DUP2 DUP2 SUB PUSH1 0x0 DUP4 ADD MSTORE PUSH2 0x2D2D DUP2 PUSH2 0x2CF1 JUMP JUMPDEST SWAP1 POP SWAP2 SWAP1 POP JUMP JUMPDEST PUSH32 0x4D61726B657420766F6C756D65206973207A65726F0000000000000000000000 PUSH1 0x0 DUP3 ADD MSTORE POP JUMP JUMPDEST PUSH1 0x0 PUSH2 0x2D6A PUSH1 0x15 DUP4 PUSH2 0x28E9 JUMP JUMPDEST SWAP2 POP PUSH2 0x2D75 DUP3 PUSH2 0x2D34 JUMP JUMPDEST PUSH1 0x20 DUP3 ADD SWAP1 POP SWAP2 SWAP1 POP JUMP JUMPDEST PUSH1 0x0 PUSH1 0x20 DUP3 ADD SWAP1 POP DUP2 DUP2 SUB PUSH1 0x0 DUP4 ADD MSTORE PUSH2 0x2D99 DUP2 PUSH2 0x2D5D JUMP JUMPDEST SWAP1 POP SWAP2 SWAP1 POP JUMP JUMPDEST PUSH1 0x0 PUSH2 0x2DAB DUP3 PUSH2 0x2722 JUMP JUMPDEST SWAP2 POP PUSH2 0x2DB6 DUP4 PUSH2 0x2722 JUMP JUMPDEST SWAP3 POP DUP3 DUP3 SUB SWAP1 POP DUP2 DUP2 GT ISZERO PUSH2 0x2DCE JUMPI PUSH2 0x2DCD PUSH2 0x2A1E JUMP JUMPDEST JUMPDEST SWAP3 SWAP2 POP POP JUMP JUMPDEST PUSH32 0x4E487B7100000000000000000000000000000000000000000000000000000000 PUSH1 0x0 MSTORE PUSH1 0x12 PUSH1 0x4 MSTORE PUSH1 0x24 PUSH1 0x0 REVERT JUMPDEST PUSH1 0x0 PUSH2 0x2E0E DUP3 PUSH2 0x2722 JUMP JUMPDEST SWAP2 POP PUSH2 0x2E19 DUP4 PUSH2 0x2722 JUMP JUMPDEST SWAP3 POP DUP3 PUSH2 0x2E29 JUMPI PUSH2 0x2E28 PUSH2 0x2DD4 JUMP JUMPDEST JUMPDEST DUP3 DUP3 DIV SWAP1 POP SWAP3 SWAP2 POP POP JUMP JUMPDEST PUSH32 0x4F776E61626C653A206E6577206F776E657220697320746865207A65726F2061 PUSH1 0x0 DUP3 ADD MSTORE PUSH32 0x6464726573730000000000000000000000000000000000000000000000000000 PUSH1 0x20 DUP3 ADD MSTORE POP JUMP JUMPDEST PUSH1 0x0 PUSH2 0x2E90 PUSH1 0x26 DUP4 PUSH2 0x28E9 JUMP JUMPDEST SWAP2 POP PUSH2 0x2E9B DUP3 PUSH2 0x2E34 JUMP JUMPDEST PUSH1 0x40 DUP3 ADD SWAP1 POP SWAP2 SWAP1 POP JUMP JUMPDEST PUSH1 0x0 PUSH1 0x20 DUP3 ADD SWAP1 POP DUP2 DUP2 SUB PUSH1 0x0 DUP4 ADD MSTORE PUSH2 0x2EBF DUP2 PUSH2 0x2E83 JUMP JUMPDEST SWAP1 POP SWAP2 SWAP1 POP JUMP JUMPDEST PUSH32 0x4F776E61626C653A2063616C6C6572206973206E6F7420746865206F776E6572 PUSH1 0x0 DUP3 ADD MSTORE POP JUMP JUMPDEST PUSH1 0x0 PUSH2 0x2EFC PUSH1 0x20 DUP4 PUSH2 0x28E9 JUMP JUMPDEST SWAP2 POP PUSH2 0x2F07 DUP3 PUSH2 0x2EC6 JUMP JUMPDEST PUSH1 0x20 DUP3 ADD SWAP1 POP SWAP2 SWAP1 POP JUMP JUMPDEST PUSH1 0x0 PUSH1 0x20 DUP3 ADD SWAP1 POP DUP2 DUP2 SUB PUSH1 0x0 DUP4 ADD MSTORE PUSH2 0x2F2B DUP2 PUSH2 0x2EEF JUMP JUMPDEST SWAP1 POP SWAP2 SWAP1 POP JUMP JUMPDEST PUSH32 0x5361666545524332303A204552433230206F7065726174696F6E20646964206E PUSH1 0x0 DUP3 ADD MSTORE PUSH32 0x6F74207375636365656400000000000000000000000000000000000000000000 PUSH1 0x20 DUP3 ADD MSTORE POP JUMP JUMPDEST PUSH1 0x0 PUSH2 0x2F8E PUSH1 0x2A DUP4 PUSH2 0x28E9 JUMP JUMPDEST SWAP2 POP PUSH2 0x2F99 DUP3 PUSH2 0x2F32 JUMP JUMPDEST PUSH1 0x40 DUP3 ADD SWAP1 POP SWAP2 SWAP1 POP JUMP JUMPDEST PUSH1 0x0 PUSH1 0x20 DUP3 ADD SWAP1 POP DUP2 DUP2 SUB PUSH1 0x0 DUP4 ADD MSTORE PUSH2 0x2FBD DUP2 PUSH2 0x2F81 JUMP JUMPDEST SWAP1 POP SWAP2 SWAP1 POP JUMP JUMPDEST PUSH32 0x416464726573733A20696E73756666696369656E742062616C616E636520666F PUSH1 0x0 DUP3 ADD MSTORE PUSH32 0x722063616C6C0000000000000000000000000000000000000000000000000000 PUSH1 0x20 DUP3 ADD MSTORE POP JUMP JUMPDEST PUSH1 0x0 PUSH2 0x3020 PUSH1 0x26 DUP4 PUSH2 0x28E9 JUMP JUMPDEST SWAP2 POP PUSH2 0x302B DUP3 PUSH2 0x2FC4 JUMP JUMPDEST PUSH1 0x40 DUP3 ADD SWAP1 POP SWAP2 SWAP1 POP JUMP JUMPDEST PUSH1 0x0 PUSH1 0x20 DUP3 ADD SWAP1 POP DUP2 DUP2 SUB PUSH1 0x0 DUP4 ADD MSTORE PUSH2 0x304F DUP2 PUSH2 0x3013 JUMP JUMPDEST SWAP1 POP SWAP2 SWAP1 POP JUMP JUMPDEST PUSH1 0x0 DUP2 MLOAD SWAP1 POP SWAP2 SWAP1 POP JUMP JUMPDEST PUSH1 0x0 DUP2 SWAP1 POP SWAP3 SWAP2 POP POP JUMP JUMPDEST PUSH1 0x0 JUMPDEST DUP4 DUP2 LT ISZERO PUSH2 0x308A JUMPI DUP1 DUP3 ADD MLOAD DUP2 DUP5 ADD MSTORE PUSH1 0x20 DUP2 ADD SWAP1 POP PUSH2 0x306F JUMP JUMPDEST PUSH1 0x0 DUP5 DUP5 ADD MSTORE POP POP POP POP JUMP JUMPDEST PUSH1 0x0 PUSH2 0x30A1 DUP3 PUSH2 0x3056 JUMP JUMPDEST PUSH2 0x30AB DUP2 DUP6 PUSH2 0x3061 JUMP JUMPDEST SWAP4 POP PUSH2 0x30BB DUP2 DUP6 PUSH1 0x20 DUP7 ADD PUSH2 0x306C JUMP JUMPDEST DUP1 DUP5 ADD SWAP2 POP POP SWAP3 SWAP2 POP POP JUMP JUMPDEST PUSH1 0x0 PUSH2 0x30D3 DUP3 DUP5 PUSH2 0x3096 JUMP JUMPDEST SWAP2 POP DUP2 SWAP1 POP SWAP3 SWAP2 POP POP JUMP JUMPDEST PUSH32 0x416464726573733A2063616C6C20746F206E6F6E2D636F6E7472616374000000 PUSH1 0x0 DUP3 ADD MSTORE POP JUMP JUMPDEST PUSH1 0x0 PUSH2 0x3114 PUSH1 0x1D DUP4 PUSH2 0x28E9 JUMP JUMPDEST SWAP2 POP PUSH2 0x311F DUP3 PUSH2 0x30DE JUMP JUMPDEST PUSH1 0x20 DUP3 ADD SWAP1 POP SWAP2 SWAP1 POP JUMP JUMPDEST PUSH1 0x0 PUSH1 0x20 DUP3 ADD SWAP1 POP DUP2 DUP2 SUB PUSH1 0x0 DUP4 ADD MSTORE PUSH2 0x3143 DUP2 PUSH2 0x3107 JUMP JUMPDEST SWAP1 POP SWAP2 SWAP1 POP JUMP JUMPDEST PUSH1 0x0 DUP2 MLOAD SWAP1 POP SWAP2 SWAP1 POP JUMP JUMPDEST PUSH1 0x0 PUSH1 0x1F NOT PUSH1 0x1F DUP4 ADD AND SWAP1 POP SWAP2 SWAP1 POP JUMP JUMPDEST PUSH1 0x0 PUSH2 0x3171 DUP3 PUSH2 0x314A JUMP JUMPDEST PUSH2 0x317B DUP2 DUP6 PUSH2 0x28E9 JUMP JUMPDEST SWAP4 POP PUSH2 0x318B DUP2 DUP6 PUSH1 0x20 DUP7 ADD PUSH2 0x306C JUMP JUMPDEST PUSH2 0x3194 DUP2 PUSH2 0x3155 JUMP JUMPDEST DUP5 ADD SWAP2 POP POP SWAP3 SWAP2 POP POP JUMP JUMPDEST PUSH1 0x0 PUSH1 0x20 DUP3 ADD SWAP1 POP DUP2 DUP2 SUB PUSH1 0x0 DUP4 ADD MSTORE PUSH2 0x31B9 DUP2 DUP5 PUSH2 0x3166 JUMP JUMPDEST SWAP1 POP SWAP3 SWAP2 POP POP JUMP INVALID LOG2 PUSH5 0x6970667358 0x22 SLT KECCAK256 0x5C MUL 0xD2 PUSH8 0xCAACAF9E5C7BDE0C PUSH5 0xAA54CE0980 0xD4 JUMP XOR 0x1E PUSH9 0xAF8DAD10755C94527F PUSH5 0x736F6C6343 STOP ADDMOD OR STOP CALLER "},"gasEstimates":{"creation":{"codeDepositCost":"2558200","executionCost":"infinite","totalCost":"infinite"},"external":{"calculateReward(address)":"infinite","closeLong()":"infinite","closeShort()":"infinite","longBalanceB()":"2453","longDebtA()":"2452","openLong(uint256,uint256)":"infinite","openShort(uint256,uint256)":"infinite","owner()":"2545","payReward(address)":"infinite","renounceOwnership()":"30465","setRewardPerSecond(uint256)":"infinite","shortBalanceB()":"2519","shortDebtA()":"2518","transferOwnership(address)":"30788","updateCumulativeMarketVolume(uint256)":"infinite","updateTradingVolume(address,uint256)":"infinite"},"internal":{"_updateTradingVolume(address,uint256)":"infinite","c_096bd658(bytes8)":"11","c_false096bd658(bytes8)":"infinite","c_true096bd658(bytes8)":"infinite"}},"methodIdentifiers":{"calculateReward(address)":"d82e3962","closeLong()":"24f82526","closeShort()":"f8432a1b","longBalanceB()":"032d4038","longDebtA()":"3ef32e0d","openLong(uint256,uint256)":"c181d418","openShort(uint256,uint256)":"1266a619","owner()":"8da5cb5b","payReward(address)":"8e9b277d","renounceOwnership()":"715018a6","setRewardPerSecond(uint256)":"66da5815","shortBalanceB()":"3cb3dafa","shortDebtA()":"84ea96f5","transferOwnership(address)":"f2fde38b","updateCumulativeMarketVolume(uint256)":"fdda45dc","updateTradingVolume(address,uint256)":"93d75db5"}},"storageLayout":{"storage":[{"astId":7,"contract":"contracts/PerpetualTrading.sol:PerpSwap","label":"_owner","offset":0,"slot":"0","type":"t_address"},{"astId":2334,"contract":"contracts/PerpetualTrading.sol:PerpSwap","label":"liquidityPool","offset":0,"slot":"1","type":"t_contract(ILiquidityPool)4035"},{"astId":2337,"contract":"contracts/PerpetualTrading.sol:PerpSwap","label":"orderBook","offset":0,"slot":"2","type":"t_contract(ISimpleOrderBook)4108"},{"astId":2340,"contract":"contracts/PerpetualTrading.sol:PerpSwap","label":"tokenA","offset":0,"slot":"3","type":"t_contract(IERC20)777"},{"astId":2343,"contract":"contracts/PerpetualTrading.sol:PerpSwap","label":"tokenB","offset":0,"slot":"4","type":"t_contract(IERC20)777"},{"astId":2346,"contract":"contracts/PerpetualTrading.sol:PerpSwap","label":"rewardToken","offset":0,"slot":"5","type":"t_contract(IERC20)777"},{"astId":2348,"contract":"contracts/PerpetualTrading.sol:PerpSwap","label":"_cumulativeMarketVolume","offset":0,"slot":"6","type":"t_uint256"},{"astId":2350,"contract":"contracts/PerpetualTrading.sol:PerpSwap","label":"_periodStartTimestamp","offset":0,"slot":"7","type":"t_uint256"},{"astId":2352,"contract":"contracts/PerpetualTrading.sol:PerpSwap","label":"_rewardPerSecond","offset":0,"slot":"8","type":"t_uint256"},{"astId":2357,"contract":"contracts/PerpetualTrading.sol:PerpSwap","label":"longDebtA","offset":0,"slot":"9","type":"t_uint256"},{"astId":2359,"contract":"contracts/PerpetualTrading.sol:PerpSwap","label":"longBalanceB","offset":0,"slot":"10","type":"t_uint256"},{"astId":2361,"contract":"contracts/PerpetualTrading.sol:PerpSwap","label":"shortDebtA","offset":0,"slot":"11","type":"t_uint256"},{"astId":2363,"contract":"contracts/PerpetualTrading.sol:PerpSwap","label":"shortBalanceB","offset":0,"slot":"12","type":"t_uint256"},{"astId":2369,"contract":"contracts/PerpetualTrading.sol:PerpSwap","label":"_cumulativeTradingVolume","offset":0,"slot":"13","type":"t_mapping(t_address,t_uint256)"}],"types":{"t_address":{"encoding":"inplace","label":"address","numberOfBytes":"20"},"t_contract(IERC20)777":{"encoding":"inplace","label":"contract IERC20","numberOfBytes":"20"},"t_contract(ILiquidityPool)4035":{"encoding":"inplace","label":"contract ILiquidityPool","numberOfBytes":"20"},"t_contract(ISimpleOrderBook)4108":{"encoding":"inplace","label":"contract ISimpleOrderBook","numberOfBytes":"20"},"t_mapping(t_address,t_uint256)":{"encoding":"mapping","key":"t_address","label":"mapping(address => uint256)","numberOfBytes":"32","value":"t_uint256"},"t_uint256":{"encoding":"inplace","label":"uint256","numberOfBytes":"32"}}},"userdoc":{"kind":"user","methods":{},"version":1}}}}