{"contracts/LiquidityPool.sol":{"LiquidityPool":{"abi":[{"inputs":[{"internalType":"address","name":"_token","type":"address"}],"stateMutability":"nonpayable","type":"constructor"},{"inputs":[{"internalType":"address","name":"caller","type":"address"}],"name":"LiquidityPool_CallerIsNotBorrower","type":"error"},{"inputs":[{"internalType":"address","name":"caller","type":"address"}],"name":"LiquidityPool_CallerIsNotLiquidityProvider","type":"error"},{"inputs":[],"name":"LiquidityPool_InsufficientLiquidity","type":"error"},{"anonymous":false,"inputs":[{"indexed":false,"internalType":"address","name":"borrower","type":"address"},{"indexed":false,"internalType":"uint256","name":"amount","type":"uint256"}],"name":"Borrowed","type":"event"},{"anonymous":false,"inputs":[{"indexed":false,"internalType":"address","name":"liquidityProvider","type":"address"},{"indexed":false,"internalType":"uint256","name":"amount","type":"uint256"}],"name":"LiquidityAdded","type":"event"},{"anonymous":false,"inputs":[{"indexed":false,"internalType":"address","name":"liquidityProvider","type":"address"},{"indexed":false,"internalType":"uint256","name":"amount","type":"uint256"}],"name":"LiquidityWithdrawn","type":"event"},{"anonymous":false,"inputs":[{"indexed":false,"internalType":"address","name":"borrower","type":"address"},{"indexed":false,"internalType":"uint256","name":"amount","type":"uint256"}],"name":"Repaid","type":"event"},{"inputs":[{"internalType":"uint256","name":"amount","type":"uint256"}],"name":"borrow","outputs":[],"stateMutability":"nonpayable","type":"function"},{"inputs":[{"internalType":"uint256","name":"amount","type":"uint256"}],"name":"deposit","outputs":[],"stateMutability":"nonpayable","type":"function"},{"inputs":[{"internalType":"address","name":"borrower","type":"address"}],"name":"getBorrowerBalance","outputs":[{"internalType":"uint256","name":"","type":"uint256"}],"stateMutability":"view","type":"function"},{"inputs":[{"internalType":"address","name":"borrower","type":"address"}],"name":"getDebt","outputs":[{"internalType":"uint256","name":"","type":"uint256"}],"stateMutability":"view","type":"function"},{"inputs":[{"internalType":"address","name":"liquidityProvider","type":"address"}],"name":"getLiquidityProviderBalance","outputs":[{"internalType":"uint256","name":"","type":"uint256"}],"stateMutability":"view","type":"function"},{"inputs":[{"internalType":"uint256","name":"amount","type":"uint256"}],"name":"repay","outputs":[],"stateMutability":"nonpayable","type":"function"},{"inputs":[],"name":"token","outputs":[{"internalType":"contract IERC20","name":"","type":"address"}],"stateMutability":"view","type":"function"},{"inputs":[],"name":"totalDebt","outputs":[{"internalType":"uint256","name":"","type":"uint256"}],"stateMutability":"view","type":"function"},{"inputs":[{"internalType":"uint256","name":"amount","type":"uint256"}],"name":"withdraw","outputs":[],"stateMutability":"nonpayable","type":"function"}],"devdoc":{"kind":"dev","methods":{},"version":1},"evm":{"bytecode":{"linkReferences":{},"object":"60806040523480156200001157600080fd5b50604051620018f9380380620018f9833981810160405281019062000037919062000123565b62000053677f04c0ae645e29ba60c01b620000b660201b60201c565b6200006f674daf67ae7d51fa6660c01b620000b660201b60201c565b806000806101000a81548173ffffffffffffffffffffffffffffffffffffffff021916908373ffffffffffffffffffffffffffffffffffffffff1602179055505062000155565b50565b600080fd5b600073ffffffffffffffffffffffffffffffffffffffff82169050919050565b6000620000eb82620000be565b9050919050565b620000fd81620000de565b81146200010957600080fd5b50565b6000815190506200011d81620000f2565b92915050565b6000602082840312156200013c576200013b620000b9565b5b60006200014c848285016200010c565b91505092915050565b61179480620001656000396000f3fe608060405234801561001057600080fd5b50600436106100935760003560e01c8063aac5116411610066578063aac5116414610130578063b6b55f2514610160578063c5ebeaec1461017c578063fc0c546a14610198578063fc7b9c18146101b657610093565b80632e1a7d4d14610098578063371fd8e6146100b45780637e15b0b2146100d05780639a78e72e14610100575b600080fd5b6100b260048036038101906100ad919061119a565b6101d4565b005b6100ce60048036038101906100c9919061119a565b610556565b005b6100ea60048036038101906100e59190611225565b610814565b6040516100f79190611261565b60405180910390f35b61011a60048036038101906101159190611225565b610899565b6040516101279190611261565b60405180910390f35b61014a60048036038101906101459190611225565b61091e565b6040516101579190611261565b60405180910390f35b61017a6004803603810190610175919061119a565b6109a3565b005b6101966004803603810190610191919061119a565b610ae7565b005b6101a0610d8e565b6040516101ad91906112db565b60405180910390f35b6101be610db2565b6040516101cb9190611261565b60405180910390f35b6101e8678a98e95c51de81f660c01b610db8565b336101fd67599586357a6e264160c01b610db8565b61021167a200a2cd6e86ae4760c01b610db8565b6102256772fa08169132eadc60c01b610db8565b6000600260008373ffffffffffffffffffffffffffffffffffffffff1673ffffffffffffffffffffffffffffffffffffffff16815260200190815260200160002054036102d1576102806708e2f7338367b9bb60c01b610db8565b61029467970ce4a4e92733ad60c01b610db8565b806040517fc39893f50000000000000000000000000000000000000000000000000000000081526004016102c89190611305565b60405180910390fd5b6102e567c7b29aa1821193d760c01b610db8565b6102f9670e56c4ff205c7c3860c01b610db8565b61030d67a0659838b7846e0f60c01b610db8565b6103216722cd01afb9d8044260c01b610db8565b61033567af2bcede1a4e91af60c01b610db8565b6103496761192cb3eb77faaf60c01b610db8565b600260003373ffffffffffffffffffffffffffffffffffffffff1673ffffffffffffffffffffffffffffffffffffffff168152602001908152602001600020548211156103ff576103a467915203742bf452b360c01b610db8565b6103b867117ec504dbac75b460c01b610db8565b600260003373ffffffffffffffffffffffffffffffffffffffff1673ffffffffffffffffffffffffffffffffffffffff168152602001908152602001600020549150610414565b61041367c9ec72ed007fa69260c01b610db8565b5b61042867cdfaf1c65744420960c01b610db8565b61043c6782d4b7540cb5404e60c01b610db8565b610487338360008054906101000a900473ffffffffffffffffffffffffffffffffffffffff1673ffffffffffffffffffffffffffffffffffffffff16610dbb9092919063ffffffff16565b61049b6713be5069dc09a7cd60c01b610db8565b81600260003373ffffffffffffffffffffffffffffffffffffffff1673ffffffffffffffffffffffffffffffffffffffff16815260200190815260200160002060008282546104ea919061134f565b9250508190555061050567b58505ad65c7420f60c01b610db8565b61051967bb032cd4fd8647e660c01b610db8565b7fb1cce8684b4ffa8667b4577654e61ee3480d661ee9c27522ac80e211f6bd4d25338360405161054a929190611383565b60405180910390a15050565b61056a679c3b91cc75ad418460c01b610db8565b3361057f67bacfd5b304d7aa1760c01b610db8565b610593670751e7c8d9b672b060c01b610db8565b6105a767d4a9e05c4c3b86ec60c01b610db8565b6000600360008373ffffffffffffffffffffffffffffffffffffffff1673ffffffffffffffffffffffffffffffffffffffff1681526020019081526020016000205403610653576106026762919daf929472e160c01b610db8565b61061667b60ce61d37d77c3f60c01b610db8565b806040517fdd05179200000000000000000000000000000000000000000000000000000000815260040161064a9190611305565b60405180910390fd5b6106676766bea3a2905697ef60c01b610db8565b61067b67401d2377b5a7b71360c01b610db8565b61068f672e82846e758b4f6360c01b610db8565b6106a3676af321a0717574cc60c01b610db8565b6106b7672e7e33d498c9489d60c01b610db8565b6106cb6704f291f62945657060c01b610db8565b61071833308460008054906101000a900473ffffffffffffffffffffffffffffffffffffffff1673ffffffffffffffffffffffffffffffffffffffff16610e41909392919063ffffffff16565b61072c6792b88a81f2ac5d7b60c01b610db8565b816001600082825461073e919061134f565b92505081905550610759671cfe9db1d78702bb60c01b610db8565b81600360003373ffffffffffffffffffffffffffffffffffffffff1673ffffffffffffffffffffffffffffffffffffffff16815260200190815260200160002060008282546107a8919061134f565b925050819055506107c367939db78719a6704f60c01b610db8565b6107d767e6f62f1c855c084860c01b610db8565b7f0516911bcc3a0a7412a44601057c0a0a1ec628bde049a84284bc4288665344883383604051610808929190611383565b60405180910390a15050565b600061082a67f9678bac8a0a1a5d60c01b610db8565b61083e67f0aec65357dd013d60c01b610db8565b610852676cde6f377689f26f60c01b610db8565b600360008373ffffffffffffffffffffffffffffffffffffffff1673ffffffffffffffffffffffffffffffffffffffff168152602001908152602001600020549050919050565b60006108af67bbc6a6947183bdcc60c01b610db8565b6108c367cd7920724c500d4860c01b610db8565b6108d767a9071b73971b7cc560c01b610db8565b600360008373ffffffffffffffffffffffffffffffffffffffff1673ffffffffffffffffffffffffffffffffffffffff168152602001908152602001600020549050919050565b600061093467d02a517cc561c7b460c01b610db8565b6109486778c9af50d42ed0bf60c01b610db8565b61095c67617f48fcd83fad2e60c01b610db8565b600260008373ffffffffffffffffffffffffffffffffffffffff1673ffffffffffffffffffffffffffffffffffffffff168152602001908152602001600020549050919050565b6109b7673b58ac39a1dcfeae60c01b610db8565b6109cb67395a5918fd48ff4e60c01b610db8565b80600260003373ffffffffffffffffffffffffffffffffffffffff1673ffffffffffffffffffffffffffffffffffffffff16815260200190815260200160002081905550610a23679e3322215389d94c60c01b610db8565b610a3767d528145044d8f0c160c01b610db8565b610a8433308360008054906101000a900473ffffffffffffffffffffffffffffffffffffffff1673ffffffffffffffffffffffffffffffffffffffff16610e41909392919063ffffffff16565b610a9867cf62f1408fa3177f60c01b610db8565b610aab66b0046e92fc370c60c01b610db8565b7fc17cea59c2955cb181b03393209566960365771dbba9dc3d510180e7cb3120883382604051610adc929190611383565b60405180910390a150565b610afb67dd014c1410da9c5e60c01b610db8565b610b0f67632cbb5ede83e59760c01b610db8565b610b2367849f4d8c7474490060c01b610db8565b60008054906101000a900473ffffffffffffffffffffffffffffffffffffffff1673ffffffffffffffffffffffffffffffffffffffff166370a08231306040518263ffffffff1660e01b8152600401610b7c9190611305565b602060405180830381865afa158015610b99573d6000803e3d6000fd5b505050506040513d601f19601f82011682018060405250810190610bbd91906113c1565b811115610c1e57610bd8671e3e266d7c088a5060c01b610db8565b610bec676fb40fdf2627385560c01b610db8565b6040517fc447ed9c00000000000000000000000000000000000000000000000000000000815260040160405180910390fd5b610c3267e61904bb1de4dc1760c01b610db8565b610c46670d5dbf59af2e633860c01b610db8565b610c5a672c266747dff6e45e60c01b610db8565b610ca5338260008054906101000a900473ffffffffffffffffffffffffffffffffffffffff1673ffffffffffffffffffffffffffffffffffffffff16610dbb9092919063ffffffff16565b610cb96786ef7cc8a77b1c2f60c01b610db8565b8060016000828254610ccb91906113ee565b92505081905550610ce6679154ce38bbd7ef2e60c01b610db8565b80600360003373ffffffffffffffffffffffffffffffffffffffff1673ffffffffffffffffffffffffffffffffffffffff16815260200190815260200160002081905550610d3e674c6329c6fadb484060c01b610db8565b610d52675b1eddab3a8e06c960c01b610db8565b7fac59582e5396aca512fa873a2047e7f4c80f8f55d4a06cb34a78a0187f62719f3382604051610d83929190611383565b60405180910390a150565b60008054906101000a900473ffffffffffffffffffffffffffffffffffffffff1681565b60015481565b50565b610e3c8363a9059cbb60e01b8484604051602401610dda929190611383565b604051602081830303815290604052907bffffffffffffffffffffffffffffffffffffffffffffffffffffffff19166020820180517bffffffffffffffffffffffffffffffffffffffffffffffffffffffff8381831617835250505050610eca565b505050565b610ec4846323b872dd60e01b858585604051602401610e6293929190611422565b604051602081830303815290604052907bffffffffffffffffffffffffffffffffffffffffffffffffffffffff19166020820180517bffffffffffffffffffffffffffffffffffffffffffffffffffffffff8381831617835250505050610eca565b50505050565b6000610f2c826040518060400160405280602081526020017f5361666545524332303a206c6f772d6c6576656c2063616c6c206661696c65648152508573ffffffffffffffffffffffffffffffffffffffff16610f929092919063ffffffff16565b9050600081511480610f4e575080806020019051810190610f4d9190611491565b5b610f8d576040517f08c379a0000000000000000000000000000000000000000000000000000000008152600401610f8490611541565b60405180910390fd5b505050565b6060610fa18484600085610faa565b90509392505050565b606082471015610fef576040517f08c379a0000000000000000000000000000000000000000000000000000000008152600401610fe6906115d3565b60405180910390fd5b6000808673ffffffffffffffffffffffffffffffffffffffff1685876040516110189190611664565b60006040518083038185875af1925050503d8060008114611055576040519150601f19603f3d011682016040523d82523d6000602084013e61105a565b606091505b509150915061106b87838387611077565b92505050949350505050565b606083156110d95760008351036110d157611091856110ec565b6110d0576040517f08c379a00000000000000000000000000000000000000000000000000000000081526004016110c7906116c7565b60405180910390fd5b5b8290506110e4565b6110e3838361110f565b5b949350505050565b6000808273ffffffffffffffffffffffffffffffffffffffff163b119050919050565b6000825111156111225781518083602001fd5b806040517f08c379a0000000000000000000000000000000000000000000000000000000008152600401611156919061173c565b60405180910390fd5b600080fd5b6000819050919050565b61117781611164565b811461118257600080fd5b50565b6000813590506111948161116e565b92915050565b6000602082840312156111b0576111af61115f565b5b60006111be84828501611185565b91505092915050565b600073ffffffffffffffffffffffffffffffffffffffff82169050919050565b60006111f2826111c7565b9050919050565b611202816111e7565b811461120d57600080fd5b50565b60008135905061121f816111f9565b92915050565b60006020828403121561123b5761123a61115f565b5b600061124984828501611210565b91505092915050565b61125b81611164565b82525050565b60006020820190506112766000830184611252565b92915050565b6000819050919050565b60006112a161129c611297846111c7565b61127c565b6111c7565b9050919050565b60006112b382611286565b9050919050565b60006112c5826112a8565b9050919050565b6112d5816112ba565b82525050565b60006020820190506112f060008301846112cc565b92915050565b6112ff816111e7565b82525050565b600060208201905061131a60008301846112f6565b92915050565b7f4e487b7100000000000000000000000000000000000000000000000000000000600052601160045260246000fd5b600061135a82611164565b915061136583611164565b925082820390508181111561137d5761137c611320565b5b92915050565b600060408201905061139860008301856112f6565b6113a56020830184611252565b9392505050565b6000815190506113bb8161116e565b92915050565b6000602082840312156113d7576113d661115f565b5b60006113e5848285016113ac565b91505092915050565b60006113f982611164565b915061140483611164565b925082820190508082111561141c5761141b611320565b5b92915050565b600060608201905061143760008301866112f6565b61144460208301856112f6565b6114516040830184611252565b949350505050565b60008115159050919050565b61146e81611459565b811461147957600080fd5b50565b60008151905061148b81611465565b92915050565b6000602082840312156114a7576114a661115f565b5b60006114b58482850161147c565b91505092915050565b600082825260208201905092915050565b7f5361666545524332303a204552433230206f7065726174696f6e20646964206e60008201527f6f74207375636365656400000000000000000000000000000000000000000000602082015250565b600061152b602a836114be565b9150611536826114cf565b604082019050919050565b6000602082019050818103600083015261155a8161151e565b9050919050565b7f416464726573733a20696e73756666696369656e742062616c616e636520666f60008201527f722063616c6c0000000000000000000000000000000000000000000000000000602082015250565b60006115bd6026836114be565b91506115c882611561565b604082019050919050565b600060208201905081810360008301526115ec816115b0565b9050919050565b600081519050919050565b600081905092915050565b60005b8381101561162757808201518184015260208101905061160c565b60008484015250505050565b600061163e826115f3565b61164881856115fe565b9350611658818560208601611609565b80840191505092915050565b60006116708284611633565b915081905092915050565b7f416464726573733a2063616c6c20746f206e6f6e2d636f6e7472616374000000600082015250565b60006116b1601d836114be565b91506116bc8261167b565b602082019050919050565b600060208201905081810360008301526116e0816116a4565b9050919050565b600081519050919050565b6000601f19601f8301169050919050565b600061170e826116e7565b61171881856114be565b9350611728818560208601611609565b611731816116f2565b840191505092915050565b600060208201905081810360008301526117568184611703565b90509291505056fea26469706673582212200f23e1ddce21da96ad2c4aaa44fbb8b9749f3e03bdbfb09b0410d99e2687e42764736f6c63430008170033","opcodes":"PUSH1 0x80 PUSH1 0x40 MSTORE CALLVALUE DUP1 ISZERO PUSH3 0x11 JUMPI PUSH1 0x0 DUP1 REVERT JUMPDEST POP PUSH1 0x40 MLOAD PUSH3 0x18F9 CODESIZE SUB DUP1 PUSH3 0x18F9 DUP4 CODECOPY DUP2 DUP2 ADD PUSH1 0x40 MSTORE DUP2 ADD SWAP1 PUSH3 0x37 SWAP2 SWAP1 PUSH3 0x123 JUMP JUMPDEST PUSH3 0x53 PUSH8 0x7F04C0AE645E29BA PUSH1 0xC0 SHL PUSH3 0xB6 PUSH1 0x20 SHL PUSH1 0x20 SHR JUMP JUMPDEST PUSH3 0x6F PUSH8 0x4DAF67AE7D51FA66 PUSH1 0xC0 SHL PUSH3 0xB6 PUSH1 0x20 SHL PUSH1 0x20 SHR JUMP JUMPDEST DUP1 PUSH1 0x0 DUP1 PUSH2 0x100 EXP DUP2 SLOAD DUP2 PUSH20 0xFFFFFFFFFFFFFFFFFFFFFFFFFFFFFFFFFFFFFFFF MUL NOT AND SWAP1 DUP4 PUSH20 0xFFFFFFFFFFFFFFFFFFFFFFFFFFFFFFFFFFFFFFFF AND MUL OR SWAP1 SSTORE POP POP PUSH3 0x155 JUMP JUMPDEST POP JUMP JUMPDEST PUSH1 0x0 DUP1 REVERT JUMPDEST PUSH1 0x0 PUSH20 0xFFFFFFFFFFFFFFFFFFFFFFFFFFFFFFFFFFFFFFFF DUP3 AND SWAP1 POP SWAP2 SWAP1 POP JUMP JUMPDEST PUSH1 0x0 PUSH3 0xEB DUP3 PUSH3 0xBE JUMP JUMPDEST SWAP1 POP SWAP2 SWAP1 POP JUMP JUMPDEST PUSH3 0xFD DUP2 PUSH3 0xDE JUMP JUMPDEST DUP2 EQ PUSH3 0x109 JUMPI PUSH1 0x0 DUP1 REVERT JUMPDEST POP JUMP JUMPDEST PUSH1 0x0 DUP2 MLOAD SWAP1 POP PUSH3 0x11D DUP2 PUSH3 0xF2 JUMP JUMPDEST SWAP3 SWAP2 POP POP JUMP JUMPDEST PUSH1 0x0 PUSH1 0x20 DUP3 DUP5 SUB SLT ISZERO PUSH3 0x13C JUMPI PUSH3 0x13B PUSH3 0xB9 JUMP JUMPDEST JUMPDEST PUSH1 0x0 PUSH3 0x14C DUP5 DUP3 DUP6 ADD PUSH3 0x10C JUMP JUMPDEST SWAP2 POP POP SWAP3 SWAP2 POP POP JUMP JUMPDEST PUSH2 0x1794 DUP1 PUSH3 0x165 PUSH1 0x0 CODECOPY PUSH1 0x0 RETURN INVALID PUSH1 0x80 PUSH1 0x40 MSTORE CALLVALUE DUP1 ISZERO PUSH2 0x10 JUMPI PUSH1 0x0 DUP1 REVERT JUMPDEST POP PUSH1 0x4 CALLDATASIZE LT PUSH2 0x93 JUMPI PUSH1 0x0 CALLDATALOAD PUSH1 0xE0 SHR DUP1 PUSH4 0xAAC51164 GT PUSH2 0x66 JUMPI DUP1 PUSH4 0xAAC51164 EQ PUSH2 0x130 JUMPI DUP1 PUSH4 0xB6B55F25 EQ PUSH2 0x160 JUMPI DUP1 PUSH4 0xC5EBEAEC EQ PUSH2 0x17C JUMPI DUP1 PUSH4 0xFC0C546A EQ PUSH2 0x198 JUMPI DUP1 PUSH4 0xFC7B9C18 EQ PUSH2 0x1B6 JUMPI PUSH2 0x93 JUMP JUMPDEST DUP1 PUSH4 0x2E1A7D4D EQ PUSH2 0x98 JUMPI DUP1 PUSH4 0x371FD8E6 EQ PUSH2 0xB4 JUMPI DUP1 PUSH4 0x7E15B0B2 EQ PUSH2 0xD0 JUMPI DUP1 PUSH4 0x9A78E72E EQ PUSH2 0x100 JUMPI JUMPDEST PUSH1 0x0 DUP1 REVERT JUMPDEST PUSH2 0xB2 PUSH1 0x4 DUP1 CALLDATASIZE SUB DUP2 ADD SWAP1 PUSH2 0xAD SWAP2 SWAP1 PUSH2 0x119A JUMP JUMPDEST PUSH2 0x1D4 JUMP JUMPDEST STOP JUMPDEST PUSH2 0xCE PUSH1 0x4 DUP1 CALLDATASIZE SUB DUP2 ADD SWAP1 PUSH2 0xC9 SWAP2 SWAP1 PUSH2 0x119A JUMP JUMPDEST PUSH2 0x556 JUMP JUMPDEST STOP JUMPDEST PUSH2 0xEA PUSH1 0x4 DUP1 CALLDATASIZE SUB DUP2 ADD SWAP1 PUSH2 0xE5 SWAP2 SWAP1 PUSH2 0x1225 JUMP JUMPDEST PUSH2 0x814 JUMP JUMPDEST PUSH1 0x40 MLOAD PUSH2 0xF7 SWAP2 SWAP1 PUSH2 0x1261 JUMP JUMPDEST PUSH1 0x40 MLOAD DUP1 SWAP2 SUB SWAP1 RETURN JUMPDEST PUSH2 0x11A PUSH1 0x4 DUP1 CALLDATASIZE SUB DUP2 ADD SWAP1 PUSH2 0x115 SWAP2 SWAP1 PUSH2 0x1225 JUMP JUMPDEST PUSH2 0x899 JUMP JUMPDEST PUSH1 0x40 MLOAD PUSH2 0x127 SWAP2 SWAP1 PUSH2 0x1261 JUMP JUMPDEST PUSH1 0x40 MLOAD DUP1 SWAP2 SUB SWAP1 RETURN JUMPDEST PUSH2 0x14A PUSH1 0x4 DUP1 CALLDATASIZE SUB DUP2 ADD SWAP1 PUSH2 0x145 SWAP2 SWAP1 PUSH2 0x1225 JUMP JUMPDEST PUSH2 0x91E JUMP JUMPDEST PUSH1 0x40 MLOAD PUSH2 0x157 SWAP2 SWAP1 PUSH2 0x1261 JUMP JUMPDEST PUSH1 0x40 MLOAD DUP1 SWAP2 SUB SWAP1 RETURN JUMPDEST PUSH2 0x17A PUSH1 0x4 DUP1 CALLDATASIZE SUB DUP2 ADD SWAP1 PUSH2 0x175 SWAP2 SWAP1 PUSH2 0x119A JUMP JUMPDEST PUSH2 0x9A3 JUMP JUMPDEST STOP JUMPDEST PUSH2 0x196 PUSH1 0x4 DUP1 CALLDATASIZE SUB DUP2 ADD SWAP1 PUSH2 0x191 SWAP2 SWAP1 PUSH2 0x119A JUMP JUMPDEST PUSH2 0xAE7 JUMP JUMPDEST STOP JUMPDEST PUSH2 0x1A0 PUSH2 0xD8E JUMP JUMPDEST PUSH1 0x40 MLOAD PUSH2 0x1AD SWAP2 SWAP1 PUSH2 0x12DB JUMP JUMPDEST PUSH1 0x40 MLOAD DUP1 SWAP2 SUB SWAP1 RETURN JUMPDEST PUSH2 0x1BE PUSH2 0xDB2 JUMP JUMPDEST PUSH1 0x40 MLOAD PUSH2 0x1CB SWAP2 SWAP1 PUSH2 0x1261 JUMP JUMPDEST PUSH1 0x40 MLOAD DUP1 SWAP2 SUB SWAP1 RETURN JUMPDEST PUSH2 0x1E8 PUSH8 0x8A98E95C51DE81F6 PUSH1 0xC0 SHL PUSH2 0xDB8 JUMP JUMPDEST CALLER PUSH2 0x1FD PUSH8 0x599586357A6E2641 PUSH1 0xC0 SHL PUSH2 0xDB8 JUMP JUMPDEST PUSH2 0x211 PUSH8 0xA200A2CD6E86AE47 PUSH1 0xC0 SHL PUSH2 0xDB8 JUMP JUMPDEST PUSH2 0x225 PUSH8 0x72FA08169132EADC PUSH1 0xC0 SHL PUSH2 0xDB8 JUMP JUMPDEST PUSH1 0x0 PUSH1 0x2 PUSH1 0x0 DUP4 PUSH20 0xFFFFFFFFFFFFFFFFFFFFFFFFFFFFFFFFFFFFFFFF AND PUSH20 0xFFFFFFFFFFFFFFFFFFFFFFFFFFFFFFFFFFFFFFFF AND DUP2 MSTORE PUSH1 0x20 ADD SWAP1 DUP2 MSTORE PUSH1 0x20 ADD PUSH1 0x0 KECCAK256 SLOAD SUB PUSH2 0x2D1 JUMPI PUSH2 0x280 PUSH8 0x8E2F7338367B9BB PUSH1 0xC0 SHL PUSH2 0xDB8 JUMP JUMPDEST PUSH2 0x294 PUSH8 0x970CE4A4E92733AD PUSH1 0xC0 SHL PUSH2 0xDB8 JUMP JUMPDEST DUP1 PUSH1 0x40 MLOAD PUSH32 0xC39893F500000000000000000000000000000000000000000000000000000000 DUP2 MSTORE PUSH1 0x4 ADD PUSH2 0x2C8 SWAP2 SWAP1 PUSH2 0x1305 JUMP JUMPDEST PUSH1 0x40 MLOAD DUP1 SWAP2 SUB SWAP1 REVERT JUMPDEST PUSH2 0x2E5 PUSH8 0xC7B29AA1821193D7 PUSH1 0xC0 SHL PUSH2 0xDB8 JUMP JUMPDEST PUSH2 0x2F9 PUSH8 0xE56C4FF205C7C38 PUSH1 0xC0 SHL PUSH2 0xDB8 JUMP JUMPDEST PUSH2 0x30D PUSH8 0xA0659838B7846E0F PUSH1 0xC0 SHL PUSH2 0xDB8 JUMP JUMPDEST PUSH2 0x321 PUSH8 0x22CD01AFB9D80442 PUSH1 0xC0 SHL PUSH2 0xDB8 JUMP JUMPDEST PUSH2 0x335 PUSH8 0xAF2BCEDE1A4E91AF PUSH1 0xC0 SHL PUSH2 0xDB8 JUMP JUMPDEST PUSH2 0x349 PUSH8 0x61192CB3EB77FAAF PUSH1 0xC0 SHL PUSH2 0xDB8 JUMP JUMPDEST PUSH1 0x2 PUSH1 0x0 CALLER PUSH20 0xFFFFFFFFFFFFFFFFFFFFFFFFFFFFFFFFFFFFFFFF AND PUSH20 0xFFFFFFFFFFFFFFFFFFFFFFFFFFFFFFFFFFFFFFFF AND DUP2 MSTORE PUSH1 0x20 ADD SWAP1 DUP2 MSTORE PUSH1 0x20 ADD PUSH1 0x0 KECCAK256 SLOAD DUP3 GT ISZERO PUSH2 0x3FF JUMPI PUSH2 0x3A4 PUSH8 0x915203742BF452B3 PUSH1 0xC0 SHL PUSH2 0xDB8 JUMP JUMPDEST PUSH2 0x3B8 PUSH8 0x117EC504DBAC75B4 PUSH1 0xC0 SHL PUSH2 0xDB8 JUMP JUMPDEST PUSH1 0x2 PUSH1 0x0 CALLER PUSH20 0xFFFFFFFFFFFFFFFFFFFFFFFFFFFFFFFFFFFFFFFF AND PUSH20 0xFFFFFFFFFFFFFFFFFFFFFFFFFFFFFFFFFFFFFFFF AND DUP2 MSTORE PUSH1 0x20 ADD SWAP1 DUP2 MSTORE PUSH1 0x20 ADD PUSH1 0x0 KECCAK256 SLOAD SWAP2 POP PUSH2 0x414 JUMP JUMPDEST PUSH2 0x413 PUSH8 0xC9EC72ED007FA692 PUSH1 0xC0 SHL PUSH2 0xDB8 JUMP JUMPDEST JUMPDEST PUSH2 0x428 PUSH8 0xCDFAF1C657444209 PUSH1 0xC0 SHL PUSH2 0xDB8 JUMP JUMPDEST PUSH2 0x43C PUSH8 0x82D4B7540CB5404E PUSH1 0xC0 SHL PUSH2 0xDB8 JUMP JUMPDEST PUSH2 0x487 CALLER DUP4 PUSH1 0x0 DUP1 SLOAD SWAP1 PUSH2 0x100 EXP SWAP1 DIV PUSH20 0xFFFFFFFFFFFFFFFFFFFFFFFFFFFFFFFFFFFFFFFF AND PUSH20 0xFFFFFFFFFFFFFFFFFFFFFFFFFFFFFFFFFFFFFFFF AND PUSH2 0xDBB SWAP1 SWAP3 SWAP2 SWAP1 PUSH4 0xFFFFFFFF AND JUMP JUMPDEST PUSH2 0x49B PUSH8 0x13BE5069DC09A7CD PUSH1 0xC0 SHL PUSH2 0xDB8 JUMP JUMPDEST DUP2 PUSH1 0x2 PUSH1 0x0 CALLER PUSH20 0xFFFFFFFFFFFFFFFFFFFFFFFFFFFFFFFFFFFFFFFF AND PUSH20 0xFFFFFFFFFFFFFFFFFFFFFFFFFFFFFFFFFFFFFFFF AND DUP2 MSTORE PUSH1 0x20 ADD SWAP1 DUP2 MSTORE PUSH1 0x20 ADD PUSH1 0x0 KECCAK256 PUSH1 0x0 DUP3 DUP3 SLOAD PUSH2 0x4EA SWAP2 SWAP1 PUSH2 0x134F JUMP JUMPDEST SWAP3 POP POP DUP2 SWAP1 SSTORE POP PUSH2 0x505 PUSH8 0xB58505AD65C7420F PUSH1 0xC0 SHL PUSH2 0xDB8 JUMP JUMPDEST PUSH2 0x519 PUSH8 0xBB032CD4FD8647E6 PUSH1 0xC0 SHL PUSH2 0xDB8 JUMP JUMPDEST PUSH32 0xB1CCE8684B4FFA8667B4577654E61EE3480D661EE9C27522AC80E211F6BD4D25 CALLER DUP4 PUSH1 0x40 MLOAD PUSH2 0x54A SWAP3 SWAP2 SWAP1 PUSH2 0x1383 JUMP JUMPDEST PUSH1 0x40 MLOAD DUP1 SWAP2 SUB SWAP1 LOG1 POP POP JUMP JUMPDEST PUSH2 0x56A PUSH8 0x9C3B91CC75AD4184 PUSH1 0xC0 SHL PUSH2 0xDB8 JUMP JUMPDEST CALLER PUSH2 0x57F PUSH8 0xBACFD5B304D7AA17 PUSH1 0xC0 SHL PUSH2 0xDB8 JUMP JUMPDEST PUSH2 0x593 PUSH8 0x751E7C8D9B672B0 PUSH1 0xC0 SHL PUSH2 0xDB8 JUMP JUMPDEST PUSH2 0x5A7 PUSH8 0xD4A9E05C4C3B86EC PUSH1 0xC0 SHL PUSH2 0xDB8 JUMP JUMPDEST PUSH1 0x0 PUSH1 0x3 PUSH1 0x0 DUP4 PUSH20 0xFFFFFFFFFFFFFFFFFFFFFFFFFFFFFFFFFFFFFFFF AND PUSH20 0xFFFFFFFFFFFFFFFFFFFFFFFFFFFFFFFFFFFFFFFF AND DUP2 MSTORE PUSH1 0x20 ADD SWAP1 DUP2 MSTORE PUSH1 0x20 ADD PUSH1 0x0 KECCAK256 SLOAD SUB PUSH2 0x653 JUMPI PUSH2 0x602 PUSH8 0x62919DAF929472E1 PUSH1 0xC0 SHL PUSH2 0xDB8 JUMP JUMPDEST PUSH2 0x616 PUSH8 0xB60CE61D37D77C3F PUSH1 0xC0 SHL PUSH2 0xDB8 JUMP JUMPDEST DUP1 PUSH1 0x40 MLOAD PUSH32 0xDD05179200000000000000000000000000000000000000000000000000000000 DUP2 MSTORE PUSH1 0x4 ADD PUSH2 0x64A SWAP2 SWAP1 PUSH2 0x1305 JUMP JUMPDEST PUSH1 0x40 MLOAD DUP1 SWAP2 SUB SWAP1 REVERT JUMPDEST PUSH2 0x667 PUSH8 0x66BEA3A2905697EF PUSH1 0xC0 SHL PUSH2 0xDB8 JUMP JUMPDEST PUSH2 0x67B PUSH8 0x401D2377B5A7B713 PUSH1 0xC0 SHL PUSH2 0xDB8 JUMP JUMPDEST PUSH2 0x68F PUSH8 0x2E82846E758B4F63 PUSH1 0xC0 SHL PUSH2 0xDB8 JUMP JUMPDEST PUSH2 0x6A3 PUSH8 0x6AF321A0717574CC PUSH1 0xC0 SHL PUSH2 0xDB8 JUMP JUMPDEST PUSH2 0x6B7 PUSH8 0x2E7E33D498C9489D PUSH1 0xC0 SHL PUSH2 0xDB8 JUMP JUMPDEST PUSH2 0x6CB PUSH8 0x4F291F629456570 PUSH1 0xC0 SHL PUSH2 0xDB8 JUMP JUMPDEST PUSH2 0x718 CALLER ADDRESS DUP5 PUSH1 0x0 DUP1 SLOAD SWAP1 PUSH2 0x100 EXP SWAP1 DIV PUSH20 0xFFFFFFFFFFFFFFFFFFFFFFFFFFFFFFFFFFFFFFFF AND PUSH20 0xFFFFFFFFFFFFFFFFFFFFFFFFFFFFFFFFFFFFFFFF AND PUSH2 0xE41 SWAP1 SWAP4 SWAP3 SWAP2 SWAP1 PUSH4 0xFFFFFFFF AND JUMP JUMPDEST PUSH2 0x72C PUSH8 0x92B88A81F2AC5D7B PUSH1 0xC0 SHL PUSH2 0xDB8 JUMP JUMPDEST DUP2 PUSH1 0x1 PUSH1 0x0 DUP3 DUP3 SLOAD PUSH2 0x73E SWAP2 SWAP1 PUSH2 0x134F JUMP JUMPDEST SWAP3 POP POP DUP2 SWAP1 SSTORE POP PUSH2 0x759 PUSH8 0x1CFE9DB1D78702BB PUSH1 0xC0 SHL PUSH2 0xDB8 JUMP JUMPDEST DUP2 PUSH1 0x3 PUSH1 0x0 CALLER PUSH20 0xFFFFFFFFFFFFFFFFFFFFFFFFFFFFFFFFFFFFFFFF AND PUSH20 0xFFFFFFFFFFFFFFFFFFFFFFFFFFFFFFFFFFFFFFFF AND DUP2 MSTORE PUSH1 0x20 ADD SWAP1 DUP2 MSTORE PUSH1 0x20 ADD PUSH1 0x0 KECCAK256 PUSH1 0x0 DUP3 DUP3 SLOAD PUSH2 0x7A8 SWAP2 SWAP1 PUSH2 0x134F JUMP JUMPDEST SWAP3 POP POP DUP2 SWAP1 SSTORE POP PUSH2 0x7C3 PUSH8 0x939DB78719A6704F PUSH1 0xC0 SHL PUSH2 0xDB8 JUMP JUMPDEST PUSH2 0x7D7 PUSH8 0xE6F62F1C855C0848 PUSH1 0xC0 SHL PUSH2 0xDB8 JUMP JUMPDEST PUSH32 0x516911BCC3A0A7412A44601057C0A0A1EC628BDE049A84284BC428866534488 CALLER DUP4 PUSH1 0x40 MLOAD PUSH2 0x808 SWAP3 SWAP2 SWAP1 PUSH2 0x1383 JUMP JUMPDEST PUSH1 0x40 MLOAD DUP1 SWAP2 SUB SWAP1 LOG1 POP POP JUMP JUMPDEST PUSH1 0x0 PUSH2 0x82A PUSH8 0xF9678BAC8A0A1A5D PUSH1 0xC0 SHL PUSH2 0xDB8 JUMP JUMPDEST PUSH2 0x83E PUSH8 0xF0AEC65357DD013D PUSH1 0xC0 SHL PUSH2 0xDB8 JUMP JUMPDEST PUSH2 0x852 PUSH8 0x6CDE6F377689F26F PUSH1 0xC0 SHL PUSH2 0xDB8 JUMP JUMPDEST PUSH1 0x3 PUSH1 0x0 DUP4 PUSH20 0xFFFFFFFFFFFFFFFFFFFFFFFFFFFFFFFFFFFFFFFF AND PUSH20 0xFFFFFFFFFFFFFFFFFFFFFFFFFFFFFFFFFFFFFFFF AND DUP2 MSTORE PUSH1 0x20 ADD SWAP1 DUP2 MSTORE PUSH1 0x20 ADD PUSH1 0x0 KECCAK256 SLOAD SWAP1 POP SWAP2 SWAP1 POP JUMP JUMPDEST PUSH1 0x0 PUSH2 0x8AF PUSH8 0xBBC6A6947183BDCC PUSH1 0xC0 SHL PUSH2 0xDB8 JUMP JUMPDEST PUSH2 0x8C3 PUSH8 0xCD7920724C500D48 PUSH1 0xC0 SHL PUSH2 0xDB8 JUMP JUMPDEST PUSH2 0x8D7 PUSH8 0xA9071B73971B7CC5 PUSH1 0xC0 SHL PUSH2 0xDB8 JUMP JUMPDEST PUSH1 0x3 PUSH1 0x0 DUP4 PUSH20 0xFFFFFFFFFFFFFFFFFFFFFFFFFFFFFFFFFFFFFFFF AND PUSH20 0xFFFFFFFFFFFFFFFFFFFFFFFFFFFFFFFFFFFFFFFF AND DUP2 MSTORE PUSH1 0x20 ADD SWAP1 DUP2 MSTORE PUSH1 0x20 ADD PUSH1 0x0 KECCAK256 SLOAD SWAP1 POP SWAP2 SWAP1 POP JUMP JUMPDEST PUSH1 0x0 PUSH2 0x934 PUSH8 0xD02A517CC561C7B4 PUSH1 0xC0 SHL PUSH2 0xDB8 JUMP JUMPDEST PUSH2 0x948 PUSH8 0x78C9AF50D42ED0BF PUSH1 0xC0 SHL PUSH2 0xDB8 JUMP JUMPDEST PUSH2 0x95C PUSH8 0x617F48FCD83FAD2E PUSH1 0xC0 SHL PUSH2 0xDB8 JUMP JUMPDEST PUSH1 0x2 PUSH1 0x0 DUP4 PUSH20 0xFFFFFFFFFFFFFFFFFFFFFFFFFFFFFFFFFFFFFFFF AND PUSH20 0xFFFFFFFFFFFFFFFFFFFFFFFFFFFFFFFFFFFFFFFF AND DUP2 MSTORE PUSH1 0x20 ADD SWAP1 DUP2 MSTORE PUSH1 0x20 ADD PUSH1 0x0 KECCAK256 SLOAD SWAP1 POP SWAP2 SWAP1 POP JUMP JUMPDEST PUSH2 0x9B7 PUSH8 0x3B58AC39A1DCFEAE PUSH1 0xC0 SHL PUSH2 0xDB8 JUMP JUMPDEST PUSH2 0x9CB PUSH8 0x395A5918FD48FF4E PUSH1 0xC0 SHL PUSH2 0xDB8 JUMP JUMPDEST DUP1 PUSH1 0x2 PUSH1 0x0 CALLER PUSH20 0xFFFFFFFFFFFFFFFFFFFFFFFFFFFFFFFFFFFFFFFF AND PUSH20 0xFFFFFFFFFFFFFFFFFFFFFFFFFFFFFFFFFFFFFFFF AND DUP2 MSTORE PUSH1 0x20 ADD SWAP1 DUP2 MSTORE PUSH1 0x20 ADD PUSH1 0x0 KECCAK256 DUP2 SWAP1 SSTORE POP PUSH2 0xA23 PUSH8 0x9E3322215389D94C PUSH1 0xC0 SHL PUSH2 0xDB8 JUMP JUMPDEST PUSH2 0xA37 PUSH8 0xD528145044D8F0C1 PUSH1 0xC0 SHL PUSH2 0xDB8 JUMP JUMPDEST PUSH2 0xA84 CALLER ADDRESS DUP4 PUSH1 0x0 DUP1 SLOAD SWAP1 PUSH2 0x100 EXP SWAP1 DIV PUSH20 0xFFFFFFFFFFFFFFFFFFFFFFFFFFFFFFFFFFFFFFFF AND PUSH20 0xFFFFFFFFFFFFFFFFFFFFFFFFFFFFFFFFFFFFFFFF AND PUSH2 0xE41 SWAP1 SWAP4 SWAP3 SWAP2 SWAP1 PUSH4 0xFFFFFFFF AND JUMP JUMPDEST PUSH2 0xA98 PUSH8 0xCF62F1408FA3177F PUSH1 0xC0 SHL PUSH2 0xDB8 JUMP JUMPDEST PUSH2 0xAAB PUSH7 0xB0046E92FC370C PUSH1 0xC0 SHL PUSH2 0xDB8 JUMP JUMPDEST PUSH32 0xC17CEA59C2955CB181B03393209566960365771DBBA9DC3D510180E7CB312088 CALLER DUP3 PUSH1 0x40 MLOAD PUSH2 0xADC SWAP3 SWAP2 SWAP1 PUSH2 0x1383 JUMP JUMPDEST PUSH1 0x40 MLOAD DUP1 SWAP2 SUB SWAP1 LOG1 POP JUMP JUMPDEST PUSH2 0xAFB PUSH8 0xDD014C1410DA9C5E PUSH1 0xC0 SHL PUSH2 0xDB8 JUMP JUMPDEST PUSH2 0xB0F PUSH8 0x632CBB5EDE83E597 PUSH1 0xC0 SHL PUSH2 0xDB8 JUMP JUMPDEST PUSH2 0xB23 PUSH8 0x849F4D8C74744900 PUSH1 0xC0 SHL PUSH2 0xDB8 JUMP JUMPDEST PUSH1 0x0 DUP1 SLOAD SWAP1 PUSH2 0x100 EXP SWAP1 DIV PUSH20 0xFFFFFFFFFFFFFFFFFFFFFFFFFFFFFFFFFFFFFFFF AND PUSH20 0xFFFFFFFFFFFFFFFFFFFFFFFFFFFFFFFFFFFFFFFF AND PUSH4 0x70A08231 ADDRESS PUSH1 0x40 MLOAD DUP3 PUSH4 0xFFFFFFFF AND PUSH1 0xE0 SHL DUP2 MSTORE PUSH1 0x4 ADD PUSH2 0xB7C SWAP2 SWAP1 PUSH2 0x1305 JUMP JUMPDEST PUSH1 0x20 PUSH1 0x40 MLOAD DUP1 DUP4 SUB DUP2 DUP7 GAS STATICCALL ISZERO DUP1 ISZERO PUSH2 0xB99 JUMPI RETURNDATASIZE PUSH1 0x0 DUP1 RETURNDATACOPY RETURNDATASIZE PUSH1 0x0 REVERT JUMPDEST POP POP POP POP PUSH1 0x40 MLOAD RETURNDATASIZE PUSH1 0x1F NOT PUSH1 0x1F DUP3 ADD AND DUP3 ADD DUP1 PUSH1 0x40 MSTORE POP DUP2 ADD SWAP1 PUSH2 0xBBD SWAP2 SWAP1 PUSH2 0x13C1 JUMP JUMPDEST DUP2 GT ISZERO PUSH2 0xC1E JUMPI PUSH2 0xBD8 PUSH8 0x1E3E266D7C088A50 PUSH1 0xC0 SHL PUSH2 0xDB8 JUMP JUMPDEST PUSH2 0xBEC PUSH8 0x6FB40FDF26273855 PUSH1 0xC0 SHL PUSH2 0xDB8 JUMP JUMPDEST PUSH1 0x40 MLOAD PUSH32 0xC447ED9C00000000000000000000000000000000000000000000000000000000 DUP2 MSTORE PUSH1 0x4 ADD PUSH1 0x40 MLOAD DUP1 SWAP2 SUB SWAP1 REVERT JUMPDEST PUSH2 0xC32 PUSH8 0xE61904BB1DE4DC17 PUSH1 0xC0 SHL PUSH2 0xDB8 JUMP JUMPDEST PUSH2 0xC46 PUSH8 0xD5DBF59AF2E6338 PUSH1 0xC0 SHL PUSH2 0xDB8 JUMP JUMPDEST PUSH2 0xC5A PUSH8 0x2C266747DFF6E45E PUSH1 0xC0 SHL PUSH2 0xDB8 JUMP JUMPDEST PUSH2 0xCA5 CALLER DUP3 PUSH1 0x0 DUP1 SLOAD SWAP1 PUSH2 0x100 EXP SWAP1 DIV PUSH20 0xFFFFFFFFFFFFFFFFFFFFFFFFFFFFFFFFFFFFFFFF AND PUSH20 0xFFFFFFFFFFFFFFFFFFFFFFFFFFFFFFFFFFFFFFFF AND PUSH2 0xDBB SWAP1 SWAP3 SWAP2 SWAP1 PUSH4 0xFFFFFFFF AND JUMP JUMPDEST PUSH2 0xCB9 PUSH8 0x86EF7CC8A77B1C2F PUSH1 0xC0 SHL PUSH2 0xDB8 JUMP JUMPDEST DUP1 PUSH1 0x1 PUSH1 0x0 DUP3 DUP3 SLOAD PUSH2 0xCCB SWAP2 SWAP1 PUSH2 0x13EE JUMP JUMPDEST SWAP3 POP POP DUP2 SWAP1 SSTORE POP PUSH2 0xCE6 PUSH8 0x9154CE38BBD7EF2E PUSH1 0xC0 SHL PUSH2 0xDB8 JUMP JUMPDEST DUP1 PUSH1 0x3 PUSH1 0x0 CALLER PUSH20 0xFFFFFFFFFFFFFFFFFFFFFFFFFFFFFFFFFFFFFFFF AND PUSH20 0xFFFFFFFFFFFFFFFFFFFFFFFFFFFFFFFFFFFFFFFF AND DUP2 MSTORE PUSH1 0x20 ADD SWAP1 DUP2 MSTORE PUSH1 0x20 ADD PUSH1 0x0 KECCAK256 DUP2 SWAP1 SSTORE POP PUSH2 0xD3E PUSH8 0x4C6329C6FADB4840 PUSH1 0xC0 SHL PUSH2 0xDB8 JUMP JUMPDEST PUSH2 0xD52 PUSH8 0x5B1EDDAB3A8E06C9 PUSH1 0xC0 SHL PUSH2 0xDB8 JUMP JUMPDEST PUSH32 0xAC59582E5396ACA512FA873A2047E7F4C80F8F55D4A06CB34A78A0187F62719F CALLER DUP3 PUSH1 0x40 MLOAD PUSH2 0xD83 SWAP3 SWAP2 SWAP1 PUSH2 0x1383 JUMP JUMPDEST PUSH1 0x40 MLOAD DUP1 SWAP2 SUB SWAP1 LOG1 POP JUMP JUMPDEST PUSH1 0x0 DUP1 SLOAD SWAP1 PUSH2 0x100 EXP SWAP1 DIV PUSH20 0xFFFFFFFFFFFFFFFFFFFFFFFFFFFFFFFFFFFFFFFF AND DUP2 JUMP JUMPDEST PUSH1 0x1 SLOAD DUP2 JUMP JUMPDEST POP JUMP JUMPDEST PUSH2 0xE3C DUP4 PUSH4 0xA9059CBB PUSH1 0xE0 SHL DUP5 DUP5 PUSH1 0x40 MLOAD PUSH1 0x24 ADD PUSH2 0xDDA SWAP3 SWAP2 SWAP1 PUSH2 0x1383 JUMP JUMPDEST PUSH1 0x40 MLOAD PUSH1 0x20 DUP2 DUP4 SUB SUB DUP2 MSTORE SWAP1 PUSH1 0x40 MSTORE SWAP1 PUSH28 0xFFFFFFFFFFFFFFFFFFFFFFFFFFFFFFFFFFFFFFFFFFFFFFFFFFFFFFFF NOT AND PUSH1 0x20 DUP3 ADD DUP1 MLOAD PUSH28 0xFFFFFFFFFFFFFFFFFFFFFFFFFFFFFFFFFFFFFFFFFFFFFFFFFFFFFFFF DUP4 DUP2 DUP4 AND OR DUP4 MSTORE POP POP POP POP PUSH2 0xECA JUMP JUMPDEST POP POP POP JUMP JUMPDEST PUSH2 0xEC4 DUP5 PUSH4 0x23B872DD PUSH1 0xE0 SHL DUP6 DUP6 DUP6 PUSH1 0x40 MLOAD PUSH1 0x24 ADD PUSH2 0xE62 SWAP4 SWAP3 SWAP2 SWAP1 PUSH2 0x1422 JUMP JUMPDEST PUSH1 0x40 MLOAD PUSH1 0x20 DUP2 DUP4 SUB SUB DUP2 MSTORE SWAP1 PUSH1 0x40 MSTORE SWAP1 PUSH28 0xFFFFFFFFFFFFFFFFFFFFFFFFFFFFFFFFFFFFFFFFFFFFFFFFFFFFFFFF NOT AND PUSH1 0x20 DUP3 ADD DUP1 MLOAD PUSH28 0xFFFFFFFFFFFFFFFFFFFFFFFFFFFFFFFFFFFFFFFFFFFFFFFFFFFFFFFF DUP4 DUP2 DUP4 AND OR DUP4 MSTORE POP POP POP POP PUSH2 0xECA JUMP JUMPDEST POP POP POP POP JUMP JUMPDEST PUSH1 0x0 PUSH2 0xF2C DUP3 PUSH1 0x40 MLOAD DUP1 PUSH1 0x40 ADD PUSH1 0x40 MSTORE DUP1 PUSH1 0x20 DUP2 MSTORE PUSH1 0x20 ADD PUSH32 0x5361666545524332303A206C6F772D6C6576656C2063616C6C206661696C6564 DUP2 MSTORE POP DUP6 PUSH20 0xFFFFFFFFFFFFFFFFFFFFFFFFFFFFFFFFFFFFFFFF AND PUSH2 0xF92 SWAP1 SWAP3 SWAP2 SWAP1 PUSH4 0xFFFFFFFF AND JUMP JUMPDEST SWAP1 POP PUSH1 0x0 DUP2 MLOAD EQ DUP1 PUSH2 0xF4E JUMPI POP DUP1 DUP1 PUSH1 0x20 ADD SWAP1 MLOAD DUP2 ADD SWAP1 PUSH2 0xF4D SWAP2 SWAP1 PUSH2 0x1491 JUMP JUMPDEST JUMPDEST PUSH2 0xF8D JUMPI PUSH1 0x40 MLOAD PUSH32 0x8C379A000000000000000000000000000000000000000000000000000000000 DUP2 MSTORE PUSH1 0x4 ADD PUSH2 0xF84 SWAP1 PUSH2 0x1541 JUMP JUMPDEST PUSH1 0x40 MLOAD DUP1 SWAP2 SUB SWAP1 REVERT JUMPDEST POP POP POP JUMP JUMPDEST PUSH1 0x60 PUSH2 0xFA1 DUP5 DUP5 PUSH1 0x0 DUP6 PUSH2 0xFAA JUMP JUMPDEST SWAP1 POP SWAP4 SWAP3 POP POP POP JUMP JUMPDEST PUSH1 0x60 DUP3 SELFBALANCE LT ISZERO PUSH2 0xFEF JUMPI PUSH1 0x40 MLOAD PUSH32 0x8C379A000000000000000000000000000000000000000000000000000000000 DUP2 MSTORE PUSH1 0x4 ADD PUSH2 0xFE6 SWAP1 PUSH2 0x15D3 JUMP JUMPDEST PUSH1 0x40 MLOAD DUP1 SWAP2 SUB SWAP1 REVERT JUMPDEST PUSH1 0x0 DUP1 DUP7 PUSH20 0xFFFFFFFFFFFFFFFFFFFFFFFFFFFFFFFFFFFFFFFF AND DUP6 DUP8 PUSH1 0x40 MLOAD PUSH2 0x1018 SWAP2 SWAP1 PUSH2 0x1664 JUMP JUMPDEST PUSH1 0x0 PUSH1 0x40 MLOAD DUP1 DUP4 SUB DUP2 DUP6 DUP8 GAS CALL SWAP3 POP POP POP RETURNDATASIZE DUP1 PUSH1 0x0 DUP2 EQ PUSH2 0x1055 JUMPI PUSH1 0x40 MLOAD SWAP2 POP PUSH1 0x1F NOT PUSH1 0x3F RETURNDATASIZE ADD AND DUP3 ADD PUSH1 0x40 MSTORE RETURNDATASIZE DUP3 MSTORE RETURNDATASIZE PUSH1 0x0 PUSH1 0x20 DUP5 ADD RETURNDATACOPY PUSH2 0x105A JUMP JUMPDEST PUSH1 0x60 SWAP2 POP JUMPDEST POP SWAP2 POP SWAP2 POP PUSH2 0x106B DUP8 DUP4 DUP4 DUP8 PUSH2 0x1077 JUMP JUMPDEST SWAP3 POP POP POP SWAP5 SWAP4 POP POP POP POP JUMP JUMPDEST PUSH1 0x60 DUP4 ISZERO PUSH2 0x10D9 JUMPI PUSH1 0x0 DUP4 MLOAD SUB PUSH2 0x10D1 JUMPI PUSH2 0x1091 DUP6 PUSH2 0x10EC JUMP JUMPDEST PUSH2 0x10D0 JUMPI PUSH1 0x40 MLOAD PUSH32 0x8C379A000000000000000000000000000000000000000000000000000000000 DUP2 MSTORE PUSH1 0x4 ADD PUSH2 0x10C7 SWAP1 PUSH2 0x16C7 JUMP JUMPDEST PUSH1 0x40 MLOAD DUP1 SWAP2 SUB SWAP1 REVERT JUMPDEST JUMPDEST DUP3 SWAP1 POP PUSH2 0x10E4 JUMP JUMPDEST PUSH2 0x10E3 DUP4 DUP4 PUSH2 0x110F JUMP JUMPDEST JUMPDEST SWAP5 SWAP4 POP POP POP POP JUMP JUMPDEST PUSH1 0x0 DUP1 DUP3 PUSH20 0xFFFFFFFFFFFFFFFFFFFFFFFFFFFFFFFFFFFFFFFF AND EXTCODESIZE GT SWAP1 POP SWAP2 SWAP1 POP JUMP JUMPDEST PUSH1 0x0 DUP3 MLOAD GT ISZERO PUSH2 0x1122 JUMPI DUP2 MLOAD DUP1 DUP4 PUSH1 0x20 ADD REVERT JUMPDEST DUP1 PUSH1 0x40 MLOAD PUSH32 0x8C379A000000000000000000000000000000000000000000000000000000000 DUP2 MSTORE PUSH1 0x4 ADD PUSH2 0x1156 SWAP2 SWAP1 PUSH2 0x173C JUMP JUMPDEST PUSH1 0x40 MLOAD DUP1 SWAP2 SUB SWAP1 REVERT JUMPDEST PUSH1 0x0 DUP1 REVERT JUMPDEST PUSH1 0x0 DUP2 SWAP1 POP SWAP2 SWAP1 POP JUMP JUMPDEST PUSH2 0x1177 DUP2 PUSH2 0x1164 JUMP JUMPDEST DUP2 EQ PUSH2 0x1182 JUMPI PUSH1 0x0 DUP1 REVERT JUMPDEST POP JUMP JUMPDEST PUSH1 0x0 DUP2 CALLDATALOAD SWAP1 POP PUSH2 0x1194 DUP2 PUSH2 0x116E JUMP JUMPDEST SWAP3 SWAP2 POP POP JUMP JUMPDEST PUSH1 0x0 PUSH1 0x20 DUP3 DUP5 SUB SLT ISZERO PUSH2 0x11B0 JUMPI PUSH2 0x11AF PUSH2 0x115F JUMP JUMPDEST JUMPDEST PUSH1 0x0 PUSH2 0x11BE DUP5 DUP3 DUP6 ADD PUSH2 0x1185 JUMP JUMPDEST SWAP2 POP POP SWAP3 SWAP2 POP POP JUMP JUMPDEST PUSH1 0x0 PUSH20 0xFFFFFFFFFFFFFFFFFFFFFFFFFFFFFFFFFFFFFFFF DUP3 AND SWAP1 POP SWAP2 SWAP1 POP JUMP JUMPDEST PUSH1 0x0 PUSH2 0x11F2 DUP3 PUSH2 0x11C7 JUMP JUMPDEST SWAP1 POP SWAP2 SWAP1 POP JUMP JUMPDEST PUSH2 0x1202 DUP2 PUSH2 0x11E7 JUMP JUMPDEST DUP2 EQ PUSH2 0x120D JUMPI PUSH1 0x0 DUP1 REVERT JUMPDEST POP JUMP JUMPDEST PUSH1 0x0 DUP2 CALLDATALOAD SWAP1 POP PUSH2 0x121F DUP2 PUSH2 0x11F9 JUMP JUMPDEST SWAP3 SWAP2 POP POP JUMP JUMPDEST PUSH1 0x0 PUSH1 0x20 DUP3 DUP5 SUB SLT ISZERO PUSH2 0x123B JUMPI PUSH2 0x123A PUSH2 0x115F JUMP JUMPDEST JUMPDEST PUSH1 0x0 PUSH2 0x1249 DUP5 DUP3 DUP6 ADD PUSH2 0x1210 JUMP JUMPDEST SWAP2 POP POP SWAP3 SWAP2 POP POP JUMP JUMPDEST PUSH2 0x125B DUP2 PUSH2 0x1164 JUMP JUMPDEST DUP3 MSTORE POP POP JUMP JUMPDEST PUSH1 0x0 PUSH1 0x20 DUP3 ADD SWAP1 POP PUSH2 0x1276 PUSH1 0x0 DUP4 ADD DUP5 PUSH2 0x1252 JUMP JUMPDEST SWAP3 SWAP2 POP POP JUMP JUMPDEST PUSH1 0x0 DUP2 SWAP1 POP SWAP2 SWAP1 POP JUMP JUMPDEST PUSH1 0x0 PUSH2 0x12A1 PUSH2 0x129C PUSH2 0x1297 DUP5 PUSH2 0x11C7 JUMP JUMPDEST PUSH2 0x127C JUMP JUMPDEST PUSH2 0x11C7 JUMP JUMPDEST SWAP1 POP SWAP2 SWAP1 POP JUMP JUMPDEST PUSH1 0x0 PUSH2 0x12B3 DUP3 PUSH2 0x1286 JUMP JUMPDEST SWAP1 POP SWAP2 SWAP1 POP JUMP JUMPDEST PUSH1 0x0 PUSH2 0x12C5 DUP3 PUSH2 0x12A8 JUMP JUMPDEST SWAP1 POP SWAP2 SWAP1 POP JUMP JUMPDEST PUSH2 0x12D5 DUP2 PUSH2 0x12BA JUMP JUMPDEST DUP3 MSTORE POP POP JUMP JUMPDEST PUSH1 0x0 PUSH1 0x20 DUP3 ADD SWAP1 POP PUSH2 0x12F0 PUSH1 0x0 DUP4 ADD DUP5 PUSH2 0x12CC JUMP JUMPDEST SWAP3 SWAP2 POP POP JUMP JUMPDEST PUSH2 0x12FF DUP2 PUSH2 0x11E7 JUMP JUMPDEST DUP3 MSTORE POP POP JUMP JUMPDEST PUSH1 0x0 PUSH1 0x20 DUP3 ADD SWAP1 POP PUSH2 0x131A PUSH1 0x0 DUP4 ADD DUP5 PUSH2 0x12F6 JUMP JUMPDEST SWAP3 SWAP2 POP POP JUMP JUMPDEST PUSH32 0x4E487B7100000000000000000000000000000000000000000000000000000000 PUSH1 0x0 MSTORE PUSH1 0x11 PUSH1 0x4 MSTORE PUSH1 0x24 PUSH1 0x0 REVERT JUMPDEST PUSH1 0x0 PUSH2 0x135A DUP3 PUSH2 0x1164 JUMP JUMPDEST SWAP2 POP PUSH2 0x1365 DUP4 PUSH2 0x1164 JUMP JUMPDEST SWAP3 POP DUP3 DUP3 SUB SWAP1 POP DUP2 DUP2 GT ISZERO PUSH2 0x137D JUMPI PUSH2 0x137C PUSH2 0x1320 JUMP JUMPDEST JUMPDEST SWAP3 SWAP2 POP POP JUMP JUMPDEST PUSH1 0x0 PUSH1 0x40 DUP3 ADD SWAP1 POP PUSH2 0x1398 PUSH1 0x0 DUP4 ADD DUP6 PUSH2 0x12F6 JUMP JUMPDEST PUSH2 0x13A5 PUSH1 0x20 DUP4 ADD DUP5 PUSH2 0x1252 JUMP JUMPDEST SWAP4 SWAP3 POP POP POP JUMP JUMPDEST PUSH1 0x0 DUP2 MLOAD SWAP1 POP PUSH2 0x13BB DUP2 PUSH2 0x116E JUMP JUMPDEST SWAP3 SWAP2 POP POP JUMP JUMPDEST PUSH1 0x0 PUSH1 0x20 DUP3 DUP5 SUB SLT ISZERO PUSH2 0x13D7 JUMPI PUSH2 0x13D6 PUSH2 0x115F JUMP JUMPDEST JUMPDEST PUSH1 0x0 PUSH2 0x13E5 DUP5 DUP3 DUP6 ADD PUSH2 0x13AC JUMP JUMPDEST SWAP2 POP POP SWAP3 SWAP2 POP POP JUMP JUMPDEST PUSH1 0x0 PUSH2 0x13F9 DUP3 PUSH2 0x1164 JUMP JUMPDEST SWAP2 POP PUSH2 0x1404 DUP4 PUSH2 0x1164 JUMP JUMPDEST SWAP3 POP DUP3 DUP3 ADD SWAP1 POP DUP1 DUP3 GT ISZERO PUSH2 0x141C JUMPI PUSH2 0x141B PUSH2 0x1320 JUMP JUMPDEST JUMPDEST SWAP3 SWAP2 POP POP JUMP JUMPDEST PUSH1 0x0 PUSH1 0x60 DUP3 ADD SWAP1 POP PUSH2 0x1437 PUSH1 0x0 DUP4 ADD DUP7 PUSH2 0x12F6 JUMP JUMPDEST PUSH2 0x1444 PUSH1 0x20 DUP4 ADD DUP6 PUSH2 0x12F6 JUMP JUMPDEST PUSH2 0x1451 PUSH1 0x40 DUP4 ADD DUP5 PUSH2 0x1252 JUMP JUMPDEST SWAP5 SWAP4 POP POP POP POP JUMP JUMPDEST PUSH1 0x0 DUP2 ISZERO ISZERO SWAP1 POP SWAP2 SWAP1 POP JUMP JUMPDEST PUSH2 0x146E DUP2 PUSH2 0x1459 JUMP JUMPDEST DUP2 EQ PUSH2 0x1479 JUMPI PUSH1 0x0 DUP1 REVERT JUMPDEST POP JUMP JUMPDEST PUSH1 0x0 DUP2 MLOAD SWAP1 POP PUSH2 0x148B DUP2 PUSH2 0x1465 JUMP JUMPDEST SWAP3 SWAP2 POP POP JUMP JUMPDEST PUSH1 0x0 PUSH1 0x20 DUP3 DUP5 SUB SLT ISZERO PUSH2 0x14A7 JUMPI PUSH2 0x14A6 PUSH2 0x115F JUMP JUMPDEST JUMPDEST PUSH1 0x0 PUSH2 0x14B5 DUP5 DUP3 DUP6 ADD PUSH2 0x147C JUMP JUMPDEST SWAP2 POP POP SWAP3 SWAP2 POP POP JUMP JUMPDEST PUSH1 0x0 DUP3 DUP3 MSTORE PUSH1 0x20 DUP3 ADD SWAP1 POP SWAP3 SWAP2 POP POP JUMP JUMPDEST PUSH32 0x5361666545524332303A204552433230206F7065726174696F6E20646964206E PUSH1 0x0 DUP3 ADD MSTORE PUSH32 0x6F74207375636365656400000000000000000000000000000000000000000000 PUSH1 0x20 DUP3 ADD MSTORE POP JUMP JUMPDEST PUSH1 0x0 PUSH2 0x152B PUSH1 0x2A DUP4 PUSH2 0x14BE JUMP JUMPDEST SWAP2 POP PUSH2 0x1536 DUP3 PUSH2 0x14CF JUMP JUMPDEST PUSH1 0x40 DUP3 ADD SWAP1 POP SWAP2 SWAP1 POP JUMP JUMPDEST PUSH1 0x0 PUSH1 0x20 DUP3 ADD SWAP1 POP DUP2 DUP2 SUB PUSH1 0x0 DUP4 ADD MSTORE PUSH2 0x155A DUP2 PUSH2 0x151E JUMP JUMPDEST SWAP1 POP SWAP2 SWAP1 POP JUMP JUMPDEST PUSH32 0x416464726573733A20696E73756666696369656E742062616C616E636520666F PUSH1 0x0 DUP3 ADD MSTORE PUSH32 0x722063616C6C0000000000000000000000000000000000000000000000000000 PUSH1 0x20 DUP3 ADD MSTORE POP JUMP JUMPDEST PUSH1 0x0 PUSH2 0x15BD PUSH1 0x26 DUP4 PUSH2 0x14BE JUMP JUMPDEST SWAP2 POP PUSH2 0x15C8 DUP3 PUSH2 0x1561 JUMP JUMPDEST PUSH1 0x40 DUP3 ADD SWAP1 POP SWAP2 SWAP1 POP JUMP JUMPDEST PUSH1 0x0 PUSH1 0x20 DUP3 ADD SWAP1 POP DUP2 DUP2 SUB PUSH1 0x0 DUP4 ADD MSTORE PUSH2 0x15EC DUP2 PUSH2 0x15B0 JUMP JUMPDEST SWAP1 POP SWAP2 SWAP1 POP JUMP JUMPDEST PUSH1 0x0 DUP2 MLOAD SWAP1 POP SWAP2 SWAP1 POP JUMP JUMPDEST PUSH1 0x0 DUP2 SWAP1 POP SWAP3 SWAP2 POP POP JUMP JUMPDEST PUSH1 0x0 JUMPDEST DUP4 DUP2 LT ISZERO PUSH2 0x1627 JUMPI DUP1 DUP3 ADD MLOAD DUP2 DUP5 ADD MSTORE PUSH1 0x20 DUP2 ADD SWAP1 POP PUSH2 0x160C JUMP JUMPDEST PUSH1 0x0 DUP5 DUP5 ADD MSTORE POP POP POP POP JUMP JUMPDEST PUSH1 0x0 PUSH2 0x163E DUP3 PUSH2 0x15F3 JUMP JUMPDEST PUSH2 0x1648 DUP2 DUP6 PUSH2 0x15FE JUMP JUMPDEST SWAP4 POP PUSH2 0x1658 DUP2 DUP6 PUSH1 0x20 DUP7 ADD PUSH2 0x1609 JUMP JUMPDEST DUP1 DUP5 ADD SWAP2 POP POP SWAP3 SWAP2 POP POP JUMP JUMPDEST PUSH1 0x0 PUSH2 0x1670 DUP3 DUP5 PUSH2 0x1633 JUMP JUMPDEST SWAP2 POP DUP2 SWAP1 POP SWAP3 SWAP2 POP POP JUMP JUMPDEST PUSH32 0x416464726573733A2063616C6C20746F206E6F6E2D636F6E7472616374000000 PUSH1 0x0 DUP3 ADD MSTORE POP JUMP JUMPDEST PUSH1 0x0 PUSH2 0x16B1 PUSH1 0x1D DUP4 PUSH2 0x14BE JUMP JUMPDEST SWAP2 POP PUSH2 0x16BC DUP3 PUSH2 0x167B JUMP JUMPDEST PUSH1 0x20 DUP3 ADD SWAP1 POP SWAP2 SWAP1 POP JUMP JUMPDEST PUSH1 0x0 PUSH1 0x20 DUP3 ADD SWAP1 POP DUP2 DUP2 SUB PUSH1 0x0 DUP4 ADD MSTORE PUSH2 0x16E0 DUP2 PUSH2 0x16A4 JUMP JUMPDEST SWAP1 POP SWAP2 SWAP1 POP JUMP JUMPDEST PUSH1 0x0 DUP2 MLOAD SWAP1 POP SWAP2 SWAP1 POP JUMP JUMPDEST PUSH1 0x0 PUSH1 0x1F NOT PUSH1 0x1F DUP4 ADD AND SWAP1 POP SWAP2 SWAP1 POP JUMP JUMPDEST PUSH1 0x0 PUSH2 0x170E DUP3 PUSH2 0x16E7 JUMP JUMPDEST PUSH2 0x1718 DUP2 DUP6 PUSH2 0x14BE JUMP JUMPDEST SWAP4 POP PUSH2 0x1728 DUP2 DUP6 PUSH1 0x20 DUP7 ADD PUSH2 0x1609 JUMP JUMPDEST PUSH2 0x1731 DUP2 PUSH2 0x16F2 JUMP JUMPDEST DUP5 ADD SWAP2 POP POP SWAP3 SWAP2 POP POP JUMP JUMPDEST PUSH1 0x0 PUSH1 0x20 DUP3 ADD SWAP1 POP DUP2 DUP2 SUB PUSH1 0x0 DUP4 ADD MSTORE PUSH2 0x1756 DUP2 DUP5 PUSH2 0x1703 JUMP JUMPDEST SWAP1 POP SWAP3 SWAP2 POP POP JUMP INVALID LOG2 PUSH5 0x6970667358 0x22 SLT KECCAK256 0xF 0x23 0xE1 0xDD 0xCE 0x21 0xDA SWAP7 0xAD 0x2C 0x4A 0xAA PREVRANDAO 0xFB 0xB8 0xB9 PUSH21 0x9F3E03BDBFB09B0410D99E2687E42764736F6C6343 STOP ADDMOD OR STOP CALLER "},"gasEstimates":{"creation":{"codeDepositCost":"1207200","executionCost":"infinite","totalCost":"infinite"},"external":{"borrow(uint256)":"infinite","deposit(uint256)":"infinite","getBorrowerBalance(address)":"infinite","getDebt(address)":"infinite","getLiquidityProviderBalance(address)":"infinite","repay(uint256)":"infinite","token()":"infinite","totalDebt()":"2517","withdraw(uint256)":"infinite"},"internal":{"c_c8d8f7ad(bytes8)":"11","c_falsec8d8f7ad(bytes8)":"infinite","c_truec8d8f7ad(bytes8)":"infinite"}},"methodIdentifiers":{"borrow(uint256)":"c5ebeaec","deposit(uint256)":"b6b55f25","getBorrowerBalance(address)":"7e15b0b2","getDebt(address)":"9a78e72e","getLiquidityProviderBalance(address)":"aac51164","repay(uint256)":"371fd8e6","token()":"fc0c546a","totalDebt()":"fc7b9c18","withdraw(uint256)":"2e1a7d4d"}},"storageLayout":{"storage":[{"astId":1671,"contract":"contracts/LiquidityPool.sol:LiquidityPool","label":"token","offset":0,"slot":"0","type":"t_contract(IERC20)777"},{"astId":1673,"contract":"contracts/LiquidityPool.sol:LiquidityPool","label":"totalDebt","offset":0,"slot":"1","type":"t_uint256"},{"astId":1677,"contract":"contracts/LiquidityPool.sol:LiquidityPool","label":"liquidityProviders","offset":0,"slot":"2","type":"t_mapping(t_address,t_uint256)"},{"astId":1681,"contract":"contracts/LiquidityPool.sol:LiquidityPool","label":"borrowers","offset":0,"slot":"3","type":"t_mapping(t_address,t_uint256)"}],"types":{"t_address":{"encoding":"inplace","label":"address","numberOfBytes":"20"},"t_contract(IERC20)777":{"encoding":"inplace","label":"contract IERC20","numberOfBytes":"20"},"t_mapping(t_address,t_uint256)":{"encoding":"mapping","key":"t_address","label":"mapping(address => uint256)","numberOfBytes":"32","value":"t_uint256"},"t_uint256":{"encoding":"inplace","label":"uint256","numberOfBytes":"32"}}},"userdoc":{"kind":"user","methods":{},"version":1}}}}