{"contracts/PerpetualTrading.sol":{"PerpSwap":{"abi":[{"inputs":[{"internalType":"address","name":"_liquidityPool","type":"address"},{"internalType":"address","name":"_orderBook","type":"address"},{"internalType":"address","name":"_tokenA","type":"address"},{"internalType":"address","name":"_tokenB","type":"address"},{"internalType":"address","name":"_rewardToken","type":"address"},{"internalType":"uint256","name":"_rewardPerSecond","type":"uint256"}],"stateMutability":"nonpayable","type":"constructor"},{"inputs":[],"name":"MarginTrading__InsufficientAmountForClosePosition","type":"error"},{"anonymous":false,"inputs":[],"name":"LongClosed","type":"event"},{"anonymous":false,"inputs":[],"name":"LongOpened","type":"event"},{"anonymous":false,"inputs":[{"indexed":true,"internalType":"address","name":"previousOwner","type":"address"},{"indexed":true,"internalType":"address","name":"newOwner","type":"address"}],"name":"OwnershipTransferred","type":"event"},{"anonymous":false,"inputs":[{"indexed":true,"internalType":"address","name":"trader","type":"address"},{"indexed":false,"internalType":"uint256","name":"reward","type":"uint256"}],"name":"RewardPaid","type":"event"},{"anonymous":false,"inputs":[],"name":"ShortClosed","type":"event"},{"anonymous":false,"inputs":[],"name":"ShortOpened","type":"event"},{"inputs":[{"internalType":"address","name":"trader","type":"address"}],"name":"calculateReward","outputs":[{"internalType":"uint256","name":"","type":"uint256"}],"stateMutability":"view","type":"function"},{"inputs":[],"name":"closeLong","outputs":[],"stateMutability":"nonpayable","type":"function"},{"inputs":[],"name":"closeShort","outputs":[],"stateMutability":"nonpayable","type":"function"},{"inputs":[],"name":"longBalanceB","outputs":[{"internalType":"uint256","name":"","type":"uint256"}],"stateMutability":"view","type":"function"},{"inputs":[],"name":"longDebtA","outputs":[{"internalType":"uint256","name":"","type":"uint256"}],"stateMutability":"view","type":"function"},{"inputs":[{"internalType":"uint256","name":"amountBToBuy","type":"uint256"},{"internalType":"uint256","name":"leverage","type":"uint256"}],"name":"openLong","outputs":[],"stateMutability":"nonpayable","type":"function"},{"inputs":[{"internalType":"uint256","name":"amountAToSell","type":"uint256"},{"internalType":"uint256","name":"leverage","type":"uint256"}],"name":"openShort","outputs":[],"stateMutability":"nonpayable","type":"function"},{"inputs":[],"name":"owner","outputs":[{"internalType":"address","name":"","type":"address"}],"stateMutability":"view","type":"function"},{"inputs":[{"internalType":"address","name":"trader","type":"address"}],"name":"payReward","outputs":[],"stateMutability":"nonpayable","type":"function"},{"inputs":[],"name":"renounceOwnership","outputs":[],"stateMutability":"nonpayable","type":"function"},{"inputs":[{"internalType":"uint256","name":"rewardAmount","type":"uint256"}],"name":"setRewardPerSecond","outputs":[{"internalType":"uint256","name":"","type":"uint256"}],"stateMutability":"nonpayable","type":"function"},{"inputs":[],"name":"shortBalanceB","outputs":[{"internalType":"uint256","name":"","type":"uint256"}],"stateMutability":"view","type":"function"},{"inputs":[],"name":"shortDebtA","outputs":[{"internalType":"uint256","name":"","type":"uint256"}],"stateMutability":"view","type":"function"},{"inputs":[{"internalType":"address","name":"newOwner","type":"address"}],"name":"transferOwnership","outputs":[],"stateMutability":"nonpayable","type":"function"},{"inputs":[{"internalType":"uint256","name":"newVolume","type":"uint256"}],"name":"updateCumulativeMarketVolume","outputs":[{"internalType":"uint256","name":"","type":"uint256"}],"stateMutability":"nonpayable","type":"function"},{"inputs":[{"internalType":"address","name":"trader","type":"address"},{"internalType":"uint256","name":"amount","type":"uint256"}],"name":"updateTradingVolume","outputs":[],"stateMutability":"nonpayable","type":"function"}],"devdoc":{"kind":"dev","methods":{"owner()":{"details":"Returns the address of the current owner."},"renounceOwnership()":{"details":"Leaves the contract without owner. It will not be possible to call `onlyOwner` functions. Can only be called by the current owner. NOTE: Renouncing ownership will leave the contract without an owner, thereby disabling any functionality that is only available to the owner."},"transferOwnership(address)":{"details":"Transfers ownership of the contract to a new account (`newOwner`). Can only be called by the current owner."}},"version":1},"evm":{"bytecode":{"linkReferences":{},"object":"60806040523480156200001157600080fd5b506040516200328238038062003282833981810160405281019062000037919062000403565b620000576200004b6200028f60201b60201c565b6200029760201b60201c565b6200007367b5b99381c67d68c060c01b6200035b60201b60201c565b6200008f67c1c6afa2d9763ed160c01b6200035b60201b60201c565b85600160006101000a81548173ffffffffffffffffffffffffffffffffffffffff021916908373ffffffffffffffffffffffffffffffffffffffff160217905550620000ec6799a8549c8f06afe160c01b6200035b60201b60201c565b84600260006101000a81548173ffffffffffffffffffffffffffffffffffffffff021916908373ffffffffffffffffffffffffffffffffffffffff160217905550620001496787640cdc217e6b8960c01b6200035b60201b60201c565b83600360006101000a81548173ffffffffffffffffffffffffffffffffffffffff021916908373ffffffffffffffffffffffffffffffffffffffff160217905550620001a6678c5f8d54fc5802b860c01b6200035b60201b60201c565b82600460006101000a81548173ffffffffffffffffffffffffffffffffffffffff021916908373ffffffffffffffffffffffffffffffffffffffff1602179055506200020367c2567131b1b13e3e60c01b6200035b60201b60201c565b81600560006101000a81548173ffffffffffffffffffffffffffffffffffffffff021916908373ffffffffffffffffffffffffffffffffffffffff1602179055506200026067d6d4fea58247f8f160c01b6200035b60201b60201c565b6200027c671ef408b5637639c860c01b6200035b60201b60201c565b426007819055505050505050506200049f565b600033905090565b60008060009054906101000a900473ffffffffffffffffffffffffffffffffffffffff169050816000806101000a81548173ffffffffffffffffffffffffffffffffffffffff021916908373ffffffffffffffffffffffffffffffffffffffff1602179055508173ffffffffffffffffffffffffffffffffffffffff168173ffffffffffffffffffffffffffffffffffffffff167f8be0079c531659141344cd1fd0a4f28419497f9722a3daafe3b4186f6b6457e060405160405180910390a35050565b50565b600080fd5b600073ffffffffffffffffffffffffffffffffffffffff82169050919050565b6000620003908262000363565b9050919050565b620003a28162000383565b8114620003ae57600080fd5b50565b600081519050620003c28162000397565b92915050565b6000819050919050565b620003dd81620003c8565b8114620003e957600080fd5b50565b600081519050620003fd81620003d2565b92915050565b60008060008060008060c087890312156200042357620004226200035e565b5b60006200043389828a01620003b1565b96505060206200044689828a01620003b1565b95505060406200045989828a01620003b1565b94505060606200046c89828a01620003b1565b93505060806200047f89828a01620003b1565b92505060a06200049289828a01620003ec565b9150509295509295509295565b612dd380620004af6000396000f3fe608060405234801561001057600080fd5b50600436106101005760003560e01c80638da5cb5b11610097578063d82e396211610066578063d82e39621461024f578063f2fde38b1461027f578063f8432a1b1461029b578063fdda45dc146102a557610100565b80638da5cb5b146101dd5780638e9b277d146101fb57806393d75db514610217578063c181d4181461023357610100565b80633ef32e0d116100d35780633ef32e0d1461016757806366da581514610185578063715018a6146101b557806384ea96f5146101bf57610100565b8063032d4038146101055780631266a6191461012357806324f825261461013f5780633cb3dafa14610149575b600080fd5b61010d6102d5565b60405161011a9190612461565b60405180910390f35b61013d600480360381019061013891906124ad565b6102db565b005b61014761068f565b005b610151610b3b565b60405161015e9190612461565b60405180910390f35b61016f610b41565b60405161017c9190612461565b60405180910390f35b61019f600480360381019061019a91906124ed565b610b47565b6040516101ac9190612461565b60405180910390f35b6101bd610bda565b005b6101c7610bee565b6040516101d49190612461565b60405180910390f35b6101e5610bf4565b6040516101f2919061255b565b60405180910390f35b610215600480360381019061021091906125a2565b610c1d565b005b610231600480360381019061022c91906125cf565b611090565b005b61024d600480360381019061024891906124ad565b61110a565b005b610269600480360381019061026491906125a2565b6115d8565b6040516102769190612461565b60405180910390f35b610299600480360381019061029491906125a2565b6117dc565b005b6102a361185f565b005b6102bf60048036038101906102ba91906124ed565b611d0b565b6040516102cc9190612461565b60405180910390f35b600a5481565b6102ef67a2839240ebd6f86460c01b611d9c565b61030367bce17d24cad6dba060c01b611d9c565b610317677d42f96d4ebbaddd60c01b611d9c565b600160009054906101000a900473ffffffffffffffffffffffffffffffffffffffff1673ffffffffffffffffffffffffffffffffffffffff1663c5ebeaec8284610361919061263e565b6040518263ffffffff1660e01b815260040161037d9190612461565b600060405180830381600087803b15801561039757600080fd5b505af11580156103ab573d6000803e3d6000fd5b505050506103c367f060867d5721363860c01b611d9c565b80826103cf919061263e565b600b60008282546103e09190612680565b925050819055506103fb67fe1378fcb4315c3560c01b611d9c565b61040f6710b5f0c5d387837a60c01b611d9c565b600360009054906101000a900473ffffffffffffffffffffffffffffffffffffffff1673ffffffffffffffffffffffffffffffffffffffff1663095ea7b3600260009054906101000a900473ffffffffffffffffffffffffffffffffffffffff16838561047c919061263e565b6040518363ffffffff1660e01b81526004016104999291906126b4565b6020604051808303816000875af11580156104b8573d6000803e3d6000fd5b505050506040513d601f19601f820116820180604052508101906104dc9190612715565b506104f1677606c3124b8ed31560c01b611d9c565b600260009054906101000a900473ffffffffffffffffffffffffffffffffffffffff1673ffffffffffffffffffffffffffffffffffffffff1663cae270b6600360009054906101000a900473ffffffffffffffffffffffffffffffffffffffff16600460009054906101000a900473ffffffffffffffffffffffffffffffffffffffff168486610581919061263e565b6040518463ffffffff1660e01b815260040161059f93929190612742565b6020604051808303816000875af11580156105be573d6000803e3d6000fd5b505050506040513d601f19601f820116820180604052508101906105e2919061278e565b600c60008282546105f39190612680565b9250508190555061060e673373481a93cdf14b60c01b611d9c565b61062267b7c058c63839079b60c01b611d9c565b610637338284610632919061263e565b611d9f565b61064b6746d760546e1dd82360c01b611d9c565b61065f67c4d96c65e7a1830660c01b611d9c565b7fdb84cacd536875e0714dd79e0fe743de5a2871a8eb65115b5aa657e6cfbe7a5160405160405180910390a15050565b6106a367585b54f7380c033160c01b611d9c565b6106b767017da16e3bc44efb60c01b611d9c565b6106cb6760b88c1d9ef5288f60c01b611d9c565b600460009054906101000a900473ffffffffffffffffffffffffffffffffffffffff1673ffffffffffffffffffffffffffffffffffffffff1663095ea7b3600260009054906101000a900473ffffffffffffffffffffffffffffffffffffffff16600a546040518363ffffffff1660e01b815260040161074c9291906126b4565b6020604051808303816000875af115801561076b573d6000803e3d6000fd5b505050506040513d601f19601f8201168201806040525081019061078f9190612715565b506107a467fbf7acda3abcf6bc60c01b611d9c565b6107b86719f17cd758cda76660c01b611d9c565b600360009054906101000a900473ffffffffffffffffffffffffffffffffffffffff1673ffffffffffffffffffffffffffffffffffffffff1663095ea7b3600160009054906101000a900473ffffffffffffffffffffffffffffffffffffffff166009546040518363ffffffff1660e01b81526004016108399291906126b4565b6020604051808303816000875af1158015610858573d6000803e3d6000fd5b505050506040513d601f19601f8201168201806040525081019061087c9190612715565b5061089167ecab23a53940719c60c01b611d9c565b6108a5678dd8badf8c956a5960c01b611d9c565b600160009054906101000a900473ffffffffffffffffffffffffffffffffffffffff1673ffffffffffffffffffffffffffffffffffffffff1663371fd8e66009546040518263ffffffff1660e01b81526004016109029190612461565b600060405180830381600087803b15801561091c57600080fd5b505af1158015610930573d6000803e3d6000fd5b5050505061094867dba69d89e213790060c01b611d9c565b600060098190555061096467422735c40f78d42160c01b611d9c565b6000600a81905550610980673e36ec266249f5c160c01b611d9c565b610994673e249ab83665788160c01b611d9c565b6109a033600a54611d9f565b6109b46790eecb914f508e5860c01b611d9c565b6109c86788b19cf6fe7875b260c01b611d9c565b6000600360009054906101000a900473ffffffffffffffffffffffffffffffffffffffff1673ffffffffffffffffffffffffffffffffffffffff166370a08231306040518263ffffffff1660e01b8152600401610a25919061255b565b602060405180830381865afa158015610a42573d6000803e3d6000fd5b505050506040513d601f19601f82011682018060405250810190610a66919061278e565b9050610a7c67c48ad4da5f8da2d560c01b611d9c565b610a9067f01d5cfe7639efd560c01b611d9c565b610ae4610a9b610bf4565b82600360009054906101000a900473ffffffffffffffffffffffffffffffffffffffff1673ffffffffffffffffffffffffffffffffffffffff16611fe39092919063ffffffff16565b610af8671d3bee0b15d2ebdf60c01b611d9c565b610b0c679c435e0550fc4e8e60c01b611d9c565b7f7c1712b00e9ec43558b7ba14e1d6f1985ff761eadb82bb59a3cfe263bd86144d60405160405180910390a150565b600c5481565b60095481565b6000610b5d672fd469e2a85ecae060c01b611d9c565b610b65612069565b610b79679771949d2c0ba47060c01b611d9c565b610b8d671367ab12944e0af560c01b611d9c565b610ba167f6b3767f262d4e3560c01b611d9c565b81600881905550610bbc67936ee98b322a671360c01b611d9c565b610bd0670c5f1fb62c9f30e760c01b611d9c565b6008549050919050565b610be2612069565b610bec60006120e7565b565b600b5481565b60008060009054906101000a900473ffffffffffffffffffffffffffffffffffffffff16905090565b610c316715a32e48602cdf9360c01b611d9c565b610c456746d498d182b667e060c01b611d9c565b610c59679171dfae170ef3c260c01b611d9c565b610c6d67e63ca31eba7e34e160c01b611d9c565b62278d00600754610c7e9190612680565b421015610cc0576040517f08c379a0000000000000000000000000000000000000000000000000000000008152600401610cb790612818565b60405180910390fd5b610cd4672a5d85f4282a824760c01b611d9c565b610ce867f2f591c6be0ca9c360c01b611d9c565b610cfc676f2efda3f0776bc560c01b611d9c565b6000610d07826115d8565b9050610d1d6707d2ad71577dc44c60c01b611d9c565b610d3167ac163b2b5944b87960c01b611d9c565b610d4567666a644c79bc54fc60c01b611d9c565b60008111610d88576040517f08c379a0000000000000000000000000000000000000000000000000000000008152600401610d7f90612884565b60405180910390fd5b610d9c6709c775877fc8ae0b60c01b611d9c565b610db06775c6efe109fe86f060c01b611d9c565b610dc4678b2dcb8926b6c0ee60c01b611d9c565b6000600d60008473ffffffffffffffffffffffffffffffffffffffff1673ffffffffffffffffffffffffffffffffffffffff168152602001908152602001600020549050610e1c672e2b0405823e2e1e60c01b611d9c565b610e30679020c0d040b72f1360c01b611d9c565b610e4467e10604ffb18845d560c01b611d9c565b60008111610e87576040517f08c379a0000000000000000000000000000000000000000000000000000000008152600401610e7e906128f0565b60405180910390fd5b610e9b672338349fe7fd361660c01b611d9c565b610eaf67addf5bc85ed1910060c01b611d9c565b6000600d60008573ffffffffffffffffffffffffffffffffffffffff1673ffffffffffffffffffffffffffffffffffffffff16815260200190815260200160002081905550610f08675074a49917ec2c5260c01b611d9c565b610f1c6705c963152afa656e60c01b611d9c565b610f24610bf4565b73ffffffffffffffffffffffffffffffffffffffff168373ffffffffffffffffffffffffffffffffffffffff1603610f8b57610f6a678ce66d5a80de1b8260c01b611d9c565b610f7e67a2cc36b68d1a5a2360c01b611d9c565b6000600681905550610fa0565b610f9f67c6e6a6319612c32b60c01b611d9c565b5b610fb467373169e7807a9bd260c01b611d9c565b610fc8677b871ed722437a9c60c01b611d9c565b6110158383600560009054906101000a900473ffffffffffffffffffffffffffffffffffffffff1673ffffffffffffffffffffffffffffffffffffffff16611fe39092919063ffffffff16565b611029671e2a61a9e80d725860c01b611d9c565b61103d6738fce0cdc44e233d60c01b611d9c565b8273ffffffffffffffffffffffffffffffffffffffff167fe2403640ba68fed3a2f88b7557551d1993f84b99bb10ff833f0cf8db0c5e0486836040516110839190612461565b60405180910390a2505050565b6110a4677efe385ecaaddc4860c01b611d9c565b6110ac612069565b6110c06778c73cb2881e237060c01b611d9c565b6110d467eaf43ebc7db66ce860c01b611d9c565b6110e867f3760033d059b97360c01b611d9c565b6110fc6704564043f29ca6da60c01b611d9c565b6111068282611d9f565b5050565b61111e67b073f6bd7f22302460c01b611d9c565b611132674fd352fd6685e00060c01b611d9c565b611146675bac91872bafb99b60c01b611d9c565b6000600260009054906101000a900473ffffffffffffffffffffffffffffffffffffffff1673ffffffffffffffffffffffffffffffffffffffff1663ce77ba62600360009054906101000a900473ffffffffffffffffffffffffffffffffffffffff16600460009054906101000a900473ffffffffffffffffffffffffffffffffffffffff1685876111d8919061263e565b6040518463ffffffff1660e01b81526004016111f693929190612742565b602060405180830381865afa158015611213573d6000803e3d6000fd5b505050506040513d601f19601f82011682018060405250810190611237919061278e565b905061124d67897e6b3db801e62660c01b611d9c565b61126167a657310b853d20d060c01b611d9c565b600160009054906101000a900473ffffffffffffffffffffffffffffffffffffffff1673ffffffffffffffffffffffffffffffffffffffff1663c5ebeaec826040518263ffffffff1660e01b81526004016112bc9190612461565b600060405180830381600087803b1580156112d657600080fd5b505af11580156112ea573d6000803e3d6000fd5b5050505061130267cdeacf3445d39e1d60c01b611d9c565b80600960008282546113149190612680565b9250508190555061132f674caea4846a0ecc8360c01b611d9c565b82600a60008282546113419190612680565b9250508190555061135c679e2cc0c406884a1f60c01b611d9c565b61137067473968c184f1f4be60c01b611d9c565b611385338385611380919061263e565b611d9f565b61139967bf9a94fd777600ff60c01b611d9c565b6113ad670ec4b5e8c3915d4060c01b611d9c565b600360009054906101000a900473ffffffffffffffffffffffffffffffffffffffff1673ffffffffffffffffffffffffffffffffffffffff1663095ea7b3600260009054906101000a900473ffffffffffffffffffffffffffffffffffffffff16836040518363ffffffff1660e01b815260040161142c9291906126b4565b6020604051808303816000875af115801561144b573d6000803e3d6000fd5b505050506040513d601f19601f8201168201806040525081019061146f9190612715565b506114846786ec0e303c546b4260c01b611d9c565b61149867d812285338549a5560c01b611d9c565b600260009054906101000a900473ffffffffffffffffffffffffffffffffffffffff1673ffffffffffffffffffffffffffffffffffffffff1663153e66e6600360009054906101000a900473ffffffffffffffffffffffffffffffffffffffff16600460009054906101000a900473ffffffffffffffffffffffffffffffffffffffff16866040518463ffffffff1660e01b815260040161153b93929190612742565b6020604051808303816000875af115801561155a573d6000803e3d6000fd5b505050506040513d601f19601f8201168201806040525081019061157e919061278e565b50611593675f0437f23080f1d460c01b611d9c565b6115a76754060393f40ba7d760c01b611d9c565b7f81a5c85f807906a0759335611ceb64ea789ed0196ccf836d98c9573a56582b7f60405160405180910390a1505050565b60006115ee67b5a72dd45e02d60b60c01b611d9c565b611602679ff7ca53ab8e3f0360c01b611d9c565b611616670ab185d3b2ddbeae60c01b611d9c565b61162a6787001f0ef290497060c01b611d9c565b60006006541161166f576040517f08c379a00000000000000000000000000000000000000000000000000000000081526004016116669061295c565b60405180910390fd5b61168367f6adc8560aba079760c01b611d9c565b6116976709f37d26688db32960c01b611d9c565b6116ab679b570b658a9136b360c01b611d9c565b6000600754426116bb919061297c565b90506116d167f0432c7dafaf1c7960c01b611d9c565b6116e56706468062fef57b4160c01b611d9c565b6000816008546116f5919061263e565b905061170b67ca2a3ce2a435ce1860c01b611d9c565b61171f67fa1a0619de372d7860c01b611d9c565b6000600d60008673ffffffffffffffffffffffffffffffffffffffff1673ffffffffffffffffffffffffffffffffffffffff168152602001908152602001600020549050611777673b206b67c25c27c160c01b611d9c565b61178b67efb7617d637023a260c01b611d9c565b60006006548261179b91906129df565b90506117b167105a4322b68cc61a60c01b611d9c565b6117c567036e176015ea58ac60c01b611d9c565b82816117d1919061263e565b945050505050919050565b6117e4612069565b600073ffffffffffffffffffffffffffffffffffffffff168173ffffffffffffffffffffffffffffffffffffffff1603611853576040517f08c379a000000000000000000000000000000000000000000000000000000000815260040161184a90612a82565b60405180910390fd5b61185c816120e7565b50565b611873670d36211fb6573a2760c01b611d9c565b61188767faa5475fa2a3f3b760c01b611d9c565b61189b67a6c8b51eb4da0be960c01b611d9c565b600460009054906101000a900473ffffffffffffffffffffffffffffffffffffffff1673ffffffffffffffffffffffffffffffffffffffff1663095ea7b3600260009054906101000a900473ffffffffffffffffffffffffffffffffffffffff16600c546040518363ffffffff1660e01b815260040161191c9291906126b4565b6020604051808303816000875af115801561193b573d6000803e3d6000fd5b505050506040513d601f19601f8201168201806040525081019061195f9190612715565b5061197467a6aa3f4df0a2a05660c01b611d9c565b6119886753cb7725aa023ffd60c01b611d9c565b600360009054906101000a900473ffffffffffffffffffffffffffffffffffffffff1673ffffffffffffffffffffffffffffffffffffffff1663095ea7b3600160009054906101000a900473ffffffffffffffffffffffffffffffffffffffff16600b546040518363ffffffff1660e01b8152600401611a099291906126b4565b6020604051808303816000875af1158015611a28573d6000803e3d6000fd5b505050506040513d601f19601f82011682018060405250810190611a4c9190612715565b50611a616771c031a678991dc260c01b611d9c565b611a7567975fd721e11a7eb860c01b611d9c565b600160009054906101000a900473ffffffffffffffffffffffffffffffffffffffff1673ffffffffffffffffffffffffffffffffffffffff1663371fd8e6600b546040518263ffffffff1660e01b8152600401611ad29190612461565b600060405180830381600087803b158015611aec57600080fd5b505af1158015611b00573d6000803e3d6000fd5b50505050611b1867b8db5590f88d9a0e60c01b611d9c565b6000600b81905550611b3467f3cba40e81713a3d60c01b611d9c565b6000600c81905550611b5067e265a42db33ee16e60c01b611d9c565b611b64674b27b218d61d0cc660c01b611d9c565b611b7033600c54611d9f565b611b8467b86a2ada6e5d456360c01b611d9c565b611b9867356eebd291ca58ca60c01b611d9c565b6000600460009054906101000a900473ffffffffffffffffffffffffffffffffffffffff1673ffffffffffffffffffffffffffffffffffffffff166370a08231306040518263ffffffff1660e01b8152600401611bf5919061255b565b602060405180830381865afa158015611c12573d6000803e3d6000fd5b505050506040513d601f19601f82011682018060405250810190611c36919061278e565b9050611c4c672ceece4adaf210f160c01b611d9c565b611c6067d317beec29b2188260c01b611d9c565b611cb4611c6b610bf4565b82600460009054906101000a900473ffffffffffffffffffffffffffffffffffffffff1673ffffffffffffffffffffffffffffffffffffffff16611fe39092919063ffffffff16565b611cc8673d957b96d30cb3a160c01b611d9c565b611cdc675682ffb5b0bc733660c01b611d9c565b7f1eacc206eaa257738210016c4b580948367fd2c683058d13fe748a663f8933d060405160405180910390a150565b6000611d2167c75bdc00e9c9fc3e60c01b611d9c565b611d29612069565b611d3d6704f27516628d418460c01b611d9c565b611d516751913a4e0345685560c01b611d9c565b611d65674ae8d476160fe0c660c01b611d9c565b81600681905550611d8067fd612efb727a785960c01b611d9c565b611d9467afc61c78e225505d60c01b611d9c565b819050919050565b50565b611db367894c6eb1015462b060c01b611d9c565b611dc76714aa1a81984884b760c01b611d9c565b80600d60008473ffffffffffffffffffffffffffffffffffffffff1673ffffffffffffffffffffffffffffffffffffffff1681526020019081526020016000206000828254611e169190612680565b92505081905550611e31670a06aefc56f36e3e60c01b611d9c565b8060066000828254611e439190612680565b92505081905550611e5e672600f4a176dd015060c01b611d9c565b611e726723badb61cc115d6c60c01b611d9c565b62278d00600754611e839190612680565b421115611f3357611e9e676309faa636cc16e660c01b611d9c565b611eb2674968e43691b6c95760c01b611d9c565b42600781905550611ecd67e1dd4fe6dd5aae3c60c01b611d9c565b6000600d60008473ffffffffffffffffffffffffffffffffffffffff1673ffffffffffffffffffffffffffffffffffffffff16815260200190815260200160002081905550611f26678105cb1ba4cfe31360c01b611d9c565b6000600681905550611fdf565b611f47677eb2bdf330f07d5b60c01b611d9c565b611f5b67f2cc659182f6abfa60c01b611d9c565b80600d60008473ffffffffffffffffffffffffffffffffffffffff1673ffffffffffffffffffffffffffffffffffffffff1681526020019081526020016000206000828254611faa9190612680565b92505081905550611fc567d605f88bb1ce2d7e60c01b611d9c565b8060066000828254611fd79190612680565b925050819055505b5050565b6120648363a9059cbb60e01b84846040516024016120029291906126b4565b604051602081830303815290604052907bffffffffffffffffffffffffffffffffffffffffffffffffffffffff19166020820180517bffffffffffffffffffffffffffffffffffffffffffffffffffffffff83818316178352505050506121ab565b505050565b612071612273565b73ffffffffffffffffffffffffffffffffffffffff1661208f610bf4565b73ffffffffffffffffffffffffffffffffffffffff16146120e5576040517f08c379a00000000000000000000000000000000000000000000000000000000081526004016120dc90612aee565b60405180910390fd5b565b60008060009054906101000a900473ffffffffffffffffffffffffffffffffffffffff169050816000806101000a81548173ffffffffffffffffffffffffffffffffffffffff021916908373ffffffffffffffffffffffffffffffffffffffff1602179055508173ffffffffffffffffffffffffffffffffffffffff168173ffffffffffffffffffffffffffffffffffffffff167f8be0079c531659141344cd1fd0a4f28419497f9722a3daafe3b4186f6b6457e060405160405180910390a35050565b600061220d826040518060400160405280602081526020017f5361666545524332303a206c6f772d6c6576656c2063616c6c206661696c65648152508573ffffffffffffffffffffffffffffffffffffffff1661227b9092919063ffffffff16565b905060008151148061222f57508080602001905181019061222e9190612715565b5b61226e576040517f08c379a000000000000000000000000000000000000000000000000000000000815260040161226590612b80565b60405180910390fd5b505050565b600033905090565b606061228a8484600085612293565b90509392505050565b6060824710156122d8576040517f08c379a00000000000000000000000000000000000000000000000000000000081526004016122cf90612c12565b60405180910390fd5b6000808673ffffffffffffffffffffffffffffffffffffffff1685876040516123019190612ca3565b60006040518083038185875af1925050503d806000811461233e576040519150601f19603f3d011682016040523d82523d6000602084013e612343565b606091505b509150915061235487838387612360565b92505050949350505050565b606083156123c25760008351036123ba5761237a856123d5565b6123b9576040517f08c379a00000000000000000000000000000000000000000000000000000000081526004016123b090612d06565b60405180910390fd5b5b8290506123cd565b6123cc83836123f8565b5b949350505050565b6000808273ffffffffffffffffffffffffffffffffffffffff163b119050919050565b60008251111561240b5781518083602001fd5b806040517f08c379a000000000000000000000000000000000000000000000000000000000815260040161243f9190612d7b565b60405180910390fd5b6000819050919050565b61245b81612448565b82525050565b60006020820190506124766000830184612452565b92915050565b600080fd5b61248a81612448565b811461249557600080fd5b50565b6000813590506124a781612481565b92915050565b600080604083850312156124c4576124c361247c565b5b60006124d285828601612498565b92505060206124e385828601612498565b9150509250929050565b6000602082840312156125035761250261247c565b5b600061251184828501612498565b91505092915050565b600073ffffffffffffffffffffffffffffffffffffffff82169050919050565b60006125458261251a565b9050919050565b6125558161253a565b82525050565b6000602082019050612570600083018461254c565b92915050565b61257f8161253a565b811461258a57600080fd5b50565b60008135905061259c81612576565b92915050565b6000602082840312156125b8576125b761247c565b5b60006125c68482850161258d565b91505092915050565b600080604083850312156125e6576125e561247c565b5b60006125f48582860161258d565b925050602061260585828601612498565b9150509250929050565b7f4e487b7100000000000000000000000000000000000000000000000000000000600052601160045260246000fd5b600061264982612448565b915061265483612448565b925082820261266281612448565b915082820484148315176126795761267861260f565b5b5092915050565b600061268b82612448565b915061269683612448565b92508282019050808211156126ae576126ad61260f565b5b92915050565b60006040820190506126c9600083018561254c565b6126d66020830184612452565b9392505050565b60008115159050919050565b6126f2816126dd565b81146126fd57600080fd5b50565b60008151905061270f816126e9565b92915050565b60006020828403121561272b5761272a61247c565b5b600061273984828501612700565b91505092915050565b6000606082019050612757600083018661254c565b612764602083018561254c565b6127716040830184612452565b949350505050565b60008151905061278881612481565b92915050565b6000602082840312156127a4576127a361247c565b5b60006127b284828501612779565b91505092915050565b600082825260208201905092915050565b7f52657761726420706572696f6420686173206e6f7420656e6465642079657400600082015250565b6000612802601f836127bb565b915061280d826127cc565b602082019050919050565b60006020820190508181036000830152612831816127f5565b9050919050565b7f4e6f2072657761726420666f72207468697320706572696f6400000000000000600082015250565b600061286e6019836127bb565b915061287982612838565b602082019050919050565b6000602082019050818103600083015261289d81612861565b9050919050565b7f54726164696e6720766f6c756d65206e6f742079657400000000000000000000600082015250565b60006128da6016836127bb565b91506128e5826128a4565b602082019050919050565b60006020820190508181036000830152612909816128cd565b9050919050565b7f4d61726b657420766f6c756d65206973207a65726f0000000000000000000000600082015250565b60006129466015836127bb565b915061295182612910565b602082019050919050565b6000602082019050818103600083015261297581612939565b9050919050565b600061298782612448565b915061299283612448565b92508282039050818111156129aa576129a961260f565b5b92915050565b7f4e487b7100000000000000000000000000000000000000000000000000000000600052601260045260246000fd5b60006129ea82612448565b91506129f583612448565b925082612a0557612a046129b0565b5b828204905092915050565b7f4f776e61626c653a206e6577206f776e657220697320746865207a65726f206160008201527f6464726573730000000000000000000000000000000000000000000000000000602082015250565b6000612a6c6026836127bb565b9150612a7782612a10565b604082019050919050565b60006020820190508181036000830152612a9b81612a5f565b9050919050565b7f4f776e61626c653a2063616c6c6572206973206e6f7420746865206f776e6572600082015250565b6000612ad86020836127bb565b9150612ae382612aa2565b602082019050919050565b60006020820190508181036000830152612b0781612acb565b9050919050565b7f5361666545524332303a204552433230206f7065726174696f6e20646964206e60008201527f6f74207375636365656400000000000000000000000000000000000000000000602082015250565b6000612b6a602a836127bb565b9150612b7582612b0e565b604082019050919050565b60006020820190508181036000830152612b9981612b5d565b9050919050565b7f416464726573733a20696e73756666696369656e742062616c616e636520666f60008201527f722063616c6c0000000000000000000000000000000000000000000000000000602082015250565b6000612bfc6026836127bb565b9150612c0782612ba0565b604082019050919050565b60006020820190508181036000830152612c2b81612bef565b9050919050565b600081519050919050565b600081905092915050565b60005b83811015612c66578082015181840152602081019050612c4b565b60008484015250505050565b6000612c7d82612c32565b612c878185612c3d565b9350612c97818560208601612c48565b80840191505092915050565b6000612caf8284612c72565b915081905092915050565b7f416464726573733a2063616c6c20746f206e6f6e2d636f6e7472616374000000600082015250565b6000612cf0601d836127bb565b9150612cfb82612cba565b602082019050919050565b60006020820190508181036000830152612d1f81612ce3565b9050919050565b600081519050919050565b6000601f19601f8301169050919050565b6000612d4d82612d26565b612d5781856127bb565b9350612d67818560208601612c48565b612d7081612d31565b840191505092915050565b60006020820190508181036000830152612d958184612d42565b90509291505056fea264697066735822122074846f2ddb81a76ad16eaf4d15a846d6591d2a12df487d145149254d8b432fc564736f6c63430008170033","opcodes":"PUSH1 0x80 PUSH1 0x40 MSTORE CALLVALUE DUP1 ISZERO PUSH3 0x11 JUMPI PUSH1 0x0 DUP1 REVERT JUMPDEST POP PUSH1 0x40 MLOAD PUSH3 0x3282 CODESIZE SUB DUP1 PUSH3 0x3282 DUP4 CODECOPY DUP2 DUP2 ADD PUSH1 0x40 MSTORE DUP2 ADD SWAP1 PUSH3 0x37 SWAP2 SWAP1 PUSH3 0x403 JUMP JUMPDEST PUSH3 0x57 PUSH3 0x4B PUSH3 0x28F PUSH1 0x20 SHL PUSH1 0x20 SHR JUMP JUMPDEST PUSH3 0x297 PUSH1 0x20 SHL PUSH1 0x20 SHR JUMP JUMPDEST PUSH3 0x73 PUSH8 0xB5B99381C67D68C0 PUSH1 0xC0 SHL PUSH3 0x35B PUSH1 0x20 SHL PUSH1 0x20 SHR JUMP JUMPDEST PUSH3 0x8F PUSH8 0xC1C6AFA2D9763ED1 PUSH1 0xC0 SHL PUSH3 0x35B PUSH1 0x20 SHL PUSH1 0x20 SHR JUMP JUMPDEST DUP6 PUSH1 0x1 PUSH1 0x0 PUSH2 0x100 EXP DUP2 SLOAD DUP2 PUSH20 0xFFFFFFFFFFFFFFFFFFFFFFFFFFFFFFFFFFFFFFFF MUL NOT AND SWAP1 DUP4 PUSH20 0xFFFFFFFFFFFFFFFFFFFFFFFFFFFFFFFFFFFFFFFF AND MUL OR SWAP1 SSTORE POP PUSH3 0xEC PUSH8 0x99A8549C8F06AFE1 PUSH1 0xC0 SHL PUSH3 0x35B PUSH1 0x20 SHL PUSH1 0x20 SHR JUMP JUMPDEST DUP5 PUSH1 0x2 PUSH1 0x0 PUSH2 0x100 EXP DUP2 SLOAD DUP2 PUSH20 0xFFFFFFFFFFFFFFFFFFFFFFFFFFFFFFFFFFFFFFFF MUL NOT AND SWAP1 DUP4 PUSH20 0xFFFFFFFFFFFFFFFFFFFFFFFFFFFFFFFFFFFFFFFF AND MUL OR SWAP1 SSTORE POP PUSH3 0x149 PUSH8 0x87640CDC217E6B89 PUSH1 0xC0 SHL PUSH3 0x35B PUSH1 0x20 SHL PUSH1 0x20 SHR JUMP JUMPDEST DUP4 PUSH1 0x3 PUSH1 0x0 PUSH2 0x100 EXP DUP2 SLOAD DUP2 PUSH20 0xFFFFFFFFFFFFFFFFFFFFFFFFFFFFFFFFFFFFFFFF MUL NOT AND SWAP1 DUP4 PUSH20 0xFFFFFFFFFFFFFFFFFFFFFFFFFFFFFFFFFFFFFFFF AND MUL OR SWAP1 SSTORE POP PUSH3 0x1A6 PUSH8 0x8C5F8D54FC5802B8 PUSH1 0xC0 SHL PUSH3 0x35B PUSH1 0x20 SHL PUSH1 0x20 SHR JUMP JUMPDEST DUP3 PUSH1 0x4 PUSH1 0x0 PUSH2 0x100 EXP DUP2 SLOAD DUP2 PUSH20 0xFFFFFFFFFFFFFFFFFFFFFFFFFFFFFFFFFFFFFFFF MUL NOT AND SWAP1 DUP4 PUSH20 0xFFFFFFFFFFFFFFFFFFFFFFFFFFFFFFFFFFFFFFFF AND MUL OR SWAP1 SSTORE POP PUSH3 0x203 PUSH8 0xC2567131B1B13E3E PUSH1 0xC0 SHL PUSH3 0x35B PUSH1 0x20 SHL PUSH1 0x20 SHR JUMP JUMPDEST DUP2 PUSH1 0x5 PUSH1 0x0 PUSH2 0x100 EXP DUP2 SLOAD DUP2 PUSH20 0xFFFFFFFFFFFFFFFFFFFFFFFFFFFFFFFFFFFFFFFF MUL NOT AND SWAP1 DUP4 PUSH20 0xFFFFFFFFFFFFFFFFFFFFFFFFFFFFFFFFFFFFFFFF AND MUL OR SWAP1 SSTORE POP PUSH3 0x260 PUSH8 0xD6D4FEA58247F8F1 PUSH1 0xC0 SHL PUSH3 0x35B PUSH1 0x20 SHL PUSH1 0x20 SHR JUMP JUMPDEST PUSH3 0x27C PUSH8 0x1EF408B5637639C8 PUSH1 0xC0 SHL PUSH3 0x35B PUSH1 0x20 SHL PUSH1 0x20 SHR JUMP JUMPDEST TIMESTAMP PUSH1 0x7 DUP2 SWAP1 SSTORE POP POP POP POP POP POP POP PUSH3 0x49F JUMP JUMPDEST PUSH1 0x0 CALLER SWAP1 POP SWAP1 JUMP JUMPDEST PUSH1 0x0 DUP1 PUSH1 0x0 SWAP1 SLOAD SWAP1 PUSH2 0x100 EXP SWAP1 DIV PUSH20 0xFFFFFFFFFFFFFFFFFFFFFFFFFFFFFFFFFFFFFFFF AND SWAP1 POP DUP2 PUSH1 0x0 DUP1 PUSH2 0x100 EXP DUP2 SLOAD DUP2 PUSH20 0xFFFFFFFFFFFFFFFFFFFFFFFFFFFFFFFFFFFFFFFF MUL NOT AND SWAP1 DUP4 PUSH20 0xFFFFFFFFFFFFFFFFFFFFFFFFFFFFFFFFFFFFFFFF AND MUL OR SWAP1 SSTORE POP DUP2 PUSH20 0xFFFFFFFFFFFFFFFFFFFFFFFFFFFFFFFFFFFFFFFF AND DUP2 PUSH20 0xFFFFFFFFFFFFFFFFFFFFFFFFFFFFFFFFFFFFFFFF AND PUSH32 0x8BE0079C531659141344CD1FD0A4F28419497F9722A3DAAFE3B4186F6B6457E0 PUSH1 0x40 MLOAD PUSH1 0x40 MLOAD DUP1 SWAP2 SUB SWAP1 LOG3 POP POP JUMP JUMPDEST POP JUMP JUMPDEST PUSH1 0x0 DUP1 REVERT JUMPDEST PUSH1 0x0 PUSH20 0xFFFFFFFFFFFFFFFFFFFFFFFFFFFFFFFFFFFFFFFF DUP3 AND SWAP1 POP SWAP2 SWAP1 POP JUMP JUMPDEST PUSH1 0x0 PUSH3 0x390 DUP3 PUSH3 0x363 JUMP JUMPDEST SWAP1 POP SWAP2 SWAP1 POP JUMP JUMPDEST PUSH3 0x3A2 DUP2 PUSH3 0x383 JUMP JUMPDEST DUP2 EQ PUSH3 0x3AE JUMPI PUSH1 0x0 DUP1 REVERT JUMPDEST POP JUMP JUMPDEST PUSH1 0x0 DUP2 MLOAD SWAP1 POP PUSH3 0x3C2 DUP2 PUSH3 0x397 JUMP JUMPDEST SWAP3 SWAP2 POP POP JUMP JUMPDEST PUSH1 0x0 DUP2 SWAP1 POP SWAP2 SWAP1 POP JUMP JUMPDEST PUSH3 0x3DD DUP2 PUSH3 0x3C8 JUMP JUMPDEST DUP2 EQ PUSH3 0x3E9 JUMPI PUSH1 0x0 DUP1 REVERT JUMPDEST POP JUMP JUMPDEST PUSH1 0x0 DUP2 MLOAD SWAP1 POP PUSH3 0x3FD DUP2 PUSH3 0x3D2 JUMP JUMPDEST SWAP3 SWAP2 POP POP JUMP JUMPDEST PUSH1 0x0 DUP1 PUSH1 0x0 DUP1 PUSH1 0x0 DUP1 PUSH1 0xC0 DUP8 DUP10 SUB SLT ISZERO PUSH3 0x423 JUMPI PUSH3 0x422 PUSH3 0x35E JUMP JUMPDEST JUMPDEST PUSH1 0x0 PUSH3 0x433 DUP10 DUP3 DUP11 ADD PUSH3 0x3B1 JUMP JUMPDEST SWAP7 POP POP PUSH1 0x20 PUSH3 0x446 DUP10 DUP3 DUP11 ADD PUSH3 0x3B1 JUMP JUMPDEST SWAP6 POP POP PUSH1 0x40 PUSH3 0x459 DUP10 DUP3 DUP11 ADD PUSH3 0x3B1 JUMP JUMPDEST SWAP5 POP POP PUSH1 0x60 PUSH3 0x46C DUP10 DUP3 DUP11 ADD PUSH3 0x3B1 JUMP JUMPDEST SWAP4 POP POP PUSH1 0x80 PUSH3 0x47F DUP10 DUP3 DUP11 ADD PUSH3 0x3B1 JUMP JUMPDEST SWAP3 POP POP PUSH1 0xA0 PUSH3 0x492 DUP10 DUP3 DUP11 ADD PUSH3 0x3EC JUMP JUMPDEST SWAP2 POP POP SWAP3 SWAP6 POP SWAP3 SWAP6 POP SWAP3 SWAP6 JUMP JUMPDEST PUSH2 0x2DD3 DUP1 PUSH3 0x4AF PUSH1 0x0 CODECOPY PUSH1 0x0 RETURN INVALID PUSH1 0x80 PUSH1 0x40 MSTORE CALLVALUE DUP1 ISZERO PUSH2 0x10 JUMPI PUSH1 0x0 DUP1 REVERT JUMPDEST POP PUSH1 0x4 CALLDATASIZE LT PUSH2 0x100 JUMPI PUSH1 0x0 CALLDATALOAD PUSH1 0xE0 SHR DUP1 PUSH4 0x8DA5CB5B GT PUSH2 0x97 JUMPI DUP1 PUSH4 0xD82E3962 GT PUSH2 0x66 JUMPI DUP1 PUSH4 0xD82E3962 EQ PUSH2 0x24F JUMPI DUP1 PUSH4 0xF2FDE38B EQ PUSH2 0x27F JUMPI DUP1 PUSH4 0xF8432A1B EQ PUSH2 0x29B JUMPI DUP1 PUSH4 0xFDDA45DC EQ PUSH2 0x2A5 JUMPI PUSH2 0x100 JUMP JUMPDEST DUP1 PUSH4 0x8DA5CB5B EQ PUSH2 0x1DD JUMPI DUP1 PUSH4 0x8E9B277D EQ PUSH2 0x1FB JUMPI DUP1 PUSH4 0x93D75DB5 EQ PUSH2 0x217 JUMPI DUP1 PUSH4 0xC181D418 EQ PUSH2 0x233 JUMPI PUSH2 0x100 JUMP JUMPDEST DUP1 PUSH4 0x3EF32E0D GT PUSH2 0xD3 JUMPI DUP1 PUSH4 0x3EF32E0D EQ PUSH2 0x167 JUMPI DUP1 PUSH4 0x66DA5815 EQ PUSH2 0x185 JUMPI DUP1 PUSH4 0x715018A6 EQ PUSH2 0x1B5 JUMPI DUP1 PUSH4 0x84EA96F5 EQ PUSH2 0x1BF JUMPI PUSH2 0x100 JUMP JUMPDEST DUP1 PUSH4 0x32D4038 EQ PUSH2 0x105 JUMPI DUP1 PUSH4 0x1266A619 EQ PUSH2 0x123 JUMPI DUP1 PUSH4 0x24F82526 EQ PUSH2 0x13F JUMPI DUP1 PUSH4 0x3CB3DAFA EQ PUSH2 0x149 JUMPI JUMPDEST PUSH1 0x0 DUP1 REVERT JUMPDEST PUSH2 0x10D PUSH2 0x2D5 JUMP JUMPDEST PUSH1 0x40 MLOAD PUSH2 0x11A SWAP2 SWAP1 PUSH2 0x2461 JUMP JUMPDEST PUSH1 0x40 MLOAD DUP1 SWAP2 SUB SWAP1 RETURN JUMPDEST PUSH2 0x13D PUSH1 0x4 DUP1 CALLDATASIZE SUB DUP2 ADD SWAP1 PUSH2 0x138 SWAP2 SWAP1 PUSH2 0x24AD JUMP JUMPDEST PUSH2 0x2DB JUMP JUMPDEST STOP JUMPDEST PUSH2 0x147 PUSH2 0x68F JUMP JUMPDEST STOP JUMPDEST PUSH2 0x151 PUSH2 0xB3B JUMP JUMPDEST PUSH1 0x40 MLOAD PUSH2 0x15E SWAP2 SWAP1 PUSH2 0x2461 JUMP JUMPDEST PUSH1 0x40 MLOAD DUP1 SWAP2 SUB SWAP1 RETURN JUMPDEST PUSH2 0x16F PUSH2 0xB41 JUMP JUMPDEST PUSH1 0x40 MLOAD PUSH2 0x17C SWAP2 SWAP1 PUSH2 0x2461 JUMP JUMPDEST PUSH1 0x40 MLOAD DUP1 SWAP2 SUB SWAP1 RETURN JUMPDEST PUSH2 0x19F PUSH1 0x4 DUP1 CALLDATASIZE SUB DUP2 ADD SWAP1 PUSH2 0x19A SWAP2 SWAP1 PUSH2 0x24ED JUMP JUMPDEST PUSH2 0xB47 JUMP JUMPDEST PUSH1 0x40 MLOAD PUSH2 0x1AC SWAP2 SWAP1 PUSH2 0x2461 JUMP JUMPDEST PUSH1 0x40 MLOAD DUP1 SWAP2 SUB SWAP1 RETURN JUMPDEST PUSH2 0x1BD PUSH2 0xBDA JUMP JUMPDEST STOP JUMPDEST PUSH2 0x1C7 PUSH2 0xBEE JUMP JUMPDEST PUSH1 0x40 MLOAD PUSH2 0x1D4 SWAP2 SWAP1 PUSH2 0x2461 JUMP JUMPDEST PUSH1 0x40 MLOAD DUP1 SWAP2 SUB SWAP1 RETURN JUMPDEST PUSH2 0x1E5 PUSH2 0xBF4 JUMP JUMPDEST PUSH1 0x40 MLOAD PUSH2 0x1F2 SWAP2 SWAP1 PUSH2 0x255B JUMP JUMPDEST PUSH1 0x40 MLOAD DUP1 SWAP2 SUB SWAP1 RETURN JUMPDEST PUSH2 0x215 PUSH1 0x4 DUP1 CALLDATASIZE SUB DUP2 ADD SWAP1 PUSH2 0x210 SWAP2 SWAP1 PUSH2 0x25A2 JUMP JUMPDEST PUSH2 0xC1D JUMP JUMPDEST STOP JUMPDEST PUSH2 0x231 PUSH1 0x4 DUP1 CALLDATASIZE SUB DUP2 ADD SWAP1 PUSH2 0x22C SWAP2 SWAP1 PUSH2 0x25CF JUMP JUMPDEST PUSH2 0x1090 JUMP JUMPDEST STOP JUMPDEST PUSH2 0x24D PUSH1 0x4 DUP1 CALLDATASIZE SUB DUP2 ADD SWAP1 PUSH2 0x248 SWAP2 SWAP1 PUSH2 0x24AD JUMP JUMPDEST PUSH2 0x110A JUMP JUMPDEST STOP JUMPDEST PUSH2 0x269 PUSH1 0x4 DUP1 CALLDATASIZE SUB DUP2 ADD SWAP1 PUSH2 0x264 SWAP2 SWAP1 PUSH2 0x25A2 JUMP JUMPDEST PUSH2 0x15D8 JUMP JUMPDEST PUSH1 0x40 MLOAD PUSH2 0x276 SWAP2 SWAP1 PUSH2 0x2461 JUMP JUMPDEST PUSH1 0x40 MLOAD DUP1 SWAP2 SUB SWAP1 RETURN JUMPDEST PUSH2 0x299 PUSH1 0x4 DUP1 CALLDATASIZE SUB DUP2 ADD SWAP1 PUSH2 0x294 SWAP2 SWAP1 PUSH2 0x25A2 JUMP JUMPDEST PUSH2 0x17DC JUMP JUMPDEST STOP JUMPDEST PUSH2 0x2A3 PUSH2 0x185F JUMP JUMPDEST STOP JUMPDEST PUSH2 0x2BF PUSH1 0x4 DUP1 CALLDATASIZE SUB DUP2 ADD SWAP1 PUSH2 0x2BA SWAP2 SWAP1 PUSH2 0x24ED JUMP JUMPDEST PUSH2 0x1D0B JUMP JUMPDEST PUSH1 0x40 MLOAD PUSH2 0x2CC SWAP2 SWAP1 PUSH2 0x2461 JUMP JUMPDEST PUSH1 0x40 MLOAD DUP1 SWAP2 SUB SWAP1 RETURN JUMPDEST PUSH1 0xA SLOAD DUP2 JUMP JUMPDEST PUSH2 0x2EF PUSH8 0xA2839240EBD6F864 PUSH1 0xC0 SHL PUSH2 0x1D9C JUMP JUMPDEST PUSH2 0x303 PUSH8 0xBCE17D24CAD6DBA0 PUSH1 0xC0 SHL PUSH2 0x1D9C JUMP JUMPDEST PUSH2 0x317 PUSH8 0x7D42F96D4EBBADDD PUSH1 0xC0 SHL PUSH2 0x1D9C JUMP JUMPDEST PUSH1 0x1 PUSH1 0x0 SWAP1 SLOAD SWAP1 PUSH2 0x100 EXP SWAP1 DIV PUSH20 0xFFFFFFFFFFFFFFFFFFFFFFFFFFFFFFFFFFFFFFFF AND PUSH20 0xFFFFFFFFFFFFFFFFFFFFFFFFFFFFFFFFFFFFFFFF AND PUSH4 0xC5EBEAEC DUP3 DUP5 PUSH2 0x361 SWAP2 SWAP1 PUSH2 0x263E JUMP JUMPDEST PUSH1 0x40 MLOAD DUP3 PUSH4 0xFFFFFFFF AND PUSH1 0xE0 SHL DUP2 MSTORE PUSH1 0x4 ADD PUSH2 0x37D SWAP2 SWAP1 PUSH2 0x2461 JUMP JUMPDEST PUSH1 0x0 PUSH1 0x40 MLOAD DUP1 DUP4 SUB DUP2 PUSH1 0x0 DUP8 DUP1 EXTCODESIZE ISZERO DUP1 ISZERO PUSH2 0x397 JUMPI PUSH1 0x0 DUP1 REVERT JUMPDEST POP GAS CALL ISZERO DUP1 ISZERO PUSH2 0x3AB JUMPI RETURNDATASIZE PUSH1 0x0 DUP1 RETURNDATACOPY RETURNDATASIZE PUSH1 0x0 REVERT JUMPDEST POP POP POP POP PUSH2 0x3C3 PUSH8 0xF060867D57213638 PUSH1 0xC0 SHL PUSH2 0x1D9C JUMP JUMPDEST DUP1 DUP3 PUSH2 0x3CF SWAP2 SWAP1 PUSH2 0x263E JUMP JUMPDEST PUSH1 0xB PUSH1 0x0 DUP3 DUP3 SLOAD PUSH2 0x3E0 SWAP2 SWAP1 PUSH2 0x2680 JUMP JUMPDEST SWAP3 POP POP DUP2 SWAP1 SSTORE POP PUSH2 0x3FB PUSH8 0xFE1378FCB4315C35 PUSH1 0xC0 SHL PUSH2 0x1D9C JUMP JUMPDEST PUSH2 0x40F PUSH8 0x10B5F0C5D387837A PUSH1 0xC0 SHL PUSH2 0x1D9C JUMP JUMPDEST PUSH1 0x3 PUSH1 0x0 SWAP1 SLOAD SWAP1 PUSH2 0x100 EXP SWAP1 DIV PUSH20 0xFFFFFFFFFFFFFFFFFFFFFFFFFFFFFFFFFFFFFFFF AND PUSH20 0xFFFFFFFFFFFFFFFFFFFFFFFFFFFFFFFFFFFFFFFF AND PUSH4 0x95EA7B3 PUSH1 0x2 PUSH1 0x0 SWAP1 SLOAD SWAP1 PUSH2 0x100 EXP SWAP1 DIV PUSH20 0xFFFFFFFFFFFFFFFFFFFFFFFFFFFFFFFFFFFFFFFF AND DUP4 DUP6 PUSH2 0x47C SWAP2 SWAP1 PUSH2 0x263E JUMP JUMPDEST PUSH1 0x40 MLOAD DUP4 PUSH4 0xFFFFFFFF AND PUSH1 0xE0 SHL DUP2 MSTORE PUSH1 0x4 ADD PUSH2 0x499 SWAP3 SWAP2 SWAP1 PUSH2 0x26B4 JUMP JUMPDEST PUSH1 0x20 PUSH1 0x40 MLOAD DUP1 DUP4 SUB DUP2 PUSH1 0x0 DUP8 GAS CALL ISZERO DUP1 ISZERO PUSH2 0x4B8 JUMPI RETURNDATASIZE PUSH1 0x0 DUP1 RETURNDATACOPY RETURNDATASIZE PUSH1 0x0 REVERT JUMPDEST POP POP POP POP PUSH1 0x40 MLOAD RETURNDATASIZE PUSH1 0x1F NOT PUSH1 0x1F DUP3 ADD AND DUP3 ADD DUP1 PUSH1 0x40 MSTORE POP DUP2 ADD SWAP1 PUSH2 0x4DC SWAP2 SWAP1 PUSH2 0x2715 JUMP JUMPDEST POP PUSH2 0x4F1 PUSH8 0x7606C3124B8ED315 PUSH1 0xC0 SHL PUSH2 0x1D9C JUMP JUMPDEST PUSH1 0x2 PUSH1 0x0 SWAP1 SLOAD SWAP1 PUSH2 0x100 EXP SWAP1 DIV PUSH20 0xFFFFFFFFFFFFFFFFFFFFFFFFFFFFFFFFFFFFFFFF AND PUSH20 0xFFFFFFFFFFFFFFFFFFFFFFFFFFFFFFFFFFFFFFFF AND PUSH4 0xCAE270B6 PUSH1 0x3 PUSH1 0x0 SWAP1 SLOAD SWAP1 PUSH2 0x100 EXP SWAP1 DIV PUSH20 0xFFFFFFFFFFFFFFFFFFFFFFFFFFFFFFFFFFFFFFFF AND PUSH1 0x4 PUSH1 0x0 SWAP1 SLOAD SWAP1 PUSH2 0x100 EXP SWAP1 DIV PUSH20 0xFFFFFFFFFFFFFFFFFFFFFFFFFFFFFFFFFFFFFFFF AND DUP5 DUP7 PUSH2 0x581 SWAP2 SWAP1 PUSH2 0x263E JUMP JUMPDEST PUSH1 0x40 MLOAD DUP5 PUSH4 0xFFFFFFFF AND PUSH1 0xE0 SHL DUP2 MSTORE PUSH1 0x4 ADD PUSH2 0x59F SWAP4 SWAP3 SWAP2 SWAP1 PUSH2 0x2742 JUMP JUMPDEST PUSH1 0x20 PUSH1 0x40 MLOAD DUP1 DUP4 SUB DUP2 PUSH1 0x0 DUP8 GAS CALL ISZERO DUP1 ISZERO PUSH2 0x5BE JUMPI RETURNDATASIZE PUSH1 0x0 DUP1 RETURNDATACOPY RETURNDATASIZE PUSH1 0x0 REVERT JUMPDEST POP POP POP POP PUSH1 0x40 MLOAD RETURNDATASIZE PUSH1 0x1F NOT PUSH1 0x1F DUP3 ADD AND DUP3 ADD DUP1 PUSH1 0x40 MSTORE POP DUP2 ADD SWAP1 PUSH2 0x5E2 SWAP2 SWAP1 PUSH2 0x278E JUMP JUMPDEST PUSH1 0xC PUSH1 0x0 DUP3 DUP3 SLOAD PUSH2 0x5F3 SWAP2 SWAP1 PUSH2 0x2680 JUMP JUMPDEST SWAP3 POP POP DUP2 SWAP1 SSTORE POP PUSH2 0x60E PUSH8 0x3373481A93CDF14B PUSH1 0xC0 SHL PUSH2 0x1D9C JUMP JUMPDEST PUSH2 0x622 PUSH8 0xB7C058C63839079B PUSH1 0xC0 SHL PUSH2 0x1D9C JUMP JUMPDEST PUSH2 0x637 CALLER DUP3 DUP5 PUSH2 0x632 SWAP2 SWAP1 PUSH2 0x263E JUMP JUMPDEST PUSH2 0x1D9F JUMP JUMPDEST PUSH2 0x64B PUSH8 0x46D760546E1DD823 PUSH1 0xC0 SHL PUSH2 0x1D9C JUMP JUMPDEST PUSH2 0x65F PUSH8 0xC4D96C65E7A18306 PUSH1 0xC0 SHL PUSH2 0x1D9C JUMP JUMPDEST PUSH32 0xDB84CACD536875E0714DD79E0FE743DE5A2871A8EB65115B5AA657E6CFBE7A51 PUSH1 0x40 MLOAD PUSH1 0x40 MLOAD DUP1 SWAP2 SUB SWAP1 LOG1 POP POP JUMP JUMPDEST PUSH2 0x6A3 PUSH8 0x585B54F7380C0331 PUSH1 0xC0 SHL PUSH2 0x1D9C JUMP JUMPDEST PUSH2 0x6B7 PUSH8 0x17DA16E3BC44EFB PUSH1 0xC0 SHL PUSH2 0x1D9C JUMP JUMPDEST PUSH2 0x6CB PUSH8 0x60B88C1D9EF5288F PUSH1 0xC0 SHL PUSH2 0x1D9C JUMP JUMPDEST PUSH1 0x4 PUSH1 0x0 SWAP1 SLOAD SWAP1 PUSH2 0x100 EXP SWAP1 DIV PUSH20 0xFFFFFFFFFFFFFFFFFFFFFFFFFFFFFFFFFFFFFFFF AND PUSH20 0xFFFFFFFFFFFFFFFFFFFFFFFFFFFFFFFFFFFFFFFF AND PUSH4 0x95EA7B3 PUSH1 0x2 PUSH1 0x0 SWAP1 SLOAD SWAP1 PUSH2 0x100 EXP SWAP1 DIV PUSH20 0xFFFFFFFFFFFFFFFFFFFFFFFFFFFFFFFFFFFFFFFF AND PUSH1 0xA SLOAD PUSH1 0x40 MLOAD DUP4 PUSH4 0xFFFFFFFF AND PUSH1 0xE0 SHL DUP2 MSTORE PUSH1 0x4 ADD PUSH2 0x74C SWAP3 SWAP2 SWAP1 PUSH2 0x26B4 JUMP JUMPDEST PUSH1 0x20 PUSH1 0x40 MLOAD DUP1 DUP4 SUB DUP2 PUSH1 0x0 DUP8 GAS CALL ISZERO DUP1 ISZERO PUSH2 0x76B JUMPI RETURNDATASIZE PUSH1 0x0 DUP1 RETURNDATACOPY RETURNDATASIZE PUSH1 0x0 REVERT JUMPDEST POP POP POP POP PUSH1 0x40 MLOAD RETURNDATASIZE PUSH1 0x1F NOT PUSH1 0x1F DUP3 ADD AND DUP3 ADD DUP1 PUSH1 0x40 MSTORE POP DUP2 ADD SWAP1 PUSH2 0x78F SWAP2 SWAP1 PUSH2 0x2715 JUMP JUMPDEST POP PUSH2 0x7A4 PUSH8 0xFBF7ACDA3ABCF6BC PUSH1 0xC0 SHL PUSH2 0x1D9C JUMP JUMPDEST PUSH2 0x7B8 PUSH8 0x19F17CD758CDA766 PUSH1 0xC0 SHL PUSH2 0x1D9C JUMP JUMPDEST PUSH1 0x3 PUSH1 0x0 SWAP1 SLOAD SWAP1 PUSH2 0x100 EXP SWAP1 DIV PUSH20 0xFFFFFFFFFFFFFFFFFFFFFFFFFFFFFFFFFFFFFFFF AND PUSH20 0xFFFFFFFFFFFFFFFFFFFFFFFFFFFFFFFFFFFFFFFF AND PUSH4 0x95EA7B3 PUSH1 0x1 PUSH1 0x0 SWAP1 SLOAD SWAP1 PUSH2 0x100 EXP SWAP1 DIV PUSH20 0xFFFFFFFFFFFFFFFFFFFFFFFFFFFFFFFFFFFFFFFF AND PUSH1 0x9 SLOAD PUSH1 0x40 MLOAD DUP4 PUSH4 0xFFFFFFFF AND PUSH1 0xE0 SHL DUP2 MSTORE PUSH1 0x4 ADD PUSH2 0x839 SWAP3 SWAP2 SWAP1 PUSH2 0x26B4 JUMP JUMPDEST PUSH1 0x20 PUSH1 0x40 MLOAD DUP1 DUP4 SUB DUP2 PUSH1 0x0 DUP8 GAS CALL ISZERO DUP1 ISZERO PUSH2 0x858 JUMPI RETURNDATASIZE PUSH1 0x0 DUP1 RETURNDATACOPY RETURNDATASIZE PUSH1 0x0 REVERT JUMPDEST POP POP POP POP PUSH1 0x40 MLOAD RETURNDATASIZE PUSH1 0x1F NOT PUSH1 0x1F DUP3 ADD AND DUP3 ADD DUP1 PUSH1 0x40 MSTORE POP DUP2 ADD SWAP1 PUSH2 0x87C SWAP2 SWAP1 PUSH2 0x2715 JUMP JUMPDEST POP PUSH2 0x891 PUSH8 0xECAB23A53940719C PUSH1 0xC0 SHL PUSH2 0x1D9C JUMP JUMPDEST PUSH2 0x8A5 PUSH8 0x8DD8BADF8C956A59 PUSH1 0xC0 SHL PUSH2 0x1D9C JUMP JUMPDEST PUSH1 0x1 PUSH1 0x0 SWAP1 SLOAD SWAP1 PUSH2 0x100 EXP SWAP1 DIV PUSH20 0xFFFFFFFFFFFFFFFFFFFFFFFFFFFFFFFFFFFFFFFF AND PUSH20 0xFFFFFFFFFFFFFFFFFFFFFFFFFFFFFFFFFFFFFFFF AND PUSH4 0x371FD8E6 PUSH1 0x9 SLOAD PUSH1 0x40 MLOAD DUP3 PUSH4 0xFFFFFFFF AND PUSH1 0xE0 SHL DUP2 MSTORE PUSH1 0x4 ADD PUSH2 0x902 SWAP2 SWAP1 PUSH2 0x2461 JUMP JUMPDEST PUSH1 0x0 PUSH1 0x40 MLOAD DUP1 DUP4 SUB DUP2 PUSH1 0x0 DUP8 DUP1 EXTCODESIZE ISZERO DUP1 ISZERO PUSH2 0x91C JUMPI PUSH1 0x0 DUP1 REVERT JUMPDEST POP GAS CALL ISZERO DUP1 ISZERO PUSH2 0x930 JUMPI RETURNDATASIZE PUSH1 0x0 DUP1 RETURNDATACOPY RETURNDATASIZE PUSH1 0x0 REVERT JUMPDEST POP POP POP POP PUSH2 0x948 PUSH8 0xDBA69D89E2137900 PUSH1 0xC0 SHL PUSH2 0x1D9C JUMP JUMPDEST PUSH1 0x0 PUSH1 0x9 DUP2 SWAP1 SSTORE POP PUSH2 0x964 PUSH8 0x422735C40F78D421 PUSH1 0xC0 SHL PUSH2 0x1D9C JUMP JUMPDEST PUSH1 0x0 PUSH1 0xA DUP2 SWAP1 SSTORE POP PUSH2 0x980 PUSH8 0x3E36EC266249F5C1 PUSH1 0xC0 SHL PUSH2 0x1D9C JUMP JUMPDEST PUSH2 0x994 PUSH8 0x3E249AB836657881 PUSH1 0xC0 SHL PUSH2 0x1D9C JUMP JUMPDEST PUSH2 0x9A0 CALLER PUSH1 0xA SLOAD PUSH2 0x1D9F JUMP JUMPDEST PUSH2 0x9B4 PUSH8 0x90EECB914F508E58 PUSH1 0xC0 SHL PUSH2 0x1D9C JUMP JUMPDEST PUSH2 0x9C8 PUSH8 0x88B19CF6FE7875B2 PUSH1 0xC0 SHL PUSH2 0x1D9C JUMP JUMPDEST PUSH1 0x0 PUSH1 0x3 PUSH1 0x0 SWAP1 SLOAD SWAP1 PUSH2 0x100 EXP SWAP1 DIV PUSH20 0xFFFFFFFFFFFFFFFFFFFFFFFFFFFFFFFFFFFFFFFF AND PUSH20 0xFFFFFFFFFFFFFFFFFFFFFFFFFFFFFFFFFFFFFFFF AND PUSH4 0x70A08231 ADDRESS PUSH1 0x40 MLOAD DUP3 PUSH4 0xFFFFFFFF AND PUSH1 0xE0 SHL DUP2 MSTORE PUSH1 0x4 ADD PUSH2 0xA25 SWAP2 SWAP1 PUSH2 0x255B JUMP JUMPDEST PUSH1 0x20 PUSH1 0x40 MLOAD DUP1 DUP4 SUB DUP2 DUP7 GAS STATICCALL ISZERO DUP1 ISZERO PUSH2 0xA42 JUMPI RETURNDATASIZE PUSH1 0x0 DUP1 RETURNDATACOPY RETURNDATASIZE PUSH1 0x0 REVERT JUMPDEST POP POP POP POP PUSH1 0x40 MLOAD RETURNDATASIZE PUSH1 0x1F NOT PUSH1 0x1F DUP3 ADD AND DUP3 ADD DUP1 PUSH1 0x40 MSTORE POP DUP2 ADD SWAP1 PUSH2 0xA66 SWAP2 SWAP1 PUSH2 0x278E JUMP JUMPDEST SWAP1 POP PUSH2 0xA7C PUSH8 0xC48AD4DA5F8DA2D5 PUSH1 0xC0 SHL PUSH2 0x1D9C JUMP JUMPDEST PUSH2 0xA90 PUSH8 0xF01D5CFE7639EFD5 PUSH1 0xC0 SHL PUSH2 0x1D9C JUMP JUMPDEST PUSH2 0xAE4 PUSH2 0xA9B PUSH2 0xBF4 JUMP JUMPDEST DUP3 PUSH1 0x3 PUSH1 0x0 SWAP1 SLOAD SWAP1 PUSH2 0x100 EXP SWAP1 DIV PUSH20 0xFFFFFFFFFFFFFFFFFFFFFFFFFFFFFFFFFFFFFFFF AND PUSH20 0xFFFFFFFFFFFFFFFFFFFFFFFFFFFFFFFFFFFFFFFF AND PUSH2 0x1FE3 SWAP1 SWAP3 SWAP2 SWAP1 PUSH4 0xFFFFFFFF AND JUMP JUMPDEST PUSH2 0xAF8 PUSH8 0x1D3BEE0B15D2EBDF PUSH1 0xC0 SHL PUSH2 0x1D9C JUMP JUMPDEST PUSH2 0xB0C PUSH8 0x9C435E0550FC4E8E PUSH1 0xC0 SHL PUSH2 0x1D9C JUMP JUMPDEST PUSH32 0x7C1712B00E9EC43558B7BA14E1D6F1985FF761EADB82BB59A3CFE263BD86144D PUSH1 0x40 MLOAD PUSH1 0x40 MLOAD DUP1 SWAP2 SUB SWAP1 LOG1 POP JUMP JUMPDEST PUSH1 0xC SLOAD DUP2 JUMP JUMPDEST PUSH1 0x9 SLOAD DUP2 JUMP JUMPDEST PUSH1 0x0 PUSH2 0xB5D PUSH8 0x2FD469E2A85ECAE0 PUSH1 0xC0 SHL PUSH2 0x1D9C JUMP JUMPDEST PUSH2 0xB65 PUSH2 0x2069 JUMP JUMPDEST PUSH2 0xB79 PUSH8 0x9771949D2C0BA470 PUSH1 0xC0 SHL PUSH2 0x1D9C JUMP JUMPDEST PUSH2 0xB8D PUSH8 0x1367AB12944E0AF5 PUSH1 0xC0 SHL PUSH2 0x1D9C JUMP JUMPDEST PUSH2 0xBA1 PUSH8 0xF6B3767F262D4E35 PUSH1 0xC0 SHL PUSH2 0x1D9C JUMP JUMPDEST DUP2 PUSH1 0x8 DUP2 SWAP1 SSTORE POP PUSH2 0xBBC PUSH8 0x936EE98B322A6713 PUSH1 0xC0 SHL PUSH2 0x1D9C JUMP JUMPDEST PUSH2 0xBD0 PUSH8 0xC5F1FB62C9F30E7 PUSH1 0xC0 SHL PUSH2 0x1D9C JUMP JUMPDEST PUSH1 0x8 SLOAD SWAP1 POP SWAP2 SWAP1 POP JUMP JUMPDEST PUSH2 0xBE2 PUSH2 0x2069 JUMP JUMPDEST PUSH2 0xBEC PUSH1 0x0 PUSH2 0x20E7 JUMP JUMPDEST JUMP JUMPDEST PUSH1 0xB SLOAD DUP2 JUMP JUMPDEST PUSH1 0x0 DUP1 PUSH1 0x0 SWAP1 SLOAD SWAP1 PUSH2 0x100 EXP SWAP1 DIV PUSH20 0xFFFFFFFFFFFFFFFFFFFFFFFFFFFFFFFFFFFFFFFF AND SWAP1 POP SWAP1 JUMP JUMPDEST PUSH2 0xC31 PUSH8 0x15A32E48602CDF93 PUSH1 0xC0 SHL PUSH2 0x1D9C JUMP JUMPDEST PUSH2 0xC45 PUSH8 0x46D498D182B667E0 PUSH1 0xC0 SHL PUSH2 0x1D9C JUMP JUMPDEST PUSH2 0xC59 PUSH8 0x9171DFAE170EF3C2 PUSH1 0xC0 SHL PUSH2 0x1D9C JUMP JUMPDEST PUSH2 0xC6D PUSH8 0xE63CA31EBA7E34E1 PUSH1 0xC0 SHL PUSH2 0x1D9C JUMP JUMPDEST PUSH3 0x278D00 PUSH1 0x7 SLOAD PUSH2 0xC7E SWAP2 SWAP1 PUSH2 0x2680 JUMP JUMPDEST TIMESTAMP LT ISZERO PUSH2 0xCC0 JUMPI PUSH1 0x40 MLOAD PUSH32 0x8C379A000000000000000000000000000000000000000000000000000000000 DUP2 MSTORE PUSH1 0x4 ADD PUSH2 0xCB7 SWAP1 PUSH2 0x2818 JUMP JUMPDEST PUSH1 0x40 MLOAD DUP1 SWAP2 SUB SWAP1 REVERT JUMPDEST PUSH2 0xCD4 PUSH8 0x2A5D85F4282A8247 PUSH1 0xC0 SHL PUSH2 0x1D9C JUMP JUMPDEST PUSH2 0xCE8 PUSH8 0xF2F591C6BE0CA9C3 PUSH1 0xC0 SHL PUSH2 0x1D9C JUMP JUMPDEST PUSH2 0xCFC PUSH8 0x6F2EFDA3F0776BC5 PUSH1 0xC0 SHL PUSH2 0x1D9C JUMP JUMPDEST PUSH1 0x0 PUSH2 0xD07 DUP3 PUSH2 0x15D8 JUMP JUMPDEST SWAP1 POP PUSH2 0xD1D PUSH8 0x7D2AD71577DC44C PUSH1 0xC0 SHL PUSH2 0x1D9C JUMP JUMPDEST PUSH2 0xD31 PUSH8 0xAC163B2B5944B879 PUSH1 0xC0 SHL PUSH2 0x1D9C JUMP JUMPDEST PUSH2 0xD45 PUSH8 0x666A644C79BC54FC PUSH1 0xC0 SHL PUSH2 0x1D9C JUMP JUMPDEST PUSH1 0x0 DUP2 GT PUSH2 0xD88 JUMPI PUSH1 0x40 MLOAD PUSH32 0x8C379A000000000000000000000000000000000000000000000000000000000 DUP2 MSTORE PUSH1 0x4 ADD PUSH2 0xD7F SWAP1 PUSH2 0x2884 JUMP JUMPDEST PUSH1 0x40 MLOAD DUP1 SWAP2 SUB SWAP1 REVERT JUMPDEST PUSH2 0xD9C PUSH8 0x9C775877FC8AE0B PUSH1 0xC0 SHL PUSH2 0x1D9C JUMP JUMPDEST PUSH2 0xDB0 PUSH8 0x75C6EFE109FE86F0 PUSH1 0xC0 SHL PUSH2 0x1D9C JUMP JUMPDEST PUSH2 0xDC4 PUSH8 0x8B2DCB8926B6C0EE PUSH1 0xC0 SHL PUSH2 0x1D9C JUMP JUMPDEST PUSH1 0x0 PUSH1 0xD PUSH1 0x0 DUP5 PUSH20 0xFFFFFFFFFFFFFFFFFFFFFFFFFFFFFFFFFFFFFFFF AND PUSH20 0xFFFFFFFFFFFFFFFFFFFFFFFFFFFFFFFFFFFFFFFF AND DUP2 MSTORE PUSH1 0x20 ADD SWAP1 DUP2 MSTORE PUSH1 0x20 ADD PUSH1 0x0 KECCAK256 SLOAD SWAP1 POP PUSH2 0xE1C PUSH8 0x2E2B0405823E2E1E PUSH1 0xC0 SHL PUSH2 0x1D9C JUMP JUMPDEST PUSH2 0xE30 PUSH8 0x9020C0D040B72F13 PUSH1 0xC0 SHL PUSH2 0x1D9C JUMP JUMPDEST PUSH2 0xE44 PUSH8 0xE10604FFB18845D5 PUSH1 0xC0 SHL PUSH2 0x1D9C JUMP JUMPDEST PUSH1 0x0 DUP2 GT PUSH2 0xE87 JUMPI PUSH1 0x40 MLOAD PUSH32 0x8C379A000000000000000000000000000000000000000000000000000000000 DUP2 MSTORE PUSH1 0x4 ADD PUSH2 0xE7E SWAP1 PUSH2 0x28F0 JUMP JUMPDEST PUSH1 0x40 MLOAD DUP1 SWAP2 SUB SWAP1 REVERT JUMPDEST PUSH2 0xE9B PUSH8 0x2338349FE7FD3616 PUSH1 0xC0 SHL PUSH2 0x1D9C JUMP JUMPDEST PUSH2 0xEAF PUSH8 0xADDF5BC85ED19100 PUSH1 0xC0 SHL PUSH2 0x1D9C JUMP JUMPDEST PUSH1 0x0 PUSH1 0xD PUSH1 0x0 DUP6 PUSH20 0xFFFFFFFFFFFFFFFFFFFFFFFFFFFFFFFFFFFFFFFF AND PUSH20 0xFFFFFFFFFFFFFFFFFFFFFFFFFFFFFFFFFFFFFFFF AND DUP2 MSTORE PUSH1 0x20 ADD SWAP1 DUP2 MSTORE PUSH1 0x20 ADD PUSH1 0x0 KECCAK256 DUP2 SWAP1 SSTORE POP PUSH2 0xF08 PUSH8 0x5074A49917EC2C52 PUSH1 0xC0 SHL PUSH2 0x1D9C JUMP JUMPDEST PUSH2 0xF1C PUSH8 0x5C963152AFA656E PUSH1 0xC0 SHL PUSH2 0x1D9C JUMP JUMPDEST PUSH2 0xF24 PUSH2 0xBF4 JUMP JUMPDEST PUSH20 0xFFFFFFFFFFFFFFFFFFFFFFFFFFFFFFFFFFFFFFFF AND DUP4 PUSH20 0xFFFFFFFFFFFFFFFFFFFFFFFFFFFFFFFFFFFFFFFF AND SUB PUSH2 0xF8B JUMPI PUSH2 0xF6A PUSH8 0x8CE66D5A80DE1B82 PUSH1 0xC0 SHL PUSH2 0x1D9C JUMP JUMPDEST PUSH2 0xF7E PUSH8 0xA2CC36B68D1A5A23 PUSH1 0xC0 SHL PUSH2 0x1D9C JUMP JUMPDEST PUSH1 0x0 PUSH1 0x6 DUP2 SWAP1 SSTORE POP PUSH2 0xFA0 JUMP JUMPDEST PUSH2 0xF9F PUSH8 0xC6E6A6319612C32B PUSH1 0xC0 SHL PUSH2 0x1D9C JUMP JUMPDEST JUMPDEST PUSH2 0xFB4 PUSH8 0x373169E7807A9BD2 PUSH1 0xC0 SHL PUSH2 0x1D9C JUMP JUMPDEST PUSH2 0xFC8 PUSH8 0x7B871ED722437A9C PUSH1 0xC0 SHL PUSH2 0x1D9C JUMP JUMPDEST PUSH2 0x1015 DUP4 DUP4 PUSH1 0x5 PUSH1 0x0 SWAP1 SLOAD SWAP1 PUSH2 0x100 EXP SWAP1 DIV PUSH20 0xFFFFFFFFFFFFFFFFFFFFFFFFFFFFFFFFFFFFFFFF AND PUSH20 0xFFFFFFFFFFFFFFFFFFFFFFFFFFFFFFFFFFFFFFFF AND PUSH2 0x1FE3 SWAP1 SWAP3 SWAP2 SWAP1 PUSH4 0xFFFFFFFF AND JUMP JUMPDEST PUSH2 0x1029 PUSH8 0x1E2A61A9E80D7258 PUSH1 0xC0 SHL PUSH2 0x1D9C JUMP JUMPDEST PUSH2 0x103D PUSH8 0x38FCE0CDC44E233D PUSH1 0xC0 SHL PUSH2 0x1D9C JUMP JUMPDEST DUP3 PUSH20 0xFFFFFFFFFFFFFFFFFFFFFFFFFFFFFFFFFFFFFFFF AND PUSH32 0xE2403640BA68FED3A2F88B7557551D1993F84B99BB10FF833F0CF8DB0C5E0486 DUP4 PUSH1 0x40 MLOAD PUSH2 0x1083 SWAP2 SWAP1 PUSH2 0x2461 JUMP JUMPDEST PUSH1 0x40 MLOAD DUP1 SWAP2 SUB SWAP1 LOG2 POP POP POP JUMP JUMPDEST PUSH2 0x10A4 PUSH8 0x7EFE385ECAADDC48 PUSH1 0xC0 SHL PUSH2 0x1D9C JUMP JUMPDEST PUSH2 0x10AC PUSH2 0x2069 JUMP JUMPDEST PUSH2 0x10C0 PUSH8 0x78C73CB2881E2370 PUSH1 0xC0 SHL PUSH2 0x1D9C JUMP JUMPDEST PUSH2 0x10D4 PUSH8 0xEAF43EBC7DB66CE8 PUSH1 0xC0 SHL PUSH2 0x1D9C JUMP JUMPDEST PUSH2 0x10E8 PUSH8 0xF3760033D059B973 PUSH1 0xC0 SHL PUSH2 0x1D9C JUMP JUMPDEST PUSH2 0x10FC PUSH8 0x4564043F29CA6DA PUSH1 0xC0 SHL PUSH2 0x1D9C JUMP JUMPDEST PUSH2 0x1106 DUP3 DUP3 PUSH2 0x1D9F JUMP JUMPDEST POP POP JUMP JUMPDEST PUSH2 0x111E PUSH8 0xB073F6BD7F223024 PUSH1 0xC0 SHL PUSH2 0x1D9C JUMP JUMPDEST PUSH2 0x1132 PUSH8 0x4FD352FD6685E000 PUSH1 0xC0 SHL PUSH2 0x1D9C JUMP JUMPDEST PUSH2 0x1146 PUSH8 0x5BAC91872BAFB99B PUSH1 0xC0 SHL PUSH2 0x1D9C JUMP JUMPDEST PUSH1 0x0 PUSH1 0x2 PUSH1 0x0 SWAP1 SLOAD SWAP1 PUSH2 0x100 EXP SWAP1 DIV PUSH20 0xFFFFFFFFFFFFFFFFFFFFFFFFFFFFFFFFFFFFFFFF AND PUSH20 0xFFFFFFFFFFFFFFFFFFFFFFFFFFFFFFFFFFFFFFFF AND PUSH4 0xCE77BA62 PUSH1 0x3 PUSH1 0x0 SWAP1 SLOAD SWAP1 PUSH2 0x100 EXP SWAP1 DIV PUSH20 0xFFFFFFFFFFFFFFFFFFFFFFFFFFFFFFFFFFFFFFFF AND PUSH1 0x4 PUSH1 0x0 SWAP1 SLOAD SWAP1 PUSH2 0x100 EXP SWAP1 DIV PUSH20 0xFFFFFFFFFFFFFFFFFFFFFFFFFFFFFFFFFFFFFFFF AND DUP6 DUP8 PUSH2 0x11D8 SWAP2 SWAP1 PUSH2 0x263E JUMP JUMPDEST PUSH1 0x40 MLOAD DUP5 PUSH4 0xFFFFFFFF AND PUSH1 0xE0 SHL DUP2 MSTORE PUSH1 0x4 ADD PUSH2 0x11F6 SWAP4 SWAP3 SWAP2 SWAP1 PUSH2 0x2742 JUMP JUMPDEST PUSH1 0x20 PUSH1 0x40 MLOAD DUP1 DUP4 SUB DUP2 DUP7 GAS STATICCALL ISZERO DUP1 ISZERO PUSH2 0x1213 JUMPI RETURNDATASIZE PUSH1 0x0 DUP1 RETURNDATACOPY RETURNDATASIZE PUSH1 0x0 REVERT JUMPDEST POP POP POP POP PUSH1 0x40 MLOAD RETURNDATASIZE PUSH1 0x1F NOT PUSH1 0x1F DUP3 ADD AND DUP3 ADD DUP1 PUSH1 0x40 MSTORE POP DUP2 ADD SWAP1 PUSH2 0x1237 SWAP2 SWAP1 PUSH2 0x278E JUMP JUMPDEST SWAP1 POP PUSH2 0x124D PUSH8 0x897E6B3DB801E626 PUSH1 0xC0 SHL PUSH2 0x1D9C JUMP JUMPDEST PUSH2 0x1261 PUSH8 0xA657310B853D20D0 PUSH1 0xC0 SHL PUSH2 0x1D9C JUMP JUMPDEST PUSH1 0x1 PUSH1 0x0 SWAP1 SLOAD SWAP1 PUSH2 0x100 EXP SWAP1 DIV PUSH20 0xFFFFFFFFFFFFFFFFFFFFFFFFFFFFFFFFFFFFFFFF AND PUSH20 0xFFFFFFFFFFFFFFFFFFFFFFFFFFFFFFFFFFFFFFFF AND PUSH4 0xC5EBEAEC DUP3 PUSH1 0x40 MLOAD DUP3 PUSH4 0xFFFFFFFF AND PUSH1 0xE0 SHL DUP2 MSTORE PUSH1 0x4 ADD PUSH2 0x12BC SWAP2 SWAP1 PUSH2 0x2461 JUMP JUMPDEST PUSH1 0x0 PUSH1 0x40 MLOAD DUP1 DUP4 SUB DUP2 PUSH1 0x0 DUP8 DUP1 EXTCODESIZE ISZERO DUP1 ISZERO PUSH2 0x12D6 JUMPI PUSH1 0x0 DUP1 REVERT JUMPDEST POP GAS CALL ISZERO DUP1 ISZERO PUSH2 0x12EA JUMPI RETURNDATASIZE PUSH1 0x0 DUP1 RETURNDATACOPY RETURNDATASIZE PUSH1 0x0 REVERT JUMPDEST POP POP POP POP PUSH2 0x1302 PUSH8 0xCDEACF3445D39E1D PUSH1 0xC0 SHL PUSH2 0x1D9C JUMP JUMPDEST DUP1 PUSH1 0x9 PUSH1 0x0 DUP3 DUP3 SLOAD PUSH2 0x1314 SWAP2 SWAP1 PUSH2 0x2680 JUMP JUMPDEST SWAP3 POP POP DUP2 SWAP1 SSTORE POP PUSH2 0x132F PUSH8 0x4CAEA4846A0ECC83 PUSH1 0xC0 SHL PUSH2 0x1D9C JUMP JUMPDEST DUP3 PUSH1 0xA PUSH1 0x0 DUP3 DUP3 SLOAD PUSH2 0x1341 SWAP2 SWAP1 PUSH2 0x2680 JUMP JUMPDEST SWAP3 POP POP DUP2 SWAP1 SSTORE POP PUSH2 0x135C PUSH8 0x9E2CC0C406884A1F PUSH1 0xC0 SHL PUSH2 0x1D9C JUMP JUMPDEST PUSH2 0x1370 PUSH8 0x473968C184F1F4BE PUSH1 0xC0 SHL PUSH2 0x1D9C JUMP JUMPDEST PUSH2 0x1385 CALLER DUP4 DUP6 PUSH2 0x1380 SWAP2 SWAP1 PUSH2 0x263E JUMP JUMPDEST PUSH2 0x1D9F JUMP JUMPDEST PUSH2 0x1399 PUSH8 0xBF9A94FD777600FF PUSH1 0xC0 SHL PUSH2 0x1D9C JUMP JUMPDEST PUSH2 0x13AD PUSH8 0xEC4B5E8C3915D40 PUSH1 0xC0 SHL PUSH2 0x1D9C JUMP JUMPDEST PUSH1 0x3 PUSH1 0x0 SWAP1 SLOAD SWAP1 PUSH2 0x100 EXP SWAP1 DIV PUSH20 0xFFFFFFFFFFFFFFFFFFFFFFFFFFFFFFFFFFFFFFFF AND PUSH20 0xFFFFFFFFFFFFFFFFFFFFFFFFFFFFFFFFFFFFFFFF AND PUSH4 0x95EA7B3 PUSH1 0x2 PUSH1 0x0 SWAP1 SLOAD SWAP1 PUSH2 0x100 EXP SWAP1 DIV PUSH20 0xFFFFFFFFFFFFFFFFFFFFFFFFFFFFFFFFFFFFFFFF AND DUP4 PUSH1 0x40 MLOAD DUP4 PUSH4 0xFFFFFFFF AND PUSH1 0xE0 SHL DUP2 MSTORE PUSH1 0x4 ADD PUSH2 0x142C SWAP3 SWAP2 SWAP1 PUSH2 0x26B4 JUMP JUMPDEST PUSH1 0x20 PUSH1 0x40 MLOAD DUP1 DUP4 SUB DUP2 PUSH1 0x0 DUP8 GAS CALL ISZERO DUP1 ISZERO PUSH2 0x144B JUMPI RETURNDATASIZE PUSH1 0x0 DUP1 RETURNDATACOPY RETURNDATASIZE PUSH1 0x0 REVERT JUMPDEST POP POP POP POP PUSH1 0x40 MLOAD RETURNDATASIZE PUSH1 0x1F NOT PUSH1 0x1F DUP3 ADD AND DUP3 ADD DUP1 PUSH1 0x40 MSTORE POP DUP2 ADD SWAP1 PUSH2 0x146F SWAP2 SWAP1 PUSH2 0x2715 JUMP JUMPDEST POP PUSH2 0x1484 PUSH8 0x86EC0E303C546B42 PUSH1 0xC0 SHL PUSH2 0x1D9C JUMP JUMPDEST PUSH2 0x1498 PUSH8 0xD812285338549A55 PUSH1 0xC0 SHL PUSH2 0x1D9C JUMP JUMPDEST PUSH1 0x2 PUSH1 0x0 SWAP1 SLOAD SWAP1 PUSH2 0x100 EXP SWAP1 DIV PUSH20 0xFFFFFFFFFFFFFFFFFFFFFFFFFFFFFFFFFFFFFFFF AND PUSH20 0xFFFFFFFFFFFFFFFFFFFFFFFFFFFFFFFFFFFFFFFF AND PUSH4 0x153E66E6 PUSH1 0x3 PUSH1 0x0 SWAP1 SLOAD SWAP1 PUSH2 0x100 EXP SWAP1 DIV PUSH20 0xFFFFFFFFFFFFFFFFFFFFFFFFFFFFFFFFFFFFFFFF AND PUSH1 0x4 PUSH1 0x0 SWAP1 SLOAD SWAP1 PUSH2 0x100 EXP SWAP1 DIV PUSH20 0xFFFFFFFFFFFFFFFFFFFFFFFFFFFFFFFFFFFFFFFF AND DUP7 PUSH1 0x40 MLOAD DUP5 PUSH4 0xFFFFFFFF AND PUSH1 0xE0 SHL DUP2 MSTORE PUSH1 0x4 ADD PUSH2 0x153B SWAP4 SWAP3 SWAP2 SWAP1 PUSH2 0x2742 JUMP JUMPDEST PUSH1 0x20 PUSH1 0x40 MLOAD DUP1 DUP4 SUB DUP2 PUSH1 0x0 DUP8 GAS CALL ISZERO DUP1 ISZERO PUSH2 0x155A JUMPI RETURNDATASIZE PUSH1 0x0 DUP1 RETURNDATACOPY RETURNDATASIZE PUSH1 0x0 REVERT JUMPDEST POP POP POP POP PUSH1 0x40 MLOAD RETURNDATASIZE PUSH1 0x1F NOT PUSH1 0x1F DUP3 ADD AND DUP3 ADD DUP1 PUSH1 0x40 MSTORE POP DUP2 ADD SWAP1 PUSH2 0x157E SWAP2 SWAP1 PUSH2 0x278E JUMP JUMPDEST POP PUSH2 0x1593 PUSH8 0x5F0437F23080F1D4 PUSH1 0xC0 SHL PUSH2 0x1D9C JUMP JUMPDEST PUSH2 0x15A7 PUSH8 0x54060393F40BA7D7 PUSH1 0xC0 SHL PUSH2 0x1D9C JUMP JUMPDEST PUSH32 0x81A5C85F807906A0759335611CEB64EA789ED0196CCF836D98C9573A56582B7F PUSH1 0x40 MLOAD PUSH1 0x40 MLOAD DUP1 SWAP2 SUB SWAP1 LOG1 POP POP POP JUMP JUMPDEST PUSH1 0x0 PUSH2 0x15EE PUSH8 0xB5A72DD45E02D60B PUSH1 0xC0 SHL PUSH2 0x1D9C JUMP JUMPDEST PUSH2 0x1602 PUSH8 0x9FF7CA53AB8E3F03 PUSH1 0xC0 SHL PUSH2 0x1D9C JUMP JUMPDEST PUSH2 0x1616 PUSH8 0xAB185D3B2DDBEAE PUSH1 0xC0 SHL PUSH2 0x1D9C JUMP JUMPDEST PUSH2 0x162A PUSH8 0x87001F0EF2904970 PUSH1 0xC0 SHL PUSH2 0x1D9C JUMP JUMPDEST PUSH1 0x0 PUSH1 0x6 SLOAD GT PUSH2 0x166F JUMPI PUSH1 0x40 MLOAD PUSH32 0x8C379A000000000000000000000000000000000000000000000000000000000 DUP2 MSTORE PUSH1 0x4 ADD PUSH2 0x1666 SWAP1 PUSH2 0x295C JUMP JUMPDEST PUSH1 0x40 MLOAD DUP1 SWAP2 SUB SWAP1 REVERT JUMPDEST PUSH2 0x1683 PUSH8 0xF6ADC8560ABA0797 PUSH1 0xC0 SHL PUSH2 0x1D9C JUMP JUMPDEST PUSH2 0x1697 PUSH8 0x9F37D26688DB329 PUSH1 0xC0 SHL PUSH2 0x1D9C JUMP JUMPDEST PUSH2 0x16AB PUSH8 0x9B570B658A9136B3 PUSH1 0xC0 SHL PUSH2 0x1D9C JUMP JUMPDEST PUSH1 0x0 PUSH1 0x7 SLOAD TIMESTAMP PUSH2 0x16BB SWAP2 SWAP1 PUSH2 0x297C JUMP JUMPDEST SWAP1 POP PUSH2 0x16D1 PUSH8 0xF0432C7DAFAF1C79 PUSH1 0xC0 SHL PUSH2 0x1D9C JUMP JUMPDEST PUSH2 0x16E5 PUSH8 0x6468062FEF57B41 PUSH1 0xC0 SHL PUSH2 0x1D9C JUMP JUMPDEST PUSH1 0x0 DUP2 PUSH1 0x8 SLOAD PUSH2 0x16F5 SWAP2 SWAP1 PUSH2 0x263E JUMP JUMPDEST SWAP1 POP PUSH2 0x170B PUSH8 0xCA2A3CE2A435CE18 PUSH1 0xC0 SHL PUSH2 0x1D9C JUMP JUMPDEST PUSH2 0x171F PUSH8 0xFA1A0619DE372D78 PUSH1 0xC0 SHL PUSH2 0x1D9C JUMP JUMPDEST PUSH1 0x0 PUSH1 0xD PUSH1 0x0 DUP7 PUSH20 0xFFFFFFFFFFFFFFFFFFFFFFFFFFFFFFFFFFFFFFFF AND PUSH20 0xFFFFFFFFFFFFFFFFFFFFFFFFFFFFFFFFFFFFFFFF AND DUP2 MSTORE PUSH1 0x20 ADD SWAP1 DUP2 MSTORE PUSH1 0x20 ADD PUSH1 0x0 KECCAK256 SLOAD SWAP1 POP PUSH2 0x1777 PUSH8 0x3B206B67C25C27C1 PUSH1 0xC0 SHL PUSH2 0x1D9C JUMP JUMPDEST PUSH2 0x178B PUSH8 0xEFB7617D637023A2 PUSH1 0xC0 SHL PUSH2 0x1D9C JUMP JUMPDEST PUSH1 0x0 PUSH1 0x6 SLOAD DUP3 PUSH2 0x179B SWAP2 SWAP1 PUSH2 0x29DF JUMP JUMPDEST SWAP1 POP PUSH2 0x17B1 PUSH8 0x105A4322B68CC61A PUSH1 0xC0 SHL PUSH2 0x1D9C JUMP JUMPDEST PUSH2 0x17C5 PUSH8 0x36E176015EA58AC PUSH1 0xC0 SHL PUSH2 0x1D9C JUMP JUMPDEST DUP3 DUP2 PUSH2 0x17D1 SWAP2 SWAP1 PUSH2 0x263E JUMP JUMPDEST SWAP5 POP POP POP POP POP SWAP2 SWAP1 POP JUMP JUMPDEST PUSH2 0x17E4 PUSH2 0x2069 JUMP JUMPDEST PUSH1 0x0 PUSH20 0xFFFFFFFFFFFFFFFFFFFFFFFFFFFFFFFFFFFFFFFF AND DUP2 PUSH20 0xFFFFFFFFFFFFFFFFFFFFFFFFFFFFFFFFFFFFFFFF AND SUB PUSH2 0x1853 JUMPI PUSH1 0x40 MLOAD PUSH32 0x8C379A000000000000000000000000000000000000000000000000000000000 DUP2 MSTORE PUSH1 0x4 ADD PUSH2 0x184A SWAP1 PUSH2 0x2A82 JUMP JUMPDEST PUSH1 0x40 MLOAD DUP1 SWAP2 SUB SWAP1 REVERT JUMPDEST PUSH2 0x185C DUP2 PUSH2 0x20E7 JUMP JUMPDEST POP JUMP JUMPDEST PUSH2 0x1873 PUSH8 0xD36211FB6573A27 PUSH1 0xC0 SHL PUSH2 0x1D9C JUMP JUMPDEST PUSH2 0x1887 PUSH8 0xFAA5475FA2A3F3B7 PUSH1 0xC0 SHL PUSH2 0x1D9C JUMP JUMPDEST PUSH2 0x189B PUSH8 0xA6C8B51EB4DA0BE9 PUSH1 0xC0 SHL PUSH2 0x1D9C JUMP JUMPDEST PUSH1 0x4 PUSH1 0x0 SWAP1 SLOAD SWAP1 PUSH2 0x100 EXP SWAP1 DIV PUSH20 0xFFFFFFFFFFFFFFFFFFFFFFFFFFFFFFFFFFFFFFFF AND PUSH20 0xFFFFFFFFFFFFFFFFFFFFFFFFFFFFFFFFFFFFFFFF AND PUSH4 0x95EA7B3 PUSH1 0x2 PUSH1 0x0 SWAP1 SLOAD SWAP1 PUSH2 0x100 EXP SWAP1 DIV PUSH20 0xFFFFFFFFFFFFFFFFFFFFFFFFFFFFFFFFFFFFFFFF AND PUSH1 0xC SLOAD PUSH1 0x40 MLOAD DUP4 PUSH4 0xFFFFFFFF AND PUSH1 0xE0 SHL DUP2 MSTORE PUSH1 0x4 ADD PUSH2 0x191C SWAP3 SWAP2 SWAP1 PUSH2 0x26B4 JUMP JUMPDEST PUSH1 0x20 PUSH1 0x40 MLOAD DUP1 DUP4 SUB DUP2 PUSH1 0x0 DUP8 GAS CALL ISZERO DUP1 ISZERO PUSH2 0x193B JUMPI RETURNDATASIZE PUSH1 0x0 DUP1 RETURNDATACOPY RETURNDATASIZE PUSH1 0x0 REVERT JUMPDEST POP POP POP POP PUSH1 0x40 MLOAD RETURNDATASIZE PUSH1 0x1F NOT PUSH1 0x1F DUP3 ADD AND DUP3 ADD DUP1 PUSH1 0x40 MSTORE POP DUP2 ADD SWAP1 PUSH2 0x195F SWAP2 SWAP1 PUSH2 0x2715 JUMP JUMPDEST POP PUSH2 0x1974 PUSH8 0xA6AA3F4DF0A2A056 PUSH1 0xC0 SHL PUSH2 0x1D9C JUMP JUMPDEST PUSH2 0x1988 PUSH8 0x53CB7725AA023FFD PUSH1 0xC0 SHL PUSH2 0x1D9C JUMP JUMPDEST PUSH1 0x3 PUSH1 0x0 SWAP1 SLOAD SWAP1 PUSH2 0x100 EXP SWAP1 DIV PUSH20 0xFFFFFFFFFFFFFFFFFFFFFFFFFFFFFFFFFFFFFFFF AND PUSH20 0xFFFFFFFFFFFFFFFFFFFFFFFFFFFFFFFFFFFFFFFF AND PUSH4 0x95EA7B3 PUSH1 0x1 PUSH1 0x0 SWAP1 SLOAD SWAP1 PUSH2 0x100 EXP SWAP1 DIV PUSH20 0xFFFFFFFFFFFFFFFFFFFFFFFFFFFFFFFFFFFFFFFF AND PUSH1 0xB SLOAD PUSH1 0x40 MLOAD DUP4 PUSH4 0xFFFFFFFF AND PUSH1 0xE0 SHL DUP2 MSTORE PUSH1 0x4 ADD PUSH2 0x1A09 SWAP3 SWAP2 SWAP1 PUSH2 0x26B4 JUMP JUMPDEST PUSH1 0x20 PUSH1 0x40 MLOAD DUP1 DUP4 SUB DUP2 PUSH1 0x0 DUP8 GAS CALL ISZERO DUP1 ISZERO PUSH2 0x1A28 JUMPI RETURNDATASIZE PUSH1 0x0 DUP1 RETURNDATACOPY RETURNDATASIZE PUSH1 0x0 REVERT JUMPDEST POP POP POP POP PUSH1 0x40 MLOAD RETURNDATASIZE PUSH1 0x1F NOT PUSH1 0x1F DUP3 ADD AND DUP3 ADD DUP1 PUSH1 0x40 MSTORE POP DUP2 ADD SWAP1 PUSH2 0x1A4C SWAP2 SWAP1 PUSH2 0x2715 JUMP JUMPDEST POP PUSH2 0x1A61 PUSH8 0x71C031A678991DC2 PUSH1 0xC0 SHL PUSH2 0x1D9C JUMP JUMPDEST PUSH2 0x1A75 PUSH8 0x975FD721E11A7EB8 PUSH1 0xC0 SHL PUSH2 0x1D9C JUMP JUMPDEST PUSH1 0x1 PUSH1 0x0 SWAP1 SLOAD SWAP1 PUSH2 0x100 EXP SWAP1 DIV PUSH20 0xFFFFFFFFFFFFFFFFFFFFFFFFFFFFFFFFFFFFFFFF AND PUSH20 0xFFFFFFFFFFFFFFFFFFFFFFFFFFFFFFFFFFFFFFFF AND PUSH4 0x371FD8E6 PUSH1 0xB SLOAD PUSH1 0x40 MLOAD DUP3 PUSH4 0xFFFFFFFF AND PUSH1 0xE0 SHL DUP2 MSTORE PUSH1 0x4 ADD PUSH2 0x1AD2 SWAP2 SWAP1 PUSH2 0x2461 JUMP JUMPDEST PUSH1 0x0 PUSH1 0x40 MLOAD DUP1 DUP4 SUB DUP2 PUSH1 0x0 DUP8 DUP1 EXTCODESIZE ISZERO DUP1 ISZERO PUSH2 0x1AEC JUMPI PUSH1 0x0 DUP1 REVERT JUMPDEST POP GAS CALL ISZERO DUP1 ISZERO PUSH2 0x1B00 JUMPI RETURNDATASIZE PUSH1 0x0 DUP1 RETURNDATACOPY RETURNDATASIZE PUSH1 0x0 REVERT JUMPDEST POP POP POP POP PUSH2 0x1B18 PUSH8 0xB8DB5590F88D9A0E PUSH1 0xC0 SHL PUSH2 0x1D9C JUMP JUMPDEST PUSH1 0x0 PUSH1 0xB DUP2 SWAP1 SSTORE POP PUSH2 0x1B34 PUSH8 0xF3CBA40E81713A3D PUSH1 0xC0 SHL PUSH2 0x1D9C JUMP JUMPDEST PUSH1 0x0 PUSH1 0xC DUP2 SWAP1 SSTORE POP PUSH2 0x1B50 PUSH8 0xE265A42DB33EE16E PUSH1 0xC0 SHL PUSH2 0x1D9C JUMP JUMPDEST PUSH2 0x1B64 PUSH8 0x4B27B218D61D0CC6 PUSH1 0xC0 SHL PUSH2 0x1D9C JUMP JUMPDEST PUSH2 0x1B70 CALLER PUSH1 0xC SLOAD PUSH2 0x1D9F JUMP JUMPDEST PUSH2 0x1B84 PUSH8 0xB86A2ADA6E5D4563 PUSH1 0xC0 SHL PUSH2 0x1D9C JUMP JUMPDEST PUSH2 0x1B98 PUSH8 0x356EEBD291CA58CA PUSH1 0xC0 SHL PUSH2 0x1D9C JUMP JUMPDEST PUSH1 0x0 PUSH1 0x4 PUSH1 0x0 SWAP1 SLOAD SWAP1 PUSH2 0x100 EXP SWAP1 DIV PUSH20 0xFFFFFFFFFFFFFFFFFFFFFFFFFFFFFFFFFFFFFFFF AND PUSH20 0xFFFFFFFFFFFFFFFFFFFFFFFFFFFFFFFFFFFFFFFF AND PUSH4 0x70A08231 ADDRESS PUSH1 0x40 MLOAD DUP3 PUSH4 0xFFFFFFFF AND PUSH1 0xE0 SHL DUP2 MSTORE PUSH1 0x4 ADD PUSH2 0x1BF5 SWAP2 SWAP1 PUSH2 0x255B JUMP JUMPDEST PUSH1 0x20 PUSH1 0x40 MLOAD DUP1 DUP4 SUB DUP2 DUP7 GAS STATICCALL ISZERO DUP1 ISZERO PUSH2 0x1C12 JUMPI RETURNDATASIZE PUSH1 0x0 DUP1 RETURNDATACOPY RETURNDATASIZE PUSH1 0x0 REVERT JUMPDEST POP POP POP POP PUSH1 0x40 MLOAD RETURNDATASIZE PUSH1 0x1F NOT PUSH1 0x1F DUP3 ADD AND DUP3 ADD DUP1 PUSH1 0x40 MSTORE POP DUP2 ADD SWAP1 PUSH2 0x1C36 SWAP2 SWAP1 PUSH2 0x278E JUMP JUMPDEST SWAP1 POP PUSH2 0x1C4C PUSH8 0x2CEECE4ADAF210F1 PUSH1 0xC0 SHL PUSH2 0x1D9C JUMP JUMPDEST PUSH2 0x1C60 PUSH8 0xD317BEEC29B21882 PUSH1 0xC0 SHL PUSH2 0x1D9C JUMP JUMPDEST PUSH2 0x1CB4 PUSH2 0x1C6B PUSH2 0xBF4 JUMP JUMPDEST DUP3 PUSH1 0x4 PUSH1 0x0 SWAP1 SLOAD SWAP1 PUSH2 0x100 EXP SWAP1 DIV PUSH20 0xFFFFFFFFFFFFFFFFFFFFFFFFFFFFFFFFFFFFFFFF AND PUSH20 0xFFFFFFFFFFFFFFFFFFFFFFFFFFFFFFFFFFFFFFFF AND PUSH2 0x1FE3 SWAP1 SWAP3 SWAP2 SWAP1 PUSH4 0xFFFFFFFF AND JUMP JUMPDEST PUSH2 0x1CC8 PUSH8 0x3D957B96D30CB3A1 PUSH1 0xC0 SHL PUSH2 0x1D9C JUMP JUMPDEST PUSH2 0x1CDC PUSH8 0x5682FFB5B0BC7336 PUSH1 0xC0 SHL PUSH2 0x1D9C JUMP JUMPDEST PUSH32 0x1EACC206EAA257738210016C4B580948367FD2C683058D13FE748A663F8933D0 PUSH1 0x40 MLOAD PUSH1 0x40 MLOAD DUP1 SWAP2 SUB SWAP1 LOG1 POP JUMP JUMPDEST PUSH1 0x0 PUSH2 0x1D21 PUSH8 0xC75BDC00E9C9FC3E PUSH1 0xC0 SHL PUSH2 0x1D9C JUMP JUMPDEST PUSH2 0x1D29 PUSH2 0x2069 JUMP JUMPDEST PUSH2 0x1D3D PUSH8 0x4F27516628D4184 PUSH1 0xC0 SHL PUSH2 0x1D9C JUMP JUMPDEST PUSH2 0x1D51 PUSH8 0x51913A4E03456855 PUSH1 0xC0 SHL PUSH2 0x1D9C JUMP JUMPDEST PUSH2 0x1D65 PUSH8 0x4AE8D476160FE0C6 PUSH1 0xC0 SHL PUSH2 0x1D9C JUMP JUMPDEST DUP2 PUSH1 0x6 DUP2 SWAP1 SSTORE POP PUSH2 0x1D80 PUSH8 0xFD612EFB727A7859 PUSH1 0xC0 SHL PUSH2 0x1D9C JUMP JUMPDEST PUSH2 0x1D94 PUSH8 0xAFC61C78E225505D PUSH1 0xC0 SHL PUSH2 0x1D9C JUMP JUMPDEST DUP2 SWAP1 POP SWAP2 SWAP1 POP JUMP JUMPDEST POP JUMP JUMPDEST PUSH2 0x1DB3 PUSH8 0x894C6EB1015462B0 PUSH1 0xC0 SHL PUSH2 0x1D9C JUMP JUMPDEST PUSH2 0x1DC7 PUSH8 0x14AA1A81984884B7 PUSH1 0xC0 SHL PUSH2 0x1D9C JUMP JUMPDEST DUP1 PUSH1 0xD PUSH1 0x0 DUP5 PUSH20 0xFFFFFFFFFFFFFFFFFFFFFFFFFFFFFFFFFFFFFFFF AND PUSH20 0xFFFFFFFFFFFFFFFFFFFFFFFFFFFFFFFFFFFFFFFF AND DUP2 MSTORE PUSH1 0x20 ADD SWAP1 DUP2 MSTORE PUSH1 0x20 ADD PUSH1 0x0 KECCAK256 PUSH1 0x0 DUP3 DUP3 SLOAD PUSH2 0x1E16 SWAP2 SWAP1 PUSH2 0x2680 JUMP JUMPDEST SWAP3 POP POP DUP2 SWAP1 SSTORE POP PUSH2 0x1E31 PUSH8 0xA06AEFC56F36E3E PUSH1 0xC0 SHL PUSH2 0x1D9C JUMP JUMPDEST DUP1 PUSH1 0x6 PUSH1 0x0 DUP3 DUP3 SLOAD PUSH2 0x1E43 SWAP2 SWAP1 PUSH2 0x2680 JUMP JUMPDEST SWAP3 POP POP DUP2 SWAP1 SSTORE POP PUSH2 0x1E5E PUSH8 0x2600F4A176DD0150 PUSH1 0xC0 SHL PUSH2 0x1D9C JUMP JUMPDEST PUSH2 0x1E72 PUSH8 0x23BADB61CC115D6C PUSH1 0xC0 SHL PUSH2 0x1D9C JUMP JUMPDEST PUSH3 0x278D00 PUSH1 0x7 SLOAD PUSH2 0x1E83 SWAP2 SWAP1 PUSH2 0x2680 JUMP JUMPDEST TIMESTAMP GT ISZERO PUSH2 0x1F33 JUMPI PUSH2 0x1E9E PUSH8 0x6309FAA636CC16E6 PUSH1 0xC0 SHL PUSH2 0x1D9C JUMP JUMPDEST PUSH2 0x1EB2 PUSH8 0x4968E43691B6C957 PUSH1 0xC0 SHL PUSH2 0x1D9C JUMP JUMPDEST TIMESTAMP PUSH1 0x7 DUP2 SWAP1 SSTORE POP PUSH2 0x1ECD PUSH8 0xE1DD4FE6DD5AAE3C PUSH1 0xC0 SHL PUSH2 0x1D9C JUMP JUMPDEST PUSH1 0x0 PUSH1 0xD PUSH1 0x0 DUP5 PUSH20 0xFFFFFFFFFFFFFFFFFFFFFFFFFFFFFFFFFFFFFFFF AND PUSH20 0xFFFFFFFFFFFFFFFFFFFFFFFFFFFFFFFFFFFFFFFF AND DUP2 MSTORE PUSH1 0x20 ADD SWAP1 DUP2 MSTORE PUSH1 0x20 ADD PUSH1 0x0 KECCAK256 DUP2 SWAP1 SSTORE POP PUSH2 0x1F26 PUSH8 0x8105CB1BA4CFE313 PUSH1 0xC0 SHL PUSH2 0x1D9C JUMP JUMPDEST PUSH1 0x0 PUSH1 0x6 DUP2 SWAP1 SSTORE POP PUSH2 0x1FDF JUMP JUMPDEST PUSH2 0x1F47 PUSH8 0x7EB2BDF330F07D5B PUSH1 0xC0 SHL PUSH2 0x1D9C JUMP JUMPDEST PUSH2 0x1F5B PUSH8 0xF2CC659182F6ABFA PUSH1 0xC0 SHL PUSH2 0x1D9C JUMP JUMPDEST DUP1 PUSH1 0xD PUSH1 0x0 DUP5 PUSH20 0xFFFFFFFFFFFFFFFFFFFFFFFFFFFFFFFFFFFFFFFF AND PUSH20 0xFFFFFFFFFFFFFFFFFFFFFFFFFFFFFFFFFFFFFFFF AND DUP2 MSTORE PUSH1 0x20 ADD SWAP1 DUP2 MSTORE PUSH1 0x20 ADD PUSH1 0x0 KECCAK256 PUSH1 0x0 DUP3 DUP3 SLOAD PUSH2 0x1FAA SWAP2 SWAP1 PUSH2 0x2680 JUMP JUMPDEST SWAP3 POP POP DUP2 SWAP1 SSTORE POP PUSH2 0x1FC5 PUSH8 0xD605F88BB1CE2D7E PUSH1 0xC0 SHL PUSH2 0x1D9C JUMP JUMPDEST DUP1 PUSH1 0x6 PUSH1 0x0 DUP3 DUP3 SLOAD PUSH2 0x1FD7 SWAP2 SWAP1 PUSH2 0x2680 JUMP JUMPDEST SWAP3 POP POP DUP2 SWAP1 SSTORE POP JUMPDEST POP POP JUMP JUMPDEST PUSH2 0x2064 DUP4 PUSH4 0xA9059CBB PUSH1 0xE0 SHL DUP5 DUP5 PUSH1 0x40 MLOAD PUSH1 0x24 ADD PUSH2 0x2002 SWAP3 SWAP2 SWAP1 PUSH2 0x26B4 JUMP JUMPDEST PUSH1 0x40 MLOAD PUSH1 0x20 DUP2 DUP4 SUB SUB DUP2 MSTORE SWAP1 PUSH1 0x40 MSTORE SWAP1 PUSH28 0xFFFFFFFFFFFFFFFFFFFFFFFFFFFFFFFFFFFFFFFFFFFFFFFFFFFFFFFF NOT AND PUSH1 0x20 DUP3 ADD DUP1 MLOAD PUSH28 0xFFFFFFFFFFFFFFFFFFFFFFFFFFFFFFFFFFFFFFFFFFFFFFFFFFFFFFFF DUP4 DUP2 DUP4 AND OR DUP4 MSTORE POP POP POP POP PUSH2 0x21AB JUMP JUMPDEST POP POP POP JUMP JUMPDEST PUSH2 0x2071 PUSH2 0x2273 JUMP JUMPDEST PUSH20 0xFFFFFFFFFFFFFFFFFFFFFFFFFFFFFFFFFFFFFFFF AND PUSH2 0x208F PUSH2 0xBF4 JUMP JUMPDEST PUSH20 0xFFFFFFFFFFFFFFFFFFFFFFFFFFFFFFFFFFFFFFFF AND EQ PUSH2 0x20E5 JUMPI PUSH1 0x40 MLOAD PUSH32 0x8C379A000000000000000000000000000000000000000000000000000000000 DUP2 MSTORE PUSH1 0x4 ADD PUSH2 0x20DC SWAP1 PUSH2 0x2AEE JUMP JUMPDEST PUSH1 0x40 MLOAD DUP1 SWAP2 SUB SWAP1 REVERT JUMPDEST JUMP JUMPDEST PUSH1 0x0 DUP1 PUSH1 0x0 SWAP1 SLOAD SWAP1 PUSH2 0x100 EXP SWAP1 DIV PUSH20 0xFFFFFFFFFFFFFFFFFFFFFFFFFFFFFFFFFFFFFFFF AND SWAP1 POP DUP2 PUSH1 0x0 DUP1 PUSH2 0x100 EXP DUP2 SLOAD DUP2 PUSH20 0xFFFFFFFFFFFFFFFFFFFFFFFFFFFFFFFFFFFFFFFF MUL NOT AND SWAP1 DUP4 PUSH20 0xFFFFFFFFFFFFFFFFFFFFFFFFFFFFFFFFFFFFFFFF AND MUL OR SWAP1 SSTORE POP DUP2 PUSH20 0xFFFFFFFFFFFFFFFFFFFFFFFFFFFFFFFFFFFFFFFF AND DUP2 PUSH20 0xFFFFFFFFFFFFFFFFFFFFFFFFFFFFFFFFFFFFFFFF AND PUSH32 0x8BE0079C531659141344CD1FD0A4F28419497F9722A3DAAFE3B4186F6B6457E0 PUSH1 0x40 MLOAD PUSH1 0x40 MLOAD DUP1 SWAP2 SUB SWAP1 LOG3 POP POP JUMP JUMPDEST PUSH1 0x0 PUSH2 0x220D DUP3 PUSH1 0x40 MLOAD DUP1 PUSH1 0x40 ADD PUSH1 0x40 MSTORE DUP1 PUSH1 0x20 DUP2 MSTORE PUSH1 0x20 ADD PUSH32 0x5361666545524332303A206C6F772D6C6576656C2063616C6C206661696C6564 DUP2 MSTORE POP DUP6 PUSH20 0xFFFFFFFFFFFFFFFFFFFFFFFFFFFFFFFFFFFFFFFF AND PUSH2 0x227B SWAP1 SWAP3 SWAP2 SWAP1 PUSH4 0xFFFFFFFF AND JUMP JUMPDEST SWAP1 POP PUSH1 0x0 DUP2 MLOAD EQ DUP1 PUSH2 0x222F JUMPI POP DUP1 DUP1 PUSH1 0x20 ADD SWAP1 MLOAD DUP2 ADD SWAP1 PUSH2 0x222E SWAP2 SWAP1 PUSH2 0x2715 JUMP JUMPDEST JUMPDEST PUSH2 0x226E JUMPI PUSH1 0x40 MLOAD PUSH32 0x8C379A000000000000000000000000000000000000000000000000000000000 DUP2 MSTORE PUSH1 0x4 ADD PUSH2 0x2265 SWAP1 PUSH2 0x2B80 JUMP JUMPDEST PUSH1 0x40 MLOAD DUP1 SWAP2 SUB SWAP1 REVERT JUMPDEST POP POP POP JUMP JUMPDEST PUSH1 0x0 CALLER SWAP1 POP SWAP1 JUMP JUMPDEST PUSH1 0x60 PUSH2 0x228A DUP5 DUP5 PUSH1 0x0 DUP6 PUSH2 0x2293 JUMP JUMPDEST SWAP1 POP SWAP4 SWAP3 POP POP POP JUMP JUMPDEST PUSH1 0x60 DUP3 SELFBALANCE LT ISZERO PUSH2 0x22D8 JUMPI PUSH1 0x40 MLOAD PUSH32 0x8C379A000000000000000000000000000000000000000000000000000000000 DUP2 MSTORE PUSH1 0x4 ADD PUSH2 0x22CF SWAP1 PUSH2 0x2C12 JUMP JUMPDEST PUSH1 0x40 MLOAD DUP1 SWAP2 SUB SWAP1 REVERT JUMPDEST PUSH1 0x0 DUP1 DUP7 PUSH20 0xFFFFFFFFFFFFFFFFFFFFFFFFFFFFFFFFFFFFFFFF AND DUP6 DUP8 PUSH1 0x40 MLOAD PUSH2 0x2301 SWAP2 SWAP1 PUSH2 0x2CA3 JUMP JUMPDEST PUSH1 0x0 PUSH1 0x40 MLOAD DUP1 DUP4 SUB DUP2 DUP6 DUP8 GAS CALL SWAP3 POP POP POP RETURNDATASIZE DUP1 PUSH1 0x0 DUP2 EQ PUSH2 0x233E JUMPI PUSH1 0x40 MLOAD SWAP2 POP PUSH1 0x1F NOT PUSH1 0x3F RETURNDATASIZE ADD AND DUP3 ADD PUSH1 0x40 MSTORE RETURNDATASIZE DUP3 MSTORE RETURNDATASIZE PUSH1 0x0 PUSH1 0x20 DUP5 ADD RETURNDATACOPY PUSH2 0x2343 JUMP JUMPDEST PUSH1 0x60 SWAP2 POP JUMPDEST POP SWAP2 POP SWAP2 POP PUSH2 0x2354 DUP8 DUP4 DUP4 DUP8 PUSH2 0x2360 JUMP JUMPDEST SWAP3 POP POP POP SWAP5 SWAP4 POP POP POP POP JUMP JUMPDEST PUSH1 0x60 DUP4 ISZERO PUSH2 0x23C2 JUMPI PUSH1 0x0 DUP4 MLOAD SUB PUSH2 0x23BA JUMPI PUSH2 0x237A DUP6 PUSH2 0x23D5 JUMP JUMPDEST PUSH2 0x23B9 JUMPI PUSH1 0x40 MLOAD PUSH32 0x8C379A000000000000000000000000000000000000000000000000000000000 DUP2 MSTORE PUSH1 0x4 ADD PUSH2 0x23B0 SWAP1 PUSH2 0x2D06 JUMP JUMPDEST PUSH1 0x40 MLOAD DUP1 SWAP2 SUB SWAP1 REVERT JUMPDEST JUMPDEST DUP3 SWAP1 POP PUSH2 0x23CD JUMP JUMPDEST PUSH2 0x23CC DUP4 DUP4 PUSH2 0x23F8 JUMP JUMPDEST JUMPDEST SWAP5 SWAP4 POP POP POP POP JUMP JUMPDEST PUSH1 0x0 DUP1 DUP3 PUSH20 0xFFFFFFFFFFFFFFFFFFFFFFFFFFFFFFFFFFFFFFFF AND EXTCODESIZE GT SWAP1 POP SWAP2 SWAP1 POP JUMP JUMPDEST PUSH1 0x0 DUP3 MLOAD GT ISZERO PUSH2 0x240B JUMPI DUP2 MLOAD DUP1 DUP4 PUSH1 0x20 ADD REVERT JUMPDEST DUP1 PUSH1 0x40 MLOAD PUSH32 0x8C379A000000000000000000000000000000000000000000000000000000000 DUP2 MSTORE PUSH1 0x4 ADD PUSH2 0x243F SWAP2 SWAP1 PUSH2 0x2D7B JUMP JUMPDEST PUSH1 0x40 MLOAD DUP1 SWAP2 SUB SWAP1 REVERT JUMPDEST PUSH1 0x0 DUP2 SWAP1 POP SWAP2 SWAP1 POP JUMP JUMPDEST PUSH2 0x245B DUP2 PUSH2 0x2448 JUMP JUMPDEST DUP3 MSTORE POP POP JUMP JUMPDEST PUSH1 0x0 PUSH1 0x20 DUP3 ADD SWAP1 POP PUSH2 0x2476 PUSH1 0x0 DUP4 ADD DUP5 PUSH2 0x2452 JUMP JUMPDEST SWAP3 SWAP2 POP POP JUMP JUMPDEST PUSH1 0x0 DUP1 REVERT JUMPDEST PUSH2 0x248A DUP2 PUSH2 0x2448 JUMP JUMPDEST DUP2 EQ PUSH2 0x2495 JUMPI PUSH1 0x0 DUP1 REVERT JUMPDEST POP JUMP JUMPDEST PUSH1 0x0 DUP2 CALLDATALOAD SWAP1 POP PUSH2 0x24A7 DUP2 PUSH2 0x2481 JUMP JUMPDEST SWAP3 SWAP2 POP POP JUMP JUMPDEST PUSH1 0x0 DUP1 PUSH1 0x40 DUP4 DUP6 SUB SLT ISZERO PUSH2 0x24C4 JUMPI PUSH2 0x24C3 PUSH2 0x247C JUMP JUMPDEST JUMPDEST PUSH1 0x0 PUSH2 0x24D2 DUP6 DUP3 DUP7 ADD PUSH2 0x2498 JUMP JUMPDEST SWAP3 POP POP PUSH1 0x20 PUSH2 0x24E3 DUP6 DUP3 DUP7 ADD PUSH2 0x2498 JUMP JUMPDEST SWAP2 POP POP SWAP3 POP SWAP3 SWAP1 POP JUMP JUMPDEST PUSH1 0x0 PUSH1 0x20 DUP3 DUP5 SUB SLT ISZERO PUSH2 0x2503 JUMPI PUSH2 0x2502 PUSH2 0x247C JUMP JUMPDEST JUMPDEST PUSH1 0x0 PUSH2 0x2511 DUP5 DUP3 DUP6 ADD PUSH2 0x2498 JUMP JUMPDEST SWAP2 POP POP SWAP3 SWAP2 POP POP JUMP JUMPDEST PUSH1 0x0 PUSH20 0xFFFFFFFFFFFFFFFFFFFFFFFFFFFFFFFFFFFFFFFF DUP3 AND SWAP1 POP SWAP2 SWAP1 POP JUMP JUMPDEST PUSH1 0x0 PUSH2 0x2545 DUP3 PUSH2 0x251A JUMP JUMPDEST SWAP1 POP SWAP2 SWAP1 POP JUMP JUMPDEST PUSH2 0x2555 DUP2 PUSH2 0x253A JUMP JUMPDEST DUP3 MSTORE POP POP JUMP JUMPDEST PUSH1 0x0 PUSH1 0x20 DUP3 ADD SWAP1 POP PUSH2 0x2570 PUSH1 0x0 DUP4 ADD DUP5 PUSH2 0x254C JUMP JUMPDEST SWAP3 SWAP2 POP POP JUMP JUMPDEST PUSH2 0x257F DUP2 PUSH2 0x253A JUMP JUMPDEST DUP2 EQ PUSH2 0x258A JUMPI PUSH1 0x0 DUP1 REVERT JUMPDEST POP JUMP JUMPDEST PUSH1 0x0 DUP2 CALLDATALOAD SWAP1 POP PUSH2 0x259C DUP2 PUSH2 0x2576 JUMP JUMPDEST SWAP3 SWAP2 POP POP JUMP JUMPDEST PUSH1 0x0 PUSH1 0x20 DUP3 DUP5 SUB SLT ISZERO PUSH2 0x25B8 JUMPI PUSH2 0x25B7 PUSH2 0x247C JUMP JUMPDEST JUMPDEST PUSH1 0x0 PUSH2 0x25C6 DUP5 DUP3 DUP6 ADD PUSH2 0x258D JUMP JUMPDEST SWAP2 POP POP SWAP3 SWAP2 POP POP JUMP JUMPDEST PUSH1 0x0 DUP1 PUSH1 0x40 DUP4 DUP6 SUB SLT ISZERO PUSH2 0x25E6 JUMPI PUSH2 0x25E5 PUSH2 0x247C JUMP JUMPDEST JUMPDEST PUSH1 0x0 PUSH2 0x25F4 DUP6 DUP3 DUP7 ADD PUSH2 0x258D JUMP JUMPDEST SWAP3 POP POP PUSH1 0x20 PUSH2 0x2605 DUP6 DUP3 DUP7 ADD PUSH2 0x2498 JUMP JUMPDEST SWAP2 POP POP SWAP3 POP SWAP3 SWAP1 POP JUMP JUMPDEST PUSH32 0x4E487B7100000000000000000000000000000000000000000000000000000000 PUSH1 0x0 MSTORE PUSH1 0x11 PUSH1 0x4 MSTORE PUSH1 0x24 PUSH1 0x0 REVERT JUMPDEST PUSH1 0x0 PUSH2 0x2649 DUP3 PUSH2 0x2448 JUMP JUMPDEST SWAP2 POP PUSH2 0x2654 DUP4 PUSH2 0x2448 JUMP JUMPDEST SWAP3 POP DUP3 DUP3 MUL PUSH2 0x2662 DUP2 PUSH2 0x2448 JUMP JUMPDEST SWAP2 POP DUP3 DUP3 DIV DUP5 EQ DUP4 ISZERO OR PUSH2 0x2679 JUMPI PUSH2 0x2678 PUSH2 0x260F JUMP JUMPDEST JUMPDEST POP SWAP3 SWAP2 POP POP JUMP JUMPDEST PUSH1 0x0 PUSH2 0x268B DUP3 PUSH2 0x2448 JUMP JUMPDEST SWAP2 POP PUSH2 0x2696 DUP4 PUSH2 0x2448 JUMP JUMPDEST SWAP3 POP DUP3 DUP3 ADD SWAP1 POP DUP1 DUP3 GT ISZERO PUSH2 0x26AE JUMPI PUSH2 0x26AD PUSH2 0x260F JUMP JUMPDEST JUMPDEST SWAP3 SWAP2 POP POP JUMP JUMPDEST PUSH1 0x0 PUSH1 0x40 DUP3 ADD SWAP1 POP PUSH2 0x26C9 PUSH1 0x0 DUP4 ADD DUP6 PUSH2 0x254C JUMP JUMPDEST PUSH2 0x26D6 PUSH1 0x20 DUP4 ADD DUP5 PUSH2 0x2452 JUMP JUMPDEST SWAP4 SWAP3 POP POP POP JUMP JUMPDEST PUSH1 0x0 DUP2 ISZERO ISZERO SWAP1 POP SWAP2 SWAP1 POP JUMP JUMPDEST PUSH2 0x26F2 DUP2 PUSH2 0x26DD JUMP JUMPDEST DUP2 EQ PUSH2 0x26FD JUMPI PUSH1 0x0 DUP1 REVERT JUMPDEST POP JUMP JUMPDEST PUSH1 0x0 DUP2 MLOAD SWAP1 POP PUSH2 0x270F DUP2 PUSH2 0x26E9 JUMP JUMPDEST SWAP3 SWAP2 POP POP JUMP JUMPDEST PUSH1 0x0 PUSH1 0x20 DUP3 DUP5 SUB SLT ISZERO PUSH2 0x272B JUMPI PUSH2 0x272A PUSH2 0x247C JUMP JUMPDEST JUMPDEST PUSH1 0x0 PUSH2 0x2739 DUP5 DUP3 DUP6 ADD PUSH2 0x2700 JUMP JUMPDEST SWAP2 POP POP SWAP3 SWAP2 POP POP JUMP JUMPDEST PUSH1 0x0 PUSH1 0x60 DUP3 ADD SWAP1 POP PUSH2 0x2757 PUSH1 0x0 DUP4 ADD DUP7 PUSH2 0x254C JUMP JUMPDEST PUSH2 0x2764 PUSH1 0x20 DUP4 ADD DUP6 PUSH2 0x254C JUMP JUMPDEST PUSH2 0x2771 PUSH1 0x40 DUP4 ADD DUP5 PUSH2 0x2452 JUMP JUMPDEST SWAP5 SWAP4 POP POP POP POP JUMP JUMPDEST PUSH1 0x0 DUP2 MLOAD SWAP1 POP PUSH2 0x2788 DUP2 PUSH2 0x2481 JUMP JUMPDEST SWAP3 SWAP2 POP POP JUMP JUMPDEST PUSH1 0x0 PUSH1 0x20 DUP3 DUP5 SUB SLT ISZERO PUSH2 0x27A4 JUMPI PUSH2 0x27A3 PUSH2 0x247C JUMP JUMPDEST JUMPDEST PUSH1 0x0 PUSH2 0x27B2 DUP5 DUP3 DUP6 ADD PUSH2 0x2779 JUMP JUMPDEST SWAP2 POP POP SWAP3 SWAP2 POP POP JUMP JUMPDEST PUSH1 0x0 DUP3 DUP3 MSTORE PUSH1 0x20 DUP3 ADD SWAP1 POP SWAP3 SWAP2 POP POP JUMP JUMPDEST PUSH32 0x52657761726420706572696F6420686173206E6F7420656E6465642079657400 PUSH1 0x0 DUP3 ADD MSTORE POP JUMP JUMPDEST PUSH1 0x0 PUSH2 0x2802 PUSH1 0x1F DUP4 PUSH2 0x27BB JUMP JUMPDEST SWAP2 POP PUSH2 0x280D DUP3 PUSH2 0x27CC JUMP JUMPDEST PUSH1 0x20 DUP3 ADD SWAP1 POP SWAP2 SWAP1 POP JUMP JUMPDEST PUSH1 0x0 PUSH1 0x20 DUP3 ADD SWAP1 POP DUP2 DUP2 SUB PUSH1 0x0 DUP4 ADD MSTORE PUSH2 0x2831 DUP2 PUSH2 0x27F5 JUMP JUMPDEST SWAP1 POP SWAP2 SWAP1 POP JUMP JUMPDEST PUSH32 0x4E6F2072657761726420666F72207468697320706572696F6400000000000000 PUSH1 0x0 DUP3 ADD MSTORE POP JUMP JUMPDEST PUSH1 0x0 PUSH2 0x286E PUSH1 0x19 DUP4 PUSH2 0x27BB JUMP JUMPDEST SWAP2 POP PUSH2 0x2879 DUP3 PUSH2 0x2838 JUMP JUMPDEST PUSH1 0x20 DUP3 ADD SWAP1 POP SWAP2 SWAP1 POP JUMP JUMPDEST PUSH1 0x0 PUSH1 0x20 DUP3 ADD SWAP1 POP DUP2 DUP2 SUB PUSH1 0x0 DUP4 ADD MSTORE PUSH2 0x289D DUP2 PUSH2 0x2861 JUMP JUMPDEST SWAP1 POP SWAP2 SWAP1 POP JUMP JUMPDEST PUSH32 0x54726164696E6720766F6C756D65206E6F742079657400000000000000000000 PUSH1 0x0 DUP3 ADD MSTORE POP JUMP JUMPDEST PUSH1 0x0 PUSH2 0x28DA PUSH1 0x16 DUP4 PUSH2 0x27BB JUMP JUMPDEST SWAP2 POP PUSH2 0x28E5 DUP3 PUSH2 0x28A4 JUMP JUMPDEST PUSH1 0x20 DUP3 ADD SWAP1 POP SWAP2 SWAP1 POP JUMP JUMPDEST PUSH1 0x0 PUSH1 0x20 DUP3 ADD SWAP1 POP DUP2 DUP2 SUB PUSH1 0x0 DUP4 ADD MSTORE PUSH2 0x2909 DUP2 PUSH2 0x28CD JUMP JUMPDEST SWAP1 POP SWAP2 SWAP1 POP JUMP JUMPDEST PUSH32 0x4D61726B657420766F6C756D65206973207A65726F0000000000000000000000 PUSH1 0x0 DUP3 ADD MSTORE POP JUMP JUMPDEST PUSH1 0x0 PUSH2 0x2946 PUSH1 0x15 DUP4 PUSH2 0x27BB JUMP JUMPDEST SWAP2 POP PUSH2 0x2951 DUP3 PUSH2 0x2910 JUMP JUMPDEST PUSH1 0x20 DUP3 ADD SWAP1 POP SWAP2 SWAP1 POP JUMP JUMPDEST PUSH1 0x0 PUSH1 0x20 DUP3 ADD SWAP1 POP DUP2 DUP2 SUB PUSH1 0x0 DUP4 ADD MSTORE PUSH2 0x2975 DUP2 PUSH2 0x2939 JUMP JUMPDEST SWAP1 POP SWAP2 SWAP1 POP JUMP JUMPDEST PUSH1 0x0 PUSH2 0x2987 DUP3 PUSH2 0x2448 JUMP JUMPDEST SWAP2 POP PUSH2 0x2992 DUP4 PUSH2 0x2448 JUMP JUMPDEST SWAP3 POP DUP3 DUP3 SUB SWAP1 POP DUP2 DUP2 GT ISZERO PUSH2 0x29AA JUMPI PUSH2 0x29A9 PUSH2 0x260F JUMP JUMPDEST JUMPDEST SWAP3 SWAP2 POP POP JUMP JUMPDEST PUSH32 0x4E487B7100000000000000000000000000000000000000000000000000000000 PUSH1 0x0 MSTORE PUSH1 0x12 PUSH1 0x4 MSTORE PUSH1 0x24 PUSH1 0x0 REVERT JUMPDEST PUSH1 0x0 PUSH2 0x29EA DUP3 PUSH2 0x2448 JUMP JUMPDEST SWAP2 POP PUSH2 0x29F5 DUP4 PUSH2 0x2448 JUMP JUMPDEST SWAP3 POP DUP3 PUSH2 0x2A05 JUMPI PUSH2 0x2A04 PUSH2 0x29B0 JUMP JUMPDEST JUMPDEST DUP3 DUP3 DIV SWAP1 POP SWAP3 SWAP2 POP POP JUMP JUMPDEST PUSH32 0x4F776E61626C653A206E6577206F776E657220697320746865207A65726F2061 PUSH1 0x0 DUP3 ADD MSTORE PUSH32 0x6464726573730000000000000000000000000000000000000000000000000000 PUSH1 0x20 DUP3 ADD MSTORE POP JUMP JUMPDEST PUSH1 0x0 PUSH2 0x2A6C PUSH1 0x26 DUP4 PUSH2 0x27BB JUMP JUMPDEST SWAP2 POP PUSH2 0x2A77 DUP3 PUSH2 0x2A10 JUMP JUMPDEST PUSH1 0x40 DUP3 ADD SWAP1 POP SWAP2 SWAP1 POP JUMP JUMPDEST PUSH1 0x0 PUSH1 0x20 DUP3 ADD SWAP1 POP DUP2 DUP2 SUB PUSH1 0x0 DUP4 ADD MSTORE PUSH2 0x2A9B DUP2 PUSH2 0x2A5F JUMP JUMPDEST SWAP1 POP SWAP2 SWAP1 POP JUMP JUMPDEST PUSH32 0x4F776E61626C653A2063616C6C6572206973206E6F7420746865206F776E6572 PUSH1 0x0 DUP3 ADD MSTORE POP JUMP JUMPDEST PUSH1 0x0 PUSH2 0x2AD8 PUSH1 0x20 DUP4 PUSH2 0x27BB JUMP JUMPDEST SWAP2 POP PUSH2 0x2AE3 DUP3 PUSH2 0x2AA2 JUMP JUMPDEST PUSH1 0x20 DUP3 ADD SWAP1 POP SWAP2 SWAP1 POP JUMP JUMPDEST PUSH1 0x0 PUSH1 0x20 DUP3 ADD SWAP1 POP DUP2 DUP2 SUB PUSH1 0x0 DUP4 ADD MSTORE PUSH2 0x2B07 DUP2 PUSH2 0x2ACB JUMP JUMPDEST SWAP1 POP SWAP2 SWAP1 POP JUMP JUMPDEST PUSH32 0x5361666545524332303A204552433230206F7065726174696F6E20646964206E PUSH1 0x0 DUP3 ADD MSTORE PUSH32 0x6F74207375636365656400000000000000000000000000000000000000000000 PUSH1 0x20 DUP3 ADD MSTORE POP JUMP JUMPDEST PUSH1 0x0 PUSH2 0x2B6A PUSH1 0x2A DUP4 PUSH2 0x27BB JUMP JUMPDEST SWAP2 POP PUSH2 0x2B75 DUP3 PUSH2 0x2B0E JUMP JUMPDEST PUSH1 0x40 DUP3 ADD SWAP1 POP SWAP2 SWAP1 POP JUMP JUMPDEST PUSH1 0x0 PUSH1 0x20 DUP3 ADD SWAP1 POP DUP2 DUP2 SUB PUSH1 0x0 DUP4 ADD MSTORE PUSH2 0x2B99 DUP2 PUSH2 0x2B5D JUMP JUMPDEST SWAP1 POP SWAP2 SWAP1 POP JUMP JUMPDEST PUSH32 0x416464726573733A20696E73756666696369656E742062616C616E636520666F PUSH1 0x0 DUP3 ADD MSTORE PUSH32 0x722063616C6C0000000000000000000000000000000000000000000000000000 PUSH1 0x20 DUP3 ADD MSTORE POP JUMP JUMPDEST PUSH1 0x0 PUSH2 0x2BFC PUSH1 0x26 DUP4 PUSH2 0x27BB JUMP JUMPDEST SWAP2 POP PUSH2 0x2C07 DUP3 PUSH2 0x2BA0 JUMP JUMPDEST PUSH1 0x40 DUP3 ADD SWAP1 POP SWAP2 SWAP1 POP JUMP JUMPDEST PUSH1 0x0 PUSH1 0x20 DUP3 ADD SWAP1 POP DUP2 DUP2 SUB PUSH1 0x0 DUP4 ADD MSTORE PUSH2 0x2C2B DUP2 PUSH2 0x2BEF JUMP JUMPDEST SWAP1 POP SWAP2 SWAP1 POP JUMP JUMPDEST PUSH1 0x0 DUP2 MLOAD SWAP1 POP SWAP2 SWAP1 POP JUMP JUMPDEST PUSH1 0x0 DUP2 SWAP1 POP SWAP3 SWAP2 POP POP JUMP JUMPDEST PUSH1 0x0 JUMPDEST DUP4 DUP2 LT ISZERO PUSH2 0x2C66 JUMPI DUP1 DUP3 ADD MLOAD DUP2 DUP5 ADD MSTORE PUSH1 0x20 DUP2 ADD SWAP1 POP PUSH2 0x2C4B JUMP JUMPDEST PUSH1 0x0 DUP5 DUP5 ADD MSTORE POP POP POP POP JUMP JUMPDEST PUSH1 0x0 PUSH2 0x2C7D DUP3 PUSH2 0x2C32 JUMP JUMPDEST PUSH2 0x2C87 DUP2 DUP6 PUSH2 0x2C3D JUMP JUMPDEST SWAP4 POP PUSH2 0x2C97 DUP2 DUP6 PUSH1 0x20 DUP7 ADD PUSH2 0x2C48 JUMP JUMPDEST DUP1 DUP5 ADD SWAP2 POP POP SWAP3 SWAP2 POP POP JUMP JUMPDEST PUSH1 0x0 PUSH2 0x2CAF DUP3 DUP5 PUSH2 0x2C72 JUMP JUMPDEST SWAP2 POP DUP2 SWAP1 POP SWAP3 SWAP2 POP POP JUMP JUMPDEST PUSH32 0x416464726573733A2063616C6C20746F206E6F6E2D636F6E7472616374000000 PUSH1 0x0 DUP3 ADD MSTORE POP JUMP JUMPDEST PUSH1 0x0 PUSH2 0x2CF0 PUSH1 0x1D DUP4 PUSH2 0x27BB JUMP JUMPDEST SWAP2 POP PUSH2 0x2CFB DUP3 PUSH2 0x2CBA JUMP JUMPDEST PUSH1 0x20 DUP3 ADD SWAP1 POP SWAP2 SWAP1 POP JUMP JUMPDEST PUSH1 0x0 PUSH1 0x20 DUP3 ADD SWAP1 POP DUP2 DUP2 SUB PUSH1 0x0 DUP4 ADD MSTORE PUSH2 0x2D1F DUP2 PUSH2 0x2CE3 JUMP JUMPDEST SWAP1 POP SWAP2 SWAP1 POP JUMP JUMPDEST PUSH1 0x0 DUP2 MLOAD SWAP1 POP SWAP2 SWAP1 POP JUMP JUMPDEST PUSH1 0x0 PUSH1 0x1F NOT PUSH1 0x1F DUP4 ADD AND SWAP1 POP SWAP2 SWAP1 POP JUMP JUMPDEST PUSH1 0x0 PUSH2 0x2D4D DUP3 PUSH2 0x2D26 JUMP JUMPDEST PUSH2 0x2D57 DUP2 DUP6 PUSH2 0x27BB JUMP JUMPDEST SWAP4 POP PUSH2 0x2D67 DUP2 DUP6 PUSH1 0x20 DUP7 ADD PUSH2 0x2C48 JUMP JUMPDEST PUSH2 0x2D70 DUP2 PUSH2 0x2D31 JUMP JUMPDEST DUP5 ADD SWAP2 POP POP SWAP3 SWAP2 POP POP JUMP JUMPDEST PUSH1 0x0 PUSH1 0x20 DUP3 ADD SWAP1 POP DUP2 DUP2 SUB PUSH1 0x0 DUP4 ADD MSTORE PUSH2 0x2D95 DUP2 DUP5 PUSH2 0x2D42 JUMP JUMPDEST SWAP1 POP SWAP3 SWAP2 POP POP JUMP INVALID LOG2 PUSH5 0x6970667358 0x22 SLT KECCAK256 PUSH21 0x846F2DDB81A76AD16EAF4D15A846D6591D2A12DF48 PUSH30 0x145149254D8B432FC564736F6C6343000817003300000000000000000000 "},"gasEstimates":{"creation":{"codeDepositCost":"2346200","executionCost":"infinite","totalCost":"infinite"},"external":{"calculateReward(address)":"infinite","closeLong()":"infinite","closeShort()":"infinite","longBalanceB()":"2453","longDebtA()":"2452","openLong(uint256,uint256)":"infinite","openShort(uint256,uint256)":"infinite","owner()":"2545","payReward(address)":"infinite","renounceOwnership()":"30465","setRewardPerSecond(uint256)":"infinite","shortBalanceB()":"2519","shortDebtA()":"2518","transferOwnership(address)":"30788","updateCumulativeMarketVolume(uint256)":"infinite","updateTradingVolume(address,uint256)":"infinite"},"internal":{"_updateTradingVolume(address,uint256)":"infinite","c_0196fcc9(bytes8)":"11","c_false0196fcc9(bytes8)":"infinite","c_true0196fcc9(bytes8)":"infinite"}},"methodIdentifiers":{"calculateReward(address)":"d82e3962","closeLong()":"24f82526","closeShort()":"f8432a1b","longBalanceB()":"032d4038","longDebtA()":"3ef32e0d","openLong(uint256,uint256)":"c181d418","openShort(uint256,uint256)":"1266a619","owner()":"8da5cb5b","payReward(address)":"8e9b277d","renounceOwnership()":"715018a6","setRewardPerSecond(uint256)":"66da5815","shortBalanceB()":"3cb3dafa","shortDebtA()":"84ea96f5","transferOwnership(address)":"f2fde38b","updateCumulativeMarketVolume(uint256)":"fdda45dc","updateTradingVolume(address,uint256)":"93d75db5"}},"storageLayout":{"storage":[{"astId":7,"contract":"contracts/PerpetualTrading.sol:PerpSwap","label":"_owner","offset":0,"slot":"0","type":"t_address"},{"astId":2334,"contract":"contracts/PerpetualTrading.sol:PerpSwap","label":"liquidityPool","offset":0,"slot":"1","type":"t_contract(ILiquidityPool)3915"},{"astId":2337,"contract":"contracts/PerpetualTrading.sol:PerpSwap","label":"orderBook","offset":0,"slot":"2","type":"t_contract(ISimpleOrderBook)3988"},{"astId":2340,"contract":"contracts/PerpetualTrading.sol:PerpSwap","label":"tokenA","offset":0,"slot":"3","type":"t_contract(IERC20)777"},{"astId":2343,"contract":"contracts/PerpetualTrading.sol:PerpSwap","label":"tokenB","offset":0,"slot":"4","type":"t_contract(IERC20)777"},{"astId":2346,"contract":"contracts/PerpetualTrading.sol:PerpSwap","label":"rewardToken","offset":0,"slot":"5","type":"t_contract(IERC20)777"},{"astId":2348,"contract":"contracts/PerpetualTrading.sol:PerpSwap","label":"_cumulativeMarketVolume","offset":0,"slot":"6","type":"t_uint256"},{"astId":2350,"contract":"contracts/PerpetualTrading.sol:PerpSwap","label":"_periodStartTimestamp","offset":0,"slot":"7","type":"t_uint256"},{"astId":2352,"contract":"contracts/PerpetualTrading.sol:PerpSwap","label":"_rewardPerSecond","offset":0,"slot":"8","type":"t_uint256"},{"astId":2357,"contract":"contracts/PerpetualTrading.sol:PerpSwap","label":"longDebtA","offset":0,"slot":"9","type":"t_uint256"},{"astId":2359,"contract":"contracts/PerpetualTrading.sol:PerpSwap","label":"longBalanceB","offset":0,"slot":"10","type":"t_uint256"},{"astId":2361,"contract":"contracts/PerpetualTrading.sol:PerpSwap","label":"shortDebtA","offset":0,"slot":"11","type":"t_uint256"},{"astId":2363,"contract":"contracts/PerpetualTrading.sol:PerpSwap","label":"shortBalanceB","offset":0,"slot":"12","type":"t_uint256"},{"astId":2369,"contract":"contracts/PerpetualTrading.sol:PerpSwap","label":"_cumulativeTradingVolume","offset":0,"slot":"13","type":"t_mapping(t_address,t_uint256)"}],"types":{"t_address":{"encoding":"inplace","label":"address","numberOfBytes":"20"},"t_contract(IERC20)777":{"encoding":"inplace","label":"contract IERC20","numberOfBytes":"20"},"t_contract(ILiquidityPool)3915":{"encoding":"inplace","label":"contract ILiquidityPool","numberOfBytes":"20"},"t_contract(ISimpleOrderBook)3988":{"encoding":"inplace","label":"contract ISimpleOrderBook","numberOfBytes":"20"},"t_mapping(t_address,t_uint256)":{"encoding":"mapping","key":"t_address","label":"mapping(address => uint256)","numberOfBytes":"32","value":"t_uint256"},"t_uint256":{"encoding":"inplace","label":"uint256","numberOfBytes":"32"}}},"userdoc":{"kind":"user","methods":{},"version":1}}}}