{
  "_format": "hh-sol-artifact-1",
  "contractName": "PerpSwap",
  "sourceName": "contracts/PerpetualTrading.sol",
  "abi": [
    {
      "inputs": [
        {
          "internalType": "address",
          "name": "_liquidityPool",
          "type": "address"
        },
        {
          "internalType": "address",
          "name": "_orderBook",
          "type": "address"
        },
        {
          "internalType": "address",
          "name": "_tokenA",
          "type": "address"
        },
        {
          "internalType": "address",
          "name": "_tokenB",
          "type": "address"
        },
        {
          "internalType": "address",
          "name": "_rewardToken",
          "type": "address"
        },
        {
          "internalType": "uint256",
          "name": "_rewardPerSecond",
          "type": "uint256"
        }
      ],
      "stateMutability": "nonpayable",
      "type": "constructor"
    },
    {
      "inputs": [],
      "name": "MarginTrading__InsufficientAmountForClosePosition",
      "type": "error"
    },
    {
      "anonymous": false,
      "inputs": [],
      "name": "LongClosed",
      "type": "event"
    },
    {
      "anonymous": false,
      "inputs": [],
      "name": "LongOpened",
      "type": "event"
    },
    {
      "anonymous": false,
      "inputs": [
        {
          "indexed": true,
          "internalType": "address",
          "name": "previousOwner",
          "type": "address"
        },
        {
          "indexed": true,
          "internalType": "address",
          "name": "newOwner",
          "type": "address"
        }
      ],
      "name": "OwnershipTransferred",
      "type": "event"
    },
    {
      "anonymous": false,
      "inputs": [
        {
          "indexed": true,
          "internalType": "address",
          "name": "trader",
          "type": "address"
        },
        {
          "indexed": false,
          "internalType": "uint256",
          "name": "reward",
          "type": "uint256"
        }
      ],
      "name": "RewardPaid",
      "type": "event"
    },
    {
      "anonymous": false,
      "inputs": [],
      "name": "ShortClosed",
      "type": "event"
    },
    {
      "anonymous": false,
      "inputs": [],
      "name": "ShortOpened",
      "type": "event"
    },
    {
      "anonymous": false,
      "inputs": [
        {
          "indexed": false,
          "internalType": "uint256",
          "name": "rewardAmount",
          "type": "uint256"
        }
      ],
      "name": "updateRewardPerSecond",
      "type": "event"
    },
    {
      "anonymous": false,
      "inputs": [
        {
          "indexed": false,
          "internalType": "address",
          "name": "trader",
          "type": "address"
        },
        {
          "indexed": false,
          "internalType": "uint256",
          "name": "amount",
          "type": "uint256"
        }
      ],
      "name": "updateTradingvolume",
      "type": "event"
    },
    {
      "anonymous": false,
      "inputs": [
        {
          "indexed": false,
          "internalType": "uint256",
          "name": "newVolume",
          "type": "uint256"
        }
      ],
      "name": "uptadeCumulativeMarketVolume",
      "type": "event"
    },
    {
      "inputs": [
        {
          "internalType": "address",
          "name": "trader",
          "type": "address"
        }
      ],
      "name": "calculateReward",
      "outputs": [
        {
          "internalType": "uint256",
          "name": "",
          "type": "uint256"
        }
      ],
      "stateMutability": "view",
      "type": "function"
    },
    {
      "inputs": [],
      "name": "closeLong",
      "outputs": [],
      "stateMutability": "nonpayable",
      "type": "function"
    },
    {
      "inputs": [],
      "name": "closeShort",
      "outputs": [],
      "stateMutability": "nonpayable",
      "type": "function"
    },
    {
      "inputs": [],
      "name": "longBalanceB",
      "outputs": [
        {
          "internalType": "uint256",
          "name": "",
          "type": "uint256"
        }
      ],
      "stateMutability": "view",
      "type": "function"
    },
    {
      "inputs": [],
      "name": "longDebtA",
      "outputs": [
        {
          "internalType": "uint256",
          "name": "",
          "type": "uint256"
        }
      ],
      "stateMutability": "view",
      "type": "function"
    },
    {
      "inputs": [
        {
          "internalType": "uint256",
          "name": "amountBToBuy",
          "type": "uint256"
        },
        {
          "internalType": "uint256",
          "name": "leverage",
          "type": "uint256"
        }
      ],
      "name": "openLong",
      "outputs": [],
      "stateMutability": "nonpayable",
      "type": "function"
    },
    {
      "inputs": [
        {
          "internalType": "uint256",
          "name": "amountAToSell",
          "type": "uint256"
        },
        {
          "internalType": "uint256",
          "name": "leverage",
          "type": "uint256"
        }
      ],
      "name": "openShort",
      "outputs": [],
      "stateMutability": "nonpayable",
      "type": "function"
    },
    {
      "inputs": [],
      "name": "owner",
      "outputs": [
        {
          "internalType": "address",
          "name": "",
          "type": "address"
        }
      ],
      "stateMutability": "view",
      "type": "function"
    },
    {
      "inputs": [
        {
          "internalType": "address",
          "name": "trader",
          "type": "address"
        }
      ],
      "name": "payReward",
      "outputs": [],
      "stateMutability": "nonpayable",
      "type": "function"
    },
    {
      "inputs": [],
      "name": "renounceOwnership",
      "outputs": [],
      "stateMutability": "nonpayable",
      "type": "function"
    },
    {
      "inputs": [
        {
          "internalType": "uint256",
          "name": "rewardAmount",
          "type": "uint256"
        }
      ],
      "name": "setRewardPerSecond",
      "outputs": [
        {
          "internalType": "uint256",
          "name": "",
          "type": "uint256"
        }
      ],
      "stateMutability": "nonpayable",
      "type": "function"
    },
    {
      "inputs": [],
      "name": "shortBalanceB",
      "outputs": [
        {
          "internalType": "uint256",
          "name": "",
          "type": "uint256"
        }
      ],
      "stateMutability": "view",
      "type": "function"
    },
    {
      "inputs": [],
      "name": "shortDebtA",
      "outputs": [
        {
          "internalType": "uint256",
          "name": "",
          "type": "uint256"
        }
      ],
      "stateMutability": "view",
      "type": "function"
    },
    {
      "inputs": [
        {
          "internalType": "address",
          "name": "newOwner",
          "type": "address"
        }
      ],
      "name": "transferOwnership",
      "outputs": [],
      "stateMutability": "nonpayable",
      "type": "function"
    },
    {
      "inputs": [
        {
          "internalType": "uint256",
          "name": "newVolume",
          "type": "uint256"
        }
      ],
      "name": "updateCumulativeMarketVolume",
      "outputs": [
        {
          "internalType": "uint256",
          "name": "",
          "type": "uint256"
        }
      ],
      "stateMutability": "nonpayable",
      "type": "function"
    },
    {
      "inputs": [
        {
          "internalType": "address",
          "name": "trader",
          "type": "address"
        },
        {
          "internalType": "uint256",
          "name": "amount",
          "type": "uint256"
        }
      ],
      "name": "updateTradingVolume",
      "outputs": [],
      "stateMutability": "nonpayable",
      "type": "function"
    }
  ],
  "bytecode": "0x60806040523480156200001157600080fd5b50604051620036a6380380620036a6833981810160405281019062000037919062000403565b620000576200004b6200028f60201b60201c565b6200029760201b60201c565b62000073671bd78f89ecf41d9c60c01b6200035b60201b60201c565b6200008f674834eb078aa3a9f860c01b6200035b60201b60201c565b85600160006101000a81548173ffffffffffffffffffffffffffffffffffffffff021916908373ffffffffffffffffffffffffffffffffffffffff160217905550620000ec671d779514bbc9948760c01b6200035b60201b60201c565b84600260006101000a81548173ffffffffffffffffffffffffffffffffffffffff021916908373ffffffffffffffffffffffffffffffffffffffff16021790555062000149675d0ecf978aac0dae60c01b6200035b60201b60201c565b83600360006101000a81548173ffffffffffffffffffffffffffffffffffffffff021916908373ffffffffffffffffffffffffffffffffffffffff160217905550620001a667d229edd7a47ac63660c01b6200035b60201b60201c565b82600460006101000a81548173ffffffffffffffffffffffffffffffffffffffff021916908373ffffffffffffffffffffffffffffffffffffffff16021790555062000203675756b9c3da6ee2ca60c01b6200035b60201b60201c565b81600560006101000a81548173ffffffffffffffffffffffffffffffffffffffff021916908373ffffffffffffffffffffffffffffffffffffffff160217905550620002606776e0d3a8e308c44960c01b6200035b60201b60201c565b6200027c6748e799fe5814158c60c01b6200035b60201b60201c565b426007819055505050505050506200049f565b600033905090565b60008060009054906101000a900473ffffffffffffffffffffffffffffffffffffffff169050816000806101000a81548173ffffffffffffffffffffffffffffffffffffffff021916908373ffffffffffffffffffffffffffffffffffffffff1602179055508173ffffffffffffffffffffffffffffffffffffffff168173ffffffffffffffffffffffffffffffffffffffff167f8be0079c531659141344cd1fd0a4f28419497f9722a3daafe3b4186f6b6457e060405160405180910390a35050565b50565b600080fd5b600073ffffffffffffffffffffffffffffffffffffffff82169050919050565b6000620003908262000363565b9050919050565b620003a28162000383565b8114620003ae57600080fd5b50565b600081519050620003c28162000397565b92915050565b6000819050919050565b620003dd81620003c8565b8114620003e957600080fd5b50565b600081519050620003fd81620003d2565b92915050565b60008060008060008060c087890312156200042357620004226200035e565b5b60006200043389828a01620003b1565b96505060206200044689828a01620003b1565b95505060406200045989828a01620003b1565b94505060606200046c89828a01620003b1565b93505060806200047f89828a01620003b1565b92505060a06200049289828a01620003ec565b9150509295509295509295565b6131f780620004af6000396000f3fe608060405234801561001057600080fd5b50600436106101005760003560e01c80638da5cb5b11610097578063d82e396211610066578063d82e39621461024f578063f2fde38b1461027f578063f8432a1b1461029b578063fdda45dc146102a557610100565b80638da5cb5b146101dd5780638e9b277d146101fb57806393d75db514610217578063c181d4181461023357610100565b80633ef32e0d116100d35780633ef32e0d1461016757806366da581514610185578063715018a6146101b557806384ea96f5146101bf57610100565b8063032d4038146101055780631266a6191461012357806324f825261461013f5780633cb3dafa14610149575b600080fd5b61010d6102d5565b60405161011a919061273b565b60405180910390f35b61013d60048036038101906101389190612787565b6102db565b005b6101476107b6565b005b610151610c62565b60405161015e919061273b565b60405180910390f35b61016f610c68565b60405161017c919061273b565b60405180910390f35b61019f600480360381019061019a91906127c7565b610c6e565b6040516101ac919061273b565b60405180910390f35b6101bd610d60565b005b6101c7610d74565b6040516101d4919061273b565b60405180910390f35b6101e5610d7a565b6040516101f29190612835565b60405180910390f35b6102156004803603810190610210919061287c565b610da3565b005b610231600480360381019061022c91906128a9565b611183565b005b61024d60048036038101906102489190612787565b61125e565b005b6102696004803603810190610264919061287c565b611853565b604051610276919061273b565b60405180910390f35b6102996004803603810190610294919061287c565b611a57565b005b6102a3611ada565b005b6102bf60048036038101906102ba91906127c7565b611f86565b6040516102cc919061273b565b60405180910390f35b600a5481565b6102ef67532f295c02f378bc60c01b612076565b610303673aa1a3889e9e654660c01b612076565b6103176736eba0ad18d7434e60c01b612076565b61032b676987014b002d7ae260c01b612076565b6000821161036e576040517f08c379a00000000000000000000000000000000000000000000000000000000081526004016103659061296c565b60405180910390fd5b61038267d38cce7d534e66d260c01b612076565b61039667ec564b9d0321c07860c01b612076565b6103aa6798c23f30d9b0b51060c01b612076565b6103be67d0addf823b9ec42e60c01b612076565b6001811015610402576040517f08c379a00000000000000000000000000000000000000000000000000000000081526004016103f9906129fe565b60405180910390fd5b6104166708ab000be31091ad60c01b612076565b61042a67704ff09dd41601c960c01b612076565b61043e674df67efd82c7593b60c01b612076565b600160009054906101000a900473ffffffffffffffffffffffffffffffffffffffff1673ffffffffffffffffffffffffffffffffffffffff1663c5ebeaec82846104889190612a4d565b6040518263ffffffff1660e01b81526004016104a4919061273b565b600060405180830381600087803b1580156104be57600080fd5b505af11580156104d2573d6000803e3d6000fd5b505050506104ea673141b6ed9d4d6e3b60c01b612076565b80826104f69190612a4d565b600b60008282546105079190612a8f565b925050819055506105226702ee72e3bd6b177e60c01b612076565b61053667c1c213e90e567ba560c01b612076565b600360009054906101000a900473ffffffffffffffffffffffffffffffffffffffff1673ffffffffffffffffffffffffffffffffffffffff1663095ea7b3600260009054906101000a900473ffffffffffffffffffffffffffffffffffffffff1683856105a39190612a4d565b6040518363ffffffff1660e01b81526004016105c0929190612ac3565b6020604051808303816000875af11580156105df573d6000803e3d6000fd5b505050506040513d601f19601f820116820180604052508101906106039190612b24565b5061061867f13b334fcabfeffa60c01b612076565b600260009054906101000a900473ffffffffffffffffffffffffffffffffffffffff1673ffffffffffffffffffffffffffffffffffffffff1663cae270b6600360009054906101000a900473ffffffffffffffffffffffffffffffffffffffff16600460009054906101000a900473ffffffffffffffffffffffffffffffffffffffff1684866106a89190612a4d565b6040518463ffffffff1660e01b81526004016106c693929190612b51565b6020604051808303816000875af11580156106e5573d6000803e3d6000fd5b505050506040513d601f19601f820116820180604052508101906107099190612b9d565b600c600082825461071a9190612a8f565b92505081905550610735672cd50c8453d03c8160c01b612076565b610749670acf936f31e6b38460c01b612076565b61075e3382846107599190612a4d565b612079565b61077267e70b7eb7fd4521ef60c01b612076565b610786672f7beb4b2c7dd4a060c01b612076565b7fdb84cacd536875e0714dd79e0fe743de5a2871a8eb65115b5aa657e6cfbe7a5160405160405180910390a15050565b6107ca671681ab526f81f0cf60c01b612076565b6107de67fead30054a5c828a60c01b612076565b6107f26738e831f61dcc887560c01b612076565b600460009054906101000a900473ffffffffffffffffffffffffffffffffffffffff1673ffffffffffffffffffffffffffffffffffffffff1663095ea7b3600260009054906101000a900473ffffffffffffffffffffffffffffffffffffffff16600a546040518363ffffffff1660e01b8152600401610873929190612ac3565b6020604051808303816000875af1158015610892573d6000803e3d6000fd5b505050506040513d601f19601f820116820180604052508101906108b69190612b24565b506108cb67f21cd91998bc80eb60c01b612076565b6108df67dc251a6fa982c7fd60c01b612076565b600360009054906101000a900473ffffffffffffffffffffffffffffffffffffffff1673ffffffffffffffffffffffffffffffffffffffff1663095ea7b3600160009054906101000a900473ffffffffffffffffffffffffffffffffffffffff166009546040518363ffffffff1660e01b8152600401610960929190612ac3565b6020604051808303816000875af115801561097f573d6000803e3d6000fd5b505050506040513d601f19601f820116820180604052508101906109a39190612b24565b506109b867f141077258fa1adb60c01b612076565b6109cc678a6ecec551ee874760c01b612076565b600160009054906101000a900473ffffffffffffffffffffffffffffffffffffffff1673ffffffffffffffffffffffffffffffffffffffff1663371fd8e66009546040518263ffffffff1660e01b8152600401610a29919061273b565b600060405180830381600087803b158015610a4357600080fd5b505af1158015610a57573d6000803e3d6000fd5b50505050610a6f675a93f4ad0694211060c01b612076565b6000600981905550610a8b678135ea83eb77f9ef60c01b612076565b6000600a81905550610aa767da4aacd7927b512360c01b612076565b610abb6749b4c519736a9fe760c01b612076565b610ac733600a54612079565b610adb6720ca85751a2c5f8060c01b612076565b610aef679a7d92a04f92d72460c01b612076565b6000600360009054906101000a900473ffffffffffffffffffffffffffffffffffffffff1673ffffffffffffffffffffffffffffffffffffffff166370a08231306040518263ffffffff1660e01b8152600401610b4c9190612835565b602060405180830381865afa158015610b69573d6000803e3d6000fd5b505050506040513d601f19601f82011682018060405250810190610b8d9190612b9d565b9050610ba367a7e949d6b9725d7360c01b612076565b610bb76769478d8807371fcd60c01b612076565b610c0b610bc2610d7a565b82600360009054906101000a900473ffffffffffffffffffffffffffffffffffffffff1673ffffffffffffffffffffffffffffffffffffffff166122bd9092919063ffffffff16565b610c1f67689886f982cf361960c01b612076565b610c3367a07d1f261a708e9560c01b612076565b7f7c1712b00e9ec43558b7ba14e1d6f1985ff761eadb82bb59a3cfe263bd86144d60405160405180910390a150565b600c5481565b60095481565b6000610c8467b391e405588b0b2060c01b612076565b610c8c612343565b610ca06766cffde6bbd9f85060c01b612076565b610cb467f857b0b12017b77760c01b612076565b610cc867e3d4e48827d0136360c01b612076565b81600881905550610ce36752bb7da54d97c1d060c01b612076565b610cf767480867790d9b593160c01b612076565b7f4004c8e71aad34e8beebca07081f9f3bd647ba21279d23f76a3d98d077dd3ffb82604051610d26919061273b565b60405180910390a1610d4267d1c24ddb75d9ba8b60c01b612076565b610d5667e5ff5cc6959ab9fb60c01b612076565b6008549050919050565b610d68612343565b610d7260006123c1565b565b600b5481565b60008060009054906101000a900473ffffffffffffffffffffffffffffffffffffffff16905090565b610db7679a2b0c51d60f5db660c01b612076565b610dcb6722faa09927b7e28860c01b612076565b610ddf6791fb27e0d23330f960c01b612076565b610df3676c788928fc6c54a660c01b612076565b62278d00600754610e049190612a8f565b421015610e46576040517f08c379a0000000000000000000000000000000000000000000000000000000008152600401610e3d90612c16565b60405180910390fd5b610e5a67b32b045988079e0a60c01b612076565b610e6e67c37cb31cfccd04e460c01b612076565b610e82678f5b834d13f21f4b60c01b612076565b6000610e8d82611853565b9050610ea36730314c026bff71ee60c01b612076565b610eb767d2e581064d9c307760c01b612076565b610ecb678b7a11338cb8918660c01b612076565b60008111610f0e576040517f08c379a0000000000000000000000000000000000000000000000000000000008152600401610f0590612c82565b60405180910390fd5b610f226749fb96fb7ce9ca2860c01b612076565b610f36670b63819869f124de60c01b612076565b610f4a67224c979c387f156060c01b612076565b6000600d60008473ffffffffffffffffffffffffffffffffffffffff1673ffffffffffffffffffffffffffffffffffffffff168152602001908152602001600020549050610fa2675f521c3e181eea4d60c01b612076565b6000600d60008573ffffffffffffffffffffffffffffffffffffffff1673ffffffffffffffffffffffffffffffffffffffff16815260200190815260200160002081905550610ffb6759dbb4df0d90ffb460c01b612076565b61100f6716570445208dc29d60c01b612076565b611017610d7a565b73ffffffffffffffffffffffffffffffffffffffff168373ffffffffffffffffffffffffffffffffffffffff160361107e5761105d67ba7f4083989f5d9660c01b612076565b6110716758d98a532f04bb1360c01b612076565b6000600681905550611093565b611092676ad3f71397765bd560c01b612076565b5b6110a767354920957c9db00460c01b612076565b6110bb67fca4b9f42a73eff560c01b612076565b6111088383600560009054906101000a900473ffffffffffffffffffffffffffffffffffffffff1673ffffffffffffffffffffffffffffffffffffffff166122bd9092919063ffffffff16565b61111c678177bbe1d468252260c01b612076565b6111306709c7cfa1699c36fc60c01b612076565b8273ffffffffffffffffffffffffffffffffffffffff167fe2403640ba68fed3a2f88b7557551d1993f84b99bb10ff833f0cf8db0c5e048683604051611176919061273b565b60405180910390a2505050565b61119767c67cb1a6fc68cfad60c01b612076565b61119f612343565b6111b36721a95db39e79eeb260c01b612076565b6111c76757566cb5ef9ab36060c01b612076565b6111db674b562871e62bc90e60c01b612076565b6111ef67a50f60bfc98f5f2160c01b612076565b6111f98282612079565b61120d6742c33c10b5198f5e60c01b612076565b61122167b648b11ab73df84060c01b612076565b7f88e4869609343bf3731e4da7ecfe0425d78029f1ab1f9cb9efc4dbbafc1a25668282604051611252929190612ac3565b60405180910390a15050565b61127267bf8b2328e16be5ae60c01b612076565b611286673ac9987a595e1b4260c01b612076565b61129a6798f92f5d474c57af60c01b612076565b6112ae673aa0596048082db960c01b612076565b600082116112f1576040517f08c379a00000000000000000000000000000000000000000000000000000000081526004016112e890612d14565b60405180910390fd5b61130567c29e529388fa45f060c01b612076565b611319674ad8e566502b13f660c01b612076565b61132d67cfbeb3dead03823f60c01b612076565b6113416734822ac092dc5e1560c01b612076565b6001811015611385576040517f08c379a000000000000000000000000000000000000000000000000000000000815260040161137c906129fe565b60405180910390fd5b611399671bb6de64e02506b160c01b612076565b6113ad6749b1d866aef1ebca60c01b612076565b6113c167bf0e31f6ab909dc260c01b612076565b6000600260009054906101000a900473ffffffffffffffffffffffffffffffffffffffff1673ffffffffffffffffffffffffffffffffffffffff1663ce77ba62600360009054906101000a900473ffffffffffffffffffffffffffffffffffffffff16600460009054906101000a900473ffffffffffffffffffffffffffffffffffffffff1685876114539190612a4d565b6040518463ffffffff1660e01b815260040161147193929190612b51565b602060405180830381865afa15801561148e573d6000803e3d6000fd5b505050506040513d601f19601f820116820180604052508101906114b29190612b9d565b90506114c867fd972c54909e0b6160c01b612076565b6114dc6747804c4bc54b38f160c01b612076565b600160009054906101000a900473ffffffffffffffffffffffffffffffffffffffff1673ffffffffffffffffffffffffffffffffffffffff1663c5ebeaec826040518263ffffffff1660e01b8152600401611537919061273b565b600060405180830381600087803b15801561155157600080fd5b505af1158015611565573d6000803e3d6000fd5b5050505061157d6740193671f8ea4baa60c01b612076565b806009600082825461158f9190612a8f565b925050819055506115aa6761d348412118209460c01b612076565b82600a60008282546115bc9190612a8f565b925050819055506115d767d2a8308cc17cd9f460c01b612076565b6115eb6736545aa0a8ef6da760c01b612076565b6116003383856115fb9190612a4d565b612079565b61161467ac5825e15e6edfe260c01b612076565b6116286795a8a2b7306817c260c01b612076565b600360009054906101000a900473ffffffffffffffffffffffffffffffffffffffff1673ffffffffffffffffffffffffffffffffffffffff1663095ea7b3600260009054906101000a900473ffffffffffffffffffffffffffffffffffffffff16836040518363ffffffff1660e01b81526004016116a7929190612ac3565b6020604051808303816000875af11580156116c6573d6000803e3d6000fd5b505050506040513d601f19601f820116820180604052508101906116ea9190612b24565b506116ff672b9d317ba659a45a60c01b612076565b6117136786a3a71aa862a25560c01b612076565b600260009054906101000a900473ffffffffffffffffffffffffffffffffffffffff1673ffffffffffffffffffffffffffffffffffffffff1663153e66e6600360009054906101000a900473ffffffffffffffffffffffffffffffffffffffff16600460009054906101000a900473ffffffffffffffffffffffffffffffffffffffff16866040518463ffffffff1660e01b81526004016117b693929190612b51565b6020604051808303816000875af11580156117d5573d6000803e3d6000fd5b505050506040513d601f19601f820116820180604052508101906117f99190612b9d565b5061180e67ecc2edd4d7972bfb60c01b612076565b6118226711a330d2292ebe6e60c01b612076565b7f81a5c85f807906a0759335611ceb64ea789ed0196ccf836d98c9573a56582b7f60405160405180910390a1505050565b6000611869678d5c8cee0d6cd8f460c01b612076565b61187d6765a60d323a262aca60c01b612076565b6118916739317a33212daa3a60c01b612076565b6118a567659ef3db5756659b60c01b612076565b6000600654116118ea576040517f08c379a00000000000000000000000000000000000000000000000000000000081526004016118e190612d80565b60405180910390fd5b6118fe67c5f539d133790fa460c01b612076565b6119126755607c3fffb9d91a60c01b612076565b61192667e5490044f5bc59d960c01b612076565b6000600754426119369190612da0565b905061194c67fcd9d35deda9240d60c01b612076565b611960679a475476e7093c9060c01b612076565b6000816008546119709190612a4d565b9050611986674915b4504e5db63660c01b612076565b61199a67e36002f076bae89460c01b612076565b6000600d60008673ffffffffffffffffffffffffffffffffffffffff1673ffffffffffffffffffffffffffffffffffffffff1681526020019081526020016000205490506119f267b778dc20c0043fbd60c01b612076565b611a0667442825b7274a109760c01b612076565b600060065482611a169190612e03565b9050611a2c67a67dc0c9000a8b3860c01b612076565b611a406740f42080f1ddfbdc60c01b612076565b8281611a4c9190612a4d565b945050505050919050565b611a5f612343565b600073ffffffffffffffffffffffffffffffffffffffff168173ffffffffffffffffffffffffffffffffffffffff1603611ace576040517f08c379a0000000000000000000000000000000000000000000000000000000008152600401611ac590612ea6565b60405180910390fd5b611ad7816123c1565b50565b611aee67aced633a916b337560c01b612076565b611b02674decf09dc4e36c1d60c01b612076565b611b1667715d3a6ddf4abdae60c01b612076565b600460009054906101000a900473ffffffffffffffffffffffffffffffffffffffff1673ffffffffffffffffffffffffffffffffffffffff1663095ea7b3600260009054906101000a900473ffffffffffffffffffffffffffffffffffffffff16600c546040518363ffffffff1660e01b8152600401611b97929190612ac3565b6020604051808303816000875af1158015611bb6573d6000803e3d6000fd5b505050506040513d601f19601f82011682018060405250810190611bda9190612b24565b50611bef677f5ed04bb28f3fbc60c01b612076565b611c03675dc58a8a2f5c2def60c01b612076565b600360009054906101000a900473ffffffffffffffffffffffffffffffffffffffff1673ffffffffffffffffffffffffffffffffffffffff1663095ea7b3600160009054906101000a900473ffffffffffffffffffffffffffffffffffffffff16600b546040518363ffffffff1660e01b8152600401611c84929190612ac3565b6020604051808303816000875af1158015611ca3573d6000803e3d6000fd5b505050506040513d601f19601f82011682018060405250810190611cc79190612b24565b50611cdc6714a14107ff89f16c60c01b612076565b611cf0679e2da654419a8d5a60c01b612076565b600160009054906101000a900473ffffffffffffffffffffffffffffffffffffffff1673ffffffffffffffffffffffffffffffffffffffff1663371fd8e6600b546040518263ffffffff1660e01b8152600401611d4d919061273b565b600060405180830381600087803b158015611d6757600080fd5b505af1158015611d7b573d6000803e3d6000fd5b50505050611d9367963e6215af5bbcf360c01b612076565b6000600b81905550611daf670c80e4a670b79ef760c01b612076565b6000600c81905550611dcb6798d49e7f4f3ca02360c01b612076565b611ddf67180a86f422a0a1e160c01b612076565b611deb33600c54612079565b611dff67ff4afdf66dd803db60c01b612076565b611e1367e87dcbbf2b1acb7160c01b612076565b6000600460009054906101000a900473ffffffffffffffffffffffffffffffffffffffff1673ffffffffffffffffffffffffffffffffffffffff166370a08231306040518263ffffffff1660e01b8152600401611e709190612835565b602060405180830381865afa158015611e8d573d6000803e3d6000fd5b505050506040513d601f19601f82011682018060405250810190611eb19190612b9d565b9050611ec7679bcb1aea4c9bb06060c01b612076565b611edb6728deea968f2eadc060c01b612076565b611f2f611ee6610d7a565b82600460009054906101000a900473ffffffffffffffffffffffffffffffffffffffff1673ffffffffffffffffffffffffffffffffffffffff166122bd9092919063ffffffff16565b611f436763afa528f685f85660c01b612076565b611f576790e140b67b6b363060c01b612076565b7f1eacc206eaa257738210016c4b580948367fd2c683058d13fe748a663f8933d060405160405180910390a150565b6000611f9c67404f6f45d591998460c01b612076565b611fa4612343565b611fb8679e96396f97094bae60c01b612076565b611fcc672d695de50985890160c01b612076565b611fe0672861bf169c659b6860c01b612076565b81600681905550611ffb674d6a5245fc09baed60c01b612076565b61200f6723b96fe5bc47a63360c01b612076565b7faa7bd4ccef0caa9441d70d5c1d1fab8cef584e0adfde6b1cf162ba2ea6fb26018260405161203e919061273b565b60405180910390a161205a6773761e8139c2b38d60c01b612076565b61206e67e56d0b8c8c774f2860c01b612076565b819050919050565b50565b61208d678362e3129279c67160c01b612076565b6120a167b619059f0199c47a60c01b612076565b80600d60008473ffffffffffffffffffffffffffffffffffffffff1673ffffffffffffffffffffffffffffffffffffffff16815260200190815260200160002060008282546120f09190612a8f565b9250508190555061210b6793d83b1e6665134160c01b612076565b806006600082825461211d9190612a8f565b9250508190555061213867e7a3a00ca67e2fa060c01b612076565b61214c67a764a9b3d2490c4760c01b612076565b62278d0060075461215d9190612a8f565b42111561220d57612178678e703ddd0e016f9360c01b612076565b61218c67813e6833e4cf6bda60c01b612076565b426007819055506121a767a2e38be0de40148a60c01b612076565b6000600d60008473ffffffffffffffffffffffffffffffffffffffff1673ffffffffffffffffffffffffffffffffffffffff1681526020019081526020016000208190555061220067ea438745c0bbbcea60c01b612076565b60006006819055506122b9565b61222167a9445a948f96cd0660c01b612076565b61223567eff9406d85da7c8460c01b612076565b80600d60008473ffffffffffffffffffffffffffffffffffffffff1673ffffffffffffffffffffffffffffffffffffffff16815260200190815260200160002060008282546122849190612a8f565b9250508190555061229f673c438b2f3ba2fafd60c01b612076565b80600660008282546122b19190612a8f565b925050819055505b5050565b61233e8363a9059cbb60e01b84846040516024016122dc929190612ac3565b604051602081830303815290604052907bffffffffffffffffffffffffffffffffffffffffffffffffffffffff19166020820180517bffffffffffffffffffffffffffffffffffffffffffffffffffffffff8381831617835250505050612485565b505050565b61234b61254d565b73ffffffffffffffffffffffffffffffffffffffff16612369610d7a565b73ffffffffffffffffffffffffffffffffffffffff16146123bf576040517f08c379a00000000000000000000000000000000000000000000000000000000081526004016123b690612f12565b60405180910390fd5b565b60008060009054906101000a900473ffffffffffffffffffffffffffffffffffffffff169050816000806101000a81548173ffffffffffffffffffffffffffffffffffffffff021916908373ffffffffffffffffffffffffffffffffffffffff1602179055508173ffffffffffffffffffffffffffffffffffffffff168173ffffffffffffffffffffffffffffffffffffffff167f8be0079c531659141344cd1fd0a4f28419497f9722a3daafe3b4186f6b6457e060405160405180910390a35050565b60006124e7826040518060400160405280602081526020017f5361666545524332303a206c6f772d6c6576656c2063616c6c206661696c65648152508573ffffffffffffffffffffffffffffffffffffffff166125559092919063ffffffff16565b90506000815114806125095750808060200190518101906125089190612b24565b5b612548576040517f08c379a000000000000000000000000000000000000000000000000000000000815260040161253f90612fa4565b60405180910390fd5b505050565b600033905090565b6060612564848460008561256d565b90509392505050565b6060824710156125b2576040517f08c379a00000000000000000000000000000000000000000000000000000000081526004016125a990613036565b60405180910390fd5b6000808673ffffffffffffffffffffffffffffffffffffffff1685876040516125db91906130c7565b60006040518083038185875af1925050503d8060008114612618576040519150601f19603f3d011682016040523d82523d6000602084013e61261d565b606091505b509150915061262e8783838761263a565b92505050949350505050565b6060831561269c57600083510361269457612654856126af565b612693576040517f08c379a000000000000000000000000000000000000000000000000000000000815260040161268a9061312a565b60405180910390fd5b5b8290506126a7565b6126a683836126d2565b5b949350505050565b6000808273ffffffffffffffffffffffffffffffffffffffff163b119050919050565b6000825111156126e55781518083602001fd5b806040517f08c379a0000000000000000000000000000000000000000000000000000000008152600401612719919061319f565b60405180910390fd5b6000819050919050565b61273581612722565b82525050565b6000602082019050612750600083018461272c565b92915050565b600080fd5b61276481612722565b811461276f57600080fd5b50565b6000813590506127818161275b565b92915050565b6000806040838503121561279e5761279d612756565b5b60006127ac85828601612772565b92505060206127bd85828601612772565b9150509250929050565b6000602082840312156127dd576127dc612756565b5b60006127eb84828501612772565b91505092915050565b600073ffffffffffffffffffffffffffffffffffffffff82169050919050565b600061281f826127f4565b9050919050565b61282f81612814565b82525050565b600060208201905061284a6000830184612826565b92915050565b61285981612814565b811461286457600080fd5b50565b60008135905061287681612850565b92915050565b60006020828403121561289257612891612756565b5b60006128a084828501612867565b91505092915050565b600080604083850312156128c0576128bf612756565b5b60006128ce85828601612867565b92505060206128df85828601612772565b9150509250929050565b600082825260208201905092915050565b7f416d6f756e7420746f2073656c6c206d7573742062652067726561746572207460008201527f68616e207a65726f000000000000000000000000000000000000000000000000602082015250565b60006129566028836128e9565b9150612961826128fa565b604082019050919050565b6000602082019050818103600083015261298581612949565b9050919050565b7f4c65766572616765206d7573742062652067726561746572207468616e206f7260008201527f20657175616c20746f2031000000000000000000000000000000000000000000602082015250565b60006129e8602b836128e9565b91506129f38261298c565b604082019050919050565b60006020820190508181036000830152612a17816129db565b9050919050565b7f4e487b7100000000000000000000000000000000000000000000000000000000600052601160045260246000fd5b6000612a5882612722565b9150612a6383612722565b9250828202612a7181612722565b91508282048414831517612a8857612a87612a1e565b5b5092915050565b6000612a9a82612722565b9150612aa583612722565b9250828201905080821115612abd57612abc612a1e565b5b92915050565b6000604082019050612ad86000830185612826565b612ae5602083018461272c565b9392505050565b60008115159050919050565b612b0181612aec565b8114612b0c57600080fd5b50565b600081519050612b1e81612af8565b92915050565b600060208284031215612b3a57612b39612756565b5b6000612b4884828501612b0f565b91505092915050565b6000606082019050612b666000830186612826565b612b736020830185612826565b612b80604083018461272c565b949350505050565b600081519050612b978161275b565b92915050565b600060208284031215612bb357612bb2612756565b5b6000612bc184828501612b88565b91505092915050565b7f52657761726420706572696f6420686173206e6f7420656e6465642079657400600082015250565b6000612c00601f836128e9565b9150612c0b82612bca565b602082019050919050565b60006020820190508181036000830152612c2f81612bf3565b9050919050565b7f4e6f2072657761726420666f72207468697320706572696f6400000000000000600082015250565b6000612c6c6019836128e9565b9150612c7782612c36565b602082019050919050565b60006020820190508181036000830152612c9b81612c5f565b9050919050565b7f416d6f756e7420746f20627579206d757374206265206772656174657220746860008201527f616e207a65726f00000000000000000000000000000000000000000000000000602082015250565b6000612cfe6027836128e9565b9150612d0982612ca2565b604082019050919050565b60006020820190508181036000830152612d2d81612cf1565b9050919050565b7f4d61726b657420766f6c756d65206973207a65726f0000000000000000000000600082015250565b6000612d6a6015836128e9565b9150612d7582612d34565b602082019050919050565b60006020820190508181036000830152612d9981612d5d565b9050919050565b6000612dab82612722565b9150612db683612722565b9250828203905081811115612dce57612dcd612a1e565b5b92915050565b7f4e487b7100000000000000000000000000000000000000000000000000000000600052601260045260246000fd5b6000612e0e82612722565b9150612e1983612722565b925082612e2957612e28612dd4565b5b828204905092915050565b7f4f776e61626c653a206e6577206f776e657220697320746865207a65726f206160008201527f6464726573730000000000000000000000000000000000000000000000000000602082015250565b6000612e906026836128e9565b9150612e9b82612e34565b604082019050919050565b60006020820190508181036000830152612ebf81612e83565b9050919050565b7f4f776e61626c653a2063616c6c6572206973206e6f7420746865206f776e6572600082015250565b6000612efc6020836128e9565b9150612f0782612ec6565b602082019050919050565b60006020820190508181036000830152612f2b81612eef565b9050919050565b7f5361666545524332303a204552433230206f7065726174696f6e20646964206e60008201527f6f74207375636365656400000000000000000000000000000000000000000000602082015250565b6000612f8e602a836128e9565b9150612f9982612f32565b604082019050919050565b60006020820190508181036000830152612fbd81612f81565b9050919050565b7f416464726573733a20696e73756666696369656e742062616c616e636520666f60008201527f722063616c6c0000000000000000000000000000000000000000000000000000602082015250565b60006130206026836128e9565b915061302b82612fc4565b604082019050919050565b6000602082019050818103600083015261304f81613013565b9050919050565b600081519050919050565b600081905092915050565b60005b8381101561308a57808201518184015260208101905061306f565b60008484015250505050565b60006130a182613056565b6130ab8185613061565b93506130bb81856020860161306c565b80840191505092915050565b60006130d38284613096565b915081905092915050565b7f416464726573733a2063616c6c20746f206e6f6e2d636f6e7472616374000000600082015250565b6000613114601d836128e9565b915061311f826130de565b602082019050919050565b6000602082019050818103600083015261314381613107565b9050919050565b600081519050919050565b6000601f19601f8301169050919050565b60006131718261314a565b61317b81856128e9565b935061318b81856020860161306c565b61319481613155565b840191505092915050565b600060208201905081810360008301526131b98184613166565b90509291505056fea26469706673582212205c02d267caacaf9e5c7bde0c64aa54ce0980d456181e68af8dad10755c94527f64736f6c63430008170033",
  "linkReferences": {},
  "deployedLinkReferences": {}
}