{
  "_format": "hh-sol-artifact-1",
  "contractName": "PerpSwap",
  "sourceName": "contracts/PerpetualTrading.sol",
  "abi": [
    {
      "inputs": [
        {
          "internalType": "address",
          "name": "_liquidityPool",
          "type": "address"
        },
        {
          "internalType": "address",
          "name": "_orderBook",
          "type": "address"
        },
        {
          "internalType": "address",
          "name": "_tokenA",
          "type": "address"
        },
        {
          "internalType": "address",
          "name": "_tokenB",
          "type": "address"
        },
        {
          "internalType": "address",
          "name": "_rewardToken",
          "type": "address"
        },
        {
          "internalType": "uint256",
          "name": "_rewardPerSecond",
          "type": "uint256"
        }
      ],
      "stateMutability": "nonpayable",
      "type": "constructor"
    },
    {
      "inputs": [],
      "name": "MarginTrading__InsufficientAmountForClosePosition",
      "type": "error"
    },
    {
      "anonymous": false,
      "inputs": [],
      "name": "LongClosed",
      "type": "event"
    },
    {
      "anonymous": false,
      "inputs": [],
      "name": "LongOpened",
      "type": "event"
    },
    {
      "anonymous": false,
      "inputs": [
        {
          "indexed": true,
          "internalType": "address",
          "name": "previousOwner",
          "type": "address"
        },
        {
          "indexed": true,
          "internalType": "address",
          "name": "newOwner",
          "type": "address"
        }
      ],
      "name": "OwnershipTransferred",
      "type": "event"
    },
    {
      "anonymous": false,
      "inputs": [
        {
          "indexed": true,
          "internalType": "address",
          "name": "trader",
          "type": "address"
        },
        {
          "indexed": false,
          "internalType": "uint256",
          "name": "reward",
          "type": "uint256"
        }
      ],
      "name": "RewardPaid",
      "type": "event"
    },
    {
      "anonymous": false,
      "inputs": [],
      "name": "ShortClosed",
      "type": "event"
    },
    {
      "anonymous": false,
      "inputs": [],
      "name": "ShortOpened",
      "type": "event"
    },
    {
      "inputs": [
        {
          "internalType": "address",
          "name": "trader",
          "type": "address"
        }
      ],
      "name": "calculateReward",
      "outputs": [
        {
          "internalType": "uint256",
          "name": "",
          "type": "uint256"
        }
      ],
      "stateMutability": "view",
      "type": "function"
    },
    {
      "inputs": [],
      "name": "closeLong",
      "outputs": [],
      "stateMutability": "nonpayable",
      "type": "function"
    },
    {
      "inputs": [],
      "name": "closeShort",
      "outputs": [],
      "stateMutability": "nonpayable",
      "type": "function"
    },
    {
      "inputs": [],
      "name": "longBalanceB",
      "outputs": [
        {
          "internalType": "uint256",
          "name": "",
          "type": "uint256"
        }
      ],
      "stateMutability": "view",
      "type": "function"
    },
    {
      "inputs": [],
      "name": "longDebtA",
      "outputs": [
        {
          "internalType": "uint256",
          "name": "",
          "type": "uint256"
        }
      ],
      "stateMutability": "view",
      "type": "function"
    },
    {
      "inputs": [
        {
          "internalType": "uint256",
          "name": "amountBToBuy",
          "type": "uint256"
        },
        {
          "internalType": "uint256",
          "name": "leverage",
          "type": "uint256"
        }
      ],
      "name": "openLong",
      "outputs": [],
      "stateMutability": "nonpayable",
      "type": "function"
    },
    {
      "inputs": [
        {
          "internalType": "uint256",
          "name": "amountAToSell",
          "type": "uint256"
        },
        {
          "internalType": "uint256",
          "name": "leverage",
          "type": "uint256"
        }
      ],
      "name": "openShort",
      "outputs": [],
      "stateMutability": "nonpayable",
      "type": "function"
    },
    {
      "inputs": [],
      "name": "owner",
      "outputs": [
        {
          "internalType": "address",
          "name": "",
          "type": "address"
        }
      ],
      "stateMutability": "view",
      "type": "function"
    },
    {
      "inputs": [
        {
          "internalType": "address",
          "name": "trader",
          "type": "address"
        }
      ],
      "name": "payReward",
      "outputs": [],
      "stateMutability": "nonpayable",
      "type": "function"
    },
    {
      "inputs": [],
      "name": "renounceOwnership",
      "outputs": [],
      "stateMutability": "nonpayable",
      "type": "function"
    },
    {
      "inputs": [
        {
          "internalType": "uint256",
          "name": "rewardAmount",
          "type": "uint256"
        }
      ],
      "name": "setRewardPerSecond",
      "outputs": [
        {
          "internalType": "uint256",
          "name": "",
          "type": "uint256"
        }
      ],
      "stateMutability": "nonpayable",
      "type": "function"
    },
    {
      "inputs": [],
      "name": "shortBalanceB",
      "outputs": [
        {
          "internalType": "uint256",
          "name": "",
          "type": "uint256"
        }
      ],
      "stateMutability": "view",
      "type": "function"
    },
    {
      "inputs": [],
      "name": "shortDebtA",
      "outputs": [
        {
          "internalType": "uint256",
          "name": "",
          "type": "uint256"
        }
      ],
      "stateMutability": "view",
      "type": "function"
    },
    {
      "inputs": [
        {
          "internalType": "address",
          "name": "newOwner",
          "type": "address"
        }
      ],
      "name": "transferOwnership",
      "outputs": [],
      "stateMutability": "nonpayable",
      "type": "function"
    },
    {
      "inputs": [
        {
          "internalType": "uint256",
          "name": "newVolume",
          "type": "uint256"
        }
      ],
      "name": "updateCumulativeMarketVolume",
      "outputs": [
        {
          "internalType": "uint256",
          "name": "",
          "type": "uint256"
        }
      ],
      "stateMutability": "nonpayable",
      "type": "function"
    },
    {
      "inputs": [
        {
          "internalType": "address",
          "name": "trader",
          "type": "address"
        },
        {
          "internalType": "uint256",
          "name": "amount",
          "type": "uint256"
        }
      ],
      "name": "updateTradingVolume",
      "outputs": [],
      "stateMutability": "nonpayable",
      "type": "function"
    }
  ],
  "bytecode": "0x60806040523480156200001157600080fd5b506040516200328238038062003282833981810160405281019062000037919062000403565b620000576200004b6200028f60201b60201c565b6200029760201b60201c565b6200007367b5b99381c67d68c060c01b6200035b60201b60201c565b6200008f67c1c6afa2d9763ed160c01b6200035b60201b60201c565b85600160006101000a81548173ffffffffffffffffffffffffffffffffffffffff021916908373ffffffffffffffffffffffffffffffffffffffff160217905550620000ec6799a8549c8f06afe160c01b6200035b60201b60201c565b84600260006101000a81548173ffffffffffffffffffffffffffffffffffffffff021916908373ffffffffffffffffffffffffffffffffffffffff160217905550620001496787640cdc217e6b8960c01b6200035b60201b60201c565b83600360006101000a81548173ffffffffffffffffffffffffffffffffffffffff021916908373ffffffffffffffffffffffffffffffffffffffff160217905550620001a6678c5f8d54fc5802b860c01b6200035b60201b60201c565b82600460006101000a81548173ffffffffffffffffffffffffffffffffffffffff021916908373ffffffffffffffffffffffffffffffffffffffff1602179055506200020367c2567131b1b13e3e60c01b6200035b60201b60201c565b81600560006101000a81548173ffffffffffffffffffffffffffffffffffffffff021916908373ffffffffffffffffffffffffffffffffffffffff1602179055506200026067d6d4fea58247f8f160c01b6200035b60201b60201c565b6200027c671ef408b5637639c860c01b6200035b60201b60201c565b426007819055505050505050506200049f565b600033905090565b60008060009054906101000a900473ffffffffffffffffffffffffffffffffffffffff169050816000806101000a81548173ffffffffffffffffffffffffffffffffffffffff021916908373ffffffffffffffffffffffffffffffffffffffff1602179055508173ffffffffffffffffffffffffffffffffffffffff168173ffffffffffffffffffffffffffffffffffffffff167f8be0079c531659141344cd1fd0a4f28419497f9722a3daafe3b4186f6b6457e060405160405180910390a35050565b50565b600080fd5b600073ffffffffffffffffffffffffffffffffffffffff82169050919050565b6000620003908262000363565b9050919050565b620003a28162000383565b8114620003ae57600080fd5b50565b600081519050620003c28162000397565b92915050565b6000819050919050565b620003dd81620003c8565b8114620003e957600080fd5b50565b600081519050620003fd81620003d2565b92915050565b60008060008060008060c087890312156200042357620004226200035e565b5b60006200043389828a01620003b1565b96505060206200044689828a01620003b1565b95505060406200045989828a01620003b1565b94505060606200046c89828a01620003b1565b93505060806200047f89828a01620003b1565b92505060a06200049289828a01620003ec565b9150509295509295509295565b612dd380620004af6000396000f3fe608060405234801561001057600080fd5b50600436106101005760003560e01c80638da5cb5b11610097578063d82e396211610066578063d82e39621461024f578063f2fde38b1461027f578063f8432a1b1461029b578063fdda45dc146102a557610100565b80638da5cb5b146101dd5780638e9b277d146101fb57806393d75db514610217578063c181d4181461023357610100565b80633ef32e0d116100d35780633ef32e0d1461016757806366da581514610185578063715018a6146101b557806384ea96f5146101bf57610100565b8063032d4038146101055780631266a6191461012357806324f825261461013f5780633cb3dafa14610149575b600080fd5b61010d6102d5565b60405161011a9190612461565b60405180910390f35b61013d600480360381019061013891906124ad565b6102db565b005b61014761068f565b005b610151610b3b565b60405161015e9190612461565b60405180910390f35b61016f610b41565b60405161017c9190612461565b60405180910390f35b61019f600480360381019061019a91906124ed565b610b47565b6040516101ac9190612461565b60405180910390f35b6101bd610bda565b005b6101c7610bee565b6040516101d49190612461565b60405180910390f35b6101e5610bf4565b6040516101f2919061255b565b60405180910390f35b610215600480360381019061021091906125a2565b610c1d565b005b610231600480360381019061022c91906125cf565b611090565b005b61024d600480360381019061024891906124ad565b61110a565b005b610269600480360381019061026491906125a2565b6115d8565b6040516102769190612461565b60405180910390f35b610299600480360381019061029491906125a2565b6117dc565b005b6102a361185f565b005b6102bf60048036038101906102ba91906124ed565b611d0b565b6040516102cc9190612461565b60405180910390f35b600a5481565b6102ef67a2839240ebd6f86460c01b611d9c565b61030367bce17d24cad6dba060c01b611d9c565b610317677d42f96d4ebbaddd60c01b611d9c565b600160009054906101000a900473ffffffffffffffffffffffffffffffffffffffff1673ffffffffffffffffffffffffffffffffffffffff1663c5ebeaec8284610361919061263e565b6040518263ffffffff1660e01b815260040161037d9190612461565b600060405180830381600087803b15801561039757600080fd5b505af11580156103ab573d6000803e3d6000fd5b505050506103c367f060867d5721363860c01b611d9c565b80826103cf919061263e565b600b60008282546103e09190612680565b925050819055506103fb67fe1378fcb4315c3560c01b611d9c565b61040f6710b5f0c5d387837a60c01b611d9c565b600360009054906101000a900473ffffffffffffffffffffffffffffffffffffffff1673ffffffffffffffffffffffffffffffffffffffff1663095ea7b3600260009054906101000a900473ffffffffffffffffffffffffffffffffffffffff16838561047c919061263e565b6040518363ffffffff1660e01b81526004016104999291906126b4565b6020604051808303816000875af11580156104b8573d6000803e3d6000fd5b505050506040513d601f19601f820116820180604052508101906104dc9190612715565b506104f1677606c3124b8ed31560c01b611d9c565b600260009054906101000a900473ffffffffffffffffffffffffffffffffffffffff1673ffffffffffffffffffffffffffffffffffffffff1663cae270b6600360009054906101000a900473ffffffffffffffffffffffffffffffffffffffff16600460009054906101000a900473ffffffffffffffffffffffffffffffffffffffff168486610581919061263e565b6040518463ffffffff1660e01b815260040161059f93929190612742565b6020604051808303816000875af11580156105be573d6000803e3d6000fd5b505050506040513d601f19601f820116820180604052508101906105e2919061278e565b600c60008282546105f39190612680565b9250508190555061060e673373481a93cdf14b60c01b611d9c565b61062267b7c058c63839079b60c01b611d9c565b610637338284610632919061263e565b611d9f565b61064b6746d760546e1dd82360c01b611d9c565b61065f67c4d96c65e7a1830660c01b611d9c565b7fdb84cacd536875e0714dd79e0fe743de5a2871a8eb65115b5aa657e6cfbe7a5160405160405180910390a15050565b6106a367585b54f7380c033160c01b611d9c565b6106b767017da16e3bc44efb60c01b611d9c565b6106cb6760b88c1d9ef5288f60c01b611d9c565b600460009054906101000a900473ffffffffffffffffffffffffffffffffffffffff1673ffffffffffffffffffffffffffffffffffffffff1663095ea7b3600260009054906101000a900473ffffffffffffffffffffffffffffffffffffffff16600a546040518363ffffffff1660e01b815260040161074c9291906126b4565b6020604051808303816000875af115801561076b573d6000803e3d6000fd5b505050506040513d601f19601f8201168201806040525081019061078f9190612715565b506107a467fbf7acda3abcf6bc60c01b611d9c565b6107b86719f17cd758cda76660c01b611d9c565b600360009054906101000a900473ffffffffffffffffffffffffffffffffffffffff1673ffffffffffffffffffffffffffffffffffffffff1663095ea7b3600160009054906101000a900473ffffffffffffffffffffffffffffffffffffffff166009546040518363ffffffff1660e01b81526004016108399291906126b4565b6020604051808303816000875af1158015610858573d6000803e3d6000fd5b505050506040513d601f19601f8201168201806040525081019061087c9190612715565b5061089167ecab23a53940719c60c01b611d9c565b6108a5678dd8badf8c956a5960c01b611d9c565b600160009054906101000a900473ffffffffffffffffffffffffffffffffffffffff1673ffffffffffffffffffffffffffffffffffffffff1663371fd8e66009546040518263ffffffff1660e01b81526004016109029190612461565b600060405180830381600087803b15801561091c57600080fd5b505af1158015610930573d6000803e3d6000fd5b5050505061094867dba69d89e213790060c01b611d9c565b600060098190555061096467422735c40f78d42160c01b611d9c565b6000600a81905550610980673e36ec266249f5c160c01b611d9c565b610994673e249ab83665788160c01b611d9c565b6109a033600a54611d9f565b6109b46790eecb914f508e5860c01b611d9c565b6109c86788b19cf6fe7875b260c01b611d9c565b6000600360009054906101000a900473ffffffffffffffffffffffffffffffffffffffff1673ffffffffffffffffffffffffffffffffffffffff166370a08231306040518263ffffffff1660e01b8152600401610a25919061255b565b602060405180830381865afa158015610a42573d6000803e3d6000fd5b505050506040513d601f19601f82011682018060405250810190610a66919061278e565b9050610a7c67c48ad4da5f8da2d560c01b611d9c565b610a9067f01d5cfe7639efd560c01b611d9c565b610ae4610a9b610bf4565b82600360009054906101000a900473ffffffffffffffffffffffffffffffffffffffff1673ffffffffffffffffffffffffffffffffffffffff16611fe39092919063ffffffff16565b610af8671d3bee0b15d2ebdf60c01b611d9c565b610b0c679c435e0550fc4e8e60c01b611d9c565b7f7c1712b00e9ec43558b7ba14e1d6f1985ff761eadb82bb59a3cfe263bd86144d60405160405180910390a150565b600c5481565b60095481565b6000610b5d672fd469e2a85ecae060c01b611d9c565b610b65612069565b610b79679771949d2c0ba47060c01b611d9c565b610b8d671367ab12944e0af560c01b611d9c565b610ba167f6b3767f262d4e3560c01b611d9c565b81600881905550610bbc67936ee98b322a671360c01b611d9c565b610bd0670c5f1fb62c9f30e760c01b611d9c565b6008549050919050565b610be2612069565b610bec60006120e7565b565b600b5481565b60008060009054906101000a900473ffffffffffffffffffffffffffffffffffffffff16905090565b610c316715a32e48602cdf9360c01b611d9c565b610c456746d498d182b667e060c01b611d9c565b610c59679171dfae170ef3c260c01b611d9c565b610c6d67e63ca31eba7e34e160c01b611d9c565b62278d00600754610c7e9190612680565b421015610cc0576040517f08c379a0000000000000000000000000000000000000000000000000000000008152600401610cb790612818565b60405180910390fd5b610cd4672a5d85f4282a824760c01b611d9c565b610ce867f2f591c6be0ca9c360c01b611d9c565b610cfc676f2efda3f0776bc560c01b611d9c565b6000610d07826115d8565b9050610d1d6707d2ad71577dc44c60c01b611d9c565b610d3167ac163b2b5944b87960c01b611d9c565b610d4567666a644c79bc54fc60c01b611d9c565b60008111610d88576040517f08c379a0000000000000000000000000000000000000000000000000000000008152600401610d7f90612884565b60405180910390fd5b610d9c6709c775877fc8ae0b60c01b611d9c565b610db06775c6efe109fe86f060c01b611d9c565b610dc4678b2dcb8926b6c0ee60c01b611d9c565b6000600d60008473ffffffffffffffffffffffffffffffffffffffff1673ffffffffffffffffffffffffffffffffffffffff168152602001908152602001600020549050610e1c672e2b0405823e2e1e60c01b611d9c565b610e30679020c0d040b72f1360c01b611d9c565b610e4467e10604ffb18845d560c01b611d9c565b60008111610e87576040517f08c379a0000000000000000000000000000000000000000000000000000000008152600401610e7e906128f0565b60405180910390fd5b610e9b672338349fe7fd361660c01b611d9c565b610eaf67addf5bc85ed1910060c01b611d9c565b6000600d60008573ffffffffffffffffffffffffffffffffffffffff1673ffffffffffffffffffffffffffffffffffffffff16815260200190815260200160002081905550610f08675074a49917ec2c5260c01b611d9c565b610f1c6705c963152afa656e60c01b611d9c565b610f24610bf4565b73ffffffffffffffffffffffffffffffffffffffff168373ffffffffffffffffffffffffffffffffffffffff1603610f8b57610f6a678ce66d5a80de1b8260c01b611d9c565b610f7e67a2cc36b68d1a5a2360c01b611d9c565b6000600681905550610fa0565b610f9f67c6e6a6319612c32b60c01b611d9c565b5b610fb467373169e7807a9bd260c01b611d9c565b610fc8677b871ed722437a9c60c01b611d9c565b6110158383600560009054906101000a900473ffffffffffffffffffffffffffffffffffffffff1673ffffffffffffffffffffffffffffffffffffffff16611fe39092919063ffffffff16565b611029671e2a61a9e80d725860c01b611d9c565b61103d6738fce0cdc44e233d60c01b611d9c565b8273ffffffffffffffffffffffffffffffffffffffff167fe2403640ba68fed3a2f88b7557551d1993f84b99bb10ff833f0cf8db0c5e0486836040516110839190612461565b60405180910390a2505050565b6110a4677efe385ecaaddc4860c01b611d9c565b6110ac612069565b6110c06778c73cb2881e237060c01b611d9c565b6110d467eaf43ebc7db66ce860c01b611d9c565b6110e867f3760033d059b97360c01b611d9c565b6110fc6704564043f29ca6da60c01b611d9c565b6111068282611d9f565b5050565b61111e67b073f6bd7f22302460c01b611d9c565b611132674fd352fd6685e00060c01b611d9c565b611146675bac91872bafb99b60c01b611d9c565b6000600260009054906101000a900473ffffffffffffffffffffffffffffffffffffffff1673ffffffffffffffffffffffffffffffffffffffff1663ce77ba62600360009054906101000a900473ffffffffffffffffffffffffffffffffffffffff16600460009054906101000a900473ffffffffffffffffffffffffffffffffffffffff1685876111d8919061263e565b6040518463ffffffff1660e01b81526004016111f693929190612742565b602060405180830381865afa158015611213573d6000803e3d6000fd5b505050506040513d601f19601f82011682018060405250810190611237919061278e565b905061124d67897e6b3db801e62660c01b611d9c565b61126167a657310b853d20d060c01b611d9c565b600160009054906101000a900473ffffffffffffffffffffffffffffffffffffffff1673ffffffffffffffffffffffffffffffffffffffff1663c5ebeaec826040518263ffffffff1660e01b81526004016112bc9190612461565b600060405180830381600087803b1580156112d657600080fd5b505af11580156112ea573d6000803e3d6000fd5b5050505061130267cdeacf3445d39e1d60c01b611d9c565b80600960008282546113149190612680565b9250508190555061132f674caea4846a0ecc8360c01b611d9c565b82600a60008282546113419190612680565b9250508190555061135c679e2cc0c406884a1f60c01b611d9c565b61137067473968c184f1f4be60c01b611d9c565b611385338385611380919061263e565b611d9f565b61139967bf9a94fd777600ff60c01b611d9c565b6113ad670ec4b5e8c3915d4060c01b611d9c565b600360009054906101000a900473ffffffffffffffffffffffffffffffffffffffff1673ffffffffffffffffffffffffffffffffffffffff1663095ea7b3600260009054906101000a900473ffffffffffffffffffffffffffffffffffffffff16836040518363ffffffff1660e01b815260040161142c9291906126b4565b6020604051808303816000875af115801561144b573d6000803e3d6000fd5b505050506040513d601f19601f8201168201806040525081019061146f9190612715565b506114846786ec0e303c546b4260c01b611d9c565b61149867d812285338549a5560c01b611d9c565b600260009054906101000a900473ffffffffffffffffffffffffffffffffffffffff1673ffffffffffffffffffffffffffffffffffffffff1663153e66e6600360009054906101000a900473ffffffffffffffffffffffffffffffffffffffff16600460009054906101000a900473ffffffffffffffffffffffffffffffffffffffff16866040518463ffffffff1660e01b815260040161153b93929190612742565b6020604051808303816000875af115801561155a573d6000803e3d6000fd5b505050506040513d601f19601f8201168201806040525081019061157e919061278e565b50611593675f0437f23080f1d460c01b611d9c565b6115a76754060393f40ba7d760c01b611d9c565b7f81a5c85f807906a0759335611ceb64ea789ed0196ccf836d98c9573a56582b7f60405160405180910390a1505050565b60006115ee67b5a72dd45e02d60b60c01b611d9c565b611602679ff7ca53ab8e3f0360c01b611d9c565b611616670ab185d3b2ddbeae60c01b611d9c565b61162a6787001f0ef290497060c01b611d9c565b60006006541161166f576040517f08c379a00000000000000000000000000000000000000000000000000000000081526004016116669061295c565b60405180910390fd5b61168367f6adc8560aba079760c01b611d9c565b6116976709f37d26688db32960c01b611d9c565b6116ab679b570b658a9136b360c01b611d9c565b6000600754426116bb919061297c565b90506116d167f0432c7dafaf1c7960c01b611d9c565b6116e56706468062fef57b4160c01b611d9c565b6000816008546116f5919061263e565b905061170b67ca2a3ce2a435ce1860c01b611d9c565b61171f67fa1a0619de372d7860c01b611d9c565b6000600d60008673ffffffffffffffffffffffffffffffffffffffff1673ffffffffffffffffffffffffffffffffffffffff168152602001908152602001600020549050611777673b206b67c25c27c160c01b611d9c565b61178b67efb7617d637023a260c01b611d9c565b60006006548261179b91906129df565b90506117b167105a4322b68cc61a60c01b611d9c565b6117c567036e176015ea58ac60c01b611d9c565b82816117d1919061263e565b945050505050919050565b6117e4612069565b600073ffffffffffffffffffffffffffffffffffffffff168173ffffffffffffffffffffffffffffffffffffffff1603611853576040517f08c379a000000000000000000000000000000000000000000000000000000000815260040161184a90612a82565b60405180910390fd5b61185c816120e7565b50565b611873670d36211fb6573a2760c01b611d9c565b61188767faa5475fa2a3f3b760c01b611d9c565b61189b67a6c8b51eb4da0be960c01b611d9c565b600460009054906101000a900473ffffffffffffffffffffffffffffffffffffffff1673ffffffffffffffffffffffffffffffffffffffff1663095ea7b3600260009054906101000a900473ffffffffffffffffffffffffffffffffffffffff16600c546040518363ffffffff1660e01b815260040161191c9291906126b4565b6020604051808303816000875af115801561193b573d6000803e3d6000fd5b505050506040513d601f19601f8201168201806040525081019061195f9190612715565b5061197467a6aa3f4df0a2a05660c01b611d9c565b6119886753cb7725aa023ffd60c01b611d9c565b600360009054906101000a900473ffffffffffffffffffffffffffffffffffffffff1673ffffffffffffffffffffffffffffffffffffffff1663095ea7b3600160009054906101000a900473ffffffffffffffffffffffffffffffffffffffff16600b546040518363ffffffff1660e01b8152600401611a099291906126b4565b6020604051808303816000875af1158015611a28573d6000803e3d6000fd5b505050506040513d601f19601f82011682018060405250810190611a4c9190612715565b50611a616771c031a678991dc260c01b611d9c565b611a7567975fd721e11a7eb860c01b611d9c565b600160009054906101000a900473ffffffffffffffffffffffffffffffffffffffff1673ffffffffffffffffffffffffffffffffffffffff1663371fd8e6600b546040518263ffffffff1660e01b8152600401611ad29190612461565b600060405180830381600087803b158015611aec57600080fd5b505af1158015611b00573d6000803e3d6000fd5b50505050611b1867b8db5590f88d9a0e60c01b611d9c565b6000600b81905550611b3467f3cba40e81713a3d60c01b611d9c565b6000600c81905550611b5067e265a42db33ee16e60c01b611d9c565b611b64674b27b218d61d0cc660c01b611d9c565b611b7033600c54611d9f565b611b8467b86a2ada6e5d456360c01b611d9c565b611b9867356eebd291ca58ca60c01b611d9c565b6000600460009054906101000a900473ffffffffffffffffffffffffffffffffffffffff1673ffffffffffffffffffffffffffffffffffffffff166370a08231306040518263ffffffff1660e01b8152600401611bf5919061255b565b602060405180830381865afa158015611c12573d6000803e3d6000fd5b505050506040513d601f19601f82011682018060405250810190611c36919061278e565b9050611c4c672ceece4adaf210f160c01b611d9c565b611c6067d317beec29b2188260c01b611d9c565b611cb4611c6b610bf4565b82600460009054906101000a900473ffffffffffffffffffffffffffffffffffffffff1673ffffffffffffffffffffffffffffffffffffffff16611fe39092919063ffffffff16565b611cc8673d957b96d30cb3a160c01b611d9c565b611cdc675682ffb5b0bc733660c01b611d9c565b7f1eacc206eaa257738210016c4b580948367fd2c683058d13fe748a663f8933d060405160405180910390a150565b6000611d2167c75bdc00e9c9fc3e60c01b611d9c565b611d29612069565b611d3d6704f27516628d418460c01b611d9c565b611d516751913a4e0345685560c01b611d9c565b611d65674ae8d476160fe0c660c01b611d9c565b81600681905550611d8067fd612efb727a785960c01b611d9c565b611d9467afc61c78e225505d60c01b611d9c565b819050919050565b50565b611db367894c6eb1015462b060c01b611d9c565b611dc76714aa1a81984884b760c01b611d9c565b80600d60008473ffffffffffffffffffffffffffffffffffffffff1673ffffffffffffffffffffffffffffffffffffffff1681526020019081526020016000206000828254611e169190612680565b92505081905550611e31670a06aefc56f36e3e60c01b611d9c565b8060066000828254611e439190612680565b92505081905550611e5e672600f4a176dd015060c01b611d9c565b611e726723badb61cc115d6c60c01b611d9c565b62278d00600754611e839190612680565b421115611f3357611e9e676309faa636cc16e660c01b611d9c565b611eb2674968e43691b6c95760c01b611d9c565b42600781905550611ecd67e1dd4fe6dd5aae3c60c01b611d9c565b6000600d60008473ffffffffffffffffffffffffffffffffffffffff1673ffffffffffffffffffffffffffffffffffffffff16815260200190815260200160002081905550611f26678105cb1ba4cfe31360c01b611d9c565b6000600681905550611fdf565b611f47677eb2bdf330f07d5b60c01b611d9c565b611f5b67f2cc659182f6abfa60c01b611d9c565b80600d60008473ffffffffffffffffffffffffffffffffffffffff1673ffffffffffffffffffffffffffffffffffffffff1681526020019081526020016000206000828254611faa9190612680565b92505081905550611fc567d605f88bb1ce2d7e60c01b611d9c565b8060066000828254611fd79190612680565b925050819055505b5050565b6120648363a9059cbb60e01b84846040516024016120029291906126b4565b604051602081830303815290604052907bffffffffffffffffffffffffffffffffffffffffffffffffffffffff19166020820180517bffffffffffffffffffffffffffffffffffffffffffffffffffffffff83818316178352505050506121ab565b505050565b612071612273565b73ffffffffffffffffffffffffffffffffffffffff1661208f610bf4565b73ffffffffffffffffffffffffffffffffffffffff16146120e5576040517f08c379a00000000000000000000000000000000000000000000000000000000081526004016120dc90612aee565b60405180910390fd5b565b60008060009054906101000a900473ffffffffffffffffffffffffffffffffffffffff169050816000806101000a81548173ffffffffffffffffffffffffffffffffffffffff021916908373ffffffffffffffffffffffffffffffffffffffff1602179055508173ffffffffffffffffffffffffffffffffffffffff168173ffffffffffffffffffffffffffffffffffffffff167f8be0079c531659141344cd1fd0a4f28419497f9722a3daafe3b4186f6b6457e060405160405180910390a35050565b600061220d826040518060400160405280602081526020017f5361666545524332303a206c6f772d6c6576656c2063616c6c206661696c65648152508573ffffffffffffffffffffffffffffffffffffffff1661227b9092919063ffffffff16565b905060008151148061222f57508080602001905181019061222e9190612715565b5b61226e576040517f08c379a000000000000000000000000000000000000000000000000000000000815260040161226590612b80565b60405180910390fd5b505050565b600033905090565b606061228a8484600085612293565b90509392505050565b6060824710156122d8576040517f08c379a00000000000000000000000000000000000000000000000000000000081526004016122cf90612c12565b60405180910390fd5b6000808673ffffffffffffffffffffffffffffffffffffffff1685876040516123019190612ca3565b60006040518083038185875af1925050503d806000811461233e576040519150601f19603f3d011682016040523d82523d6000602084013e612343565b606091505b509150915061235487838387612360565b92505050949350505050565b606083156123c25760008351036123ba5761237a856123d5565b6123b9576040517f08c379a00000000000000000000000000000000000000000000000000000000081526004016123b090612d06565b60405180910390fd5b5b8290506123cd565b6123cc83836123f8565b5b949350505050565b6000808273ffffffffffffffffffffffffffffffffffffffff163b119050919050565b60008251111561240b5781518083602001fd5b806040517f08c379a000000000000000000000000000000000000000000000000000000000815260040161243f9190612d7b565b60405180910390fd5b6000819050919050565b61245b81612448565b82525050565b60006020820190506124766000830184612452565b92915050565b600080fd5b61248a81612448565b811461249557600080fd5b50565b6000813590506124a781612481565b92915050565b600080604083850312156124c4576124c361247c565b5b60006124d285828601612498565b92505060206124e385828601612498565b9150509250929050565b6000602082840312156125035761250261247c565b5b600061251184828501612498565b91505092915050565b600073ffffffffffffffffffffffffffffffffffffffff82169050919050565b60006125458261251a565b9050919050565b6125558161253a565b82525050565b6000602082019050612570600083018461254c565b92915050565b61257f8161253a565b811461258a57600080fd5b50565b60008135905061259c81612576565b92915050565b6000602082840312156125b8576125b761247c565b5b60006125c68482850161258d565b91505092915050565b600080604083850312156125e6576125e561247c565b5b60006125f48582860161258d565b925050602061260585828601612498565b9150509250929050565b7f4e487b7100000000000000000000000000000000000000000000000000000000600052601160045260246000fd5b600061264982612448565b915061265483612448565b925082820261266281612448565b915082820484148315176126795761267861260f565b5b5092915050565b600061268b82612448565b915061269683612448565b92508282019050808211156126ae576126ad61260f565b5b92915050565b60006040820190506126c9600083018561254c565b6126d66020830184612452565b9392505050565b60008115159050919050565b6126f2816126dd565b81146126fd57600080fd5b50565b60008151905061270f816126e9565b92915050565b60006020828403121561272b5761272a61247c565b5b600061273984828501612700565b91505092915050565b6000606082019050612757600083018661254c565b612764602083018561254c565b6127716040830184612452565b949350505050565b60008151905061278881612481565b92915050565b6000602082840312156127a4576127a361247c565b5b60006127b284828501612779565b91505092915050565b600082825260208201905092915050565b7f52657761726420706572696f6420686173206e6f7420656e6465642079657400600082015250565b6000612802601f836127bb565b915061280d826127cc565b602082019050919050565b60006020820190508181036000830152612831816127f5565b9050919050565b7f4e6f2072657761726420666f72207468697320706572696f6400000000000000600082015250565b600061286e6019836127bb565b915061287982612838565b602082019050919050565b6000602082019050818103600083015261289d81612861565b9050919050565b7f54726164696e6720766f6c756d65206e6f742079657400000000000000000000600082015250565b60006128da6016836127bb565b91506128e5826128a4565b602082019050919050565b60006020820190508181036000830152612909816128cd565b9050919050565b7f4d61726b657420766f6c756d65206973207a65726f0000000000000000000000600082015250565b60006129466015836127bb565b915061295182612910565b602082019050919050565b6000602082019050818103600083015261297581612939565b9050919050565b600061298782612448565b915061299283612448565b92508282039050818111156129aa576129a961260f565b5b92915050565b7f4e487b7100000000000000000000000000000000000000000000000000000000600052601260045260246000fd5b60006129ea82612448565b91506129f583612448565b925082612a0557612a046129b0565b5b828204905092915050565b7f4f776e61626c653a206e6577206f776e657220697320746865207a65726f206160008201527f6464726573730000000000000000000000000000000000000000000000000000602082015250565b6000612a6c6026836127bb565b9150612a7782612a10565b604082019050919050565b60006020820190508181036000830152612a9b81612a5f565b9050919050565b7f4f776e61626c653a2063616c6c6572206973206e6f7420746865206f776e6572600082015250565b6000612ad86020836127bb565b9150612ae382612aa2565b602082019050919050565b60006020820190508181036000830152612b0781612acb565b9050919050565b7f5361666545524332303a204552433230206f7065726174696f6e20646964206e60008201527f6f74207375636365656400000000000000000000000000000000000000000000602082015250565b6000612b6a602a836127bb565b9150612b7582612b0e565b604082019050919050565b60006020820190508181036000830152612b9981612b5d565b9050919050565b7f416464726573733a20696e73756666696369656e742062616c616e636520666f60008201527f722063616c6c0000000000000000000000000000000000000000000000000000602082015250565b6000612bfc6026836127bb565b9150612c0782612ba0565b604082019050919050565b60006020820190508181036000830152612c2b81612bef565b9050919050565b600081519050919050565b600081905092915050565b60005b83811015612c66578082015181840152602081019050612c4b565b60008484015250505050565b6000612c7d82612c32565b612c878185612c3d565b9350612c97818560208601612c48565b80840191505092915050565b6000612caf8284612c72565b915081905092915050565b7f416464726573733a2063616c6c20746f206e6f6e2d636f6e7472616374000000600082015250565b6000612cf0601d836127bb565b9150612cfb82612cba565b602082019050919050565b60006020820190508181036000830152612d1f81612ce3565b9050919050565b600081519050919050565b6000601f19601f8301169050919050565b6000612d4d82612d26565b612d5781856127bb565b9350612d67818560208601612c48565b612d7081612d31565b840191505092915050565b60006020820190508181036000830152612d958184612d42565b90509291505056fea264697066735822122074846f2ddb81a76ad16eaf4d15a846d6591d2a12df487d145149254d8b432fc564736f6c63430008170033",
  "linkReferences": {},
  "deployedLinkReferences": {}
}