{
  "_format": "hh-sol-artifact-1",
  "contractName": "LiquidityPool",
  "sourceName": "contracts/LiquidityPool.sol",
  "abi": [
    {
      "inputs": [
        {
          "internalType": "address",
          "name": "_token",
          "type": "address"
        }
      ],
      "stateMutability": "nonpayable",
      "type": "constructor"
    },
    {
      "inputs": [
        {
          "internalType": "address",
          "name": "caller",
          "type": "address"
        }
      ],
      "name": "LiquidityPool_CallerIsNotBorrower",
      "type": "error"
    },
    {
      "inputs": [
        {
          "internalType": "address",
          "name": "caller",
          "type": "address"
        }
      ],
      "name": "LiquidityPool_CallerIsNotLiquidityProvider",
      "type": "error"
    },
    {
      "inputs": [],
      "name": "LiquidityPool_InsufficientLiquidity",
      "type": "error"
    },
    {
      "anonymous": false,
      "inputs": [
        {
          "indexed": false,
          "internalType": "address",
          "name": "borrower",
          "type": "address"
        },
        {
          "indexed": false,
          "internalType": "uint256",
          "name": "amount",
          "type": "uint256"
        }
      ],
      "name": "Borrowed",
      "type": "event"
    },
    {
      "anonymous": false,
      "inputs": [
        {
          "indexed": false,
          "internalType": "address",
          "name": "liquidityProvider",
          "type": "address"
        },
        {
          "indexed": false,
          "internalType": "uint256",
          "name": "amount",
          "type": "uint256"
        }
      ],
      "name": "LiquidityAdded",
      "type": "event"
    },
    {
      "anonymous": false,
      "inputs": [
        {
          "indexed": false,
          "internalType": "address",
          "name": "liquidityProvider",
          "type": "address"
        },
        {
          "indexed": false,
          "internalType": "uint256",
          "name": "amount",
          "type": "uint256"
        }
      ],
      "name": "LiquidityWithdrawn",
      "type": "event"
    },
    {
      "anonymous": false,
      "inputs": [
        {
          "indexed": false,
          "internalType": "address",
          "name": "borrower",
          "type": "address"
        },
        {
          "indexed": false,
          "internalType": "uint256",
          "name": "amount",
          "type": "uint256"
        }
      ],
      "name": "Repaid",
      "type": "event"
    },
    {
      "inputs": [
        {
          "internalType": "uint256",
          "name": "amount",
          "type": "uint256"
        }
      ],
      "name": "borrow",
      "outputs": [],
      "stateMutability": "nonpayable",
      "type": "function"
    },
    {
      "inputs": [
        {
          "internalType": "uint256",
          "name": "amount",
          "type": "uint256"
        }
      ],
      "name": "deposit",
      "outputs": [],
      "stateMutability": "nonpayable",
      "type": "function"
    },
    {
      "inputs": [
        {
          "internalType": "address",
          "name": "borrower",
          "type": "address"
        }
      ],
      "name": "getBorrowerBalance",
      "outputs": [
        {
          "internalType": "uint256",
          "name": "",
          "type": "uint256"
        }
      ],
      "stateMutability": "view",
      "type": "function"
    },
    {
      "inputs": [
        {
          "internalType": "address",
          "name": "borrower",
          "type": "address"
        }
      ],
      "name": "getDebt",
      "outputs": [
        {
          "internalType": "uint256",
          "name": "",
          "type": "uint256"
        }
      ],
      "stateMutability": "view",
      "type": "function"
    },
    {
      "inputs": [
        {
          "internalType": "address",
          "name": "liquidityProvider",
          "type": "address"
        }
      ],
      "name": "getLiquidityProviderBalance",
      "outputs": [
        {
          "internalType": "uint256",
          "name": "",
          "type": "uint256"
        }
      ],
      "stateMutability": "view",
      "type": "function"
    },
    {
      "inputs": [
        {
          "internalType": "uint256",
          "name": "amount",
          "type": "uint256"
        }
      ],
      "name": "repay",
      "outputs": [],
      "stateMutability": "nonpayable",
      "type": "function"
    },
    {
      "inputs": [],
      "name": "token",
      "outputs": [
        {
          "internalType": "contract IERC20",
          "name": "",
          "type": "address"
        }
      ],
      "stateMutability": "view",
      "type": "function"
    },
    {
      "inputs": [],
      "name": "totalDebt",
      "outputs": [
        {
          "internalType": "uint256",
          "name": "",
          "type": "uint256"
        }
      ],
      "stateMutability": "view",
      "type": "function"
    },
    {
      "inputs": [
        {
          "internalType": "uint256",
          "name": "amount",
          "type": "uint256"
        }
      ],
      "name": "withdraw",
      "outputs": [],
      "stateMutability": "nonpayable",
      "type": "function"
    }
  ],
  "bytecode": "0x60806040523480156200001157600080fd5b50604051620018f9380380620018f9833981810160405281019062000037919062000123565b62000053677f04c0ae645e29ba60c01b620000b660201b60201c565b6200006f674daf67ae7d51fa6660c01b620000b660201b60201c565b806000806101000a81548173ffffffffffffffffffffffffffffffffffffffff021916908373ffffffffffffffffffffffffffffffffffffffff1602179055505062000155565b50565b600080fd5b600073ffffffffffffffffffffffffffffffffffffffff82169050919050565b6000620000eb82620000be565b9050919050565b620000fd81620000de565b81146200010957600080fd5b50565b6000815190506200011d81620000f2565b92915050565b6000602082840312156200013c576200013b620000b9565b5b60006200014c848285016200010c565b91505092915050565b61179480620001656000396000f3fe608060405234801561001057600080fd5b50600436106100935760003560e01c8063aac5116411610066578063aac5116414610130578063b6b55f2514610160578063c5ebeaec1461017c578063fc0c546a14610198578063fc7b9c18146101b657610093565b80632e1a7d4d14610098578063371fd8e6146100b45780637e15b0b2146100d05780639a78e72e14610100575b600080fd5b6100b260048036038101906100ad919061119a565b6101d4565b005b6100ce60048036038101906100c9919061119a565b610556565b005b6100ea60048036038101906100e59190611225565b610814565b6040516100f79190611261565b60405180910390f35b61011a60048036038101906101159190611225565b610899565b6040516101279190611261565b60405180910390f35b61014a60048036038101906101459190611225565b61091e565b6040516101579190611261565b60405180910390f35b61017a6004803603810190610175919061119a565b6109a3565b005b6101966004803603810190610191919061119a565b610ae7565b005b6101a0610d8e565b6040516101ad91906112db565b60405180910390f35b6101be610db2565b6040516101cb9190611261565b60405180910390f35b6101e8678a98e95c51de81f660c01b610db8565b336101fd67599586357a6e264160c01b610db8565b61021167a200a2cd6e86ae4760c01b610db8565b6102256772fa08169132eadc60c01b610db8565b6000600260008373ffffffffffffffffffffffffffffffffffffffff1673ffffffffffffffffffffffffffffffffffffffff16815260200190815260200160002054036102d1576102806708e2f7338367b9bb60c01b610db8565b61029467970ce4a4e92733ad60c01b610db8565b806040517fc39893f50000000000000000000000000000000000000000000000000000000081526004016102c89190611305565b60405180910390fd5b6102e567c7b29aa1821193d760c01b610db8565b6102f9670e56c4ff205c7c3860c01b610db8565b61030d67a0659838b7846e0f60c01b610db8565b6103216722cd01afb9d8044260c01b610db8565b61033567af2bcede1a4e91af60c01b610db8565b6103496761192cb3eb77faaf60c01b610db8565b600260003373ffffffffffffffffffffffffffffffffffffffff1673ffffffffffffffffffffffffffffffffffffffff168152602001908152602001600020548211156103ff576103a467915203742bf452b360c01b610db8565b6103b867117ec504dbac75b460c01b610db8565b600260003373ffffffffffffffffffffffffffffffffffffffff1673ffffffffffffffffffffffffffffffffffffffff168152602001908152602001600020549150610414565b61041367c9ec72ed007fa69260c01b610db8565b5b61042867cdfaf1c65744420960c01b610db8565b61043c6782d4b7540cb5404e60c01b610db8565b610487338360008054906101000a900473ffffffffffffffffffffffffffffffffffffffff1673ffffffffffffffffffffffffffffffffffffffff16610dbb9092919063ffffffff16565b61049b6713be5069dc09a7cd60c01b610db8565b81600260003373ffffffffffffffffffffffffffffffffffffffff1673ffffffffffffffffffffffffffffffffffffffff16815260200190815260200160002060008282546104ea919061134f565b9250508190555061050567b58505ad65c7420f60c01b610db8565b61051967bb032cd4fd8647e660c01b610db8565b7fb1cce8684b4ffa8667b4577654e61ee3480d661ee9c27522ac80e211f6bd4d25338360405161054a929190611383565b60405180910390a15050565b61056a679c3b91cc75ad418460c01b610db8565b3361057f67bacfd5b304d7aa1760c01b610db8565b610593670751e7c8d9b672b060c01b610db8565b6105a767d4a9e05c4c3b86ec60c01b610db8565b6000600360008373ffffffffffffffffffffffffffffffffffffffff1673ffffffffffffffffffffffffffffffffffffffff1681526020019081526020016000205403610653576106026762919daf929472e160c01b610db8565b61061667b60ce61d37d77c3f60c01b610db8565b806040517fdd05179200000000000000000000000000000000000000000000000000000000815260040161064a9190611305565b60405180910390fd5b6106676766bea3a2905697ef60c01b610db8565b61067b67401d2377b5a7b71360c01b610db8565b61068f672e82846e758b4f6360c01b610db8565b6106a3676af321a0717574cc60c01b610db8565b6106b7672e7e33d498c9489d60c01b610db8565b6106cb6704f291f62945657060c01b610db8565b61071833308460008054906101000a900473ffffffffffffffffffffffffffffffffffffffff1673ffffffffffffffffffffffffffffffffffffffff16610e41909392919063ffffffff16565b61072c6792b88a81f2ac5d7b60c01b610db8565b816001600082825461073e919061134f565b92505081905550610759671cfe9db1d78702bb60c01b610db8565b81600360003373ffffffffffffffffffffffffffffffffffffffff1673ffffffffffffffffffffffffffffffffffffffff16815260200190815260200160002060008282546107a8919061134f565b925050819055506107c367939db78719a6704f60c01b610db8565b6107d767e6f62f1c855c084860c01b610db8565b7f0516911bcc3a0a7412a44601057c0a0a1ec628bde049a84284bc4288665344883383604051610808929190611383565b60405180910390a15050565b600061082a67f9678bac8a0a1a5d60c01b610db8565b61083e67f0aec65357dd013d60c01b610db8565b610852676cde6f377689f26f60c01b610db8565b600360008373ffffffffffffffffffffffffffffffffffffffff1673ffffffffffffffffffffffffffffffffffffffff168152602001908152602001600020549050919050565b60006108af67bbc6a6947183bdcc60c01b610db8565b6108c367cd7920724c500d4860c01b610db8565b6108d767a9071b73971b7cc560c01b610db8565b600360008373ffffffffffffffffffffffffffffffffffffffff1673ffffffffffffffffffffffffffffffffffffffff168152602001908152602001600020549050919050565b600061093467d02a517cc561c7b460c01b610db8565b6109486778c9af50d42ed0bf60c01b610db8565b61095c67617f48fcd83fad2e60c01b610db8565b600260008373ffffffffffffffffffffffffffffffffffffffff1673ffffffffffffffffffffffffffffffffffffffff168152602001908152602001600020549050919050565b6109b7673b58ac39a1dcfeae60c01b610db8565b6109cb67395a5918fd48ff4e60c01b610db8565b80600260003373ffffffffffffffffffffffffffffffffffffffff1673ffffffffffffffffffffffffffffffffffffffff16815260200190815260200160002081905550610a23679e3322215389d94c60c01b610db8565b610a3767d528145044d8f0c160c01b610db8565b610a8433308360008054906101000a900473ffffffffffffffffffffffffffffffffffffffff1673ffffffffffffffffffffffffffffffffffffffff16610e41909392919063ffffffff16565b610a9867cf62f1408fa3177f60c01b610db8565b610aab66b0046e92fc370c60c01b610db8565b7fc17cea59c2955cb181b03393209566960365771dbba9dc3d510180e7cb3120883382604051610adc929190611383565b60405180910390a150565b610afb67dd014c1410da9c5e60c01b610db8565b610b0f67632cbb5ede83e59760c01b610db8565b610b2367849f4d8c7474490060c01b610db8565b60008054906101000a900473ffffffffffffffffffffffffffffffffffffffff1673ffffffffffffffffffffffffffffffffffffffff166370a08231306040518263ffffffff1660e01b8152600401610b7c9190611305565b602060405180830381865afa158015610b99573d6000803e3d6000fd5b505050506040513d601f19601f82011682018060405250810190610bbd91906113c1565b811115610c1e57610bd8671e3e266d7c088a5060c01b610db8565b610bec676fb40fdf2627385560c01b610db8565b6040517fc447ed9c00000000000000000000000000000000000000000000000000000000815260040160405180910390fd5b610c3267e61904bb1de4dc1760c01b610db8565b610c46670d5dbf59af2e633860c01b610db8565b610c5a672c266747dff6e45e60c01b610db8565b610ca5338260008054906101000a900473ffffffffffffffffffffffffffffffffffffffff1673ffffffffffffffffffffffffffffffffffffffff16610dbb9092919063ffffffff16565b610cb96786ef7cc8a77b1c2f60c01b610db8565b8060016000828254610ccb91906113ee565b92505081905550610ce6679154ce38bbd7ef2e60c01b610db8565b80600360003373ffffffffffffffffffffffffffffffffffffffff1673ffffffffffffffffffffffffffffffffffffffff16815260200190815260200160002081905550610d3e674c6329c6fadb484060c01b610db8565b610d52675b1eddab3a8e06c960c01b610db8565b7fac59582e5396aca512fa873a2047e7f4c80f8f55d4a06cb34a78a0187f62719f3382604051610d83929190611383565b60405180910390a150565b60008054906101000a900473ffffffffffffffffffffffffffffffffffffffff1681565b60015481565b50565b610e3c8363a9059cbb60e01b8484604051602401610dda929190611383565b604051602081830303815290604052907bffffffffffffffffffffffffffffffffffffffffffffffffffffffff19166020820180517bffffffffffffffffffffffffffffffffffffffffffffffffffffffff8381831617835250505050610eca565b505050565b610ec4846323b872dd60e01b858585604051602401610e6293929190611422565b604051602081830303815290604052907bffffffffffffffffffffffffffffffffffffffffffffffffffffffff19166020820180517bffffffffffffffffffffffffffffffffffffffffffffffffffffffff8381831617835250505050610eca565b50505050565b6000610f2c826040518060400160405280602081526020017f5361666545524332303a206c6f772d6c6576656c2063616c6c206661696c65648152508573ffffffffffffffffffffffffffffffffffffffff16610f929092919063ffffffff16565b9050600081511480610f4e575080806020019051810190610f4d9190611491565b5b610f8d576040517f08c379a0000000000000000000000000000000000000000000000000000000008152600401610f8490611541565b60405180910390fd5b505050565b6060610fa18484600085610faa565b90509392505050565b606082471015610fef576040517f08c379a0000000000000000000000000000000000000000000000000000000008152600401610fe6906115d3565b60405180910390fd5b6000808673ffffffffffffffffffffffffffffffffffffffff1685876040516110189190611664565b60006040518083038185875af1925050503d8060008114611055576040519150601f19603f3d011682016040523d82523d6000602084013e61105a565b606091505b509150915061106b87838387611077565b92505050949350505050565b606083156110d95760008351036110d157611091856110ec565b6110d0576040517f08c379a00000000000000000000000000000000000000000000000000000000081526004016110c7906116c7565b60405180910390fd5b5b8290506110e4565b6110e3838361110f565b5b949350505050565b6000808273ffffffffffffffffffffffffffffffffffffffff163b119050919050565b6000825111156111225781518083602001fd5b806040517f08c379a0000000000000000000000000000000000000000000000000000000008152600401611156919061173c565b60405180910390fd5b600080fd5b6000819050919050565b61117781611164565b811461118257600080fd5b50565b6000813590506111948161116e565b92915050565b6000602082840312156111b0576111af61115f565b5b60006111be84828501611185565b91505092915050565b600073ffffffffffffffffffffffffffffffffffffffff82169050919050565b60006111f2826111c7565b9050919050565b611202816111e7565b811461120d57600080fd5b50565b60008135905061121f816111f9565b92915050565b60006020828403121561123b5761123a61115f565b5b600061124984828501611210565b91505092915050565b61125b81611164565b82525050565b60006020820190506112766000830184611252565b92915050565b6000819050919050565b60006112a161129c611297846111c7565b61127c565b6111c7565b9050919050565b60006112b382611286565b9050919050565b60006112c5826112a8565b9050919050565b6112d5816112ba565b82525050565b60006020820190506112f060008301846112cc565b92915050565b6112ff816111e7565b82525050565b600060208201905061131a60008301846112f6565b92915050565b7f4e487b7100000000000000000000000000000000000000000000000000000000600052601160045260246000fd5b600061135a82611164565b915061136583611164565b925082820390508181111561137d5761137c611320565b5b92915050565b600060408201905061139860008301856112f6565b6113a56020830184611252565b9392505050565b6000815190506113bb8161116e565b92915050565b6000602082840312156113d7576113d661115f565b5b60006113e5848285016113ac565b91505092915050565b60006113f982611164565b915061140483611164565b925082820190508082111561141c5761141b611320565b5b92915050565b600060608201905061143760008301866112f6565b61144460208301856112f6565b6114516040830184611252565b949350505050565b60008115159050919050565b61146e81611459565b811461147957600080fd5b50565b60008151905061148b81611465565b92915050565b6000602082840312156114a7576114a661115f565b5b60006114b58482850161147c565b91505092915050565b600082825260208201905092915050565b7f5361666545524332303a204552433230206f7065726174696f6e20646964206e60008201527f6f74207375636365656400000000000000000000000000000000000000000000602082015250565b600061152b602a836114be565b9150611536826114cf565b604082019050919050565b6000602082019050818103600083015261155a8161151e565b9050919050565b7f416464726573733a20696e73756666696369656e742062616c616e636520666f60008201527f722063616c6c0000000000000000000000000000000000000000000000000000602082015250565b60006115bd6026836114be565b91506115c882611561565b604082019050919050565b600060208201905081810360008301526115ec816115b0565b9050919050565b600081519050919050565b600081905092915050565b60005b8381101561162757808201518184015260208101905061160c565b60008484015250505050565b600061163e826115f3565b61164881856115fe565b9350611658818560208601611609565b80840191505092915050565b60006116708284611633565b915081905092915050565b7f416464726573733a2063616c6c20746f206e6f6e2d636f6e7472616374000000600082015250565b60006116b1601d836114be565b91506116bc8261167b565b602082019050919050565b600060208201905081810360008301526116e0816116a4565b9050919050565b600081519050919050565b6000601f19601f8301169050919050565b600061170e826116e7565b61171881856114be565b9350611728818560208601611609565b611731816116f2565b840191505092915050565b600060208201905081810360008301526117568184611703565b90509291505056fea26469706673582212200f23e1ddce21da96ad2c4aaa44fbb8b9749f3e03bdbfb09b0410d99e2687e42764736f6c63430008170033",
  "linkReferences": {},
  "deployedLinkReferences": {}
}