{
  "_format": "hh-sol-artifact-1",
  "contractName": "LiquidityPool",
  "sourceName": "contracts/LiquidityPool.sol",
  "abi": [
    {
      "inputs": [
        {
          "internalType": "address",
          "name": "_token",
          "type": "address"
        }
      ],
      "stateMutability": "nonpayable",
      "type": "constructor"
    },
    {
      "inputs": [
        {
          "internalType": "address",
          "name": "caller",
          "type": "address"
        }
      ],
      "name": "LiquidityPool_CallerIsNotBorrower",
      "type": "error"
    },
    {
      "inputs": [
        {
          "internalType": "address",
          "name": "caller",
          "type": "address"
        }
      ],
      "name": "LiquidityPool_CallerIsNotLiquidityProvider",
      "type": "error"
    },
    {
      "inputs": [],
      "name": "LiquidityPool_InsufficientLiquidity",
      "type": "error"
    },
    {
      "anonymous": false,
      "inputs": [
        {
          "indexed": false,
          "internalType": "address",
          "name": "borrower",
          "type": "address"
        },
        {
          "indexed": false,
          "internalType": "uint256",
          "name": "amount",
          "type": "uint256"
        }
      ],
      "name": "Borrowed",
      "type": "event"
    },
    {
      "anonymous": false,
      "inputs": [
        {
          "indexed": false,
          "internalType": "address",
          "name": "liquidityProvider",
          "type": "address"
        },
        {
          "indexed": false,
          "internalType": "uint256",
          "name": "amount",
          "type": "uint256"
        }
      ],
      "name": "LiquidityAdded",
      "type": "event"
    },
    {
      "anonymous": false,
      "inputs": [
        {
          "indexed": false,
          "internalType": "address",
          "name": "liquidityProvider",
          "type": "address"
        },
        {
          "indexed": false,
          "internalType": "uint256",
          "name": "amount",
          "type": "uint256"
        }
      ],
      "name": "LiquidityWithdrawn",
      "type": "event"
    },
    {
      "anonymous": false,
      "inputs": [
        {
          "indexed": false,
          "internalType": "address",
          "name": "borrower",
          "type": "address"
        },
        {
          "indexed": false,
          "internalType": "uint256",
          "name": "amount",
          "type": "uint256"
        }
      ],
      "name": "Repaid",
      "type": "event"
    },
    {
      "inputs": [
        {
          "internalType": "uint256",
          "name": "amount",
          "type": "uint256"
        }
      ],
      "name": "borrow",
      "outputs": [],
      "stateMutability": "nonpayable",
      "type": "function"
    },
    {
      "inputs": [
        {
          "internalType": "uint256",
          "name": "amount",
          "type": "uint256"
        }
      ],
      "name": "deposit",
      "outputs": [],
      "stateMutability": "nonpayable",
      "type": "function"
    },
    {
      "inputs": [
        {
          "internalType": "address",
          "name": "borrower",
          "type": "address"
        }
      ],
      "name": "getBorrowerBalance",
      "outputs": [
        {
          "internalType": "uint256",
          "name": "",
          "type": "uint256"
        }
      ],
      "stateMutability": "view",
      "type": "function"
    },
    {
      "inputs": [
        {
          "internalType": "address",
          "name": "borrower",
          "type": "address"
        }
      ],
      "name": "getDebt",
      "outputs": [
        {
          "internalType": "uint256",
          "name": "",
          "type": "uint256"
        }
      ],
      "stateMutability": "view",
      "type": "function"
    },
    {
      "inputs": [
        {
          "internalType": "address",
          "name": "liquidityProvider",
          "type": "address"
        }
      ],
      "name": "getLiquidityProviderBalance",
      "outputs": [
        {
          "internalType": "uint256",
          "name": "",
          "type": "uint256"
        }
      ],
      "stateMutability": "view",
      "type": "function"
    },
    {
      "inputs": [
        {
          "internalType": "uint256",
          "name": "amount",
          "type": "uint256"
        }
      ],
      "name": "repay",
      "outputs": [],
      "stateMutability": "nonpayable",
      "type": "function"
    },
    {
      "inputs": [],
      "name": "token",
      "outputs": [
        {
          "internalType": "contract IERC20",
          "name": "",
          "type": "address"
        }
      ],
      "stateMutability": "view",
      "type": "function"
    },
    {
      "inputs": [],
      "name": "totalDebt",
      "outputs": [
        {
          "internalType": "uint256",
          "name": "",
          "type": "uint256"
        }
      ],
      "stateMutability": "view",
      "type": "function"
    },
    {
      "inputs": [
        {
          "internalType": "uint256",
          "name": "amount",
          "type": "uint256"
        }
      ],
      "name": "withdraw",
      "outputs": [],
      "stateMutability": "nonpayable",
      "type": "function"
    }
  ],
  "bytecode": "0x60806040523480156200001157600080fd5b50604051620018fa380380620018fa833981810160405281019062000037919062000123565b620000536792ed73cae3bdb94f60c01b620000b660201b60201c565b6200006f67133b92a1f3d5916e60c01b620000b660201b60201c565b806000806101000a81548173ffffffffffffffffffffffffffffffffffffffff021916908373ffffffffffffffffffffffffffffffffffffffff1602179055505062000155565b50565b600080fd5b600073ffffffffffffffffffffffffffffffffffffffff82169050919050565b6000620000eb82620000be565b9050919050565b620000fd81620000de565b81146200010957600080fd5b50565b6000815190506200011d81620000f2565b92915050565b6000602082840312156200013c576200013b620000b9565b5b60006200014c848285016200010c565b91505092915050565b61179580620001656000396000f3fe608060405234801561001057600080fd5b50600436106100935760003560e01c8063aac5116411610066578063aac5116414610130578063b6b55f2514610160578063c5ebeaec1461017c578063fc0c546a14610198578063fc7b9c18146101b657610093565b80632e1a7d4d14610098578063371fd8e6146100b45780637e15b0b2146100d05780639a78e72e14610100575b600080fd5b6100b260048036038101906100ad919061119b565b6101d4565b005b6100ce60048036038101906100c9919061119b565b610556565b005b6100ea60048036038101906100e59190611226565b610814565b6040516100f79190611262565b60405180910390f35b61011a60048036038101906101159190611226565b610899565b6040516101279190611262565b60405180910390f35b61014a60048036038101906101459190611226565b61091e565b6040516101579190611262565b60405180910390f35b61017a6004803603810190610175919061119b565b6109a3565b005b6101966004803603810190610191919061119b565b610ae8565b005b6101a0610d8f565b6040516101ad91906112dc565b60405180910390f35b6101be610db3565b6040516101cb9190611262565b60405180910390f35b6101e8677dcdc802df479de460c01b610db9565b336101fd6703c237b4ae98499360c01b610db9565b61021167beb16f0ee04d38a060c01b610db9565b61022567fd339e0114da843360c01b610db9565b6000600260008373ffffffffffffffffffffffffffffffffffffffff1673ffffffffffffffffffffffffffffffffffffffff16815260200190815260200160002054036102d157610280673be560de6f6f7b4560c01b610db9565b61029467a496699269dfe2dc60c01b610db9565b806040517fc39893f50000000000000000000000000000000000000000000000000000000081526004016102c89190611306565b60405180910390fd5b6102e567b123abbe9aa8ba9a60c01b610db9565b6102f96766929a113aaff7d160c01b610db9565b61030d67ecf16df3297546c860c01b610db9565b6103216785ac717d8aa3ee0460c01b610db9565b61033567429f38697d153c8660c01b610db9565b61034967460cac6be6e6e78d60c01b610db9565b600260003373ffffffffffffffffffffffffffffffffffffffff1673ffffffffffffffffffffffffffffffffffffffff168152602001908152602001600020548211156103ff576103a467cab7b10221340de460c01b610db9565b6103b867e58e372bbbc5fa5f60c01b610db9565b600260003373ffffffffffffffffffffffffffffffffffffffff1673ffffffffffffffffffffffffffffffffffffffff168152602001908152602001600020549150610414565b61041367ec437d8661a25d7e60c01b610db9565b5b61042867296f8f2e3b6e9e7b60c01b610db9565b61043c6778e5b3beae34859b60c01b610db9565b610487338360008054906101000a900473ffffffffffffffffffffffffffffffffffffffff1673ffffffffffffffffffffffffffffffffffffffff16610dbc9092919063ffffffff16565b61049b67fedc9526f8b2df9560c01b610db9565b81600260003373ffffffffffffffffffffffffffffffffffffffff1673ffffffffffffffffffffffffffffffffffffffff16815260200190815260200160002060008282546104ea9190611350565b9250508190555061050567b08e869d3f5ed92860c01b610db9565b61051967365539a71c07467060c01b610db9565b7fb1cce8684b4ffa8667b4577654e61ee3480d661ee9c27522ac80e211f6bd4d25338360405161054a929190611384565b60405180910390a15050565b61056a67f7f84fb38b34550460c01b610db9565b3361057f677a67c72c4f69c59960c01b610db9565b610593673664efc5003fef4c60c01b610db9565b6105a767670549916579a6fa60c01b610db9565b6000600360008373ffffffffffffffffffffffffffffffffffffffff1673ffffffffffffffffffffffffffffffffffffffff1681526020019081526020016000205403610653576106026755b4f74c5c0a7eac60c01b610db9565b61061667b5c7c37df23cf1a860c01b610db9565b806040517fdd05179200000000000000000000000000000000000000000000000000000000815260040161064a9190611306565b60405180910390fd5b61066767ddaeea3c80db49d160c01b610db9565b61067b67a628e332048c3c3660c01b610db9565b61068f67026f0d9abd0b7c1260c01b610db9565b6106a3671819b8e579ea7fc160c01b610db9565b6106b767f7407f3fb028cf6260c01b610db9565b6106cb67ce589402572a1a6b60c01b610db9565b61071833308460008054906101000a900473ffffffffffffffffffffffffffffffffffffffff1673ffffffffffffffffffffffffffffffffffffffff16610e42909392919063ffffffff16565b61072c67fb644f3eff71637f60c01b610db9565b816001600082825461073e9190611350565b9250508190555061075967aaf52dd8340e2c7c60c01b610db9565b81600360003373ffffffffffffffffffffffffffffffffffffffff1673ffffffffffffffffffffffffffffffffffffffff16815260200190815260200160002060008282546107a89190611350565b925050819055506107c367aca92eda7c12240e60c01b610db9565b6107d767aef11dcb0a3210d960c01b610db9565b7f0516911bcc3a0a7412a44601057c0a0a1ec628bde049a84284bc4288665344883383604051610808929190611384565b60405180910390a15050565b600061082a678d6b011ce4e1b7a660c01b610db9565b61083e67e2bad2bd2315481d60c01b610db9565b6108526726737b0da239ea1360c01b610db9565b600360008373ffffffffffffffffffffffffffffffffffffffff1673ffffffffffffffffffffffffffffffffffffffff168152602001908152602001600020549050919050565b60006108af67c06dd25b0d1a719760c01b610db9565b6108c367d81a46ead08958b960c01b610db9565b6108d7673f7d1f066ccc803e60c01b610db9565b600360008373ffffffffffffffffffffffffffffffffffffffff1673ffffffffffffffffffffffffffffffffffffffff168152602001908152602001600020549050919050565b6000610934675edb0a00f5c215ed60c01b610db9565b61094867696f51e4b0c618c660c01b610db9565b61095c67ab979bec39cf1cf260c01b610db9565b600260008373ffffffffffffffffffffffffffffffffffffffff1673ffffffffffffffffffffffffffffffffffffffff168152602001908152602001600020549050919050565b6109b7679fda6ece01cc3c0c60c01b610db9565b6109cb676e86c159c05133e660c01b610db9565b80600260003373ffffffffffffffffffffffffffffffffffffffff1673ffffffffffffffffffffffffffffffffffffffff16815260200190815260200160002081905550610a2367bcef1c902d1384b660c01b610db9565b610a37674f9902756f7b96b860c01b610db9565b610a8433308360008054906101000a900473ffffffffffffffffffffffffffffffffffffffff1673ffffffffffffffffffffffffffffffffffffffff16610e42909392919063ffffffff16565b610a9867ff1761746f035cc960c01b610db9565b610aac6794f2edfdb02534da60c01b610db9565b7fc17cea59c2955cb181b03393209566960365771dbba9dc3d510180e7cb3120883382604051610add929190611384565b60405180910390a150565b610afc671e988e5029d77f0f60c01b610db9565b610b1067ab44d642ffd41f9860c01b610db9565b610b2467ca6761f0d731f04b60c01b610db9565b60008054906101000a900473ffffffffffffffffffffffffffffffffffffffff1673ffffffffffffffffffffffffffffffffffffffff166370a08231306040518263ffffffff1660e01b8152600401610b7d9190611306565b602060405180830381865afa158015610b9a573d6000803e3d6000fd5b505050506040513d601f19601f82011682018060405250810190610bbe91906113c2565b811115610c1f57610bd967b38438d274b47fca60c01b610db9565b610bed6749f7815cdcfaa39c60c01b610db9565b6040517fc447ed9c00000000000000000000000000000000000000000000000000000000815260040160405180910390fd5b610c33675d07b070d360aded60c01b610db9565b610c47673079f4a2c817774860c01b610db9565b610c5b67226650b0bc294bb860c01b610db9565b610ca6338260008054906101000a900473ffffffffffffffffffffffffffffffffffffffff1673ffffffffffffffffffffffffffffffffffffffff16610dbc9092919063ffffffff16565b610cba6755be6fe5e905c64460c01b610db9565b8060016000828254610ccc91906113ef565b92505081905550610ce767ce4a8e121619a0d960c01b610db9565b80600360003373ffffffffffffffffffffffffffffffffffffffff1673ffffffffffffffffffffffffffffffffffffffff16815260200190815260200160002081905550610d3f6776eb1d2f69457c7f60c01b610db9565b610d536748be1d6f2ff5c04f60c01b610db9565b7fac59582e5396aca512fa873a2047e7f4c80f8f55d4a06cb34a78a0187f62719f3382604051610d84929190611384565b60405180910390a150565b60008054906101000a900473ffffffffffffffffffffffffffffffffffffffff1681565b60015481565b50565b610e3d8363a9059cbb60e01b8484604051602401610ddb929190611384565b604051602081830303815290604052907bffffffffffffffffffffffffffffffffffffffffffffffffffffffff19166020820180517bffffffffffffffffffffffffffffffffffffffffffffffffffffffff8381831617835250505050610ecb565b505050565b610ec5846323b872dd60e01b858585604051602401610e6393929190611423565b604051602081830303815290604052907bffffffffffffffffffffffffffffffffffffffffffffffffffffffff19166020820180517bffffffffffffffffffffffffffffffffffffffffffffffffffffffff8381831617835250505050610ecb565b50505050565b6000610f2d826040518060400160405280602081526020017f5361666545524332303a206c6f772d6c6576656c2063616c6c206661696c65648152508573ffffffffffffffffffffffffffffffffffffffff16610f939092919063ffffffff16565b9050600081511480610f4f575080806020019051810190610f4e9190611492565b5b610f8e576040517f08c379a0000000000000000000000000000000000000000000000000000000008152600401610f8590611542565b60405180910390fd5b505050565b6060610fa28484600085610fab565b90509392505050565b606082471015610ff0576040517f08c379a0000000000000000000000000000000000000000000000000000000008152600401610fe7906115d4565b60405180910390fd5b6000808673ffffffffffffffffffffffffffffffffffffffff1685876040516110199190611665565b60006040518083038185875af1925050503d8060008114611056576040519150601f19603f3d011682016040523d82523d6000602084013e61105b565b606091505b509150915061106c87838387611078565b92505050949350505050565b606083156110da5760008351036110d257611092856110ed565b6110d1576040517f08c379a00000000000000000000000000000000000000000000000000000000081526004016110c8906116c8565b60405180910390fd5b5b8290506110e5565b6110e48383611110565b5b949350505050565b6000808273ffffffffffffffffffffffffffffffffffffffff163b119050919050565b6000825111156111235781518083602001fd5b806040517f08c379a0000000000000000000000000000000000000000000000000000000008152600401611157919061173d565b60405180910390fd5b600080fd5b6000819050919050565b61117881611165565b811461118357600080fd5b50565b6000813590506111958161116f565b92915050565b6000602082840312156111b1576111b0611160565b5b60006111bf84828501611186565b91505092915050565b600073ffffffffffffffffffffffffffffffffffffffff82169050919050565b60006111f3826111c8565b9050919050565b611203816111e8565b811461120e57600080fd5b50565b600081359050611220816111fa565b92915050565b60006020828403121561123c5761123b611160565b5b600061124a84828501611211565b91505092915050565b61125c81611165565b82525050565b60006020820190506112776000830184611253565b92915050565b6000819050919050565b60006112a261129d611298846111c8565b61127d565b6111c8565b9050919050565b60006112b482611287565b9050919050565b60006112c6826112a9565b9050919050565b6112d6816112bb565b82525050565b60006020820190506112f160008301846112cd565b92915050565b611300816111e8565b82525050565b600060208201905061131b60008301846112f7565b92915050565b7f4e487b7100000000000000000000000000000000000000000000000000000000600052601160045260246000fd5b600061135b82611165565b915061136683611165565b925082820390508181111561137e5761137d611321565b5b92915050565b600060408201905061139960008301856112f7565b6113a66020830184611253565b9392505050565b6000815190506113bc8161116f565b92915050565b6000602082840312156113d8576113d7611160565b5b60006113e6848285016113ad565b91505092915050565b60006113fa82611165565b915061140583611165565b925082820190508082111561141d5761141c611321565b5b92915050565b600060608201905061143860008301866112f7565b61144560208301856112f7565b6114526040830184611253565b949350505050565b60008115159050919050565b61146f8161145a565b811461147a57600080fd5b50565b60008151905061148c81611466565b92915050565b6000602082840312156114a8576114a7611160565b5b60006114b68482850161147d565b91505092915050565b600082825260208201905092915050565b7f5361666545524332303a204552433230206f7065726174696f6e20646964206e60008201527f6f74207375636365656400000000000000000000000000000000000000000000602082015250565b600061152c602a836114bf565b9150611537826114d0565b604082019050919050565b6000602082019050818103600083015261155b8161151f565b9050919050565b7f416464726573733a20696e73756666696369656e742062616c616e636520666f60008201527f722063616c6c0000000000000000000000000000000000000000000000000000602082015250565b60006115be6026836114bf565b91506115c982611562565b604082019050919050565b600060208201905081810360008301526115ed816115b1565b9050919050565b600081519050919050565b600081905092915050565b60005b8381101561162857808201518184015260208101905061160d565b60008484015250505050565b600061163f826115f4565b61164981856115ff565b935061165981856020860161160a565b80840191505092915050565b60006116718284611634565b915081905092915050565b7f416464726573733a2063616c6c20746f206e6f6e2d636f6e7472616374000000600082015250565b60006116b2601d836114bf565b91506116bd8261167c565b602082019050919050565b600060208201905081810360008301526116e1816116a5565b9050919050565b600081519050919050565b6000601f19601f8301169050919050565b600061170f826116e8565b61171981856114bf565b935061172981856020860161160a565b611732816116f3565b840191505092915050565b600060208201905081810360008301526117578184611704565b90509291505056fea26469706673582212204ada322d89875af5bc7195bbf289066bb5a82b50dc692cb3091977492f0c677864736f6c63430008170033",
  "linkReferences": {},
  "deployedLinkReferences": {}
}