{
  "_format": "hh-sol-artifact-1",
  "contractName": "SimpleOrderBook",
  "sourceName": "contracts/SimpleOrderBook.sol",
  "abi": [
    {
      "inputs": [
        {
          "internalType": "address",
          "name": "sellToken",
          "type": "address"
        },
        {
          "internalType": "address",
          "name": "buyToken",
          "type": "address"
        },
        {
          "internalType": "uint256",
          "name": "buyAmount",
          "type": "uint256"
        }
      ],
      "name": "buy",
      "outputs": [
        {
          "internalType": "uint256",
          "name": "soldAmount",
          "type": "uint256"
        }
      ],
      "stateMutability": "nonpayable",
      "type": "function"
    },
    {
      "inputs": [
        {
          "internalType": "address",
          "name": "sellToken",
          "type": "address"
        },
        {
          "internalType": "address",
          "name": "buyToken",
          "type": "address"
        },
        {
          "internalType": "uint256",
          "name": "sellAmount",
          "type": "uint256"
        }
      ],
      "name": "calcAmountToBuy",
      "outputs": [
        {
          "internalType": "uint256",
          "name": "buyAmount",
          "type": "uint256"
        }
      ],
      "stateMutability": "view",
      "type": "function"
    },
    {
      "inputs": [
        {
          "internalType": "address",
          "name": "sellToken",
          "type": "address"
        },
        {
          "internalType": "address",
          "name": "buyToken",
          "type": "address"
        },
        {
          "internalType": "uint256",
          "name": "buyAmount",
          "type": "uint256"
        }
      ],
      "name": "calcAmountToSell",
      "outputs": [
        {
          "internalType": "uint256",
          "name": "sellAmount",
          "type": "uint256"
        }
      ],
      "stateMutability": "view",
      "type": "function"
    },
    {
      "inputs": [
        {
          "internalType": "address",
          "name": "sellToken",
          "type": "address"
        },
        {
          "internalType": "address",
          "name": "buyToken",
          "type": "address"
        },
        {
          "internalType": "uint256",
          "name": "sellAmount",
          "type": "uint256"
        }
      ],
      "name": "sell",
      "outputs": [
        {
          "internalType": "uint256",
          "name": "boughtAmount",
          "type": "uint256"
        }
      ],
      "stateMutability": "nonpayable",
      "type": "function"
    }
  ],
  "bytecode": "0x608060405234801561001057600080fd5b50611276806100206000396000f3fe608060405234801561001057600080fd5b506004361061004c5760003560e01c8063153e66e6146100515780637951f3ef14610081578063cae270b6146100b1578063ce77ba62146100e1575b600080fd5b61006b60048036038101906100669190610bbb565b610111565b6040516100789190610c1d565b60405180910390f35b61009b60048036038101906100969190610bbb565b6101f7565b6040516100a89190610c1d565b60405180910390f35b6100cb60048036038101906100c69190610bbb565b61044c565b6040516100d89190610c1d565b60405180910390f35b6100fb60048036038101906100f69190610bbb565b610532565b6040516101089190610c1d565b60405180910390f35b60006101276724afacf1dd50273f60c01b61077b565b61013b679578ce1605f9ac5e60c01b61077b565b610146848484610532565b905061015c67938fd63021d6993f60c01b61077b565b610170676bd48a071658524f60c01b61077b565b61019d3330838773ffffffffffffffffffffffffffffffffffffffff1661077e909392919063ffffffff16565b6101b1676ad434e4cfe36d4460c01b61077b565b6101c567e45d7ab5d11350ca60c01b61077b565b6101f033838573ffffffffffffffffffffffffffffffffffffffff166108079092919063ffffffff16565b9392505050565b600061020d6776fd3cffcb4f93b960c01b61077b565b610221679b25317d3a66ef6060c01b61077b565b61023567b507c5415381ca3560c01b61077b565b60008473ffffffffffffffffffffffffffffffffffffffff166370a08231306040518263ffffffff1660e01b81526004016102709190610c47565b602060405180830381865afa15801561028d573d6000803e3d6000fd5b505050506040513d601f19601f820116820180604052508101906102b19190610c77565b90506102c767bfab263e069453fc60c01b61077b565b6102db679e0a28dd35874b7f60c01b61077b565b60008473ffffffffffffffffffffffffffffffffffffffff166370a08231306040518263ffffffff1660e01b81526004016103169190610c47565b602060405180830381865afa158015610333573d6000803e3d6000fd5b505050506040513d601f19601f820116820180604052508101906103579190610c77565b905061036d678d84897bf2263c8660c01b61077b565b61038167162c0bfd1f04491160c01b61077b565b61039567c9c0be8c26ea9ef860c01b61077b565b600084836103a39190610cd3565b116103e3576040517f08c379a00000000000000000000000000000000000000000000000000000000081526004016103da90610d64565b60405180910390fd5b6103f767163f098dfbde714c60c01b61077b565b61040b67a83a542f88c9815160c01b61077b565b61041f6714fa7a772a3a809b60c01b61077b565b838261042b9190610cd3565b84826104379190610d84565b6104419190610df5565b925050509392505050565b60006104626777d300f55d13394060c01b61077b565b6104766731ece01951f71dd360c01b61077b565b6104818484846101f7565b905061049767afa64a23fe427a4060c01b61077b565b6104ab67b4528aa84e0f509160c01b61077b565b6104d83330848773ffffffffffffffffffffffffffffffffffffffff1661077e909392919063ffffffff16565b6104ec67b09e7823a1de7bb760c01b61077b565b610500676f486ba8e0338f5560c01b61077b565b61052b33828573ffffffffffffffffffffffffffffffffffffffff166108079092919063ffffffff16565b9392505050565b600061054867225d943d04eff05060c01b61077b565b61055c67f264e9fc0743cf1e60c01b61077b565b610570672133e1e130d49f6e60c01b61077b565b60008473ffffffffffffffffffffffffffffffffffffffff166370a08231306040518263ffffffff1660e01b81526004016105ab9190610c47565b602060405180830381865afa1580156105c8573d6000803e3d6000fd5b505050506040513d601f19601f820116820180604052508101906105ec9190610c77565b9050610602678ed83fedb503955d60c01b61077b565b61061667b0d5009b76cd697a60c01b61077b565b60008473ffffffffffffffffffffffffffffffffffffffff166370a08231306040518263ffffffff1660e01b81526004016106519190610c47565b602060405180830381865afa15801561066e573d6000803e3d6000fd5b505050506040513d601f19601f820116820180604052508101906106929190610c77565b90506106a8678eae403831e4ac4d60c01b61077b565b6106bc67d7f6b98fd233ecea60c01b61077b565b6106d0679daffb9882114a0260c01b61077b565b838111610712576040517f08c379a000000000000000000000000000000000000000000000000000000000815260040161070990610e98565b60405180910390fd5b61072667a76dd448b217e29160c01b61077b565b61073a67841687409a821cde60c01b61077b565b61074e67fd09340c09a1080760c01b61077b565b838161075a9190610eb8565b84836107669190610d84565b6107709190610df5565b925050509392505050565b50565b610801846323b872dd60e01b85858560405160240161079f93929190610eec565b604051602081830303815290604052907bffffffffffffffffffffffffffffffffffffffffffffffffffffffff19166020820180517bffffffffffffffffffffffffffffffffffffffffffffffffffffffff838183161783525050505061088d565b50505050565b6108888363a9059cbb60e01b8484604051602401610826929190610f23565b604051602081830303815290604052907bffffffffffffffffffffffffffffffffffffffffffffffffffffffff19166020820180517bffffffffffffffffffffffffffffffffffffffffffffffffffffffff838183161783525050505061088d565b505050565b60006108ef826040518060400160405280602081526020017f5361666545524332303a206c6f772d6c6576656c2063616c6c206661696c65648152508573ffffffffffffffffffffffffffffffffffffffff166109559092919063ffffffff16565b90506000815114806109115750808060200190518101906109109190610f84565b5b610950576040517f08c379a000000000000000000000000000000000000000000000000000000000815260040161094790611023565b60405180910390fd5b505050565b6060610964848460008561096d565b90509392505050565b6060824710156109b2576040517f08c379a00000000000000000000000000000000000000000000000000000000081526004016109a9906110b5565b60405180910390fd5b6000808673ffffffffffffffffffffffffffffffffffffffff1685876040516109db9190611146565b60006040518083038185875af1925050503d8060008114610a18576040519150601f19603f3d011682016040523d82523d6000602084013e610a1d565b606091505b5091509150610a2e87838387610a3a565b92505050949350505050565b60608315610a9c576000835103610a9457610a5485610aaf565b610a93576040517f08c379a0000000000000000000000000000000000000000000000000000000008152600401610a8a906111a9565b60405180910390fd5b5b829050610aa7565b610aa68383610ad2565b5b949350505050565b6000808273ffffffffffffffffffffffffffffffffffffffff163b119050919050565b600082511115610ae55781518083602001fd5b806040517f08c379a0000000000000000000000000000000000000000000000000000000008152600401610b19919061121e565b60405180910390fd5b600080fd5b600073ffffffffffffffffffffffffffffffffffffffff82169050919050565b6000610b5282610b27565b9050919050565b610b6281610b47565b8114610b6d57600080fd5b50565b600081359050610b7f81610b59565b92915050565b6000819050919050565b610b9881610b85565b8114610ba357600080fd5b50565b600081359050610bb581610b8f565b92915050565b600080600060608486031215610bd457610bd3610b22565b5b6000610be286828701610b70565b9350506020610bf386828701610b70565b9250506040610c0486828701610ba6565b9150509250925092565b610c1781610b85565b82525050565b6000602082019050610c326000830184610c0e565b92915050565b610c4181610b47565b82525050565b6000602082019050610c5c6000830184610c38565b92915050565b600081519050610c7181610b8f565b92915050565b600060208284031215610c8d57610c8c610b22565b5b6000610c9b84828501610c62565b91505092915050565b7f4e487b7100000000000000000000000000000000000000000000000000000000600052601160045260246000fd5b6000610cde82610b85565b9150610ce983610b85565b9250828201905080821115610d0157610d00610ca4565b5b92915050565b600082825260208201905092915050565b7f496e76616c69642073656c6c20616d6f756e74206f7220726573657276650000600082015250565b6000610d4e601e83610d07565b9150610d5982610d18565b602082019050919050565b60006020820190508181036000830152610d7d81610d41565b9050919050565b6000610d8f82610b85565b9150610d9a83610b85565b9250828202610da881610b85565b91508282048414831517610dbf57610dbe610ca4565b5b5092915050565b7f4e487b7100000000000000000000000000000000000000000000000000000000600052601260045260246000fd5b6000610e0082610b85565b9150610e0b83610b85565b925082610e1b57610e1a610dc6565b5b828204905092915050565b7f496e73756666696369656e74207265736572766520666f722062757920616d6f60008201527f756e740000000000000000000000000000000000000000000000000000000000602082015250565b6000610e82602383610d07565b9150610e8d82610e26565b604082019050919050565b60006020820190508181036000830152610eb181610e75565b9050919050565b6000610ec382610b85565b9150610ece83610b85565b9250828203905081811115610ee657610ee5610ca4565b5b92915050565b6000606082019050610f016000830186610c38565b610f0e6020830185610c38565b610f1b6040830184610c0e565b949350505050565b6000604082019050610f386000830185610c38565b610f456020830184610c0e565b9392505050565b60008115159050919050565b610f6181610f4c565b8114610f6c57600080fd5b50565b600081519050610f7e81610f58565b92915050565b600060208284031215610f9a57610f99610b22565b5b6000610fa884828501610f6f565b91505092915050565b7f5361666545524332303a204552433230206f7065726174696f6e20646964206e60008201527f6f74207375636365656400000000000000000000000000000000000000000000602082015250565b600061100d602a83610d07565b915061101882610fb1565b604082019050919050565b6000602082019050818103600083015261103c81611000565b9050919050565b7f416464726573733a20696e73756666696369656e742062616c616e636520666f60008201527f722063616c6c0000000000000000000000000000000000000000000000000000602082015250565b600061109f602683610d07565b91506110aa82611043565b604082019050919050565b600060208201905081810360008301526110ce81611092565b9050919050565b600081519050919050565b600081905092915050565b60005b838110156111095780820151818401526020810190506110ee565b60008484015250505050565b6000611120826110d5565b61112a81856110e0565b935061113a8185602086016110eb565b80840191505092915050565b60006111528284611115565b915081905092915050565b7f416464726573733a2063616c6c20746f206e6f6e2d636f6e7472616374000000600082015250565b6000611193601d83610d07565b915061119e8261115d565b602082019050919050565b600060208201905081810360008301526111c281611186565b9050919050565b600081519050919050565b6000601f19601f8301169050919050565b60006111f0826111c9565b6111fa8185610d07565b935061120a8185602086016110eb565b611213816111d4565b840191505092915050565b6000602082019050818103600083015261123881846111e5565b90509291505056fea2646970667358221220d610109f291e96cb4248c05f46e2b131dac8c34879905e54884894dc0bbdad6e64736f6c63430008170033",
  "linkReferences": {},
  "deployedLinkReferences": {}
}